{
	"contracts/Checker.sol": {
		"Checker": {
			"abi": [
				{
					"inputs": [],
					"stateMutability": "nonpayable",
					"type": "constructor"
				},
				{
					"inputs": [],
					"name": "FundMe__NotOwner",
					"type": "error"
				},
				{
					"anonymous": false,
					"inputs": [
						{
							"indexed": false,
							"internalType": "string",
							"name": "token",
							"type": "string"
						},
						{
							"indexed": false,
							"internalType": "uint256",
							"name": "old_price",
							"type": "uint256"
						},
						{
							"indexed": false,
							"internalType": "uint256",
							"name": "new_price",
							"type": "uint256"
						}
					],
					"name": "Unstable",
					"type": "event"
				},
				{
					"inputs": [],
					"name": "MINIMUM_USD",
					"outputs": [
						{
							"internalType": "uint256",
							"name": "",
							"type": "uint256"
						}
					],
					"stateMutability": "view",
					"type": "function"
				},
				{
					"inputs": [],
					"name": "change_lot",
					"outputs": [
						{
							"internalType": "bool",
							"name": "",
							"type": "bool"
						}
					],
					"stateMutability": "nonpayable",
					"type": "function"
				},
				{
					"inputs": [],
					"name": "cheaperWithdraw",
					"outputs": [],
					"stateMutability": "nonpayable",
					"type": "function"
				},
				{
					"inputs": [],
					"name": "fund",
					"outputs": [],
					"stateMutability": "payable",
					"type": "function"
				},
				{
					"inputs": [
						{
							"internalType": "address",
							"name": "fundingAddress",
							"type": "address"
						}
					],
					"name": "getAddressToAmountFunded",
					"outputs": [
						{
							"internalType": "uint256",
							"name": "",
							"type": "uint256"
						}
					],
					"stateMutability": "view",
					"type": "function"
				},
				{
					"inputs": [],
					"name": "getBTCPrice",
					"outputs": [
						{
							"internalType": "uint256",
							"name": "",
							"type": "uint256"
						}
					],
					"stateMutability": "view",
					"type": "function"
				},
				{
					"inputs": [],
					"name": "getETHPrice",
					"outputs": [
						{
							"internalType": "uint256",
							"name": "",
							"type": "uint256"
						}
					],
					"stateMutability": "view",
					"type": "function"
				},
				{
					"inputs": [
						{
							"internalType": "uint256",
							"name": "index",
							"type": "uint256"
						}
					],
					"name": "getFunder",
					"outputs": [
						{
							"internalType": "address",
							"name": "",
							"type": "address"
						}
					],
					"stateMutability": "view",
					"type": "function"
				},
				{
					"inputs": [],
					"name": "getOwner",
					"outputs": [
						{
							"internalType": "address",
							"name": "",
							"type": "address"
						}
					],
					"stateMutability": "view",
					"type": "function"
				},
				{
					"inputs": [],
					"name": "getPriceFeed",
					"outputs": [
						{
							"internalType": "contract AggregatorV3Interface",
							"name": "",
							"type": "address"
						}
					],
					"stateMutability": "view",
					"type": "function"
				},
				{
					"inputs": [],
					"name": "getUSDCPrice",
					"outputs": [
						{
							"internalType": "uint256",
							"name": "",
							"type": "uint256"
						}
					],
					"stateMutability": "view",
					"type": "function"
				},
				{
					"inputs": [],
					"name": "getVersion",
					"outputs": [
						{
							"internalType": "uint256",
							"name": "",
							"type": "uint256"
						}
					],
					"stateMutability": "view",
					"type": "function"
				},
				{
					"inputs": [],
					"name": "percent",
					"outputs": [
						{
							"internalType": "uint256",
							"name": "",
							"type": "uint256"
						}
					],
					"stateMutability": "view",
					"type": "function"
				},
				{
					"inputs": [
						{
							"internalType": "uint256",
							"name": "_p",
							"type": "uint256"
						}
					],
					"name": "setPercent",
					"outputs": [],
					"stateMutability": "nonpayable",
					"type": "function"
				}
			],
			"devdoc": {
				"kind": "dev",
				"methods": {},
				"version": 1
			},
			"evm": {
				"assembly": "    /* \"contracts/Checker.sol\":258:4711  contract Checker {... */\n  mstore(0x40, 0xa0)\n    /* \"contracts/Checker.sol\":804:807  100 */\n  0x64\n    /* \"contracts/Checker.sol\":779:807  uint256 public percent = 100 */\n  0x05\n  sstore\n    /* \"contracts/Checker.sol\":1044:1651  constructor() {... */\n  callvalue\n  dup1\n  iszero\n  tag_1\n  jumpi\n  0x00\n  dup1\n  revert\ntag_1:\n  pop\n    /* \"contracts/Checker.sol\":1179:1199  address ETH_USD_addr */\n  0x00\n    /* \"contracts/Checker.sol\":1202:1244  0xD4a33860578De61DBAbDc8BFdb98FD742fA7028e */\n  0xd4a33860578de61dbabdc8bfdb98fd742fa7028e\n    /* \"contracts/Checker.sol\":1179:1244  address ETH_USD_addr = 0xD4a33860578De61DBAbDc8BFdb98FD742fA7028e */\n  swap1\n  pop\n    /* \"contracts/Checker.sol\":1254:1275  address USDC_USD_addr */\n  0x00\n    /* \"contracts/Checker.sol\":1278:1320  0xAb5c49580294Aff77670F839ea425f5b78ab3Ae7 */\n  0xab5c49580294aff77670f839ea425f5b78ab3ae7\n    /* \"contracts/Checker.sol\":1254:1320  address USDC_USD_addr = 0xAb5c49580294Aff77670F839ea425f5b78ab3Ae7 */\n  swap1\n  pop\n    /* \"contracts/Checker.sol\":1330:1350  address BTC_USD_addr */\n  0x00\n    /* \"contracts/Checker.sol\":1353:1395  0xA39434A63A52E749F02807ae27335515BA4b07F7 */\n  0xa39434a63a52e749f02807ae27335515ba4b07f7\n    /* \"contracts/Checker.sol\":1330:1395  address BTC_USD_addr = 0xA39434A63A52E749F02807ae27335515BA4b07F7 */\n  swap1\n  pop\n    /* \"contracts/Checker.sol\":1441:1453  ETH_USD_addr */\n  dup3\n    /* \"contracts/Checker.sol\":1405:1416  s_priceFeed */\n  0x02\n  0x00\n    /* \"contracts/Checker.sol\":1405:1454  s_priceFeed = AggregatorV3Interface(ETH_USD_addr) */\n  0x0100\n  exp\n  dup2\n  sload\n  dup2\n  0xffffffffffffffffffffffffffffffffffffffff\n  mul\n  not\n  and\n  swap1\n  dup4\n  0xffffffffffffffffffffffffffffffffffffffff\n  and\n  mul\n  or\n  swap1\n  sstore\n  pop\n    /* \"contracts/Checker.sol\":1503:1516  USDC_USD_addr */\n  dup2\n    /* \"contracts/Checker.sol\":1464:1478  USDC_priceFeed */\n  0x03\n  0x00\n    /* \"contracts/Checker.sol\":1464:1517  USDC_priceFeed = AggregatorV3Interface(USDC_USD_addr) */\n  0x0100\n  exp\n  dup2\n  sload\n  dup2\n  0xffffffffffffffffffffffffffffffffffffffff\n  mul\n  not\n  and\n  swap1\n  dup4\n  0xffffffffffffffffffffffffffffffffffffffff\n  and\n  mul\n  or\n  swap1\n  sstore\n  pop\n    /* \"contracts/Checker.sol\":1565:1577  BTC_USD_addr */\n  dup1\n    /* \"contracts/Checker.sol\":1527:1540  BTC_priceFeed */\n  0x04\n  0x00\n    /* \"contracts/Checker.sol\":1527:1578  BTC_priceFeed = AggregatorV3Interface(BTC_USD_addr) */\n  0x0100\n  exp\n  dup2\n  sload\n  dup2\n  0xffffffffffffffffffffffffffffffffffffffff\n  mul\n  not\n  and\n  swap1\n  dup4\n  0xffffffffffffffffffffffffffffffffffffffff\n  and\n  mul\n  or\n  swap1\n  sstore\n  pop\n    /* \"contracts/Checker.sol\":1598:1608  msg.sender */\n  caller\n    /* \"contracts/Checker.sol\":1588:1608  i_owner = msg.sender */\n  0xffffffffffffffffffffffffffffffffffffffff\n  and\n  0x80\n  dup2\n  0xffffffffffffffffffffffffffffffffffffffff\n  and\n  dup2\n  mstore\n  pop\n  pop\n    /* \"contracts/Checker.sol\":1631:1644  getETHPrice() */\n  tag_4\n    /* \"contracts/Checker.sol\":1631:1642  getETHPrice */\n  shl(0x20, tag_5)\n    /* \"contracts/Checker.sol\":1631:1644  getETHPrice() */\n  0x20\n  shr\n  jump\t// in\ntag_4:\n    /* \"contracts/Checker.sol\":1618:1628  last_price */\n  0x06\n    /* \"contracts/Checker.sol\":1618:1644  last_price = getETHPrice() */\n  dup2\n  swap1\n  sstore\n  pop\n    /* \"contracts/Checker.sol\":1058:1651  {... */\n  pop\n  pop\n  pop\n    /* \"contracts/Checker.sol\":258:4711  contract Checker {... */\n  jump(tag_6)\n    /* \"contracts/Checker.sol\":2866:3089  function getETHPrice() public view returns (uint256) {... */\ntag_5:\n    /* \"contracts/Checker.sol\":2910:2917  uint256 */\n  0x00\n    /* \"contracts/Checker.sol\":2932:2945  int256 answer */\n  dup1\n    /* \"contracts/Checker.sol\":2955:2966  s_priceFeed */\n  0x02\n  0x00\n  swap1\n  sload\n  swap1\n  0x0100\n  exp\n  swap1\n  div\n  0xffffffffffffffffffffffffffffffffffffffff\n  and\n    /* \"contracts/Checker.sol\":2955:2982  s_priceFeed.latestRoundData */\n  0xffffffffffffffffffffffffffffffffffffffff\n  and\n  0xfeaf968c\n    /* \"contracts/Checker.sol\":2955:2984  s_priceFeed.latestRoundData() */\n  mload(0x40)\n  dup2\n  0xffffffff\n  and\n  0xe0\n  shl\n  dup2\n  mstore\n  0x04\n  add\n  0xa0\n  mload(0x40)\n  dup1\n  dup4\n  sub\n  dup2\n  dup7\n  gas\n  staticcall\n  iszero\n  dup1\n  iszero\n  tag_9\n  jumpi\n  returndatasize\n  0x00\n  dup1\n  returndatacopy\n  revert(0x00, returndatasize)\ntag_9:\n  pop\n  pop\n  pop\n  pop\n  mload(0x40)\n  returndatasize\n  not(0x1f)\n  0x1f\n  dup3\n  add\n  and\n  dup3\n  add\n  dup1\n  0x40\n  mstore\n  pop\n  dup2\n  add\n  swap1\n  tag_10\n  swap2\n  swap1\n  tag_11\n  jump\t// in\ntag_10:\n    /* \"contracts/Checker.sol\":2929:2984  (, int256 answer, , , ) = s_priceFeed.latestRoundData() */\n  pop\n  pop\n  pop\n  swap2\n  pop\n  pop\n    /* \"contracts/Checker.sol\":3079:3082  100 */\n  0x64\n    /* \"contracts/Checker.sol\":3069:3076  percent */\n  sload(0x05)\n    /* \"contracts/Checker.sol\":3054:3065  10000000000 */\n  0x02540be400\n    /* \"contracts/Checker.sol\":3045:3051  answer */\n  dup4\n    /* \"contracts/Checker.sol\":3045:3065  answer * 10000000000 */\n  tag_12\n  swap2\n  swap1\n  tag_13\n  jump\t// in\ntag_12:\n    /* \"contracts/Checker.sol\":3037:3076  uint256(answer * 10000000000) * percent */\n  tag_14\n  swap2\n  swap1\n  tag_15\n  jump\t// in\ntag_14:\n    /* \"contracts/Checker.sol\":3037:3082  uint256(answer * 10000000000) * percent / 100 */\n  tag_16\n  swap2\n  swap1\n  tag_17\n  jump\t// in\ntag_16:\n    /* \"contracts/Checker.sol\":3030:3082  return uint256(answer * 10000000000) * percent / 100 */\n  swap2\n  pop\n  pop\n    /* \"contracts/Checker.sol\":2866:3089  function getETHPrice() public view returns (uint256) {... */\n  swap1\n  jump\t// out\n    /* \"#utility.yul\":88:205   */\ntag_19:\n    /* \"#utility.yul\":197:198   */\n  0x00\n    /* \"#utility.yul\":194:195   */\n  dup1\n    /* \"#utility.yul\":187:199   */\n  revert\n    /* \"#utility.yul\":334:439   */\ntag_21:\n    /* \"#utility.yul\":370:377   */\n  0x00\n    /* \"#utility.yul\":410:432   */\n  0xffffffffffffffffffff\n    /* \"#utility.yul\":403:408   */\n  dup3\n    /* \"#utility.yul\":399:433   */\n  and\n    /* \"#utility.yul\":388:433   */\n  swap1\n  pop\n    /* \"#utility.yul\":334:439   */\n  swap2\n  swap1\n  pop\n  jump\t// out\n    /* \"#utility.yul\":445:565   */\ntag_22:\n    /* \"#utility.yul\":517:540   */\n  tag_38\n    /* \"#utility.yul\":534:539   */\n  dup2\n    /* \"#utility.yul\":517:540   */\n  tag_21\n  jump\t// in\ntag_38:\n    /* \"#utility.yul\":510:515   */\n  dup2\n    /* \"#utility.yul\":507:541   */\n  eq\n    /* \"#utility.yul\":497:559   */\n  tag_39\n  jumpi\n    /* \"#utility.yul\":555:556   */\n  0x00\n    /* \"#utility.yul\":552:553   */\n  dup1\n    /* \"#utility.yul\":545:557   */\n  revert\n    /* \"#utility.yul\":497:559   */\ntag_39:\n    /* \"#utility.yul\":445:565   */\n  pop\n  jump\t// out\n    /* \"#utility.yul\":571:712   */\ntag_23:\n    /* \"#utility.yul\":627:632   */\n  0x00\n    /* \"#utility.yul\":658:664   */\n  dup2\n    /* \"#utility.yul\":652:665   */\n  mload\n    /* \"#utility.yul\":643:665   */\n  swap1\n  pop\n    /* \"#utility.yul\":674:706   */\n  tag_41\n    /* \"#utility.yul\":700:705   */\n  dup2\n    /* \"#utility.yul\":674:706   */\n  tag_22\n  jump\t// in\ntag_41:\n    /* \"#utility.yul\":571:712   */\n  swap3\n  swap2\n  pop\n  pop\n  jump\t// out\n    /* \"#utility.yul\":718:794   */\ntag_24:\n    /* \"#utility.yul\":754:761   */\n  0x00\n    /* \"#utility.yul\":783:788   */\n  dup2\n    /* \"#utility.yul\":772:788   */\n  swap1\n  pop\n    /* \"#utility.yul\":718:794   */\n  swap2\n  swap1\n  pop\n  jump\t// out\n    /* \"#utility.yul\":800:920   */\ntag_25:\n    /* \"#utility.yul\":872:895   */\n  tag_44\n    /* \"#utility.yul\":889:894   */\n  dup2\n    /* \"#utility.yul\":872:895   */\n  tag_24\n  jump\t// in\ntag_44:\n    /* \"#utility.yul\":865:870   */\n  dup2\n    /* \"#utility.yul\":862:896   */\n  eq\n    /* \"#utility.yul\":852:914   */\n  tag_45\n  jumpi\n    /* \"#utility.yul\":910:911   */\n  0x00\n    /* \"#utility.yul\":907:908   */\n  dup1\n    /* \"#utility.yul\":900:912   */\n  revert\n    /* \"#utility.yul\":852:914   */\ntag_45:\n    /* \"#utility.yul\":800:920   */\n  pop\n  jump\t// out\n    /* \"#utility.yul\":926:1067   */\ntag_26:\n    /* \"#utility.yul\":982:987   */\n  0x00\n    /* \"#utility.yul\":1013:1019   */\n  dup2\n    /* \"#utility.yul\":1007:1020   */\n  mload\n    /* \"#utility.yul\":998:1020   */\n  swap1\n  pop\n    /* \"#utility.yul\":1029:1061   */\n  tag_47\n    /* \"#utility.yul\":1055:1060   */\n  dup2\n    /* \"#utility.yul\":1029:1061   */\n  tag_25\n  jump\t// in\ntag_47:\n    /* \"#utility.yul\":926:1067   */\n  swap3\n  swap2\n  pop\n  pop\n  jump\t// out\n    /* \"#utility.yul\":1073:1150   */\ntag_27:\n    /* \"#utility.yul\":1110:1117   */\n  0x00\n    /* \"#utility.yul\":1139:1144   */\n  dup2\n    /* \"#utility.yul\":1128:1144   */\n  swap1\n  pop\n    /* \"#utility.yul\":1073:1150   */\n  swap2\n  swap1\n  pop\n  jump\t// out\n    /* \"#utility.yul\":1156:1278   */\ntag_28:\n    /* \"#utility.yul\":1229:1253   */\n  tag_50\n    /* \"#utility.yul\":1247:1252   */\n  dup2\n    /* \"#utility.yul\":1229:1253   */\n  tag_27\n  jump\t// in\ntag_50:\n    /* \"#utility.yul\":1222:1227   */\n  dup2\n    /* \"#utility.yul\":1219:1254   */\n  eq\n    /* \"#utility.yul\":1209:1272   */\n  tag_51\n  jumpi\n    /* \"#utility.yul\":1268:1269   */\n  0x00\n    /* \"#utility.yul\":1265:1266   */\n  dup1\n    /* \"#utility.yul\":1258:1270   */\n  revert\n    /* \"#utility.yul\":1209:1272   */\ntag_51:\n    /* \"#utility.yul\":1156:1278   */\n  pop\n  jump\t// out\n    /* \"#utility.yul\":1284:1427   */\ntag_29:\n    /* \"#utility.yul\":1341:1346   */\n  0x00\n    /* \"#utility.yul\":1372:1378   */\n  dup2\n    /* \"#utility.yul\":1366:1379   */\n  mload\n    /* \"#utility.yul\":1357:1379   */\n  swap1\n  pop\n    /* \"#utility.yul\":1388:1421   */\n  tag_53\n    /* \"#utility.yul\":1415:1420   */\n  dup2\n    /* \"#utility.yul\":1388:1421   */\n  tag_28\n  jump\t// in\ntag_53:\n    /* \"#utility.yul\":1284:1427   */\n  swap3\n  swap2\n  pop\n  pop\n  jump\t// out\n    /* \"#utility.yul\":1433:2404   */\ntag_11:\n    /* \"#utility.yul\":1536:1542   */\n  0x00\n    /* \"#utility.yul\":1544:1550   */\n  dup1\n    /* \"#utility.yul\":1552:1558   */\n  0x00\n    /* \"#utility.yul\":1560:1566   */\n  dup1\n    /* \"#utility.yul\":1568:1574   */\n  0x00\n    /* \"#utility.yul\":1617:1620   */\n  0xa0\n    /* \"#utility.yul\":1605:1614   */\n  dup7\n    /* \"#utility.yul\":1596:1603   */\n  dup9\n    /* \"#utility.yul\":1592:1615   */\n  sub\n    /* \"#utility.yul\":1588:1621   */\n  slt\n    /* \"#utility.yul\":1585:1705   */\n  iszero\n  tag_55\n  jumpi\n    /* \"#utility.yul\":1624:1703   */\n  tag_56\n  tag_19\n  jump\t// in\ntag_56:\n    /* \"#utility.yul\":1585:1705   */\ntag_55:\n    /* \"#utility.yul\":1744:1745   */\n  0x00\n    /* \"#utility.yul\":1769:1832   */\n  tag_57\n    /* \"#utility.yul\":1824:1831   */\n  dup9\n    /* \"#utility.yul\":1815:1821   */\n  dup3\n    /* \"#utility.yul\":1804:1813   */\n  dup10\n    /* \"#utility.yul\":1800:1822   */\n  add\n    /* \"#utility.yul\":1769:1832   */\n  tag_23\n  jump\t// in\ntag_57:\n    /* \"#utility.yul\":1759:1832   */\n  swap6\n  pop\n    /* \"#utility.yul\":1715:1842   */\n  pop\n    /* \"#utility.yul\":1881:1883   */\n  0x20\n    /* \"#utility.yul\":1907:1970   */\n  tag_58\n    /* \"#utility.yul\":1962:1969   */\n  dup9\n    /* \"#utility.yul\":1953:1959   */\n  dup3\n    /* \"#utility.yul\":1942:1951   */\n  dup10\n    /* \"#utility.yul\":1938:1960   */\n  add\n    /* \"#utility.yul\":1907:1970   */\n  tag_26\n  jump\t// in\ntag_58:\n    /* \"#utility.yul\":1897:1970   */\n  swap5\n  pop\n    /* \"#utility.yul\":1852:1980   */\n  pop\n    /* \"#utility.yul\":2019:2021   */\n  0x40\n    /* \"#utility.yul\":2045:2109   */\n  tag_59\n    /* \"#utility.yul\":2101:2108   */\n  dup9\n    /* \"#utility.yul\":2092:2098   */\n  dup3\n    /* \"#utility.yul\":2081:2090   */\n  dup10\n    /* \"#utility.yul\":2077:2099   */\n  add\n    /* \"#utility.yul\":2045:2109   */\n  tag_29\n  jump\t// in\ntag_59:\n    /* \"#utility.yul\":2035:2109   */\n  swap4\n  pop\n    /* \"#utility.yul\":1990:2119   */\n  pop\n    /* \"#utility.yul\":2158:2160   */\n  0x60\n    /* \"#utility.yul\":2184:2248   */\n  tag_60\n    /* \"#utility.yul\":2240:2247   */\n  dup9\n    /* \"#utility.yul\":2231:2237   */\n  dup3\n    /* \"#utility.yul\":2220:2229   */\n  dup10\n    /* \"#utility.yul\":2216:2238   */\n  add\n    /* \"#utility.yul\":2184:2248   */\n  tag_29\n  jump\t// in\ntag_60:\n    /* \"#utility.yul\":2174:2248   */\n  swap3\n  pop\n    /* \"#utility.yul\":2129:2258   */\n  pop\n    /* \"#utility.yul\":2297:2300   */\n  0x80\n    /* \"#utility.yul\":2324:2387   */\n  tag_61\n    /* \"#utility.yul\":2379:2386   */\n  dup9\n    /* \"#utility.yul\":2370:2376   */\n  dup3\n    /* \"#utility.yul\":2359:2368   */\n  dup10\n    /* \"#utility.yul\":2355:2377   */\n  add\n    /* \"#utility.yul\":2324:2387   */\n  tag_23\n  jump\t// in\ntag_61:\n    /* \"#utility.yul\":2314:2387   */\n  swap2\n  pop\n    /* \"#utility.yul\":2268:2397   */\n  pop\n    /* \"#utility.yul\":1433:2404   */\n  swap3\n  swap6\n  pop\n  swap3\n  swap6\n  swap1\n  swap4\n  pop\n  jump\t// out\n    /* \"#utility.yul\":2410:2590   */\ntag_30:\n    /* \"#utility.yul\":2458:2535   */\n  0x4e487b7100000000000000000000000000000000000000000000000000000000\n    /* \"#utility.yul\":2455:2456   */\n  0x00\n    /* \"#utility.yul\":2448:2536   */\n  mstore\n    /* \"#utility.yul\":2555:2559   */\n  0x11\n    /* \"#utility.yul\":2552:2553   */\n  0x04\n    /* \"#utility.yul\":2545:2560   */\n  mstore\n    /* \"#utility.yul\":2579:2583   */\n  0x24\n    /* \"#utility.yul\":2576:2577   */\n  0x00\n    /* \"#utility.yul\":2569:2584   */\n  revert\n    /* \"#utility.yul\":2596:3152   */\ntag_13:\n    /* \"#utility.yul\":2635:2642   */\n  0x00\n    /* \"#utility.yul\":2658:2677   */\n  tag_64\n    /* \"#utility.yul\":2675:2676   */\n  dup3\n    /* \"#utility.yul\":2658:2677   */\n  tag_24\n  jump\t// in\ntag_64:\n    /* \"#utility.yul\":2653:2677   */\n  swap2\n  pop\n    /* \"#utility.yul\":2691:2710   */\n  tag_65\n    /* \"#utility.yul\":2708:2709   */\n  dup4\n    /* \"#utility.yul\":2691:2710   */\n  tag_24\n  jump\t// in\ntag_65:\n    /* \"#utility.yul\":2686:2710   */\n  swap3\n  pop\n    /* \"#utility.yul\":2745:2746   */\n  dup3\n    /* \"#utility.yul\":2742:2743   */\n  dup3\n    /* \"#utility.yul\":2738:2747   */\n  mul\n    /* \"#utility.yul\":2767:2796   */\n  tag_66\n    /* \"#utility.yul\":2784:2795   */\n  dup2\n    /* \"#utility.yul\":2767:2796   */\n  tag_24\n  jump\t// in\ntag_66:\n    /* \"#utility.yul\":2756:2796   */\n  swap2\n  pop\n    /* \"#utility.yul\":2854:2920   */\n  0x8000000000000000000000000000000000000000000000000000000000000000\n    /* \"#utility.yul\":2851:2852   */\n  dup5\n    /* \"#utility.yul\":2848:2921   */\n  eq\n    /* \"#utility.yul\":2844:2845   */\n  0x00\n    /* \"#utility.yul\":2841:2842   */\n  dup5\n    /* \"#utility.yul\":2837:2846   */\n  slt\n    /* \"#utility.yul\":2833:2922   */\n  and\n    /* \"#utility.yul\":2830:2945   */\n  iszero\n  tag_67\n  jumpi\n    /* \"#utility.yul\":2925:2943   */\n  tag_68\n  tag_30\n  jump\t// in\ntag_68:\n    /* \"#utility.yul\":2830:2945   */\ntag_67:\n    /* \"#utility.yul\":3095:3096   */\n  dup3\n    /* \"#utility.yul\":3086:3093   */\n  dup3\n    /* \"#utility.yul\":3081:3097   */\n  sdiv\n    /* \"#utility.yul\":3078:3079   */\n  dup5\n    /* \"#utility.yul\":3075:3098   */\n  eq\n    /* \"#utility.yul\":3055:3056   */\n  dup4\n    /* \"#utility.yul\":3048:3057   */\n  iszero\n    /* \"#utility.yul\":3028:3112   */\n  or\n    /* \"#utility.yul\":3005:3145   */\n  tag_69\n  jumpi\n    /* \"#utility.yul\":3125:3143   */\n  tag_70\n  tag_30\n  jump\t// in\ntag_70:\n    /* \"#utility.yul\":3005:3145   */\ntag_69:\n    /* \"#utility.yul\":2643:3152   */\n  pop\n    /* \"#utility.yul\":2596:3152   */\n  swap3\n  swap2\n  pop\n  pop\n  jump\t// out\n    /* \"#utility.yul\":3158:3568   */\ntag_15:\n    /* \"#utility.yul\":3198:3205   */\n  0x00\n    /* \"#utility.yul\":3221:3241   */\n  tag_72\n    /* \"#utility.yul\":3239:3240   */\n  dup3\n    /* \"#utility.yul\":3221:3241   */\n  tag_27\n  jump\t// in\ntag_72:\n    /* \"#utility.yul\":3216:3241   */\n  swap2\n  pop\n    /* \"#utility.yul\":3255:3275   */\n  tag_73\n    /* \"#utility.yul\":3273:3274   */\n  dup4\n    /* \"#utility.yul\":3255:3275   */\n  tag_27\n  jump\t// in\ntag_73:\n    /* \"#utility.yul\":3250:3275   */\n  swap3\n  pop\n    /* \"#utility.yul\":3310:3311   */\n  dup3\n    /* \"#utility.yul\":3307:3308   */\n  dup3\n    /* \"#utility.yul\":3303:3312   */\n  mul\n    /* \"#utility.yul\":3332:3362   */\n  tag_74\n    /* \"#utility.yul\":3350:3361   */\n  dup2\n    /* \"#utility.yul\":3332:3362   */\n  tag_27\n  jump\t// in\ntag_74:\n    /* \"#utility.yul\":3321:3362   */\n  swap2\n  pop\n    /* \"#utility.yul\":3511:3512   */\n  dup3\n    /* \"#utility.yul\":3502:3509   */\n  dup3\n    /* \"#utility.yul\":3498:3513   */\n  div\n    /* \"#utility.yul\":3495:3496   */\n  dup5\n    /* \"#utility.yul\":3492:3514   */\n  eq\n    /* \"#utility.yul\":3472:3473   */\n  dup4\n    /* \"#utility.yul\":3465:3474   */\n  iszero\n    /* \"#utility.yul\":3445:3528   */\n  or\n    /* \"#utility.yul\":3422:3561   */\n  tag_75\n  jumpi\n    /* \"#utility.yul\":3541:3559   */\n  tag_76\n  tag_30\n  jump\t// in\ntag_76:\n    /* \"#utility.yul\":3422:3561   */\ntag_75:\n    /* \"#utility.yul\":3206:3568   */\n  pop\n    /* \"#utility.yul\":3158:3568   */\n  swap3\n  swap2\n  pop\n  pop\n  jump\t// out\n    /* \"#utility.yul\":3574:3754   */\ntag_31:\n    /* \"#utility.yul\":3622:3699   */\n  0x4e487b7100000000000000000000000000000000000000000000000000000000\n    /* \"#utility.yul\":3619:3620   */\n  0x00\n    /* \"#utility.yul\":3612:3700   */\n  mstore\n    /* \"#utility.yul\":3719:3723   */\n  0x12\n    /* \"#utility.yul\":3716:3717   */\n  0x04\n    /* \"#utility.yul\":3709:3724   */\n  mstore\n    /* \"#utility.yul\":3743:3747   */\n  0x24\n    /* \"#utility.yul\":3740:3741   */\n  0x00\n    /* \"#utility.yul\":3733:3748   */\n  revert\n    /* \"#utility.yul\":3760:3945   */\ntag_17:\n    /* \"#utility.yul\":3800:3801   */\n  0x00\n    /* \"#utility.yul\":3817:3837   */\n  tag_79\n    /* \"#utility.yul\":3835:3836   */\n  dup3\n    /* \"#utility.yul\":3817:3837   */\n  tag_27\n  jump\t// in\ntag_79:\n    /* \"#utility.yul\":3812:3837   */\n  swap2\n  pop\n    /* \"#utility.yul\":3851:3871   */\n  tag_80\n    /* \"#utility.yul\":3869:3870   */\n  dup4\n    /* \"#utility.yul\":3851:3871   */\n  tag_27\n  jump\t// in\ntag_80:\n    /* \"#utility.yul\":3846:3871   */\n  swap3\n  pop\n    /* \"#utility.yul\":3890:3891   */\n  dup3\n    /* \"#utility.yul\":3880:3915   */\n  tag_81\n  jumpi\n    /* \"#utility.yul\":3895:3913   */\n  tag_82\n  tag_31\n  jump\t// in\ntag_82:\n    /* \"#utility.yul\":3880:3915   */\ntag_81:\n    /* \"#utility.yul\":3937:3938   */\n  dup3\n    /* \"#utility.yul\":3934:3935   */\n  dup3\n    /* \"#utility.yul\":3930:3939   */\n  div\n    /* \"#utility.yul\":3925:3939   */\n  swap1\n  pop\n    /* \"#utility.yul\":3760:3945   */\n  swap3\n  swap2\n  pop\n  pop\n  jump\t// out\n    /* \"contracts/Checker.sol\":258:4711  contract Checker {... */\ntag_6:\n  mload(0x80)\n  codecopy(0x00, dataOffset(sub_0), dataSize(sub_0))\n  0x00\n  assignImmutable(\"0x2cc0d3dcb20652cd8f106aee76b6a7391771a130885634c0eb2bbe3cde796691\")\n  return(0x00, dataSize(sub_0))\nstop\n\nsub_0: assembly {\n        /* \"contracts/Checker.sol\":258:4711  contract Checker {... */\n      mstore(0x40, 0x80)\n      jumpi(tag_1, lt(calldatasize, 0x04))\n      shr(0xe0, calldataload(0x00))\n      dup1\n      0x9e87a5cd\n      gt\n      tag_16\n      jumpi\n      dup1\n      0xb60d4288\n      gt\n      tag_17\n      jumpi\n      dup1\n      0xb60d4288\n      eq\n      tag_12\n      jumpi\n      dup1\n      0xbe2693f0\n      eq\n      tag_13\n      jumpi\n      dup1\n      0xd7b4750c\n      eq\n      tag_14\n      jumpi\n      dup1\n      0xdd22db80\n      eq\n      tag_15\n      jumpi\n      jump(tag_1)\n    tag_17:\n      dup1\n      0x9e87a5cd\n      eq\n      tag_9\n      jumpi\n      dup1\n      0xa607a8d9\n      eq\n      tag_10\n      jumpi\n      dup1\n      0xac70214c\n      eq\n      tag_11\n      jumpi\n      jump(tag_1)\n    tag_16:\n      dup1\n      0x6b69a592\n      gt\n      tag_18\n      jumpi\n      dup1\n      0x6b69a592\n      eq\n      tag_5\n      jumpi\n      dup1\n      0x70ba1113\n      eq\n      tag_6\n      jumpi\n      dup1\n      0x7154b8b5\n      eq\n      tag_7\n      jumpi\n      dup1\n      0x893d20e8\n      eq\n      tag_8\n      jumpi\n      jump(tag_1)\n    tag_18:\n      dup1\n      0x0343fb25\n      eq\n      tag_2\n      jumpi\n      dup1\n      0x0d8e6e2c\n      eq\n      tag_3\n      jumpi\n      dup1\n      0x4ad517bc\n      eq\n      tag_4\n      jumpi\n    tag_1:\n      0x00\n      dup1\n      revert\n        /* \"contracts/Checker.sol\":4121:4300  function getAddressToAmountFunded(address fundingAddress)... */\n    tag_2:\n      callvalue\n      dup1\n      iszero\n      tag_19\n      jumpi\n      0x00\n      dup1\n      revert\n    tag_19:\n      pop\n      tag_20\n      0x04\n      dup1\n      calldatasize\n      sub\n      dup2\n      add\n      swap1\n      tag_21\n      swap2\n      swap1\n      tag_22\n      jump\t// in\n    tag_21:\n      tag_23\n      jump\t// in\n    tag_20:\n      mload(0x40)\n      tag_24\n      swap2\n      swap1\n      tag_25\n      jump\t// in\n    tag_24:\n      mload(0x40)\n      dup1\n      swap2\n      sub\n      swap1\n      return\n        /* \"contracts/Checker.sol\":4306:4403  function getVersion() public view returns (uint256) {... */\n    tag_3:\n      callvalue\n      dup1\n      iszero\n      tag_26\n      jumpi\n      0x00\n      dup1\n      revert\n    tag_26:\n      pop\n      tag_27\n      tag_28\n      jump\t// in\n    tag_27:\n      mload(0x40)\n      tag_29\n      swap2\n      swap1\n      tag_25\n      jump\t// in\n    tag_29:\n      mload(0x40)\n      dup1\n      swap2\n      sub\n      swap1\n      return\n        /* \"contracts/Checker.sol\":3095:3306  function getUSDCPrice() public view returns (uint256) {... */\n    tag_4:\n      callvalue\n      dup1\n      iszero\n      tag_30\n      jumpi\n      0x00\n      dup1\n      revert\n    tag_30:\n      pop\n      tag_31\n      tag_32\n      jump\t// in\n    tag_31:\n      mload(0x40)\n      tag_33\n      swap2\n      swap1\n      tag_25\n      jump\t// in\n    tag_33:\n      mload(0x40)\n      dup1\n      swap2\n      sub\n      swap1\n      return\n        /* \"contracts/Checker.sol\":440:489  uint256 public constant MINIMUM_USD = 10 * 10**18 */\n    tag_5:\n      callvalue\n      dup1\n      iszero\n      tag_34\n      jumpi\n      0x00\n      dup1\n      revert\n    tag_34:\n      pop\n      tag_35\n      tag_36\n      jump\t// in\n    tag_35:\n      mload(0x40)\n      tag_37\n      swap2\n      swap1\n      tag_25\n      jump\t// in\n    tag_37:\n      mload(0x40)\n      dup1\n      swap2\n      sub\n      swap1\n      return\n        /* \"contracts/Checker.sol\":779:807  uint256 public percent = 100 */\n    tag_6:\n      callvalue\n      dup1\n      iszero\n      tag_38\n      jumpi\n      0x00\n      dup1\n      revert\n    tag_38:\n      pop\n      tag_39\n      tag_40\n      jump\t// in\n    tag_39:\n      mload(0x40)\n      tag_41\n      swap2\n      swap1\n      tag_25\n      jump\t// in\n    tag_41:\n      mload(0x40)\n      dup1\n      swap2\n      sub\n      swap1\n      return\n        /* \"contracts/Checker.sol\":2784:2852  function setPercent(uint256 _p) public {... */\n    tag_7:\n      callvalue\n      dup1\n      iszero\n      tag_42\n      jumpi\n      0x00\n      dup1\n      revert\n    tag_42:\n      pop\n      tag_43\n      0x04\n      dup1\n      calldatasize\n      sub\n      dup2\n      add\n      swap1\n      tag_44\n      swap2\n      swap1\n      tag_45\n      jump\t// in\n    tag_44:\n      tag_46\n      jump\t// in\n    tag_43:\n      stop\n        /* \"contracts/Checker.sol\":4519:4600  function getOwner() public view returns (address) {... */\n    tag_8:\n      callvalue\n      dup1\n      iszero\n      tag_47\n      jumpi\n      0x00\n      dup1\n      revert\n    tag_47:\n      pop\n      tag_48\n      tag_49\n      jump\t// in\n    tag_48:\n      mload(0x40)\n      tag_50\n      swap2\n      swap1\n      tag_51\n      jump\t// in\n    tag_50:\n      mload(0x40)\n      dup1\n      swap2\n      sub\n      swap1\n      return\n        /* \"contracts/Checker.sol\":4606:4709  function getPriceFeed() public view returns (AggregatorV3Interface) {... */\n    tag_9:\n      callvalue\n      dup1\n      iszero\n      tag_52\n      jumpi\n      0x00\n      dup1\n      revert\n    tag_52:\n      pop\n      tag_53\n      tag_54\n      jump\t// in\n    tag_53:\n      mload(0x40)\n      tag_55\n      swap2\n      swap1\n      tag_56\n      jump\t// in\n    tag_55:\n      mload(0x40)\n      dup1\n      swap2\n      sub\n      swap1\n      return\n        /* \"contracts/Checker.sol\":2866:3089  function getETHPrice() public view returns (uint256) {... */\n    tag_10:\n      callvalue\n      dup1\n      iszero\n      tag_57\n      jumpi\n      0x00\n      dup1\n      revert\n    tag_57:\n      pop\n      tag_58\n      tag_59\n      jump\t// in\n    tag_58:\n      mload(0x40)\n      tag_60\n      swap2\n      swap1\n      tag_25\n      jump\t// in\n    tag_60:\n      mload(0x40)\n      dup1\n      swap2\n      sub\n      swap1\n      return\n        /* \"contracts/Checker.sol\":2198:2778  function change_lot() public returns (bool){... */\n    tag_11:\n      callvalue\n      dup1\n      iszero\n      tag_61\n      jumpi\n      0x00\n      dup1\n      revert\n    tag_61:\n      pop\n      tag_62\n      tag_63\n      jump\t// in\n    tag_62:\n      mload(0x40)\n      tag_64\n      swap2\n      swap1\n      tag_65\n      jump\t// in\n    tag_64:\n      mload(0x40)\n      dup1\n      swap2\n      sub\n      swap1\n      return\n        /* \"contracts/Checker.sol\":1719:2101  function fund() public payable {... */\n    tag_12:\n      tag_66\n      tag_67\n      jump\t// in\n    tag_66:\n      stop\n        /* \"contracts/Checker.sol\":3527:4115  function cheaperWithdraw() public onlyOwner {... */\n    tag_13:\n      callvalue\n      dup1\n      iszero\n      tag_68\n      jumpi\n      0x00\n      dup1\n      revert\n    tag_68:\n      pop\n      tag_69\n      tag_70\n      jump\t// in\n    tag_69:\n      stop\n        /* \"contracts/Checker.sol\":4409:4513  function getFunder(uint256 index) public view returns (address) {... */\n    tag_14:\n      callvalue\n      dup1\n      iszero\n      tag_71\n      jumpi\n      0x00\n      dup1\n      revert\n    tag_71:\n      pop\n      tag_72\n      0x04\n      dup1\n      calldatasize\n      sub\n      dup2\n      add\n      swap1\n      tag_73\n      swap2\n      swap1\n      tag_45\n      jump\t// in\n    tag_73:\n      tag_74\n      jump\t// in\n    tag_72:\n      mload(0x40)\n      tag_75\n      swap2\n      swap1\n      tag_51\n      jump\t// in\n    tag_75:\n      mload(0x40)\n      dup1\n      swap2\n      sub\n      swap1\n      return\n        /* \"contracts/Checker.sol\":3312:3521  function getBTCPrice() public view returns (uint256) {... */\n    tag_15:\n      callvalue\n      dup1\n      iszero\n      tag_76\n      jumpi\n      0x00\n      dup1\n      revert\n    tag_76:\n      pop\n      tag_77\n      tag_78\n      jump\t// in\n    tag_77:\n      mload(0x40)\n      tag_79\n      swap2\n      swap1\n      tag_25\n      jump\t// in\n    tag_79:\n      mload(0x40)\n      dup1\n      swap2\n      sub\n      swap1\n      return\n        /* \"contracts/Checker.sol\":4121:4300  function getAddressToAmountFunded(address fundingAddress)... */\n    tag_23:\n        /* \"contracts/Checker.sol\":4224:4231  uint256 */\n      0x00\n        /* \"contracts/Checker.sol\":4254:4277  s_addressToAmountFunded */\n      0x01\n        /* \"contracts/Checker.sol\":4254:4293  s_addressToAmountFunded[fundingAddress] */\n      0x00\n        /* \"contracts/Checker.sol\":4278:4292  fundingAddress */\n      dup4\n        /* \"contracts/Checker.sol\":4254:4293  s_addressToAmountFunded[fundingAddress] */\n      0xffffffffffffffffffffffffffffffffffffffff\n      and\n      0xffffffffffffffffffffffffffffffffffffffff\n      and\n      dup2\n      mstore\n      0x20\n      add\n      swap1\n      dup2\n      mstore\n      0x20\n      add\n      0x00\n      keccak256\n      sload\n        /* \"contracts/Checker.sol\":4247:4293  return s_addressToAmountFunded[fundingAddress] */\n      swap1\n      pop\n        /* \"contracts/Checker.sol\":4121:4300  function getAddressToAmountFunded(address fundingAddress)... */\n      swap2\n      swap1\n      pop\n      jump\t// out\n        /* \"contracts/Checker.sol\":4306:4403  function getVersion() public view returns (uint256) {... */\n    tag_28:\n        /* \"contracts/Checker.sol\":4349:4356  uint256 */\n      0x00\n        /* \"contracts/Checker.sol\":4375:4386  s_priceFeed */\n      0x02\n      0x00\n      swap1\n      sload\n      swap1\n      0x0100\n      exp\n      swap1\n      div\n      0xffffffffffffffffffffffffffffffffffffffff\n      and\n        /* \"contracts/Checker.sol\":4375:4394  s_priceFeed.version */\n      0xffffffffffffffffffffffffffffffffffffffff\n      and\n      0x54fd4d50\n        /* \"contracts/Checker.sol\":4375:4396  s_priceFeed.version() */\n      mload(0x40)\n      dup2\n      0xffffffff\n      and\n      0xe0\n      shl\n      dup2\n      mstore\n      0x04\n      add\n      0x20\n      mload(0x40)\n      dup1\n      dup4\n      sub\n      dup2\n      dup7\n      gas\n      staticcall\n      iszero\n      dup1\n      iszero\n      tag_83\n      jumpi\n      returndatasize\n      0x00\n      dup1\n      returndatacopy\n      revert(0x00, returndatasize)\n    tag_83:\n      pop\n      pop\n      pop\n      pop\n      mload(0x40)\n      returndatasize\n      not(0x1f)\n      0x1f\n      dup3\n      add\n      and\n      dup3\n      add\n      dup1\n      0x40\n      mstore\n      pop\n      dup2\n      add\n      swap1\n      tag_84\n      swap2\n      swap1\n      tag_85\n      jump\t// in\n    tag_84:\n        /* \"contracts/Checker.sol\":4368:4396  return s_priceFeed.version() */\n      swap1\n      pop\n        /* \"contracts/Checker.sol\":4306:4403  function getVersion() public view returns (uint256) {... */\n      swap1\n      jump\t// out\n        /* \"contracts/Checker.sol\":3095:3306  function getUSDCPrice() public view returns (uint256) {... */\n    tag_32:\n        /* \"contracts/Checker.sol\":3140:3147  uint256 */\n      0x00\n        /* \"contracts/Checker.sol\":3162:3175  int256 answer */\n      dup1\n        /* \"contracts/Checker.sol\":3185:3199  USDC_priceFeed */\n      0x03\n      0x00\n      swap1\n      sload\n      swap1\n      0x0100\n      exp\n      swap1\n      div\n      0xffffffffffffffffffffffffffffffffffffffff\n      and\n        /* \"contracts/Checker.sol\":3185:3215  USDC_priceFeed.latestRoundData */\n      0xffffffffffffffffffffffffffffffffffffffff\n      and\n      0xfeaf968c\n        /* \"contracts/Checker.sol\":3185:3217  USDC_priceFeed.latestRoundData() */\n      mload(0x40)\n      dup2\n      0xffffffff\n      and\n      0xe0\n      shl\n      dup2\n      mstore\n      0x04\n      add\n      0xa0\n      mload(0x40)\n      dup1\n      dup4\n      sub\n      dup2\n      dup7\n      gas\n      staticcall\n      iszero\n      dup1\n      iszero\n      tag_88\n      jumpi\n      returndatasize\n      0x00\n      dup1\n      returndatacopy\n      revert(0x00, returndatasize)\n    tag_88:\n      pop\n      pop\n      pop\n      pop\n      mload(0x40)\n      returndatasize\n      not(0x1f)\n      0x1f\n      dup3\n      add\n      and\n      dup3\n      add\n      dup1\n      0x40\n      mstore\n      pop\n      dup2\n      add\n      swap1\n      tag_89\n      swap2\n      swap1\n      tag_90\n      jump\t// in\n    tag_89:\n        /* \"contracts/Checker.sol\":3159:3217  (, int256 answer, , , ) = USDC_priceFeed.latestRoundData() */\n      pop\n      pop\n      pop\n      swap2\n      pop\n      pop\n        /* \"contracts/Checker.sol\":3287:3298  10000000000 */\n      0x02540be400\n        /* \"contracts/Checker.sol\":3278:3284  answer */\n      dup2\n        /* \"contracts/Checker.sol\":3278:3298  answer * 10000000000 */\n      tag_91\n      swap2\n      swap1\n      tag_92\n      jump\t// in\n    tag_91:\n        /* \"contracts/Checker.sol\":3263:3299  return uint256(answer * 10000000000) */\n      swap2\n      pop\n      pop\n        /* \"contracts/Checker.sol\":3095:3306  function getUSDCPrice() public view returns (uint256) {... */\n      swap1\n      jump\t// out\n        /* \"contracts/Checker.sol\":440:489  uint256 public constant MINIMUM_USD = 10 * 10**18 */\n    tag_36:\n        /* \"contracts/Checker.sol\":478:489  10 * 10**18 */\n      0x8ac7230489e80000\n        /* \"contracts/Checker.sol\":440:489  uint256 public constant MINIMUM_USD = 10 * 10**18 */\n      dup2\n      jump\t// out\n        /* \"contracts/Checker.sol\":779:807  uint256 public percent = 100 */\n    tag_40:\n      sload(0x05)\n      dup2\n      jump\t// out\n        /* \"contracts/Checker.sol\":2784:2852  function setPercent(uint256 _p) public {... */\n    tag_46:\n        /* \"contracts/Checker.sol\":2843:2845  _p */\n      dup1\n        /* \"contracts/Checker.sol\":2833:2840  percent */\n      0x05\n        /* \"contracts/Checker.sol\":2833:2845  percent = _p */\n      dup2\n      swap1\n      sstore\n      pop\n        /* \"contracts/Checker.sol\":2784:2852  function setPercent(uint256 _p) public {... */\n      pop\n      jump\t// out\n        /* \"contracts/Checker.sol\":4519:4600  function getOwner() public view returns (address) {... */\n    tag_49:\n        /* \"contracts/Checker.sol\":4560:4567  address */\n      0x00\n        /* \"contracts/Checker.sol\":4586:4593  i_owner */\n      immutable(\"0x2cc0d3dcb20652cd8f106aee76b6a7391771a130885634c0eb2bbe3cde796691\")\n        /* \"contracts/Checker.sol\":4579:4593  return i_owner */\n      swap1\n      pop\n        /* \"contracts/Checker.sol\":4519:4600  function getOwner() public view returns (address) {... */\n      swap1\n      jump\t// out\n        /* \"contracts/Checker.sol\":4606:4709  function getPriceFeed() public view returns (AggregatorV3Interface) {... */\n    tag_54:\n        /* \"contracts/Checker.sol\":4651:4672  AggregatorV3Interface */\n      0x00\n        /* \"contracts/Checker.sol\":4691:4702  s_priceFeed */\n      0x02\n      0x00\n      swap1\n      sload\n      swap1\n      0x0100\n      exp\n      swap1\n      div\n      0xffffffffffffffffffffffffffffffffffffffff\n      and\n        /* \"contracts/Checker.sol\":4684:4702  return s_priceFeed */\n      swap1\n      pop\n        /* \"contracts/Checker.sol\":4606:4709  function getPriceFeed() public view returns (AggregatorV3Interface) {... */\n      swap1\n      jump\t// out\n        /* \"contracts/Checker.sol\":2866:3089  function getETHPrice() public view returns (uint256) {... */\n    tag_59:\n        /* \"contracts/Checker.sol\":2910:2917  uint256 */\n      0x00\n        /* \"contracts/Checker.sol\":2932:2945  int256 answer */\n      dup1\n        /* \"contracts/Checker.sol\":2955:2966  s_priceFeed */\n      0x02\n      0x00\n      swap1\n      sload\n      swap1\n      0x0100\n      exp\n      swap1\n      div\n      0xffffffffffffffffffffffffffffffffffffffff\n      and\n        /* \"contracts/Checker.sol\":2955:2982  s_priceFeed.latestRoundData */\n      0xffffffffffffffffffffffffffffffffffffffff\n      and\n      0xfeaf968c\n        /* \"contracts/Checker.sol\":2955:2984  s_priceFeed.latestRoundData() */\n      mload(0x40)\n      dup2\n      0xffffffff\n      and\n      0xe0\n      shl\n      dup2\n      mstore\n      0x04\n      add\n      0xa0\n      mload(0x40)\n      dup1\n      dup4\n      sub\n      dup2\n      dup7\n      gas\n      staticcall\n      iszero\n      dup1\n      iszero\n      tag_98\n      jumpi\n      returndatasize\n      0x00\n      dup1\n      returndatacopy\n      revert(0x00, returndatasize)\n    tag_98:\n      pop\n      pop\n      pop\n      pop\n      mload(0x40)\n      returndatasize\n      not(0x1f)\n      0x1f\n      dup3\n      add\n      and\n      dup3\n      add\n      dup1\n      0x40\n      mstore\n      pop\n      dup2\n      add\n      swap1\n      tag_99\n      swap2\n      swap1\n      tag_90\n      jump\t// in\n    tag_99:\n        /* \"contracts/Checker.sol\":2929:2984  (, int256 answer, , , ) = s_priceFeed.latestRoundData() */\n      pop\n      pop\n      pop\n      swap2\n      pop\n      pop\n        /* \"contracts/Checker.sol\":3079:3082  100 */\n      0x64\n        /* \"contracts/Checker.sol\":3069:3076  percent */\n      sload(0x05)\n        /* \"contracts/Checker.sol\":3054:3065  10000000000 */\n      0x02540be400\n        /* \"contracts/Checker.sol\":3045:3051  answer */\n      dup4\n        /* \"contracts/Checker.sol\":3045:3065  answer * 10000000000 */\n      tag_100\n      swap2\n      swap1\n      tag_92\n      jump\t// in\n    tag_100:\n        /* \"contracts/Checker.sol\":3037:3076  uint256(answer * 10000000000) * percent */\n      tag_101\n      swap2\n      swap1\n      tag_102\n      jump\t// in\n    tag_101:\n        /* \"contracts/Checker.sol\":3037:3082  uint256(answer * 10000000000) * percent / 100 */\n      tag_103\n      swap2\n      swap1\n      tag_104\n      jump\t// in\n    tag_103:\n        /* \"contracts/Checker.sol\":3030:3082  return uint256(answer * 10000000000) * percent / 100 */\n      swap2\n      pop\n      pop\n        /* \"contracts/Checker.sol\":2866:3089  function getETHPrice() public view returns (uint256) {... */\n      swap1\n      jump\t// out\n        /* \"contracts/Checker.sol\":2198:2778  function change_lot() public returns (bool){... */\n    tag_63:\n        /* \"contracts/Checker.sol\":2236:2240  bool */\n      0x00\n        /* \"contracts/Checker.sol\":2251:2268  uint256 new_price */\n      dup1\n        /* \"contracts/Checker.sol\":2271:2284  getETHPrice() */\n      tag_106\n        /* \"contracts/Checker.sol\":2271:2282  getETHPrice */\n      tag_59\n        /* \"contracts/Checker.sol\":2271:2284  getETHPrice() */\n      jump\t// in\n    tag_106:\n        /* \"contracts/Checker.sol\":2251:2284  uint256 new_price = getETHPrice() */\n      swap1\n      pop\n        /* \"contracts/Checker.sol\":2310:2320  last_price */\n      sload(0x06)\n        /* \"contracts/Checker.sol\":2298:2307  new_price */\n      dup2\n        /* \"contracts/Checker.sol\":2298:2320  new_price > last_price */\n      gt\n        /* \"contracts/Checker.sol\":2294:2718  if (new_price > last_price){... */\n      iszero\n      tag_107\n      jumpi\n        /* \"contracts/Checker.sol\":2384:2387  100 */\n      0x64\n        /* \"contracts/Checker.sol\":2379:2381  20 */\n      0x14\n        /* \"contracts/Checker.sol\":2366:2376  last_price */\n      sload(0x06)\n        /* \"contracts/Checker.sol\":2366:2381  last_price * 20 */\n      tag_108\n      swap2\n      swap1\n      tag_102\n      jump\t// in\n    tag_108:\n        /* \"contracts/Checker.sol\":2366:2387  last_price * 20 / 100 */\n      tag_109\n      swap2\n      swap1\n      tag_104\n      jump\t// in\n    tag_109:\n        /* \"contracts/Checker.sol\":2352:2362  last_price */\n      sload(0x06)\n        /* \"contracts/Checker.sol\":2340:2349  new_price */\n      dup3\n        /* \"contracts/Checker.sol\":2340:2362  new_price - last_price */\n      tag_110\n      swap2\n      swap1\n      tag_111\n      jump\t// in\n    tag_110:\n        /* \"contracts/Checker.sol\":2339:2387  (new_price - last_price) > last_price * 20 / 100 */\n      gt\n        /* \"contracts/Checker.sol\":2335:2534  if ((new_price - last_price) > last_price * 20 / 100){... */\n      iszero\n      tag_112\n      jumpi\n        /* \"contracts/Checker.sol\":2411:2449  Unstable('ETH', last_price, new_price) */\n      0x08c6c7d0dc0402d3e4a691d85e729286802f266f3b6596ed0b317861babf8a92\n        /* \"contracts/Checker.sol\":2427:2437  last_price */\n      sload(0x06)\n        /* \"contracts/Checker.sol\":2439:2448  new_price */\n      dup3\n        /* \"contracts/Checker.sol\":2411:2449  Unstable('ETH', last_price, new_price) */\n      mload(0x40)\n      tag_113\n      swap3\n      swap2\n      swap1\n      tag_114\n      jump\t// in\n    tag_113:\n      mload(0x40)\n      dup1\n      swap2\n      sub\n      swap1\n      log1\n        /* \"contracts/Checker.sol\":2480:2489  new_price */\n      dup1\n        /* \"contracts/Checker.sol\":2467:2477  last_price */\n      0x06\n        /* \"contracts/Checker.sol\":2467:2489  last_price = new_price */\n      dup2\n      swap1\n      sstore\n      pop\n        /* \"contracts/Checker.sol\":2515:2519  true */\n      0x01\n        /* \"contracts/Checker.sol\":2508:2519  return true */\n      swap2\n      pop\n      pop\n      jump(tag_105)\n        /* \"contracts/Checker.sol\":2335:2534  if ((new_price - last_price) > last_price * 20 / 100){... */\n    tag_112:\n        /* \"contracts/Checker.sol\":2294:2718  if (new_price > last_price){... */\n      jump(tag_115)\n    tag_107:\n        /* \"contracts/Checker.sol\":2620:2623  100 */\n      0x64\n        /* \"contracts/Checker.sol\":2615:2617  20 */\n      0x14\n        /* \"contracts/Checker.sol\":2602:2612  last_price */\n      sload(0x06)\n        /* \"contracts/Checker.sol\":2602:2617  last_price * 20 */\n      tag_116\n      swap2\n      swap1\n      tag_102\n      jump\t// in\n    tag_116:\n        /* \"contracts/Checker.sol\":2602:2623  last_price * 20 / 100 */\n      tag_117\n      swap2\n      swap1\n      tag_104\n      jump\t// in\n    tag_117:\n        /* \"contracts/Checker.sol\":2589:2598  new_price */\n      dup2\n        /* \"contracts/Checker.sol\":2576:2586  last_price */\n      sload(0x06)\n        /* \"contracts/Checker.sol\":2576:2598  last_price - new_price */\n      tag_118\n      swap2\n      swap1\n      tag_111\n      jump\t// in\n    tag_118:\n        /* \"contracts/Checker.sol\":2575:2623  (last_price - new_price) > last_price * 20 / 100 */\n      gt\n        /* \"contracts/Checker.sol\":2571:2708  if ((last_price - new_price) > last_price * 20 / 100){... */\n      iszero\n      tag_119\n      jumpi\n        /* \"contracts/Checker.sol\":2655:2664  new_price */\n      dup1\n        /* \"contracts/Checker.sol\":2642:2652  last_price */\n      0x06\n        /* \"contracts/Checker.sol\":2642:2664  last_price = new_price */\n      dup2\n      swap1\n      sstore\n      pop\n        /* \"contracts/Checker.sol\":2689:2693  true */\n      0x01\n        /* \"contracts/Checker.sol\":2682:2693  return true */\n      swap2\n      pop\n      pop\n      jump(tag_105)\n        /* \"contracts/Checker.sol\":2571:2708  if ((last_price - new_price) > last_price * 20 / 100){... */\n    tag_119:\n        /* \"contracts/Checker.sol\":2294:2718  if (new_price > last_price){... */\n    tag_115:\n        /* \"contracts/Checker.sol\":2740:2749  new_price */\n      dup1\n        /* \"contracts/Checker.sol\":2727:2737  last_price */\n      0x06\n        /* \"contracts/Checker.sol\":2727:2749  last_price = new_price */\n      dup2\n      swap1\n      sstore\n      pop\n        /* \"contracts/Checker.sol\":2766:2771  false */\n      0x00\n        /* \"contracts/Checker.sol\":2759:2771  return false */\n      swap2\n      pop\n      pop\n        /* \"contracts/Checker.sol\":2198:2778  function change_lot() public returns (bool){... */\n    tag_105:\n      swap1\n      jump\t// out\n        /* \"contracts/Checker.sol\":1719:2101  function fund() public payable {... */\n    tag_67:\n        /* \"contracts/Checker.sol\":478:489  10 * 10**18 */\n      0x8ac7230489e80000\n        /* \"contracts/Checker.sol\":1781:1821  msg.value.getConversionRate(s_priceFeed) */\n      tag_121\n        /* \"contracts/Checker.sol\":1809:1820  s_priceFeed */\n      0x02\n      0x00\n      swap1\n      sload\n      swap1\n      0x0100\n      exp\n      swap1\n      div\n      0xffffffffffffffffffffffffffffffffffffffff\n      and\n        /* \"contracts/Checker.sol\":1781:1790  msg.value */\n      callvalue\n        /* \"contracts/Checker.sol\":1781:1808  msg.value.getConversionRate */\n      tag_122\n      swap1\n        /* \"contracts/Checker.sol\":1781:1821  msg.value.getConversionRate(s_priceFeed) */\n      swap2\n      swap1\n      0xffffffff\n      and\n      jump\t// in\n    tag_121:\n        /* \"contracts/Checker.sol\":1781:1836  msg.value.getConversionRate(s_priceFeed) >= MINIMUM_USD */\n      lt\n      iszero\n        /* \"contracts/Checker.sol\":1760:1889  require(... */\n      tag_123\n      jumpi\n      mload(0x40)\n      0x08c379a000000000000000000000000000000000000000000000000000000000\n      dup2\n      mstore\n      0x04\n      add\n      tag_124\n      swap1\n      tag_125\n      jump\t// in\n    tag_124:\n      mload(0x40)\n      dup1\n      swap2\n      sub\n      swap1\n      revert\n    tag_123:\n        /* \"contracts/Checker.sol\":2049:2058  msg.value */\n      callvalue\n        /* \"contracts/Checker.sol\":2010:2033  s_addressToAmountFunded */\n      0x01\n        /* \"contracts/Checker.sol\":2010:2045  s_addressToAmountFunded[msg.sender] */\n      0x00\n        /* \"contracts/Checker.sol\":2034:2044  msg.sender */\n      caller\n        /* \"contracts/Checker.sol\":2010:2045  s_addressToAmountFunded[msg.sender] */\n      0xffffffffffffffffffffffffffffffffffffffff\n      and\n      0xffffffffffffffffffffffffffffffffffffffff\n      and\n      dup2\n      mstore\n      0x20\n      add\n      swap1\n      dup2\n      mstore\n      0x20\n      add\n      0x00\n      keccak256\n      0x00\n        /* \"contracts/Checker.sol\":2010:2058  s_addressToAmountFunded[msg.sender] += msg.value */\n      dup3\n      dup3\n      sload\n      tag_126\n      swap2\n      swap1\n      tag_127\n      jump\t// in\n    tag_126:\n      swap3\n      pop\n      pop\n      dup2\n      swap1\n      sstore\n      pop\n        /* \"contracts/Checker.sol\":2068:2077  s_funders */\n      0x00\n        /* \"contracts/Checker.sol\":2083:2093  msg.sender */\n      caller\n        /* \"contracts/Checker.sol\":2068:2094  s_funders.push(msg.sender) */\n      swap1\n      dup1\n      0x01\n      dup2\n      sload\n      add\n      dup1\n      dup3\n      sstore\n      dup1\n      swap2\n      pop\n      pop\n      0x01\n      swap1\n      sub\n      swap1\n      0x00\n      mstore\n      keccak256(0x00, 0x20)\n      add\n      0x00\n      swap1\n      swap2\n      swap1\n      swap2\n      swap1\n      swap2\n      0x0100\n      exp\n      dup2\n      sload\n      dup2\n      0xffffffffffffffffffffffffffffffffffffffff\n      mul\n      not\n      and\n      swap1\n      dup4\n      0xffffffffffffffffffffffffffffffffffffffff\n      and\n      mul\n      or\n      swap1\n      sstore\n      pop\n        /* \"contracts/Checker.sol\":1719:2101  function fund() public payable {... */\n      jump\t// out\n        /* \"contracts/Checker.sol\":3527:4115  function cheaperWithdraw() public onlyOwner {... */\n    tag_70:\n        /* \"contracts/Checker.sol\":986:993  i_owner */\n      immutable(\"0x2cc0d3dcb20652cd8f106aee76b6a7391771a130885634c0eb2bbe3cde796691\")\n        /* \"contracts/Checker.sol\":972:993  msg.sender != i_owner */\n      0xffffffffffffffffffffffffffffffffffffffff\n      and\n        /* \"contracts/Checker.sol\":972:982  msg.sender */\n      caller\n        /* \"contracts/Checker.sol\":972:993  msg.sender != i_owner */\n      0xffffffffffffffffffffffffffffffffffffffff\n      and\n      eq\n        /* \"contracts/Checker.sol\":968:1020  if (msg.sender != i_owner) revert FundMe__NotOwner() */\n      tag_130\n      jumpi\n        /* \"contracts/Checker.sol\":1002:1020  FundMe__NotOwner() */\n      mload(0x40)\n      0x579610db00000000000000000000000000000000000000000000000000000000\n      dup2\n      mstore\n      0x04\n      add\n      mload(0x40)\n      dup1\n      swap2\n      sub\n      swap1\n      revert\n        /* \"contracts/Checker.sol\":968:1020  if (msg.sender != i_owner) revert FundMe__NotOwner() */\n    tag_130:\n        /* \"contracts/Checker.sol\":3581:3605  address[] memory funders */\n      0x00\n        /* \"contracts/Checker.sol\":3608:3617  s_funders */\n      dup1\n        /* \"contracts/Checker.sol\":3581:3617  address[] memory funders = s_funders */\n      dup1\n      sload\n      dup1\n      0x20\n      mul\n      0x20\n      add\n      mload(0x40)\n      swap1\n      dup2\n      add\n      0x40\n      mstore\n      dup1\n      swap3\n      swap2\n      swap1\n      dup2\n      dup2\n      mstore\n      0x20\n      add\n      dup3\n      dup1\n      sload\n      dup1\n      iszero\n      tag_132\n      jumpi\n      0x20\n      mul\n      dup3\n      add\n      swap2\n      swap1\n      0x00\n      mstore\n      keccak256(0x00, 0x20)\n      swap1\n    tag_133:\n      dup2\n      0x00\n      swap1\n      sload\n      swap1\n      0x0100\n      exp\n      swap1\n      div\n      0xffffffffffffffffffffffffffffffffffffffff\n      and\n      0xffffffffffffffffffffffffffffffffffffffff\n      and\n      dup2\n      mstore\n      0x20\n      add\n      swap1\n      0x01\n      add\n      swap1\n      dup1\n      dup4\n      gt\n      tag_133\n      jumpi\n    tag_132:\n      pop\n      pop\n      pop\n      pop\n      pop\n      swap1\n      pop\n        /* \"contracts/Checker.sol\":3692:3711  uint256 funderIndex */\n      0x00\n        /* \"contracts/Checker.sol\":3674:3906  for (... */\n    tag_134:\n        /* \"contracts/Checker.sol\":3743:3750  funders */\n      dup2\n        /* \"contracts/Checker.sol\":3743:3757  funders.length */\n      mload\n        /* \"contracts/Checker.sol\":3729:3740  funderIndex */\n      dup2\n        /* \"contracts/Checker.sol\":3729:3757  funderIndex < funders.length */\n      lt\n        /* \"contracts/Checker.sol\":3674:3906  for (... */\n      iszero\n      tag_135\n      jumpi\n        /* \"contracts/Checker.sol\":3809:3823  address funder */\n      0x00\n        /* \"contracts/Checker.sol\":3826:3833  funders */\n      dup3\n        /* \"contracts/Checker.sol\":3834:3845  funderIndex */\n      dup3\n        /* \"contracts/Checker.sol\":3826:3846  funders[funderIndex] */\n      dup2\n      mload\n      dup2\n      lt\n      tag_137\n      jumpi\n      tag_138\n      tag_139\n      jump\t// in\n    tag_138:\n    tag_137:\n      0x20\n      mul\n      0x20\n      add\n      add\n      mload\n        /* \"contracts/Checker.sol\":3809:3846  address funder = funders[funderIndex] */\n      swap1\n      pop\n        /* \"contracts/Checker.sol\":3894:3895  0 */\n      0x00\n        /* \"contracts/Checker.sol\":3860:3883  s_addressToAmountFunded */\n      0x01\n        /* \"contracts/Checker.sol\":3860:3891  s_addressToAmountFunded[funder] */\n      0x00\n        /* \"contracts/Checker.sol\":3884:3890  funder */\n      dup4\n        /* \"contracts/Checker.sol\":3860:3891  s_addressToAmountFunded[funder] */\n      0xffffffffffffffffffffffffffffffffffffffff\n      and\n      0xffffffffffffffffffffffffffffffffffffffff\n      and\n      dup2\n      mstore\n      0x20\n      add\n      swap1\n      dup2\n      mstore\n      0x20\n      add\n      0x00\n      keccak256\n        /* \"contracts/Checker.sol\":3860:3895  s_addressToAmountFunded[funder] = 0 */\n      dup2\n      swap1\n      sstore\n      pop\n        /* \"contracts/Checker.sol\":3795:3906  {... */\n      pop\n        /* \"contracts/Checker.sol\":3771:3784  funderIndex++ */\n      dup1\n      dup1\n      tag_140\n      swap1\n      tag_141\n      jump\t// in\n    tag_140:\n      swap2\n      pop\n      pop\n        /* \"contracts/Checker.sol\":3674:3906  for (... */\n      jump(tag_134)\n    tag_135:\n      pop\n        /* \"contracts/Checker.sol\":3941:3942  0 */\n      0x00\n        /* \"contracts/Checker.sol\":3927:3943  new address[](0) */\n      0xffffffffffffffff\n      dup2\n      gt\n      iszero\n      tag_142\n      jumpi\n      tag_143\n      tag_144\n      jump\t// in\n    tag_143:\n    tag_142:\n      mload(0x40)\n      swap1\n      dup1\n      dup3\n      mstore\n      dup1\n      0x20\n      mul\n      0x20\n      add\n      dup3\n      add\n      0x40\n      mstore\n      dup1\n      iszero\n      tag_145\n      jumpi\n      dup2\n      0x20\n      add\n      0x20\n      dup3\n      mul\n      dup1\n      calldatasize\n      dup4\n      calldatacopy\n      dup1\n      dup3\n      add\n      swap2\n      pop\n      pop\n      swap1\n      pop\n    tag_145:\n      pop\n        /* \"contracts/Checker.sol\":3915:3924  s_funders */\n      0x00\n        /* \"contracts/Checker.sol\":3915:3943  s_funders = new address[](0) */\n      swap1\n      dup1\n      mload\n      swap1\n      0x20\n      add\n      swap1\n      tag_146\n      swap3\n      swap2\n      swap1\n      tag_147\n      jump\t// in\n    tag_146:\n      pop\n        /* \"contracts/Checker.sol\":4018:4030  bool success */\n      0x00\n        /* \"contracts/Checker.sol\":4036:4043  i_owner */\n      immutable(\"0x2cc0d3dcb20652cd8f106aee76b6a7391771a130885634c0eb2bbe3cde796691\")\n        /* \"contracts/Checker.sol\":4036:4048  i_owner.call */\n      0xffffffffffffffffffffffffffffffffffffffff\n      and\n        /* \"contracts/Checker.sol\":4056:4077  address(this).balance */\n      selfbalance\n        /* \"contracts/Checker.sol\":4036:4082  i_owner.call{value: address(this).balance}(\"\") */\n      mload(0x40)\n      tag_148\n      swap1\n      tag_149\n      jump\t// in\n    tag_148:\n      0x00\n      mload(0x40)\n      dup1\n      dup4\n      sub\n      dup2\n      dup6\n      dup8\n      gas\n      call\n      swap3\n      pop\n      pop\n      pop\n      returndatasize\n      dup1\n      0x00\n      dup2\n      eq\n      tag_152\n      jumpi\n      mload(0x40)\n      swap2\n      pop\n      and(add(returndatasize, 0x3f), not(0x1f))\n      dup3\n      add\n      0x40\n      mstore\n      returndatasize\n      dup3\n      mstore\n      returndatasize\n      0x00\n      0x20\n      dup5\n      add\n      returndatacopy\n      jump(tag_151)\n    tag_152:\n      0x60\n      swap2\n      pop\n    tag_151:\n      pop\n        /* \"contracts/Checker.sol\":4017:4082  (bool success, ) = i_owner.call{value: address(this).balance}(\"\") */\n      pop\n      swap1\n      pop\n        /* \"contracts/Checker.sol\":4100:4107  success */\n      dup1\n        /* \"contracts/Checker.sol\":4092:4108  require(success) */\n      tag_153\n      jumpi\n      0x00\n      dup1\n      revert\n    tag_153:\n        /* \"contracts/Checker.sol\":3571:4115  {... */\n      pop\n      pop\n        /* \"contracts/Checker.sol\":3527:4115  function cheaperWithdraw() public onlyOwner {... */\n      jump\t// out\n        /* \"contracts/Checker.sol\":4409:4513  function getFunder(uint256 index) public view returns (address) {... */\n    tag_74:\n        /* \"contracts/Checker.sol\":4464:4471  address */\n      0x00\n        /* \"contracts/Checker.sol\":4490:4499  s_funders */\n      dup1\n        /* \"contracts/Checker.sol\":4500:4505  index */\n      dup3\n        /* \"contracts/Checker.sol\":4490:4506  s_funders[index] */\n      dup2\n      sload\n      dup2\n      lt\n      tag_155\n      jumpi\n      tag_156\n      tag_139\n      jump\t// in\n    tag_156:\n    tag_155:\n      swap1\n      0x00\n      mstore\n      keccak256(0x00, 0x20)\n      add\n      0x00\n      swap1\n      sload\n      swap1\n      0x0100\n      exp\n      swap1\n      div\n      0xffffffffffffffffffffffffffffffffffffffff\n      and\n        /* \"contracts/Checker.sol\":4483:4506  return s_funders[index] */\n      swap1\n      pop\n        /* \"contracts/Checker.sol\":4409:4513  function getFunder(uint256 index) public view returns (address) {... */\n      swap2\n      swap1\n      pop\n      jump\t// out\n        /* \"contracts/Checker.sol\":3312:3521  function getBTCPrice() public view returns (uint256) {... */\n    tag_78:\n        /* \"contracts/Checker.sol\":3356:3363  uint256 */\n      0x00\n        /* \"contracts/Checker.sol\":3378:3391  int256 answer */\n      dup1\n        /* \"contracts/Checker.sol\":3401:3414  BTC_priceFeed */\n      0x04\n      0x00\n      swap1\n      sload\n      swap1\n      0x0100\n      exp\n      swap1\n      div\n      0xffffffffffffffffffffffffffffffffffffffff\n      and\n        /* \"contracts/Checker.sol\":3401:3430  BTC_priceFeed.latestRoundData */\n      0xffffffffffffffffffffffffffffffffffffffff\n      and\n      0xfeaf968c\n        /* \"contracts/Checker.sol\":3401:3432  BTC_priceFeed.latestRoundData() */\n      mload(0x40)\n      dup2\n      0xffffffff\n      and\n      0xe0\n      shl\n      dup2\n      mstore\n      0x04\n      add\n      0xa0\n      mload(0x40)\n      dup1\n      dup4\n      sub\n      dup2\n      dup7\n      gas\n      staticcall\n      iszero\n      dup1\n      iszero\n      tag_160\n      jumpi\n      returndatasize\n      0x00\n      dup1\n      returndatacopy\n      revert(0x00, returndatasize)\n    tag_160:\n      pop\n      pop\n      pop\n      pop\n      mload(0x40)\n      returndatasize\n      not(0x1f)\n      0x1f\n      dup3\n      add\n      and\n      dup3\n      add\n      dup1\n      0x40\n      mstore\n      pop\n      dup2\n      add\n      swap1\n      tag_161\n      swap2\n      swap1\n      tag_90\n      jump\t// in\n    tag_161:\n        /* \"contracts/Checker.sol\":3375:3432  (, int256 answer, , , ) = BTC_priceFeed.latestRoundData() */\n      pop\n      pop\n      pop\n      swap2\n      pop\n      pop\n        /* \"contracts/Checker.sol\":3502:3513  10000000000 */\n      0x02540be400\n        /* \"contracts/Checker.sol\":3493:3499  answer */\n      dup2\n        /* \"contracts/Checker.sol\":3493:3513  answer * 10000000000 */\n      tag_162\n      swap2\n      swap1\n      tag_92\n      jump\t// in\n    tag_162:\n        /* \"contracts/Checker.sol\":3478:3514  return uint256(answer * 10000000000) */\n      swap2\n      pop\n      pop\n        /* \"contracts/Checker.sol\":3312:3521  function getBTCPrice() public view returns (uint256) {... */\n      swap1\n      jump\t// out\n        /* \"contracts/PriceConverter.sol\":577:954  function getConversionRate(... */\n    tag_122:\n        /* \"contracts/PriceConverter.sol\":701:708  uint256 */\n      0x00\n        /* \"contracts/PriceConverter.sol\":720:736  uint256 ethPrice */\n      dup1\n        /* \"contracts/PriceConverter.sol\":739:758  getPrice(priceFeed) */\n      tag_164\n        /* \"contracts/PriceConverter.sol\":748:757  priceFeed */\n      dup4\n        /* \"contracts/PriceConverter.sol\":739:747  getPrice */\n      tag_165\n        /* \"contracts/PriceConverter.sol\":739:758  getPrice(priceFeed) */\n      jump\t// in\n    tag_164:\n        /* \"contracts/PriceConverter.sol\":720:758  uint256 ethPrice = getPrice(priceFeed) */\n      swap1\n      pop\n        /* \"contracts/PriceConverter.sol\":768:790  uint256 ethAmountInUsd */\n      0x00\n        /* \"contracts/PriceConverter.sol\":818:837  1000000000000000000 */\n      0x0de0b6b3a7640000\n        /* \"contracts/PriceConverter.sol\":805:814  ethAmount */\n      dup6\n        /* \"contracts/PriceConverter.sol\":794:802  ethPrice */\n      dup4\n        /* \"contracts/PriceConverter.sol\":794:814  ethPrice * ethAmount */\n      tag_166\n      swap2\n      swap1\n      tag_102\n      jump\t// in\n    tag_166:\n        /* \"contracts/PriceConverter.sol\":793:837  (ethPrice * ethAmount) / 1000000000000000000 */\n      tag_167\n      swap2\n      swap1\n      tag_104\n      jump\t// in\n    tag_167:\n        /* \"contracts/PriceConverter.sol\":768:837  uint256 ethAmountInUsd = (ethPrice * ethAmount) / 1000000000000000000 */\n      swap1\n      pop\n        /* \"contracts/PriceConverter.sol\":933:947  ethAmountInUsd */\n      dup1\n        /* \"contracts/PriceConverter.sol\":926:947  return ethAmountInUsd */\n      swap3\n      pop\n      pop\n      pop\n        /* \"contracts/PriceConverter.sol\":577:954  function getConversionRate(... */\n      swap3\n      swap2\n      pop\n      pop\n      jump\t// out\n        /* \"contracts/PriceConverter.sol\":164:427  function getPrice(AggregatorV3Interface priceFeed)... */\n    tag_165:\n        /* \"contracts/PriceConverter.sol\":262:269  uint256 */\n      0x00\n        /* \"contracts/PriceConverter.sol\":288:301  int256 answer */\n      dup1\n        /* \"contracts/PriceConverter.sol\":311:320  priceFeed */\n      dup3\n        /* \"contracts/PriceConverter.sol\":311:336  priceFeed.latestRoundData */\n      0xffffffffffffffffffffffffffffffffffffffff\n      and\n      0xfeaf968c\n        /* \"contracts/PriceConverter.sol\":311:338  priceFeed.latestRoundData() */\n      mload(0x40)\n      dup2\n      0xffffffff\n      and\n      0xe0\n      shl\n      dup2\n      mstore\n      0x04\n      add\n      0xa0\n      mload(0x40)\n      dup1\n      dup4\n      sub\n      dup2\n      dup7\n      gas\n      staticcall\n      iszero\n      dup1\n      iszero\n      tag_170\n      jumpi\n      returndatasize\n      0x00\n      dup1\n      returndatacopy\n      revert(0x00, returndatasize)\n    tag_170:\n      pop\n      pop\n      pop\n      pop\n      mload(0x40)\n      returndatasize\n      not(0x1f)\n      0x1f\n      dup3\n      add\n      and\n      dup3\n      add\n      dup1\n      0x40\n      mstore\n      pop\n      dup2\n      add\n      swap1\n      tag_171\n      swap2\n      swap1\n      tag_90\n      jump\t// in\n    tag_171:\n        /* \"contracts/PriceConverter.sol\":285:338  (, int256 answer, , , ) = priceFeed.latestRoundData() */\n      pop\n      pop\n      pop\n      swap2\n      pop\n      pop\n        /* \"contracts/PriceConverter.sol\":408:419  10000000000 */\n      0x02540be400\n        /* \"contracts/PriceConverter.sol\":399:405  answer */\n      dup2\n        /* \"contracts/PriceConverter.sol\":399:419  answer * 10000000000 */\n      tag_172\n      swap2\n      swap1\n      tag_92\n      jump\t// in\n    tag_172:\n        /* \"contracts/PriceConverter.sol\":384:420  return uint256(answer * 10000000000) */\n      swap2\n      pop\n      pop\n        /* \"contracts/PriceConverter.sol\":164:427  function getPrice(AggregatorV3Interface priceFeed)... */\n      swap2\n      swap1\n      pop\n      jump\t// out\n    tag_147:\n      dup3\n      dup1\n      sload\n      dup3\n      dup3\n      sstore\n      swap1\n      0x00\n      mstore\n      keccak256(0x00, 0x20)\n      swap1\n      dup2\n      add\n      swap3\n      dup3\n      iszero\n      tag_173\n      jumpi\n      swap2\n      0x20\n      mul\n      dup3\n      add\n    tag_174:\n      dup3\n      dup2\n      gt\n      iszero\n      tag_175\n      jumpi\n      dup3\n      mload\n      dup3\n      exp(0x0100, 0x00)\n      dup2\n      sload\n      dup2\n      0xffffffffffffffffffffffffffffffffffffffff\n      mul\n      not\n      and\n      swap1\n      dup4\n      0xffffffffffffffffffffffffffffffffffffffff\n      and\n      mul\n      or\n      swap1\n      sstore\n      pop\n      swap2\n      0x20\n      add\n      swap2\n      swap1\n      0x01\n      add\n      swap1\n      jump(tag_174)\n    tag_175:\n    tag_173:\n      pop\n      swap1\n      pop\n      tag_176\n      swap2\n      swap1\n      tag_177\n      jump\t// in\n    tag_176:\n      pop\n      swap1\n      jump\t// out\n    tag_177:\n    tag_178:\n      dup1\n      dup3\n      gt\n      iszero\n      tag_179\n      jumpi\n      0x00\n      dup2\n      0x00\n      swap1\n      sstore\n      pop\n      0x01\n      add\n      jump(tag_178)\n    tag_179:\n      pop\n      swap1\n      jump\t// out\n        /* \"#utility.yul\":88:205   */\n    tag_181:\n        /* \"#utility.yul\":197:198   */\n      0x00\n        /* \"#utility.yul\":194:195   */\n      dup1\n        /* \"#utility.yul\":187:199   */\n      revert\n        /* \"#utility.yul\":334:460   */\n    tag_183:\n        /* \"#utility.yul\":371:378   */\n      0x00\n        /* \"#utility.yul\":411:453   */\n      0xffffffffffffffffffffffffffffffffffffffff\n        /* \"#utility.yul\":404:409   */\n      dup3\n        /* \"#utility.yul\":400:454   */\n      and\n        /* \"#utility.yul\":389:454   */\n      swap1\n      pop\n        /* \"#utility.yul\":334:460   */\n      swap2\n      swap1\n      pop\n      jump\t// out\n        /* \"#utility.yul\":466:562   */\n    tag_184:\n        /* \"#utility.yul\":503:510   */\n      0x00\n        /* \"#utility.yul\":532:556   */\n      tag_222\n        /* \"#utility.yul\":550:555   */\n      dup3\n        /* \"#utility.yul\":532:556   */\n      tag_183\n      jump\t// in\n    tag_222:\n        /* \"#utility.yul\":521:556   */\n      swap1\n      pop\n        /* \"#utility.yul\":466:562   */\n      swap2\n      swap1\n      pop\n      jump\t// out\n        /* \"#utility.yul\":568:690   */\n    tag_185:\n        /* \"#utility.yul\":641:665   */\n      tag_224\n        /* \"#utility.yul\":659:664   */\n      dup2\n        /* \"#utility.yul\":641:665   */\n      tag_184\n      jump\t// in\n    tag_224:\n        /* \"#utility.yul\":634:639   */\n      dup2\n        /* \"#utility.yul\":631:666   */\n      eq\n        /* \"#utility.yul\":621:684   */\n      tag_225\n      jumpi\n        /* \"#utility.yul\":680:681   */\n      0x00\n        /* \"#utility.yul\":677:678   */\n      dup1\n        /* \"#utility.yul\":670:682   */\n      revert\n        /* \"#utility.yul\":621:684   */\n    tag_225:\n        /* \"#utility.yul\":568:690   */\n      pop\n      jump\t// out\n        /* \"#utility.yul\":696:835   */\n    tag_186:\n        /* \"#utility.yul\":742:747   */\n      0x00\n        /* \"#utility.yul\":780:786   */\n      dup2\n        /* \"#utility.yul\":767:787   */\n      calldataload\n        /* \"#utility.yul\":758:787   */\n      swap1\n      pop\n        /* \"#utility.yul\":796:829   */\n      tag_227\n        /* \"#utility.yul\":823:828   */\n      dup2\n        /* \"#utility.yul\":796:829   */\n      tag_185\n      jump\t// in\n    tag_227:\n        /* \"#utility.yul\":696:835   */\n      swap3\n      swap2\n      pop\n      pop\n      jump\t// out\n        /* \"#utility.yul\":841:1170   */\n    tag_22:\n        /* \"#utility.yul\":900:906   */\n      0x00\n        /* \"#utility.yul\":949:951   */\n      0x20\n        /* \"#utility.yul\":937:946   */\n      dup3\n        /* \"#utility.yul\":928:935   */\n      dup5\n        /* \"#utility.yul\":924:947   */\n      sub\n        /* \"#utility.yul\":920:952   */\n      slt\n        /* \"#utility.yul\":917:1036   */\n      iszero\n      tag_229\n      jumpi\n        /* \"#utility.yul\":955:1034   */\n      tag_230\n      tag_181\n      jump\t// in\n    tag_230:\n        /* \"#utility.yul\":917:1036   */\n    tag_229:\n        /* \"#utility.yul\":1075:1076   */\n      0x00\n        /* \"#utility.yul\":1100:1153   */\n      tag_231\n        /* \"#utility.yul\":1145:1152   */\n      dup5\n        /* \"#utility.yul\":1136:1142   */\n      dup3\n        /* \"#utility.yul\":1125:1134   */\n      dup6\n        /* \"#utility.yul\":1121:1143   */\n      add\n        /* \"#utility.yul\":1100:1153   */\n      tag_186\n      jump\t// in\n    tag_231:\n        /* \"#utility.yul\":1090:1153   */\n      swap2\n      pop\n        /* \"#utility.yul\":1046:1163   */\n      pop\n        /* \"#utility.yul\":841:1170   */\n      swap3\n      swap2\n      pop\n      pop\n      jump\t// out\n        /* \"#utility.yul\":1176:1253   */\n    tag_187:\n        /* \"#utility.yul\":1213:1220   */\n      0x00\n        /* \"#utility.yul\":1242:1247   */\n      dup2\n        /* \"#utility.yul\":1231:1247   */\n      swap1\n      pop\n        /* \"#utility.yul\":1176:1253   */\n      swap2\n      swap1\n      pop\n      jump\t// out\n        /* \"#utility.yul\":1259:1377   */\n    tag_188:\n        /* \"#utility.yul\":1346:1370   */\n      tag_234\n        /* \"#utility.yul\":1364:1369   */\n      dup2\n        /* \"#utility.yul\":1346:1370   */\n      tag_187\n      jump\t// in\n    tag_234:\n        /* \"#utility.yul\":1341:1344   */\n      dup3\n        /* \"#utility.yul\":1334:1371   */\n      mstore\n        /* \"#utility.yul\":1259:1377   */\n      pop\n      pop\n      jump\t// out\n        /* \"#utility.yul\":1383:1605   */\n    tag_25:\n        /* \"#utility.yul\":1476:1480   */\n      0x00\n        /* \"#utility.yul\":1514:1516   */\n      0x20\n        /* \"#utility.yul\":1503:1512   */\n      dup3\n        /* \"#utility.yul\":1499:1517   */\n      add\n        /* \"#utility.yul\":1491:1517   */\n      swap1\n      pop\n        /* \"#utility.yul\":1527:1598   */\n      tag_236\n        /* \"#utility.yul\":1595:1596   */\n      0x00\n        /* \"#utility.yul\":1584:1593   */\n      dup4\n        /* \"#utility.yul\":1580:1597   */\n      add\n        /* \"#utility.yul\":1571:1577   */\n      dup5\n        /* \"#utility.yul\":1527:1598   */\n      tag_188\n      jump\t// in\n    tag_236:\n        /* \"#utility.yul\":1383:1605   */\n      swap3\n      swap2\n      pop\n      pop\n      jump\t// out\n        /* \"#utility.yul\":1611:1733   */\n    tag_189:\n        /* \"#utility.yul\":1684:1708   */\n      tag_238\n        /* \"#utility.yul\":1702:1707   */\n      dup2\n        /* \"#utility.yul\":1684:1708   */\n      tag_187\n      jump\t// in\n    tag_238:\n        /* \"#utility.yul\":1677:1682   */\n      dup2\n        /* \"#utility.yul\":1674:1709   */\n      eq\n        /* \"#utility.yul\":1664:1727   */\n      tag_239\n      jumpi\n        /* \"#utility.yul\":1723:1724   */\n      0x00\n        /* \"#utility.yul\":1720:1721   */\n      dup1\n        /* \"#utility.yul\":1713:1725   */\n      revert\n        /* \"#utility.yul\":1664:1727   */\n    tag_239:\n        /* \"#utility.yul\":1611:1733   */\n      pop\n      jump\t// out\n        /* \"#utility.yul\":1739:1878   */\n    tag_190:\n        /* \"#utility.yul\":1785:1790   */\n      0x00\n        /* \"#utility.yul\":1823:1829   */\n      dup2\n        /* \"#utility.yul\":1810:1830   */\n      calldataload\n        /* \"#utility.yul\":1801:1830   */\n      swap1\n      pop\n        /* \"#utility.yul\":1839:1872   */\n      tag_241\n        /* \"#utility.yul\":1866:1871   */\n      dup2\n        /* \"#utility.yul\":1839:1872   */\n      tag_189\n      jump\t// in\n    tag_241:\n        /* \"#utility.yul\":1739:1878   */\n      swap3\n      swap2\n      pop\n      pop\n      jump\t// out\n        /* \"#utility.yul\":1884:2213   */\n    tag_45:\n        /* \"#utility.yul\":1943:1949   */\n      0x00\n        /* \"#utility.yul\":1992:1994   */\n      0x20\n        /* \"#utility.yul\":1980:1989   */\n      dup3\n        /* \"#utility.yul\":1971:1978   */\n      dup5\n        /* \"#utility.yul\":1967:1990   */\n      sub\n        /* \"#utility.yul\":1963:1995   */\n      slt\n        /* \"#utility.yul\":1960:2079   */\n      iszero\n      tag_243\n      jumpi\n        /* \"#utility.yul\":1998:2077   */\n      tag_244\n      tag_181\n      jump\t// in\n    tag_244:\n        /* \"#utility.yul\":1960:2079   */\n    tag_243:\n        /* \"#utility.yul\":2118:2119   */\n      0x00\n        /* \"#utility.yul\":2143:2196   */\n      tag_245\n        /* \"#utility.yul\":2188:2195   */\n      dup5\n        /* \"#utility.yul\":2179:2185   */\n      dup3\n        /* \"#utility.yul\":2168:2177   */\n      dup6\n        /* \"#utility.yul\":2164:2186   */\n      add\n        /* \"#utility.yul\":2143:2196   */\n      tag_190\n      jump\t// in\n    tag_245:\n        /* \"#utility.yul\":2133:2196   */\n      swap2\n      pop\n        /* \"#utility.yul\":2089:2206   */\n      pop\n        /* \"#utility.yul\":1884:2213   */\n      swap3\n      swap2\n      pop\n      pop\n      jump\t// out\n        /* \"#utility.yul\":2219:2337   */\n    tag_191:\n        /* \"#utility.yul\":2306:2330   */\n      tag_247\n        /* \"#utility.yul\":2324:2329   */\n      dup2\n        /* \"#utility.yul\":2306:2330   */\n      tag_184\n      jump\t// in\n    tag_247:\n        /* \"#utility.yul\":2301:2304   */\n      dup3\n        /* \"#utility.yul\":2294:2331   */\n      mstore\n        /* \"#utility.yul\":2219:2337   */\n      pop\n      pop\n      jump\t// out\n        /* \"#utility.yul\":2343:2565   */\n    tag_51:\n        /* \"#utility.yul\":2436:2440   */\n      0x00\n        /* \"#utility.yul\":2474:2476   */\n      0x20\n        /* \"#utility.yul\":2463:2472   */\n      dup3\n        /* \"#utility.yul\":2459:2477   */\n      add\n        /* \"#utility.yul\":2451:2477   */\n      swap1\n      pop\n        /* \"#utility.yul\":2487:2558   */\n      tag_249\n        /* \"#utility.yul\":2555:2556   */\n      0x00\n        /* \"#utility.yul\":2544:2553   */\n      dup4\n        /* \"#utility.yul\":2540:2557   */\n      add\n        /* \"#utility.yul\":2531:2537   */\n      dup5\n        /* \"#utility.yul\":2487:2558   */\n      tag_191\n      jump\t// in\n    tag_249:\n        /* \"#utility.yul\":2343:2565   */\n      swap3\n      swap2\n      pop\n      pop\n      jump\t// out\n        /* \"#utility.yul\":2571:2631   */\n    tag_192:\n        /* \"#utility.yul\":2599:2602   */\n      0x00\n        /* \"#utility.yul\":2620:2625   */\n      dup2\n        /* \"#utility.yul\":2613:2625   */\n      swap1\n      pop\n        /* \"#utility.yul\":2571:2631   */\n      swap2\n      swap1\n      pop\n      jump\t// out\n        /* \"#utility.yul\":2637:2779   */\n    tag_193:\n        /* \"#utility.yul\":2687:2696   */\n      0x00\n        /* \"#utility.yul\":2720:2773   */\n      tag_252\n        /* \"#utility.yul\":2738:2772   */\n      tag_253\n        /* \"#utility.yul\":2747:2771   */\n      tag_254\n        /* \"#utility.yul\":2765:2770   */\n      dup5\n        /* \"#utility.yul\":2747:2771   */\n      tag_183\n      jump\t// in\n    tag_254:\n        /* \"#utility.yul\":2738:2772   */\n      tag_192\n      jump\t// in\n    tag_253:\n        /* \"#utility.yul\":2720:2773   */\n      tag_183\n      jump\t// in\n    tag_252:\n        /* \"#utility.yul\":2707:2773   */\n      swap1\n      pop\n        /* \"#utility.yul\":2637:2779   */\n      swap2\n      swap1\n      pop\n      jump\t// out\n        /* \"#utility.yul\":2785:2911   */\n    tag_194:\n        /* \"#utility.yul\":2835:2844   */\n      0x00\n        /* \"#utility.yul\":2868:2905   */\n      tag_256\n        /* \"#utility.yul\":2899:2904   */\n      dup3\n        /* \"#utility.yul\":2868:2905   */\n      tag_193\n      jump\t// in\n    tag_256:\n        /* \"#utility.yul\":2855:2905   */\n      swap1\n      pop\n        /* \"#utility.yul\":2785:2911   */\n      swap2\n      swap1\n      pop\n      jump\t// out\n        /* \"#utility.yul\":2917:3071   */\n    tag_195:\n        /* \"#utility.yul\":2995:3004   */\n      0x00\n        /* \"#utility.yul\":3028:3065   */\n      tag_258\n        /* \"#utility.yul\":3059:3064   */\n      dup3\n        /* \"#utility.yul\":3028:3065   */\n      tag_194\n      jump\t// in\n    tag_258:\n        /* \"#utility.yul\":3015:3065   */\n      swap1\n      pop\n        /* \"#utility.yul\":2917:3071   */\n      swap2\n      swap1\n      pop\n      jump\t// out\n        /* \"#utility.yul\":3077:3264   */\n    tag_196:\n        /* \"#utility.yul\":3192:3257   */\n      tag_260\n        /* \"#utility.yul\":3251:3256   */\n      dup2\n        /* \"#utility.yul\":3192:3257   */\n      tag_195\n      jump\t// in\n    tag_260:\n        /* \"#utility.yul\":3187:3190   */\n      dup3\n        /* \"#utility.yul\":3180:3258   */\n      mstore\n        /* \"#utility.yul\":3077:3264   */\n      pop\n      pop\n      jump\t// out\n        /* \"#utility.yul\":3270:3548   */\n    tag_56:\n        /* \"#utility.yul\":3391:3395   */\n      0x00\n        /* \"#utility.yul\":3429:3431   */\n      0x20\n        /* \"#utility.yul\":3418:3427   */\n      dup3\n        /* \"#utility.yul\":3414:3432   */\n      add\n        /* \"#utility.yul\":3406:3432   */\n      swap1\n      pop\n        /* \"#utility.yul\":3442:3541   */\n      tag_262\n        /* \"#utility.yul\":3538:3539   */\n      0x00\n        /* \"#utility.yul\":3527:3536   */\n      dup4\n        /* \"#utility.yul\":3523:3540   */\n      add\n        /* \"#utility.yul\":3514:3520   */\n      dup5\n        /* \"#utility.yul\":3442:3541   */\n      tag_196\n      jump\t// in\n    tag_262:\n        /* \"#utility.yul\":3270:3548   */\n      swap3\n      swap2\n      pop\n      pop\n      jump\t// out\n        /* \"#utility.yul\":3554:3644   */\n    tag_197:\n        /* \"#utility.yul\":3588:3595   */\n      0x00\n        /* \"#utility.yul\":3631:3636   */\n      dup2\n        /* \"#utility.yul\":3624:3637   */\n      iszero\n        /* \"#utility.yul\":3617:3638   */\n      iszero\n        /* \"#utility.yul\":3606:3638   */\n      swap1\n      pop\n        /* \"#utility.yul\":3554:3644   */\n      swap2\n      swap1\n      pop\n      jump\t// out\n        /* \"#utility.yul\":3650:3759   */\n    tag_198:\n        /* \"#utility.yul\":3731:3752   */\n      tag_265\n        /* \"#utility.yul\":3746:3751   */\n      dup2\n        /* \"#utility.yul\":3731:3752   */\n      tag_197\n      jump\t// in\n    tag_265:\n        /* \"#utility.yul\":3726:3729   */\n      dup3\n        /* \"#utility.yul\":3719:3753   */\n      mstore\n        /* \"#utility.yul\":3650:3759   */\n      pop\n      pop\n      jump\t// out\n        /* \"#utility.yul\":3765:3975   */\n    tag_65:\n        /* \"#utility.yul\":3852:3856   */\n      0x00\n        /* \"#utility.yul\":3890:3892   */\n      0x20\n        /* \"#utility.yul\":3879:3888   */\n      dup3\n        /* \"#utility.yul\":3875:3893   */\n      add\n        /* \"#utility.yul\":3867:3893   */\n      swap1\n      pop\n        /* \"#utility.yul\":3903:3968   */\n      tag_267\n        /* \"#utility.yul\":3965:3966   */\n      0x00\n        /* \"#utility.yul\":3954:3963   */\n      dup4\n        /* \"#utility.yul\":3950:3967   */\n      add\n        /* \"#utility.yul\":3941:3947   */\n      dup5\n        /* \"#utility.yul\":3903:3968   */\n      tag_198\n      jump\t// in\n    tag_267:\n        /* \"#utility.yul\":3765:3975   */\n      swap3\n      swap2\n      pop\n      pop\n      jump\t// out\n        /* \"#utility.yul\":3981:4124   */\n    tag_199:\n        /* \"#utility.yul\":4038:4043   */\n      0x00\n        /* \"#utility.yul\":4069:4075   */\n      dup2\n        /* \"#utility.yul\":4063:4076   */\n      mload\n        /* \"#utility.yul\":4054:4076   */\n      swap1\n      pop\n        /* \"#utility.yul\":4085:4118   */\n      tag_269\n        /* \"#utility.yul\":4112:4117   */\n      dup2\n        /* \"#utility.yul\":4085:4118   */\n      tag_189\n      jump\t// in\n    tag_269:\n        /* \"#utility.yul\":3981:4124   */\n      swap3\n      swap2\n      pop\n      pop\n      jump\t// out\n        /* \"#utility.yul\":4130:4481   */\n    tag_85:\n        /* \"#utility.yul\":4200:4206   */\n      0x00\n        /* \"#utility.yul\":4249:4251   */\n      0x20\n        /* \"#utility.yul\":4237:4246   */\n      dup3\n        /* \"#utility.yul\":4228:4235   */\n      dup5\n        /* \"#utility.yul\":4224:4247   */\n      sub\n        /* \"#utility.yul\":4220:4252   */\n      slt\n        /* \"#utility.yul\":4217:4336   */\n      iszero\n      tag_271\n      jumpi\n        /* \"#utility.yul\":4255:4334   */\n      tag_272\n      tag_181\n      jump\t// in\n    tag_272:\n        /* \"#utility.yul\":4217:4336   */\n    tag_271:\n        /* \"#utility.yul\":4375:4376   */\n      0x00\n        /* \"#utility.yul\":4400:4464   */\n      tag_273\n        /* \"#utility.yul\":4456:4463   */\n      dup5\n        /* \"#utility.yul\":4447:4453   */\n      dup3\n        /* \"#utility.yul\":4436:4445   */\n      dup6\n        /* \"#utility.yul\":4432:4454   */\n      add\n        /* \"#utility.yul\":4400:4464   */\n      tag_199\n      jump\t// in\n    tag_273:\n        /* \"#utility.yul\":4390:4464   */\n      swap2\n      pop\n        /* \"#utility.yul\":4346:4474   */\n      pop\n        /* \"#utility.yul\":4130:4481   */\n      swap3\n      swap2\n      pop\n      pop\n      jump\t// out\n        /* \"#utility.yul\":4487:4592   */\n    tag_200:\n        /* \"#utility.yul\":4523:4530   */\n      0x00\n        /* \"#utility.yul\":4563:4585   */\n      0xffffffffffffffffffff\n        /* \"#utility.yul\":4556:4561   */\n      dup3\n        /* \"#utility.yul\":4552:4586   */\n      and\n        /* \"#utility.yul\":4541:4586   */\n      swap1\n      pop\n        /* \"#utility.yul\":4487:4592   */\n      swap2\n      swap1\n      pop\n      jump\t// out\n        /* \"#utility.yul\":4598:4718   */\n    tag_201:\n        /* \"#utility.yul\":4670:4693   */\n      tag_276\n        /* \"#utility.yul\":4687:4692   */\n      dup2\n        /* \"#utility.yul\":4670:4693   */\n      tag_200\n      jump\t// in\n    tag_276:\n        /* \"#utility.yul\":4663:4668   */\n      dup2\n        /* \"#utility.yul\":4660:4694   */\n      eq\n        /* \"#utility.yul\":4650:4712   */\n      tag_277\n      jumpi\n        /* \"#utility.yul\":4708:4709   */\n      0x00\n        /* \"#utility.yul\":4705:4706   */\n      dup1\n        /* \"#utility.yul\":4698:4710   */\n      revert\n        /* \"#utility.yul\":4650:4712   */\n    tag_277:\n        /* \"#utility.yul\":4598:4718   */\n      pop\n      jump\t// out\n        /* \"#utility.yul\":4724:4865   */\n    tag_202:\n        /* \"#utility.yul\":4780:4785   */\n      0x00\n        /* \"#utility.yul\":4811:4817   */\n      dup2\n        /* \"#utility.yul\":4805:4818   */\n      mload\n        /* \"#utility.yul\":4796:4818   */\n      swap1\n      pop\n        /* \"#utility.yul\":4827:4859   */\n      tag_279\n        /* \"#utility.yul\":4853:4858   */\n      dup2\n        /* \"#utility.yul\":4827:4859   */\n      tag_201\n      jump\t// in\n    tag_279:\n        /* \"#utility.yul\":4724:4865   */\n      swap3\n      swap2\n      pop\n      pop\n      jump\t// out\n        /* \"#utility.yul\":4871:4947   */\n    tag_203:\n        /* \"#utility.yul\":4907:4914   */\n      0x00\n        /* \"#utility.yul\":4936:4941   */\n      dup2\n        /* \"#utility.yul\":4925:4941   */\n      swap1\n      pop\n        /* \"#utility.yul\":4871:4947   */\n      swap2\n      swap1\n      pop\n      jump\t// out\n        /* \"#utility.yul\":4953:5073   */\n    tag_204:\n        /* \"#utility.yul\":5025:5048   */\n      tag_282\n        /* \"#utility.yul\":5042:5047   */\n      dup2\n        /* \"#utility.yul\":5025:5048   */\n      tag_203\n      jump\t// in\n    tag_282:\n        /* \"#utility.yul\":5018:5023   */\n      dup2\n        /* \"#utility.yul\":5015:5049   */\n      eq\n        /* \"#utility.yul\":5005:5067   */\n      tag_283\n      jumpi\n        /* \"#utility.yul\":5063:5064   */\n      0x00\n        /* \"#utility.yul\":5060:5061   */\n      dup1\n        /* \"#utility.yul\":5053:5065   */\n      revert\n        /* \"#utility.yul\":5005:5067   */\n    tag_283:\n        /* \"#utility.yul\":4953:5073   */\n      pop\n      jump\t// out\n        /* \"#utility.yul\":5079:5220   */\n    tag_205:\n        /* \"#utility.yul\":5135:5140   */\n      0x00\n        /* \"#utility.yul\":5166:5172   */\n      dup2\n        /* \"#utility.yul\":5160:5173   */\n      mload\n        /* \"#utility.yul\":5151:5173   */\n      swap1\n      pop\n        /* \"#utility.yul\":5182:5214   */\n      tag_285\n        /* \"#utility.yul\":5208:5213   */\n      dup2\n        /* \"#utility.yul\":5182:5214   */\n      tag_204\n      jump\t// in\n    tag_285:\n        /* \"#utility.yul\":5079:5220   */\n      swap3\n      swap2\n      pop\n      pop\n      jump\t// out\n        /* \"#utility.yul\":5226:6197   */\n    tag_90:\n        /* \"#utility.yul\":5329:5335   */\n      0x00\n        /* \"#utility.yul\":5337:5343   */\n      dup1\n        /* \"#utility.yul\":5345:5351   */\n      0x00\n        /* \"#utility.yul\":5353:5359   */\n      dup1\n        /* \"#utility.yul\":5361:5367   */\n      0x00\n        /* \"#utility.yul\":5410:5413   */\n      0xa0\n        /* \"#utility.yul\":5398:5407   */\n      dup7\n        /* \"#utility.yul\":5389:5396   */\n      dup9\n        /* \"#utility.yul\":5385:5408   */\n      sub\n        /* \"#utility.yul\":5381:5414   */\n      slt\n        /* \"#utility.yul\":5378:5498   */\n      iszero\n      tag_287\n      jumpi\n        /* \"#utility.yul\":5417:5496   */\n      tag_288\n      tag_181\n      jump\t// in\n    tag_288:\n        /* \"#utility.yul\":5378:5498   */\n    tag_287:\n        /* \"#utility.yul\":5537:5538   */\n      0x00\n        /* \"#utility.yul\":5562:5625   */\n      tag_289\n        /* \"#utility.yul\":5617:5624   */\n      dup9\n        /* \"#utility.yul\":5608:5614   */\n      dup3\n        /* \"#utility.yul\":5597:5606   */\n      dup10\n        /* \"#utility.yul\":5593:5615   */\n      add\n        /* \"#utility.yul\":5562:5625   */\n      tag_202\n      jump\t// in\n    tag_289:\n        /* \"#utility.yul\":5552:5625   */\n      swap6\n      pop\n        /* \"#utility.yul\":5508:5635   */\n      pop\n        /* \"#utility.yul\":5674:5676   */\n      0x20\n        /* \"#utility.yul\":5700:5763   */\n      tag_290\n        /* \"#utility.yul\":5755:5762   */\n      dup9\n        /* \"#utility.yul\":5746:5752   */\n      dup3\n        /* \"#utility.yul\":5735:5744   */\n      dup10\n        /* \"#utility.yul\":5731:5753   */\n      add\n        /* \"#utility.yul\":5700:5763   */\n      tag_205\n      jump\t// in\n    tag_290:\n        /* \"#utility.yul\":5690:5763   */\n      swap5\n      pop\n        /* \"#utility.yul\":5645:5773   */\n      pop\n        /* \"#utility.yul\":5812:5814   */\n      0x40\n        /* \"#utility.yul\":5838:5902   */\n      tag_291\n        /* \"#utility.yul\":5894:5901   */\n      dup9\n        /* \"#utility.yul\":5885:5891   */\n      dup3\n        /* \"#utility.yul\":5874:5883   */\n      dup10\n        /* \"#utility.yul\":5870:5892   */\n      add\n        /* \"#utility.yul\":5838:5902   */\n      tag_199\n      jump\t// in\n    tag_291:\n        /* \"#utility.yul\":5828:5902   */\n      swap4\n      pop\n        /* \"#utility.yul\":5783:5912   */\n      pop\n        /* \"#utility.yul\":5951:5953   */\n      0x60\n        /* \"#utility.yul\":5977:6041   */\n      tag_292\n        /* \"#utility.yul\":6033:6040   */\n      dup9\n        /* \"#utility.yul\":6024:6030   */\n      dup3\n        /* \"#utility.yul\":6013:6022   */\n      dup10\n        /* \"#utility.yul\":6009:6031   */\n      add\n        /* \"#utility.yul\":5977:6041   */\n      tag_199\n      jump\t// in\n    tag_292:\n        /* \"#utility.yul\":5967:6041   */\n      swap3\n      pop\n        /* \"#utility.yul\":5922:6051   */\n      pop\n        /* \"#utility.yul\":6090:6093   */\n      0x80\n        /* \"#utility.yul\":6117:6180   */\n      tag_293\n        /* \"#utility.yul\":6172:6179   */\n      dup9\n        /* \"#utility.yul\":6163:6169   */\n      dup3\n        /* \"#utility.yul\":6152:6161   */\n      dup10\n        /* \"#utility.yul\":6148:6170   */\n      add\n        /* \"#utility.yul\":6117:6180   */\n      tag_202\n      jump\t// in\n    tag_293:\n        /* \"#utility.yul\":6107:6180   */\n      swap2\n      pop\n        /* \"#utility.yul\":6061:6190   */\n      pop\n        /* \"#utility.yul\":5226:6197   */\n      swap3\n      swap6\n      pop\n      swap3\n      swap6\n      swap1\n      swap4\n      pop\n      jump\t// out\n        /* \"#utility.yul\":6203:6383   */\n    tag_206:\n        /* \"#utility.yul\":6251:6328   */\n      0x4e487b7100000000000000000000000000000000000000000000000000000000\n        /* \"#utility.yul\":6248:6249   */\n      0x00\n        /* \"#utility.yul\":6241:6329   */\n      mstore\n        /* \"#utility.yul\":6348:6352   */\n      0x11\n        /* \"#utility.yul\":6345:6346   */\n      0x04\n        /* \"#utility.yul\":6338:6353   */\n      mstore\n        /* \"#utility.yul\":6372:6376   */\n      0x24\n        /* \"#utility.yul\":6369:6370   */\n      0x00\n        /* \"#utility.yul\":6362:6377   */\n      revert\n        /* \"#utility.yul\":6389:6945   */\n    tag_92:\n        /* \"#utility.yul\":6428:6435   */\n      0x00\n        /* \"#utility.yul\":6451:6470   */\n      tag_296\n        /* \"#utility.yul\":6468:6469   */\n      dup3\n        /* \"#utility.yul\":6451:6470   */\n      tag_203\n      jump\t// in\n    tag_296:\n        /* \"#utility.yul\":6446:6470   */\n      swap2\n      pop\n        /* \"#utility.yul\":6484:6503   */\n      tag_297\n        /* \"#utility.yul\":6501:6502   */\n      dup4\n        /* \"#utility.yul\":6484:6503   */\n      tag_203\n      jump\t// in\n    tag_297:\n        /* \"#utility.yul\":6479:6503   */\n      swap3\n      pop\n        /* \"#utility.yul\":6538:6539   */\n      dup3\n        /* \"#utility.yul\":6535:6536   */\n      dup3\n        /* \"#utility.yul\":6531:6540   */\n      mul\n        /* \"#utility.yul\":6560:6589   */\n      tag_298\n        /* \"#utility.yul\":6577:6588   */\n      dup2\n        /* \"#utility.yul\":6560:6589   */\n      tag_203\n      jump\t// in\n    tag_298:\n        /* \"#utility.yul\":6549:6589   */\n      swap2\n      pop\n        /* \"#utility.yul\":6647:6713   */\n      0x8000000000000000000000000000000000000000000000000000000000000000\n        /* \"#utility.yul\":6644:6645   */\n      dup5\n        /* \"#utility.yul\":6641:6714   */\n      eq\n        /* \"#utility.yul\":6637:6638   */\n      0x00\n        /* \"#utility.yul\":6634:6635   */\n      dup5\n        /* \"#utility.yul\":6630:6639   */\n      slt\n        /* \"#utility.yul\":6626:6715   */\n      and\n        /* \"#utility.yul\":6623:6738   */\n      iszero\n      tag_299\n      jumpi\n        /* \"#utility.yul\":6718:6736   */\n      tag_300\n      tag_206\n      jump\t// in\n    tag_300:\n        /* \"#utility.yul\":6623:6738   */\n    tag_299:\n        /* \"#utility.yul\":6888:6889   */\n      dup3\n        /* \"#utility.yul\":6879:6886   */\n      dup3\n        /* \"#utility.yul\":6874:6890   */\n      sdiv\n        /* \"#utility.yul\":6871:6872   */\n      dup5\n        /* \"#utility.yul\":6868:6891   */\n      eq\n        /* \"#utility.yul\":6848:6849   */\n      dup4\n        /* \"#utility.yul\":6841:6850   */\n      iszero\n        /* \"#utility.yul\":6821:6905   */\n      or\n        /* \"#utility.yul\":6798:6938   */\n      tag_301\n      jumpi\n        /* \"#utility.yul\":6918:6936   */\n      tag_302\n      tag_206\n      jump\t// in\n    tag_302:\n        /* \"#utility.yul\":6798:6938   */\n    tag_301:\n        /* \"#utility.yul\":6436:6945   */\n      pop\n        /* \"#utility.yul\":6389:6945   */\n      swap3\n      swap2\n      pop\n      pop\n      jump\t// out\n        /* \"#utility.yul\":6951:7361   */\n    tag_102:\n        /* \"#utility.yul\":6991:6998   */\n      0x00\n        /* \"#utility.yul\":7014:7034   */\n      tag_304\n        /* \"#utility.yul\":7032:7033   */\n      dup3\n        /* \"#utility.yul\":7014:7034   */\n      tag_187\n      jump\t// in\n    tag_304:\n        /* \"#utility.yul\":7009:7034   */\n      swap2\n      pop\n        /* \"#utility.yul\":7048:7068   */\n      tag_305\n        /* \"#utility.yul\":7066:7067   */\n      dup4\n        /* \"#utility.yul\":7048:7068   */\n      tag_187\n      jump\t// in\n    tag_305:\n        /* \"#utility.yul\":7043:7068   */\n      swap3\n      pop\n        /* \"#utility.yul\":7103:7104   */\n      dup3\n        /* \"#utility.yul\":7100:7101   */\n      dup3\n        /* \"#utility.yul\":7096:7105   */\n      mul\n        /* \"#utility.yul\":7125:7155   */\n      tag_306\n        /* \"#utility.yul\":7143:7154   */\n      dup2\n        /* \"#utility.yul\":7125:7155   */\n      tag_187\n      jump\t// in\n    tag_306:\n        /* \"#utility.yul\":7114:7155   */\n      swap2\n      pop\n        /* \"#utility.yul\":7304:7305   */\n      dup3\n        /* \"#utility.yul\":7295:7302   */\n      dup3\n        /* \"#utility.yul\":7291:7306   */\n      div\n        /* \"#utility.yul\":7288:7289   */\n      dup5\n        /* \"#utility.yul\":7285:7307   */\n      eq\n        /* \"#utility.yul\":7265:7266   */\n      dup4\n        /* \"#utility.yul\":7258:7267   */\n      iszero\n        /* \"#utility.yul\":7238:7321   */\n      or\n        /* \"#utility.yul\":7215:7354   */\n      tag_307\n      jumpi\n        /* \"#utility.yul\":7334:7352   */\n      tag_308\n      tag_206\n      jump\t// in\n    tag_308:\n        /* \"#utility.yul\":7215:7354   */\n    tag_307:\n        /* \"#utility.yul\":6999:7361   */\n      pop\n        /* \"#utility.yul\":6951:7361   */\n      swap3\n      swap2\n      pop\n      pop\n      jump\t// out\n        /* \"#utility.yul\":7367:7547   */\n    tag_207:\n        /* \"#utility.yul\":7415:7492   */\n      0x4e487b7100000000000000000000000000000000000000000000000000000000\n        /* \"#utility.yul\":7412:7413   */\n      0x00\n        /* \"#utility.yul\":7405:7493   */\n      mstore\n        /* \"#utility.yul\":7512:7516   */\n      0x12\n        /* \"#utility.yul\":7509:7510   */\n      0x04\n        /* \"#utility.yul\":7502:7517   */\n      mstore\n        /* \"#utility.yul\":7536:7540   */\n      0x24\n        /* \"#utility.yul\":7533:7534   */\n      0x00\n        /* \"#utility.yul\":7526:7541   */\n      revert\n        /* \"#utility.yul\":7553:7738   */\n    tag_104:\n        /* \"#utility.yul\":7593:7594   */\n      0x00\n        /* \"#utility.yul\":7610:7630   */\n      tag_311\n        /* \"#utility.yul\":7628:7629   */\n      dup3\n        /* \"#utility.yul\":7610:7630   */\n      tag_187\n      jump\t// in\n    tag_311:\n        /* \"#utility.yul\":7605:7630   */\n      swap2\n      pop\n        /* \"#utility.yul\":7644:7664   */\n      tag_312\n        /* \"#utility.yul\":7662:7663   */\n      dup4\n        /* \"#utility.yul\":7644:7664   */\n      tag_187\n      jump\t// in\n    tag_312:\n        /* \"#utility.yul\":7639:7664   */\n      swap3\n      pop\n        /* \"#utility.yul\":7683:7684   */\n      dup3\n        /* \"#utility.yul\":7673:7708   */\n      tag_313\n      jumpi\n        /* \"#utility.yul\":7688:7706   */\n      tag_314\n      tag_207\n      jump\t// in\n    tag_314:\n        /* \"#utility.yul\":7673:7708   */\n    tag_313:\n        /* \"#utility.yul\":7730:7731   */\n      dup3\n        /* \"#utility.yul\":7727:7728   */\n      dup3\n        /* \"#utility.yul\":7723:7732   */\n      div\n        /* \"#utility.yul\":7718:7732   */\n      swap1\n      pop\n        /* \"#utility.yul\":7553:7738   */\n      swap3\n      swap2\n      pop\n      pop\n      jump\t// out\n        /* \"#utility.yul\":7744:7938   */\n    tag_111:\n        /* \"#utility.yul\":7784:7788   */\n      0x00\n        /* \"#utility.yul\":7804:7824   */\n      tag_316\n        /* \"#utility.yul\":7822:7823   */\n      dup3\n        /* \"#utility.yul\":7804:7824   */\n      tag_187\n      jump\t// in\n    tag_316:\n        /* \"#utility.yul\":7799:7824   */\n      swap2\n      pop\n        /* \"#utility.yul\":7838:7858   */\n      tag_317\n        /* \"#utility.yul\":7856:7857   */\n      dup4\n        /* \"#utility.yul\":7838:7858   */\n      tag_187\n      jump\t// in\n    tag_317:\n        /* \"#utility.yul\":7833:7858   */\n      swap3\n      pop\n        /* \"#utility.yul\":7882:7883   */\n      dup3\n        /* \"#utility.yul\":7879:7880   */\n      dup3\n        /* \"#utility.yul\":7875:7884   */\n      sub\n        /* \"#utility.yul\":7867:7884   */\n      swap1\n      pop\n        /* \"#utility.yul\":7906:7907   */\n      dup2\n        /* \"#utility.yul\":7900:7904   */\n      dup2\n        /* \"#utility.yul\":7897:7908   */\n      gt\n        /* \"#utility.yul\":7894:7931   */\n      iszero\n      tag_318\n      jumpi\n        /* \"#utility.yul\":7911:7929   */\n      tag_319\n      tag_206\n      jump\t// in\n    tag_319:\n        /* \"#utility.yul\":7894:7931   */\n    tag_318:\n        /* \"#utility.yul\":7744:7938   */\n      swap3\n      swap2\n      pop\n      pop\n      jump\t// out\n        /* \"#utility.yul\":7944:8113   */\n    tag_208:\n        /* \"#utility.yul\":8028:8039   */\n      0x00\n        /* \"#utility.yul\":8062:8068   */\n      dup3\n        /* \"#utility.yul\":8057:8060   */\n      dup3\n        /* \"#utility.yul\":8050:8069   */\n      mstore\n        /* \"#utility.yul\":8102:8106   */\n      0x20\n        /* \"#utility.yul\":8097:8100   */\n      dup3\n        /* \"#utility.yul\":8093:8107   */\n      add\n        /* \"#utility.yul\":8078:8107   */\n      swap1\n      pop\n        /* \"#utility.yul\":7944:8113   */\n      swap3\n      swap2\n      pop\n      pop\n      jump\t// out\n        /* \"#utility.yul\":8119:8272   */\n    tag_209:\n        /* \"#utility.yul\":8259:8264   */\n      0x4554480000000000000000000000000000000000000000000000000000000000\n        /* \"#utility.yul\":8255:8256   */\n      0x00\n        /* \"#utility.yul\":8247:8253   */\n      dup3\n        /* \"#utility.yul\":8243:8257   */\n      add\n        /* \"#utility.yul\":8236:8265   */\n      mstore\n        /* \"#utility.yul\":8119:8272   */\n      pop\n      jump\t// out\n        /* \"#utility.yul\":8278:8643   */\n    tag_210:\n        /* \"#utility.yul\":8420:8423   */\n      0x00\n        /* \"#utility.yul\":8441:8507   */\n      tag_323\n        /* \"#utility.yul\":8505:8506   */\n      0x03\n        /* \"#utility.yul\":8500:8503   */\n      dup4\n        /* \"#utility.yul\":8441:8507   */\n      tag_208\n      jump\t// in\n    tag_323:\n        /* \"#utility.yul\":8434:8507   */\n      swap2\n      pop\n        /* \"#utility.yul\":8516:8609   */\n      tag_324\n        /* \"#utility.yul\":8605:8608   */\n      dup3\n        /* \"#utility.yul\":8516:8609   */\n      tag_209\n      jump\t// in\n    tag_324:\n        /* \"#utility.yul\":8634:8636   */\n      0x20\n        /* \"#utility.yul\":8629:8632   */\n      dup3\n        /* \"#utility.yul\":8625:8637   */\n      add\n        /* \"#utility.yul\":8618:8637   */\n      swap1\n      pop\n        /* \"#utility.yul\":8278:8643   */\n      swap2\n      swap1\n      pop\n      jump\t// out\n        /* \"#utility.yul\":8649:9288   */\n    tag_114:\n        /* \"#utility.yul\":8871:8875   */\n      0x00\n        /* \"#utility.yul\":8909:8911   */\n      0x60\n        /* \"#utility.yul\":8898:8907   */\n      dup3\n        /* \"#utility.yul\":8894:8912   */\n      add\n        /* \"#utility.yul\":8886:8912   */\n      swap1\n      pop\n        /* \"#utility.yul\":8958:8967   */\n      dup2\n        /* \"#utility.yul\":8952:8956   */\n      dup2\n        /* \"#utility.yul\":8948:8968   */\n      sub\n        /* \"#utility.yul\":8944:8945   */\n      0x00\n        /* \"#utility.yul\":8933:8942   */\n      dup4\n        /* \"#utility.yul\":8929:8946   */\n      add\n        /* \"#utility.yul\":8922:8969   */\n      mstore\n        /* \"#utility.yul\":8986:9117   */\n      tag_326\n        /* \"#utility.yul\":9112:9116   */\n      dup2\n        /* \"#utility.yul\":8986:9117   */\n      tag_210\n      jump\t// in\n    tag_326:\n        /* \"#utility.yul\":8978:9117   */\n      swap1\n      pop\n        /* \"#utility.yul\":9127:9199   */\n      tag_327\n        /* \"#utility.yul\":9195:9197   */\n      0x20\n        /* \"#utility.yul\":9184:9193   */\n      dup4\n        /* \"#utility.yul\":9180:9198   */\n      add\n        /* \"#utility.yul\":9171:9177   */\n      dup6\n        /* \"#utility.yul\":9127:9199   */\n      tag_188\n      jump\t// in\n    tag_327:\n        /* \"#utility.yul\":9209:9281   */\n      tag_328\n        /* \"#utility.yul\":9277:9279   */\n      0x40\n        /* \"#utility.yul\":9266:9275   */\n      dup4\n        /* \"#utility.yul\":9262:9280   */\n      add\n        /* \"#utility.yul\":9253:9259   */\n      dup5\n        /* \"#utility.yul\":9209:9281   */\n      tag_188\n      jump\t// in\n    tag_328:\n        /* \"#utility.yul\":8649:9288   */\n      swap4\n      swap3\n      pop\n      pop\n      pop\n      jump\t// out\n        /* \"#utility.yul\":9294:9471   */\n    tag_211:\n        /* \"#utility.yul\":9434:9463   */\n      0x596f75206e65656420746f207370656e64206d6f726520455448210000000000\n        /* \"#utility.yul\":9430:9431   */\n      0x00\n        /* \"#utility.yul\":9422:9428   */\n      dup3\n        /* \"#utility.yul\":9418:9432   */\n      add\n        /* \"#utility.yul\":9411:9464   */\n      mstore\n        /* \"#utility.yul\":9294:9471   */\n      pop\n      jump\t// out\n        /* \"#utility.yul\":9477:9843   */\n    tag_212:\n        /* \"#utility.yul\":9619:9622   */\n      0x00\n        /* \"#utility.yul\":9640:9707   */\n      tag_331\n        /* \"#utility.yul\":9704:9706   */\n      0x1b\n        /* \"#utility.yul\":9699:9702   */\n      dup4\n        /* \"#utility.yul\":9640:9707   */\n      tag_208\n      jump\t// in\n    tag_331:\n        /* \"#utility.yul\":9633:9707   */\n      swap2\n      pop\n        /* \"#utility.yul\":9716:9809   */\n      tag_332\n        /* \"#utility.yul\":9805:9808   */\n      dup3\n        /* \"#utility.yul\":9716:9809   */\n      tag_211\n      jump\t// in\n    tag_332:\n        /* \"#utility.yul\":9834:9836   */\n      0x20\n        /* \"#utility.yul\":9829:9832   */\n      dup3\n        /* \"#utility.yul\":9825:9837   */\n      add\n        /* \"#utility.yul\":9818:9837   */\n      swap1\n      pop\n        /* \"#utility.yul\":9477:9843   */\n      swap2\n      swap1\n      pop\n      jump\t// out\n        /* \"#utility.yul\":9849:10268   */\n    tag_125:\n        /* \"#utility.yul\":10015:10019   */\n      0x00\n        /* \"#utility.yul\":10053:10055   */\n      0x20\n        /* \"#utility.yul\":10042:10051   */\n      dup3\n        /* \"#utility.yul\":10038:10056   */\n      add\n        /* \"#utility.yul\":10030:10056   */\n      swap1\n      pop\n        /* \"#utility.yul\":10102:10111   */\n      dup2\n        /* \"#utility.yul\":10096:10100   */\n      dup2\n        /* \"#utility.yul\":10092:10112   */\n      sub\n        /* \"#utility.yul\":10088:10089   */\n      0x00\n        /* \"#utility.yul\":10077:10086   */\n      dup4\n        /* \"#utility.yul\":10073:10090   */\n      add\n        /* \"#utility.yul\":10066:10113   */\n      mstore\n        /* \"#utility.yul\":10130:10261   */\n      tag_334\n        /* \"#utility.yul\":10256:10260   */\n      dup2\n        /* \"#utility.yul\":10130:10261   */\n      tag_212\n      jump\t// in\n    tag_334:\n        /* \"#utility.yul\":10122:10261   */\n      swap1\n      pop\n        /* \"#utility.yul\":9849:10268   */\n      swap2\n      swap1\n      pop\n      jump\t// out\n        /* \"#utility.yul\":10274:10465   */\n    tag_127:\n        /* \"#utility.yul\":10314:10317   */\n      0x00\n        /* \"#utility.yul\":10333:10353   */\n      tag_336\n        /* \"#utility.yul\":10351:10352   */\n      dup3\n        /* \"#utility.yul\":10333:10353   */\n      tag_187\n      jump\t// in\n    tag_336:\n        /* \"#utility.yul\":10328:10353   */\n      swap2\n      pop\n        /* \"#utility.yul\":10367:10387   */\n      tag_337\n        /* \"#utility.yul\":10385:10386   */\n      dup4\n        /* \"#utility.yul\":10367:10387   */\n      tag_187\n      jump\t// in\n    tag_337:\n        /* \"#utility.yul\":10362:10387   */\n      swap3\n      pop\n        /* \"#utility.yul\":10410:10411   */\n      dup3\n        /* \"#utility.yul\":10407:10408   */\n      dup3\n        /* \"#utility.yul\":10403:10412   */\n      add\n        /* \"#utility.yul\":10396:10412   */\n      swap1\n      pop\n        /* \"#utility.yul\":10431:10434   */\n      dup1\n        /* \"#utility.yul\":10428:10429   */\n      dup3\n        /* \"#utility.yul\":10425:10435   */\n      gt\n        /* \"#utility.yul\":10422:10458   */\n      iszero\n      tag_338\n      jumpi\n        /* \"#utility.yul\":10438:10456   */\n      tag_339\n      tag_206\n      jump\t// in\n    tag_339:\n        /* \"#utility.yul\":10422:10458   */\n    tag_338:\n        /* \"#utility.yul\":10274:10465   */\n      swap3\n      swap2\n      pop\n      pop\n      jump\t// out\n        /* \"#utility.yul\":10471:10651   */\n    tag_139:\n        /* \"#utility.yul\":10519:10596   */\n      0x4e487b7100000000000000000000000000000000000000000000000000000000\n        /* \"#utility.yul\":10516:10517   */\n      0x00\n        /* \"#utility.yul\":10509:10597   */\n      mstore\n        /* \"#utility.yul\":10616:10620   */\n      0x32\n        /* \"#utility.yul\":10613:10614   */\n      0x04\n        /* \"#utility.yul\":10606:10621   */\n      mstore\n        /* \"#utility.yul\":10640:10644   */\n      0x24\n        /* \"#utility.yul\":10637:10638   */\n      0x00\n        /* \"#utility.yul\":10630:10645   */\n      revert\n        /* \"#utility.yul\":10657:10890   */\n    tag_141:\n        /* \"#utility.yul\":10696:10699   */\n      0x00\n        /* \"#utility.yul\":10719:10743   */\n      tag_342\n        /* \"#utility.yul\":10737:10742   */\n      dup3\n        /* \"#utility.yul\":10719:10743   */\n      tag_187\n      jump\t// in\n    tag_342:\n        /* \"#utility.yul\":10710:10743   */\n      swap2\n      pop\n        /* \"#utility.yul\":10765:10831   */\n      0xffffffffffffffffffffffffffffffffffffffffffffffffffffffffffffffff\n        /* \"#utility.yul\":10758:10763   */\n      dup3\n        /* \"#utility.yul\":10755:10832   */\n      sub\n        /* \"#utility.yul\":10752:10855   */\n      tag_343\n      jumpi\n        /* \"#utility.yul\":10835:10853   */\n      tag_344\n      tag_206\n      jump\t// in\n    tag_344:\n        /* \"#utility.yul\":10752:10855   */\n    tag_343:\n        /* \"#utility.yul\":10882:10883   */\n      0x01\n        /* \"#utility.yul\":10875:10880   */\n      dup3\n        /* \"#utility.yul\":10871:10884   */\n      add\n        /* \"#utility.yul\":10864:10884   */\n      swap1\n      pop\n        /* \"#utility.yul\":10657:10890   */\n      swap2\n      swap1\n      pop\n      jump\t// out\n        /* \"#utility.yul\":10896:11076   */\n    tag_144:\n        /* \"#utility.yul\":10944:11021   */\n      0x4e487b7100000000000000000000000000000000000000000000000000000000\n        /* \"#utility.yul\":10941:10942   */\n      0x00\n        /* \"#utility.yul\":10934:11022   */\n      mstore\n        /* \"#utility.yul\":11041:11045   */\n      0x41\n        /* \"#utility.yul\":11038:11039   */\n      0x04\n        /* \"#utility.yul\":11031:11046   */\n      mstore\n        /* \"#utility.yul\":11065:11069   */\n      0x24\n        /* \"#utility.yul\":11062:11063   */\n      0x00\n        /* \"#utility.yul\":11055:11070   */\n      revert\n        /* \"#utility.yul\":11082:11229   */\n    tag_213:\n        /* \"#utility.yul\":11183:11194   */\n      0x00\n        /* \"#utility.yul\":11220:11223   */\n      dup2\n        /* \"#utility.yul\":11205:11223   */\n      swap1\n      pop\n        /* \"#utility.yul\":11082:11229   */\n      swap3\n      swap2\n      pop\n      pop\n      jump\t// out\n        /* \"#utility.yul\":11235:11349   */\n    tag_214:\n      pop\n      jump\t// out\n        /* \"#utility.yul\":11355:11753   */\n    tag_215:\n        /* \"#utility.yul\":11514:11517   */\n      0x00\n        /* \"#utility.yul\":11535:11618   */\n      tag_349\n        /* \"#utility.yul\":11616:11617   */\n      0x00\n        /* \"#utility.yul\":11611:11614   */\n      dup4\n        /* \"#utility.yul\":11535:11618   */\n      tag_213\n      jump\t// in\n    tag_349:\n        /* \"#utility.yul\":11528:11618   */\n      swap2\n      pop\n        /* \"#utility.yul\":11627:11720   */\n      tag_350\n        /* \"#utility.yul\":11716:11719   */\n      dup3\n        /* \"#utility.yul\":11627:11720   */\n      tag_214\n      jump\t// in\n    tag_350:\n        /* \"#utility.yul\":11745:11746   */\n      0x00\n        /* \"#utility.yul\":11740:11743   */\n      dup3\n        /* \"#utility.yul\":11736:11747   */\n      add\n        /* \"#utility.yul\":11729:11747   */\n      swap1\n      pop\n        /* \"#utility.yul\":11355:11753   */\n      swap2\n      swap1\n      pop\n      jump\t// out\n        /* \"#utility.yul\":11759:12138   */\n    tag_149:\n        /* \"#utility.yul\":11943:11946   */\n      0x00\n        /* \"#utility.yul\":11965:12112   */\n      tag_352\n        /* \"#utility.yul\":12108:12111   */\n      dup3\n        /* \"#utility.yul\":11965:12112   */\n      tag_215\n      jump\t// in\n    tag_352:\n        /* \"#utility.yul\":11958:12112   */\n      swap2\n      pop\n        /* \"#utility.yul\":12129:12132   */\n      dup2\n        /* \"#utility.yul\":12122:12132   */\n      swap1\n      pop\n        /* \"#utility.yul\":11759:12138   */\n      swap2\n      swap1\n      pop\n      jump\t// out\n\n    auxdata: 0xa2646970667358221220f875e3d50d9549457a03848467d5a6b76ca0bb58efd280b3ea6df2d6e433d06a64736f6c63430008120033\n}\n",
				"bytecode": {
					"linkReferences": {},
					"object": "60a060405260646005553480156200001657600080fd5b50600073d4a33860578de61dbabdc8bfdb98fd742fa7028e9050600073ab5c49580294aff77670f839ea425f5b78ab3ae79050600073a39434a63a52e749f02807ae27335515ba4b07f7905082600260006101000a81548173ffffffffffffffffffffffffffffffffffffffff021916908373ffffffffffffffffffffffffffffffffffffffff16021790555081600360006101000a81548173ffffffffffffffffffffffffffffffffffffffff021916908373ffffffffffffffffffffffffffffffffffffffff16021790555080600460006101000a81548173ffffffffffffffffffffffffffffffffffffffff021916908373ffffffffffffffffffffffffffffffffffffffff1602179055503373ffffffffffffffffffffffffffffffffffffffff1660808173ffffffffffffffffffffffffffffffffffffffff1681525050620001696200017860201b60201c565b600681905550505050620004fa565b600080600260009054906101000a900473ffffffffffffffffffffffffffffffffffffffff1673ffffffffffffffffffffffffffffffffffffffff1663feaf968c6040518163ffffffff1660e01b815260040160a060405180830381865afa158015620001e9573d6000803e3d6000fd5b505050506040513d601f19601f820116820180604052508101906200020f91906200030d565b50505091505060646005546402540be400836200022d9190620003c4565b62000239919062000448565b620002459190620004c2565b91505090565b600080fd5b600069ffffffffffffffffffff82169050919050565b620002718162000250565b81146200027d57600080fd5b50565b600081519050620002918162000266565b92915050565b6000819050919050565b620002ac8162000297565b8114620002b857600080fd5b50565b600081519050620002cc81620002a1565b92915050565b6000819050919050565b620002e781620002d2565b8114620002f357600080fd5b50565b6000815190506200030781620002dc565b92915050565b600080600080600060a086880312156200032c576200032b6200024b565b5b60006200033c8882890162000280565b95505060206200034f88828901620002bb565b94505060406200036288828901620002f6565b93505060606200037588828901620002f6565b9250506080620003888882890162000280565b9150509295509295909350565b7f4e487b7100000000000000000000000000000000000000000000000000000000600052601160045260246000fd5b6000620003d18262000297565b9150620003de8362000297565b9250828202620003ee8162000297565b91507f8000000000000000000000000000000000000000000000000000000000000000841460008412161562000429576200042862000395565b5b828205841483151762000441576200044062000395565b5b5092915050565b60006200045582620002d2565b91506200046283620002d2565b92508282026200047281620002d2565b915082820484148315176200048c576200048b62000395565b5b5092915050565b7f4e487b7100000000000000000000000000000000000000000000000000000000600052601260045260246000fd5b6000620004cf82620002d2565b9150620004dc83620002d2565b925082620004ef57620004ee62000493565b5b828204905092915050565b60805161141362000524600039600081816104db015281816108170152610a0d01526114136000f3fe6080604052600436106100dd5760003560e01c80639e87a5cd1161007f578063b60d428811610059578063b60d4288146102a0578063be2693f0146102aa578063d7b4750c146102c1578063dd22db80146102fe576100dd565b80639e87a5cd1461021f578063a607a8d91461024a578063ac70214c14610275576100dd565b80636b69a592116100bb5780636b69a5921461017557806370ba1113146101a05780637154b8b5146101cb578063893d20e8146101f4576100dd565b80630343fb25146100e25780630d8e6e2c1461011f5780634ad517bc1461014a575b600080fd5b3480156100ee57600080fd5b5061010960048036038101906101049190610d72565b610329565b6040516101169190610db8565b60405180910390f35b34801561012b57600080fd5b50610134610372565b6040516101419190610db8565b60405180910390f35b34801561015657600080fd5b5061015f61040a565b60405161016c9190610db8565b60405180910390f35b34801561018157600080fd5b5061018a6104bb565b6040516101979190610db8565b60405180910390f35b3480156101ac57600080fd5b506101b56104c7565b6040516101c29190610db8565b60405180910390f35b3480156101d757600080fd5b506101f260048036038101906101ed9190610dff565b6104cd565b005b34801561020057600080fd5b506102096104d7565b6040516102169190610e3b565b60405180910390f35b34801561022b57600080fd5b506102346104ff565b6040516102419190610eb5565b60405180910390f35b34801561025657600080fd5b5061025f610529565b60405161026c9190610db8565b60405180910390f35b34801561028157600080fd5b5061028a6105f3565b6040516102979190610eeb565b60405180910390f35b6102a86106db565b005b3480156102b657600080fd5b506102bf610815565b005b3480156102cd57600080fd5b506102e860048036038101906102e39190610dff565b610aa3565b6040516102f59190610e3b565b60405180910390f35b34801561030a57600080fd5b50610313610aea565b6040516103209190610db8565b60405180910390f35b6000600160008373ffffffffffffffffffffffffffffffffffffffff1673ffffffffffffffffffffffffffffffffffffffff168152602001908152602001600020549050919050565b6000600260009054906101000a900473ffffffffffffffffffffffffffffffffffffffff1673ffffffffffffffffffffffffffffffffffffffff166354fd4d506040518163ffffffff1660e01b8152600401602060405180830381865afa1580156103e1573d6000803e3d6000fd5b505050506040513d601f19601f820116820180604052508101906104059190610f1b565b905090565b600080600360009054906101000a900473ffffffffffffffffffffffffffffffffffffffff1673ffffffffffffffffffffffffffffffffffffffff1663feaf968c6040518163ffffffff1660e01b815260040160a060405180830381865afa15801561047a573d6000803e3d6000fd5b505050506040513d601f19601f8201168201806040525081019061049e9190610fc0565b5050509150506402540be400816104b5919061106a565b91505090565b678ac7230489e8000081565b60055481565b8060058190555050565b60007f0000000000000000000000000000000000000000000000000000000000000000905090565b6000600260009054906101000a900473ffffffffffffffffffffffffffffffffffffffff16905090565b600080600260009054906101000a900473ffffffffffffffffffffffffffffffffffffffff1673ffffffffffffffffffffffffffffffffffffffff1663feaf968c6040518163ffffffff1660e01b815260040160a060405180830381865afa158015610599573d6000803e3d6000fd5b505050506040513d601f19601f820116820180604052508101906105bd9190610fc0565b50505091505060646005546402540be400836105d9919061106a565b6105e391906110e2565b6105ed9190611153565b91505090565b6000806105fe610529565b905060065481111561068a576064601460065461061b91906110e2565b6106259190611153565b600654826106339190611184565b1115610685577f08c6c7d0dc0402d3e4a691d85e729286802f266f3b6596ed0b317861babf8a926006548260405161066c929190611215565b60405180910390a18060068190555060019150506106d8565b6106cb565b6064601460065461069b91906110e2565b6106a59190611153565b816006546106b39190611184565b11156106ca578060068190555060019150506106d8565b5b8060068190555060009150505b90565b678ac7230489e80000610719600260009054906101000a900473ffffffffffffffffffffffffffffffffffffffff1634610b9b90919063ffffffff16565b101561075a576040517f08c379a00000000000000000000000000000000000000000000000000000000081526004016107519061129d565b60405180910390fd5b34600160003373ffffffffffffffffffffffffffffffffffffffff1673ffffffffffffffffffffffffffffffffffffffff16815260200190815260200160002060008282546107a991906112bd565b925050819055506000339080600181540180825580915050600190039060005260206000200160009091909190916101000a81548173ffffffffffffffffffffffffffffffffffffffff021916908373ffffffffffffffffffffffffffffffffffffffff160217905550565b7f000000000000000000000000000000000000000000000000000000000000000073ffffffffffffffffffffffffffffffffffffffff163373ffffffffffffffffffffffffffffffffffffffff161461089a576040517f579610db00000000000000000000000000000000000000000000000000000000815260040160405180910390fd5b60008080548060200260200160405190810160405280929190818152602001828054801561091d57602002820191906000526020600020905b8160009054906101000a900473ffffffffffffffffffffffffffffffffffffffff1673ffffffffffffffffffffffffffffffffffffffff16815260200190600101908083116108d3575b5050505050905060005b81518110156109a8576000828281518110610945576109446112f1565b5b602002602001015190506000600160008373ffffffffffffffffffffffffffffffffffffffff1673ffffffffffffffffffffffffffffffffffffffff168152602001908152602001600020819055505080806109a090611320565b915050610927565b50600067ffffffffffffffff8111156109c4576109c3611368565b5b6040519080825280602002602001820160405280156109f25781602001602082028036833780820191505090505b5060009080519060200190610a08929190610c68565b5060007f000000000000000000000000000000000000000000000000000000000000000073ffffffffffffffffffffffffffffffffffffffff1647604051610a4f906113c8565b60006040518083038185875af1925050503d8060008114610a8c576040519150601f19603f3d011682016040523d82523d6000602084013e610a91565b606091505b5050905080610a9f57600080fd5b5050565b6000808281548110610ab857610ab76112f1565b5b9060005260206000200160009054906101000a900473ffffffffffffffffffffffffffffffffffffffff169050919050565b600080600460009054906101000a900473ffffffffffffffffffffffffffffffffffffffff1673ffffffffffffffffffffffffffffffffffffffff1663feaf968c6040518163ffffffff1660e01b815260040160a060405180830381865afa158015610b5a573d6000803e3d6000fd5b505050506040513d601f19601f82011682018060405250810190610b7e9190610fc0565b5050509150506402540be40081610b95919061106a565b91505090565b600080610ba783610bd7565b90506000670de0b6b3a76400008583610bc091906110e2565b610bca9190611153565b9050809250505092915050565b6000808273ffffffffffffffffffffffffffffffffffffffff1663feaf968c6040518163ffffffff1660e01b815260040160a060405180830381865afa158015610c25573d6000803e3d6000fd5b505050506040513d601f19601f82011682018060405250810190610c499190610fc0565b5050509150506402540be40081610c60919061106a565b915050919050565b828054828255906000526020600020908101928215610ce1579160200282015b82811115610ce05782518260006101000a81548173ffffffffffffffffffffffffffffffffffffffff021916908373ffffffffffffffffffffffffffffffffffffffff16021790555091602001919060010190610c88565b5b509050610cee9190610cf2565b5090565b5b80821115610d0b576000816000905550600101610cf3565b5090565b600080fd5b600073ffffffffffffffffffffffffffffffffffffffff82169050919050565b6000610d3f82610d14565b9050919050565b610d4f81610d34565b8114610d5a57600080fd5b50565b600081359050610d6c81610d46565b92915050565b600060208284031215610d8857610d87610d0f565b5b6000610d9684828501610d5d565b91505092915050565b6000819050919050565b610db281610d9f565b82525050565b6000602082019050610dcd6000830184610da9565b92915050565b610ddc81610d9f565b8114610de757600080fd5b50565b600081359050610df981610dd3565b92915050565b600060208284031215610e1557610e14610d0f565b5b6000610e2384828501610dea565b91505092915050565b610e3581610d34565b82525050565b6000602082019050610e506000830184610e2c565b92915050565b6000819050919050565b6000610e7b610e76610e7184610d14565b610e56565b610d14565b9050919050565b6000610e8d82610e60565b9050919050565b6000610e9f82610e82565b9050919050565b610eaf81610e94565b82525050565b6000602082019050610eca6000830184610ea6565b92915050565b60008115159050919050565b610ee581610ed0565b82525050565b6000602082019050610f006000830184610edc565b92915050565b600081519050610f1581610dd3565b92915050565b600060208284031215610f3157610f30610d0f565b5b6000610f3f84828501610f06565b91505092915050565b600069ffffffffffffffffffff82169050919050565b610f6781610f48565b8114610f7257600080fd5b50565b600081519050610f8481610f5e565b92915050565b6000819050919050565b610f9d81610f8a565b8114610fa857600080fd5b50565b600081519050610fba81610f94565b92915050565b600080600080600060a08688031215610fdc57610fdb610d0f565b5b6000610fea88828901610f75565b9550506020610ffb88828901610fab565b945050604061100c88828901610f06565b935050606061101d88828901610f06565b925050608061102e88828901610f75565b9150509295509295909350565b7f4e487b7100000000000000000000000000000000000000000000000000000000600052601160045260246000fd5b600061107582610f8a565b915061108083610f8a565b925082820261108e81610f8a565b91507f800000000000000000000000000000000000000000000000000000000000000084146000841216156110c6576110c561103b565b5b82820584148315176110db576110da61103b565b5b5092915050565b60006110ed82610d9f565b91506110f883610d9f565b925082820261110681610d9f565b9150828204841483151761111d5761111c61103b565b5b5092915050565b7f4e487b7100000000000000000000000000000000000000000000000000000000600052601260045260246000fd5b600061115e82610d9f565b915061116983610d9f565b92508261117957611178611124565b5b828204905092915050565b600061118f82610d9f565b915061119a83610d9f565b92508282039050818111156111b2576111b161103b565b5b92915050565b600082825260208201905092915050565b7f4554480000000000000000000000000000000000000000000000000000000000600082015250565b60006111ff6003836111b8565b915061120a826111c9565b602082019050919050565b6000606082019050818103600083015261122e816111f2565b905061123d6020830185610da9565b61124a6040830184610da9565b9392505050565b7f596f75206e65656420746f207370656e64206d6f726520455448210000000000600082015250565b6000611287601b836111b8565b915061129282611251565b602082019050919050565b600060208201905081810360008301526112b68161127a565b9050919050565b60006112c882610d9f565b91506112d383610d9f565b92508282019050808211156112eb576112ea61103b565b5b92915050565b7f4e487b7100000000000000000000000000000000000000000000000000000000600052603260045260246000fd5b600061132b82610d9f565b91507fffffffffffffffffffffffffffffffffffffffffffffffffffffffffffffffff820361135d5761135c61103b565b5b600182019050919050565b7f4e487b7100000000000000000000000000000000000000000000000000000000600052604160045260246000fd5b600081905092915050565b50565b60006113b2600083611397565b91506113bd826113a2565b600082019050919050565b60006113d3826113a5565b915081905091905056fea2646970667358221220f875e3d50d9549457a03848467d5a6b76ca0bb58efd280b3ea6df2d6e433d06a64736f6c63430008120033",
					"opcodes": "PUSH1 0xA0 PUSH1 0x40 MSTORE PUSH1 0x64 PUSH1 0x5 SSTORE CALLVALUE DUP1 ISZERO PUSH3 0x16 JUMPI PUSH1 0x0 DUP1 REVERT JUMPDEST POP PUSH1 0x0 PUSH20 0xD4A33860578DE61DBABDC8BFDB98FD742FA7028E SWAP1 POP PUSH1 0x0 PUSH20 0xAB5C49580294AFF77670F839EA425F5B78AB3AE7 SWAP1 POP PUSH1 0x0 PUSH20 0xA39434A63A52E749F02807AE27335515BA4B07F7 SWAP1 POP DUP3 PUSH1 0x2 PUSH1 0x0 PUSH2 0x100 EXP DUP2 SLOAD DUP2 PUSH20 0xFFFFFFFFFFFFFFFFFFFFFFFFFFFFFFFFFFFFFFFF MUL NOT AND SWAP1 DUP4 PUSH20 0xFFFFFFFFFFFFFFFFFFFFFFFFFFFFFFFFFFFFFFFF AND MUL OR SWAP1 SSTORE POP DUP2 PUSH1 0x3 PUSH1 0x0 PUSH2 0x100 EXP DUP2 SLOAD DUP2 PUSH20 0xFFFFFFFFFFFFFFFFFFFFFFFFFFFFFFFFFFFFFFFF MUL NOT AND SWAP1 DUP4 PUSH20 0xFFFFFFFFFFFFFFFFFFFFFFFFFFFFFFFFFFFFFFFF AND MUL OR SWAP1 SSTORE POP DUP1 PUSH1 0x4 PUSH1 0x0 PUSH2 0x100 EXP DUP2 SLOAD DUP2 PUSH20 0xFFFFFFFFFFFFFFFFFFFFFFFFFFFFFFFFFFFFFFFF MUL NOT AND SWAP1 DUP4 PUSH20 0xFFFFFFFFFFFFFFFFFFFFFFFFFFFFFFFFFFFFFFFF AND MUL OR SWAP1 SSTORE POP CALLER PUSH20 0xFFFFFFFFFFFFFFFFFFFFFFFFFFFFFFFFFFFFFFFF AND PUSH1 0x80 DUP2 PUSH20 0xFFFFFFFFFFFFFFFFFFFFFFFFFFFFFFFFFFFFFFFF AND DUP2 MSTORE POP POP PUSH3 0x169 PUSH3 0x178 PUSH1 0x20 SHL PUSH1 0x20 SHR JUMP JUMPDEST PUSH1 0x6 DUP2 SWAP1 SSTORE POP POP POP POP PUSH3 0x4FA JUMP JUMPDEST PUSH1 0x0 DUP1 PUSH1 0x2 PUSH1 0x0 SWAP1 SLOAD SWAP1 PUSH2 0x100 EXP SWAP1 DIV PUSH20 0xFFFFFFFFFFFFFFFFFFFFFFFFFFFFFFFFFFFFFFFF AND PUSH20 0xFFFFFFFFFFFFFFFFFFFFFFFFFFFFFFFFFFFFFFFF AND PUSH4 0xFEAF968C PUSH1 0x40 MLOAD DUP2 PUSH4 0xFFFFFFFF AND PUSH1 0xE0 SHL DUP2 MSTORE PUSH1 0x4 ADD PUSH1 0xA0 PUSH1 0x40 MLOAD DUP1 DUP4 SUB DUP2 DUP7 GAS STATICCALL ISZERO DUP1 ISZERO PUSH3 0x1E9 JUMPI RETURNDATASIZE PUSH1 0x0 DUP1 RETURNDATACOPY RETURNDATASIZE PUSH1 0x0 REVERT JUMPDEST POP POP POP POP PUSH1 0x40 MLOAD RETURNDATASIZE PUSH1 0x1F NOT PUSH1 0x1F DUP3 ADD AND DUP3 ADD DUP1 PUSH1 0x40 MSTORE POP DUP2 ADD SWAP1 PUSH3 0x20F SWAP2 SWAP1 PUSH3 0x30D JUMP JUMPDEST POP POP POP SWAP2 POP POP PUSH1 0x64 PUSH1 0x5 SLOAD PUSH5 0x2540BE400 DUP4 PUSH3 0x22D SWAP2 SWAP1 PUSH3 0x3C4 JUMP JUMPDEST PUSH3 0x239 SWAP2 SWAP1 PUSH3 0x448 JUMP JUMPDEST PUSH3 0x245 SWAP2 SWAP1 PUSH3 0x4C2 JUMP JUMPDEST SWAP2 POP POP SWAP1 JUMP JUMPDEST PUSH1 0x0 DUP1 REVERT JUMPDEST PUSH1 0x0 PUSH10 0xFFFFFFFFFFFFFFFFFFFF DUP3 AND SWAP1 POP SWAP2 SWAP1 POP JUMP JUMPDEST PUSH3 0x271 DUP2 PUSH3 0x250 JUMP JUMPDEST DUP2 EQ PUSH3 0x27D JUMPI PUSH1 0x0 DUP1 REVERT JUMPDEST POP JUMP JUMPDEST PUSH1 0x0 DUP2 MLOAD SWAP1 POP PUSH3 0x291 DUP2 PUSH3 0x266 JUMP JUMPDEST SWAP3 SWAP2 POP POP JUMP JUMPDEST PUSH1 0x0 DUP2 SWAP1 POP SWAP2 SWAP1 POP JUMP JUMPDEST PUSH3 0x2AC DUP2 PUSH3 0x297 JUMP JUMPDEST DUP2 EQ PUSH3 0x2B8 JUMPI PUSH1 0x0 DUP1 REVERT JUMPDEST POP JUMP JUMPDEST PUSH1 0x0 DUP2 MLOAD SWAP1 POP PUSH3 0x2CC DUP2 PUSH3 0x2A1 JUMP JUMPDEST SWAP3 SWAP2 POP POP JUMP JUMPDEST PUSH1 0x0 DUP2 SWAP1 POP SWAP2 SWAP1 POP JUMP JUMPDEST PUSH3 0x2E7 DUP2 PUSH3 0x2D2 JUMP JUMPDEST DUP2 EQ PUSH3 0x2F3 JUMPI PUSH1 0x0 DUP1 REVERT JUMPDEST POP JUMP JUMPDEST PUSH1 0x0 DUP2 MLOAD SWAP1 POP PUSH3 0x307 DUP2 PUSH3 0x2DC JUMP JUMPDEST SWAP3 SWAP2 POP POP JUMP JUMPDEST PUSH1 0x0 DUP1 PUSH1 0x0 DUP1 PUSH1 0x0 PUSH1 0xA0 DUP7 DUP9 SUB SLT ISZERO PUSH3 0x32C JUMPI PUSH3 0x32B PUSH3 0x24B JUMP JUMPDEST JUMPDEST PUSH1 0x0 PUSH3 0x33C DUP9 DUP3 DUP10 ADD PUSH3 0x280 JUMP JUMPDEST SWAP6 POP POP PUSH1 0x20 PUSH3 0x34F DUP9 DUP3 DUP10 ADD PUSH3 0x2BB JUMP JUMPDEST SWAP5 POP POP PUSH1 0x40 PUSH3 0x362 DUP9 DUP3 DUP10 ADD PUSH3 0x2F6 JUMP JUMPDEST SWAP4 POP POP PUSH1 0x60 PUSH3 0x375 DUP9 DUP3 DUP10 ADD PUSH3 0x2F6 JUMP JUMPDEST SWAP3 POP POP PUSH1 0x80 PUSH3 0x388 DUP9 DUP3 DUP10 ADD PUSH3 0x280 JUMP JUMPDEST SWAP2 POP POP SWAP3 SWAP6 POP SWAP3 SWAP6 SWAP1 SWAP4 POP JUMP JUMPDEST PUSH32 0x4E487B7100000000000000000000000000000000000000000000000000000000 PUSH1 0x0 MSTORE PUSH1 0x11 PUSH1 0x4 MSTORE PUSH1 0x24 PUSH1 0x0 REVERT JUMPDEST PUSH1 0x0 PUSH3 0x3D1 DUP3 PUSH3 0x297 JUMP JUMPDEST SWAP2 POP PUSH3 0x3DE DUP4 PUSH3 0x297 JUMP JUMPDEST SWAP3 POP DUP3 DUP3 MUL PUSH3 0x3EE DUP2 PUSH3 0x297 JUMP JUMPDEST SWAP2 POP PUSH32 0x8000000000000000000000000000000000000000000000000000000000000000 DUP5 EQ PUSH1 0x0 DUP5 SLT AND ISZERO PUSH3 0x429 JUMPI PUSH3 0x428 PUSH3 0x395 JUMP JUMPDEST JUMPDEST DUP3 DUP3 SDIV DUP5 EQ DUP4 ISZERO OR PUSH3 0x441 JUMPI PUSH3 0x440 PUSH3 0x395 JUMP JUMPDEST JUMPDEST POP SWAP3 SWAP2 POP POP JUMP JUMPDEST PUSH1 0x0 PUSH3 0x455 DUP3 PUSH3 0x2D2 JUMP JUMPDEST SWAP2 POP PUSH3 0x462 DUP4 PUSH3 0x2D2 JUMP JUMPDEST SWAP3 POP DUP3 DUP3 MUL PUSH3 0x472 DUP2 PUSH3 0x2D2 JUMP JUMPDEST SWAP2 POP DUP3 DUP3 DIV DUP5 EQ DUP4 ISZERO OR PUSH3 0x48C JUMPI PUSH3 0x48B PUSH3 0x395 JUMP JUMPDEST JUMPDEST POP SWAP3 SWAP2 POP POP JUMP JUMPDEST PUSH32 0x4E487B7100000000000000000000000000000000000000000000000000000000 PUSH1 0x0 MSTORE PUSH1 0x12 PUSH1 0x4 MSTORE PUSH1 0x24 PUSH1 0x0 REVERT JUMPDEST PUSH1 0x0 PUSH3 0x4CF DUP3 PUSH3 0x2D2 JUMP JUMPDEST SWAP2 POP PUSH3 0x4DC DUP4 PUSH3 0x2D2 JUMP JUMPDEST SWAP3 POP DUP3 PUSH3 0x4EF JUMPI PUSH3 0x4EE PUSH3 0x493 JUMP JUMPDEST JUMPDEST DUP3 DUP3 DIV SWAP1 POP SWAP3 SWAP2 POP POP JUMP JUMPDEST PUSH1 0x80 MLOAD PUSH2 0x1413 PUSH3 0x524 PUSH1 0x0 CODECOPY PUSH1 0x0 DUP2 DUP2 PUSH2 0x4DB ADD MSTORE DUP2 DUP2 PUSH2 0x817 ADD MSTORE PUSH2 0xA0D ADD MSTORE PUSH2 0x1413 PUSH1 0x0 RETURN INVALID PUSH1 0x80 PUSH1 0x40 MSTORE PUSH1 0x4 CALLDATASIZE LT PUSH2 0xDD JUMPI PUSH1 0x0 CALLDATALOAD PUSH1 0xE0 SHR DUP1 PUSH4 0x9E87A5CD GT PUSH2 0x7F JUMPI DUP1 PUSH4 0xB60D4288 GT PUSH2 0x59 JUMPI DUP1 PUSH4 0xB60D4288 EQ PUSH2 0x2A0 JUMPI DUP1 PUSH4 0xBE2693F0 EQ PUSH2 0x2AA JUMPI DUP1 PUSH4 0xD7B4750C EQ PUSH2 0x2C1 JUMPI DUP1 PUSH4 0xDD22DB80 EQ PUSH2 0x2FE JUMPI PUSH2 0xDD JUMP JUMPDEST DUP1 PUSH4 0x9E87A5CD EQ PUSH2 0x21F JUMPI DUP1 PUSH4 0xA607A8D9 EQ PUSH2 0x24A JUMPI DUP1 PUSH4 0xAC70214C EQ PUSH2 0x275 JUMPI PUSH2 0xDD JUMP JUMPDEST DUP1 PUSH4 0x6B69A592 GT PUSH2 0xBB JUMPI DUP1 PUSH4 0x6B69A592 EQ PUSH2 0x175 JUMPI DUP1 PUSH4 0x70BA1113 EQ PUSH2 0x1A0 JUMPI DUP1 PUSH4 0x7154B8B5 EQ PUSH2 0x1CB JUMPI DUP1 PUSH4 0x893D20E8 EQ PUSH2 0x1F4 JUMPI PUSH2 0xDD JUMP JUMPDEST DUP1 PUSH4 0x343FB25 EQ PUSH2 0xE2 JUMPI DUP1 PUSH4 0xD8E6E2C EQ PUSH2 0x11F JUMPI DUP1 PUSH4 0x4AD517BC EQ PUSH2 0x14A JUMPI JUMPDEST PUSH1 0x0 DUP1 REVERT JUMPDEST CALLVALUE DUP1 ISZERO PUSH2 0xEE JUMPI PUSH1 0x0 DUP1 REVERT JUMPDEST POP PUSH2 0x109 PUSH1 0x4 DUP1 CALLDATASIZE SUB DUP2 ADD SWAP1 PUSH2 0x104 SWAP2 SWAP1 PUSH2 0xD72 JUMP JUMPDEST PUSH2 0x329 JUMP JUMPDEST PUSH1 0x40 MLOAD PUSH2 0x116 SWAP2 SWAP1 PUSH2 0xDB8 JUMP JUMPDEST PUSH1 0x40 MLOAD DUP1 SWAP2 SUB SWAP1 RETURN JUMPDEST CALLVALUE DUP1 ISZERO PUSH2 0x12B JUMPI PUSH1 0x0 DUP1 REVERT JUMPDEST POP PUSH2 0x134 PUSH2 0x372 JUMP JUMPDEST PUSH1 0x40 MLOAD PUSH2 0x141 SWAP2 SWAP1 PUSH2 0xDB8 JUMP JUMPDEST PUSH1 0x40 MLOAD DUP1 SWAP2 SUB SWAP1 RETURN JUMPDEST CALLVALUE DUP1 ISZERO PUSH2 0x156 JUMPI PUSH1 0x0 DUP1 REVERT JUMPDEST POP PUSH2 0x15F PUSH2 0x40A JUMP JUMPDEST PUSH1 0x40 MLOAD PUSH2 0x16C SWAP2 SWAP1 PUSH2 0xDB8 JUMP JUMPDEST PUSH1 0x40 MLOAD DUP1 SWAP2 SUB SWAP1 RETURN JUMPDEST CALLVALUE DUP1 ISZERO PUSH2 0x181 JUMPI PUSH1 0x0 DUP1 REVERT JUMPDEST POP PUSH2 0x18A PUSH2 0x4BB JUMP JUMPDEST PUSH1 0x40 MLOAD PUSH2 0x197 SWAP2 SWAP1 PUSH2 0xDB8 JUMP JUMPDEST PUSH1 0x40 MLOAD DUP1 SWAP2 SUB SWAP1 RETURN JUMPDEST CALLVALUE DUP1 ISZERO PUSH2 0x1AC JUMPI PUSH1 0x0 DUP1 REVERT JUMPDEST POP PUSH2 0x1B5 PUSH2 0x4C7 JUMP JUMPDEST PUSH1 0x40 MLOAD PUSH2 0x1C2 SWAP2 SWAP1 PUSH2 0xDB8 JUMP JUMPDEST PUSH1 0x40 MLOAD DUP1 SWAP2 SUB SWAP1 RETURN JUMPDEST CALLVALUE DUP1 ISZERO PUSH2 0x1D7 JUMPI PUSH1 0x0 DUP1 REVERT JUMPDEST POP PUSH2 0x1F2 PUSH1 0x4 DUP1 CALLDATASIZE SUB DUP2 ADD SWAP1 PUSH2 0x1ED SWAP2 SWAP1 PUSH2 0xDFF JUMP JUMPDEST PUSH2 0x4CD JUMP JUMPDEST STOP JUMPDEST CALLVALUE DUP1 ISZERO PUSH2 0x200 JUMPI PUSH1 0x0 DUP1 REVERT JUMPDEST POP PUSH2 0x209 PUSH2 0x4D7 JUMP JUMPDEST PUSH1 0x40 MLOAD PUSH2 0x216 SWAP2 SWAP1 PUSH2 0xE3B JUMP JUMPDEST PUSH1 0x40 MLOAD DUP1 SWAP2 SUB SWAP1 RETURN JUMPDEST CALLVALUE DUP1 ISZERO PUSH2 0x22B JUMPI PUSH1 0x0 DUP1 REVERT JUMPDEST POP PUSH2 0x234 PUSH2 0x4FF JUMP JUMPDEST PUSH1 0x40 MLOAD PUSH2 0x241 SWAP2 SWAP1 PUSH2 0xEB5 JUMP JUMPDEST PUSH1 0x40 MLOAD DUP1 SWAP2 SUB SWAP1 RETURN JUMPDEST CALLVALUE DUP1 ISZERO PUSH2 0x256 JUMPI PUSH1 0x0 DUP1 REVERT JUMPDEST POP PUSH2 0x25F PUSH2 0x529 JUMP JUMPDEST PUSH1 0x40 MLOAD PUSH2 0x26C SWAP2 SWAP1 PUSH2 0xDB8 JUMP JUMPDEST PUSH1 0x40 MLOAD DUP1 SWAP2 SUB SWAP1 RETURN JUMPDEST CALLVALUE DUP1 ISZERO PUSH2 0x281 JUMPI PUSH1 0x0 DUP1 REVERT JUMPDEST POP PUSH2 0x28A PUSH2 0x5F3 JUMP JUMPDEST PUSH1 0x40 MLOAD PUSH2 0x297 SWAP2 SWAP1 PUSH2 0xEEB JUMP JUMPDEST PUSH1 0x40 MLOAD DUP1 SWAP2 SUB SWAP1 RETURN JUMPDEST PUSH2 0x2A8 PUSH2 0x6DB JUMP JUMPDEST STOP JUMPDEST CALLVALUE DUP1 ISZERO PUSH2 0x2B6 JUMPI PUSH1 0x0 DUP1 REVERT JUMPDEST POP PUSH2 0x2BF PUSH2 0x815 JUMP JUMPDEST STOP JUMPDEST CALLVALUE DUP1 ISZERO PUSH2 0x2CD JUMPI PUSH1 0x0 DUP1 REVERT JUMPDEST POP PUSH2 0x2E8 PUSH1 0x4 DUP1 CALLDATASIZE SUB DUP2 ADD SWAP1 PUSH2 0x2E3 SWAP2 SWAP1 PUSH2 0xDFF JUMP JUMPDEST PUSH2 0xAA3 JUMP JUMPDEST PUSH1 0x40 MLOAD PUSH2 0x2F5 SWAP2 SWAP1 PUSH2 0xE3B JUMP JUMPDEST PUSH1 0x40 MLOAD DUP1 SWAP2 SUB SWAP1 RETURN JUMPDEST CALLVALUE DUP1 ISZERO PUSH2 0x30A JUMPI PUSH1 0x0 DUP1 REVERT JUMPDEST POP PUSH2 0x313 PUSH2 0xAEA JUMP JUMPDEST PUSH1 0x40 MLOAD PUSH2 0x320 SWAP2 SWAP1 PUSH2 0xDB8 JUMP JUMPDEST PUSH1 0x40 MLOAD DUP1 SWAP2 SUB SWAP1 RETURN JUMPDEST PUSH1 0x0 PUSH1 0x1 PUSH1 0x0 DUP4 PUSH20 0xFFFFFFFFFFFFFFFFFFFFFFFFFFFFFFFFFFFFFFFF AND PUSH20 0xFFFFFFFFFFFFFFFFFFFFFFFFFFFFFFFFFFFFFFFF AND DUP2 MSTORE PUSH1 0x20 ADD SWAP1 DUP2 MSTORE PUSH1 0x20 ADD PUSH1 0x0 KECCAK256 SLOAD SWAP1 POP SWAP2 SWAP1 POP JUMP JUMPDEST PUSH1 0x0 PUSH1 0x2 PUSH1 0x0 SWAP1 SLOAD SWAP1 PUSH2 0x100 EXP SWAP1 DIV PUSH20 0xFFFFFFFFFFFFFFFFFFFFFFFFFFFFFFFFFFFFFFFF AND PUSH20 0xFFFFFFFFFFFFFFFFFFFFFFFFFFFFFFFFFFFFFFFF AND PUSH4 0x54FD4D50 PUSH1 0x40 MLOAD DUP2 PUSH4 0xFFFFFFFF AND PUSH1 0xE0 SHL DUP2 MSTORE PUSH1 0x4 ADD PUSH1 0x20 PUSH1 0x40 MLOAD DUP1 DUP4 SUB DUP2 DUP7 GAS STATICCALL ISZERO DUP1 ISZERO PUSH2 0x3E1 JUMPI RETURNDATASIZE PUSH1 0x0 DUP1 RETURNDATACOPY RETURNDATASIZE PUSH1 0x0 REVERT JUMPDEST POP POP POP POP PUSH1 0x40 MLOAD RETURNDATASIZE PUSH1 0x1F NOT PUSH1 0x1F DUP3 ADD AND DUP3 ADD DUP1 PUSH1 0x40 MSTORE POP DUP2 ADD SWAP1 PUSH2 0x405 SWAP2 SWAP1 PUSH2 0xF1B JUMP JUMPDEST SWAP1 POP SWAP1 JUMP JUMPDEST PUSH1 0x0 DUP1 PUSH1 0x3 PUSH1 0x0 SWAP1 SLOAD SWAP1 PUSH2 0x100 EXP SWAP1 DIV PUSH20 0xFFFFFFFFFFFFFFFFFFFFFFFFFFFFFFFFFFFFFFFF AND PUSH20 0xFFFFFFFFFFFFFFFFFFFFFFFFFFFFFFFFFFFFFFFF AND PUSH4 0xFEAF968C PUSH1 0x40 MLOAD DUP2 PUSH4 0xFFFFFFFF AND PUSH1 0xE0 SHL DUP2 MSTORE PUSH1 0x4 ADD PUSH1 0xA0 PUSH1 0x40 MLOAD DUP1 DUP4 SUB DUP2 DUP7 GAS STATICCALL ISZERO DUP1 ISZERO PUSH2 0x47A JUMPI RETURNDATASIZE PUSH1 0x0 DUP1 RETURNDATACOPY RETURNDATASIZE PUSH1 0x0 REVERT JUMPDEST POP POP POP POP PUSH1 0x40 MLOAD RETURNDATASIZE PUSH1 0x1F NOT PUSH1 0x1F DUP3 ADD AND DUP3 ADD DUP1 PUSH1 0x40 MSTORE POP DUP2 ADD SWAP1 PUSH2 0x49E SWAP2 SWAP1 PUSH2 0xFC0 JUMP JUMPDEST POP POP POP SWAP2 POP POP PUSH5 0x2540BE400 DUP2 PUSH2 0x4B5 SWAP2 SWAP1 PUSH2 0x106A JUMP JUMPDEST SWAP2 POP POP SWAP1 JUMP JUMPDEST PUSH8 0x8AC7230489E80000 DUP2 JUMP JUMPDEST PUSH1 0x5 SLOAD DUP2 JUMP JUMPDEST DUP1 PUSH1 0x5 DUP2 SWAP1 SSTORE POP POP JUMP JUMPDEST PUSH1 0x0 PUSH32 0x0 SWAP1 POP SWAP1 JUMP JUMPDEST PUSH1 0x0 PUSH1 0x2 PUSH1 0x0 SWAP1 SLOAD SWAP1 PUSH2 0x100 EXP SWAP1 DIV PUSH20 0xFFFFFFFFFFFFFFFFFFFFFFFFFFFFFFFFFFFFFFFF AND SWAP1 POP SWAP1 JUMP JUMPDEST PUSH1 0x0 DUP1 PUSH1 0x2 PUSH1 0x0 SWAP1 SLOAD SWAP1 PUSH2 0x100 EXP SWAP1 DIV PUSH20 0xFFFFFFFFFFFFFFFFFFFFFFFFFFFFFFFFFFFFFFFF AND PUSH20 0xFFFFFFFFFFFFFFFFFFFFFFFFFFFFFFFFFFFFFFFF AND PUSH4 0xFEAF968C PUSH1 0x40 MLOAD DUP2 PUSH4 0xFFFFFFFF AND PUSH1 0xE0 SHL DUP2 MSTORE PUSH1 0x4 ADD PUSH1 0xA0 PUSH1 0x40 MLOAD DUP1 DUP4 SUB DUP2 DUP7 GAS STATICCALL ISZERO DUP1 ISZERO PUSH2 0x599 JUMPI RETURNDATASIZE PUSH1 0x0 DUP1 RETURNDATACOPY RETURNDATASIZE PUSH1 0x0 REVERT JUMPDEST POP POP POP POP PUSH1 0x40 MLOAD RETURNDATASIZE PUSH1 0x1F NOT PUSH1 0x1F DUP3 ADD AND DUP3 ADD DUP1 PUSH1 0x40 MSTORE POP DUP2 ADD SWAP1 PUSH2 0x5BD SWAP2 SWAP1 PUSH2 0xFC0 JUMP JUMPDEST POP POP POP SWAP2 POP POP PUSH1 0x64 PUSH1 0x5 SLOAD PUSH5 0x2540BE400 DUP4 PUSH2 0x5D9 SWAP2 SWAP1 PUSH2 0x106A JUMP JUMPDEST PUSH2 0x5E3 SWAP2 SWAP1 PUSH2 0x10E2 JUMP JUMPDEST PUSH2 0x5ED SWAP2 SWAP1 PUSH2 0x1153 JUMP JUMPDEST SWAP2 POP POP SWAP1 JUMP JUMPDEST PUSH1 0x0 DUP1 PUSH2 0x5FE PUSH2 0x529 JUMP JUMPDEST SWAP1 POP PUSH1 0x6 SLOAD DUP2 GT ISZERO PUSH2 0x68A JUMPI PUSH1 0x64 PUSH1 0x14 PUSH1 0x6 SLOAD PUSH2 0x61B SWAP2 SWAP1 PUSH2 0x10E2 JUMP JUMPDEST PUSH2 0x625 SWAP2 SWAP1 PUSH2 0x1153 JUMP JUMPDEST PUSH1 0x6 SLOAD DUP3 PUSH2 0x633 SWAP2 SWAP1 PUSH2 0x1184 JUMP JUMPDEST GT ISZERO PUSH2 0x685 JUMPI PUSH32 0x8C6C7D0DC0402D3E4A691D85E729286802F266F3B6596ED0B317861BABF8A92 PUSH1 0x6 SLOAD DUP3 PUSH1 0x40 MLOAD PUSH2 0x66C SWAP3 SWAP2 SWAP1 PUSH2 0x1215 JUMP JUMPDEST PUSH1 0x40 MLOAD DUP1 SWAP2 SUB SWAP1 LOG1 DUP1 PUSH1 0x6 DUP2 SWAP1 SSTORE POP PUSH1 0x1 SWAP2 POP POP PUSH2 0x6D8 JUMP JUMPDEST PUSH2 0x6CB JUMP JUMPDEST PUSH1 0x64 PUSH1 0x14 PUSH1 0x6 SLOAD PUSH2 0x69B SWAP2 SWAP1 PUSH2 0x10E2 JUMP JUMPDEST PUSH2 0x6A5 SWAP2 SWAP1 PUSH2 0x1153 JUMP JUMPDEST DUP2 PUSH1 0x6 SLOAD PUSH2 0x6B3 SWAP2 SWAP1 PUSH2 0x1184 JUMP JUMPDEST GT ISZERO PUSH2 0x6CA JUMPI DUP1 PUSH1 0x6 DUP2 SWAP1 SSTORE POP PUSH1 0x1 SWAP2 POP POP PUSH2 0x6D8 JUMP JUMPDEST JUMPDEST DUP1 PUSH1 0x6 DUP2 SWAP1 SSTORE POP PUSH1 0x0 SWAP2 POP POP JUMPDEST SWAP1 JUMP JUMPDEST PUSH8 0x8AC7230489E80000 PUSH2 0x719 PUSH1 0x2 PUSH1 0x0 SWAP1 SLOAD SWAP1 PUSH2 0x100 EXP SWAP1 DIV PUSH20 0xFFFFFFFFFFFFFFFFFFFFFFFFFFFFFFFFFFFFFFFF AND CALLVALUE PUSH2 0xB9B SWAP1 SWAP2 SWAP1 PUSH4 0xFFFFFFFF AND JUMP JUMPDEST LT ISZERO PUSH2 0x75A JUMPI PUSH1 0x40 MLOAD PUSH32 0x8C379A000000000000000000000000000000000000000000000000000000000 DUP2 MSTORE PUSH1 0x4 ADD PUSH2 0x751 SWAP1 PUSH2 0x129D JUMP JUMPDEST PUSH1 0x40 MLOAD DUP1 SWAP2 SUB SWAP1 REVERT JUMPDEST CALLVALUE PUSH1 0x1 PUSH1 0x0 CALLER PUSH20 0xFFFFFFFFFFFFFFFFFFFFFFFFFFFFFFFFFFFFFFFF AND PUSH20 0xFFFFFFFFFFFFFFFFFFFFFFFFFFFFFFFFFFFFFFFF AND DUP2 MSTORE PUSH1 0x20 ADD SWAP1 DUP2 MSTORE PUSH1 0x20 ADD PUSH1 0x0 KECCAK256 PUSH1 0x0 DUP3 DUP3 SLOAD PUSH2 0x7A9 SWAP2 SWAP1 PUSH2 0x12BD JUMP JUMPDEST SWAP3 POP POP DUP2 SWAP1 SSTORE POP PUSH1 0x0 CALLER SWAP1 DUP1 PUSH1 0x1 DUP2 SLOAD ADD DUP1 DUP3 SSTORE DUP1 SWAP2 POP POP PUSH1 0x1 SWAP1 SUB SWAP1 PUSH1 0x0 MSTORE PUSH1 0x20 PUSH1 0x0 KECCAK256 ADD PUSH1 0x0 SWAP1 SWAP2 SWAP1 SWAP2 SWAP1 SWAP2 PUSH2 0x100 EXP DUP2 SLOAD DUP2 PUSH20 0xFFFFFFFFFFFFFFFFFFFFFFFFFFFFFFFFFFFFFFFF MUL NOT AND SWAP1 DUP4 PUSH20 0xFFFFFFFFFFFFFFFFFFFFFFFFFFFFFFFFFFFFFFFF AND MUL OR SWAP1 SSTORE POP JUMP JUMPDEST PUSH32 0x0 PUSH20 0xFFFFFFFFFFFFFFFFFFFFFFFFFFFFFFFFFFFFFFFF AND CALLER PUSH20 0xFFFFFFFFFFFFFFFFFFFFFFFFFFFFFFFFFFFFFFFF AND EQ PUSH2 0x89A JUMPI PUSH1 0x40 MLOAD PUSH32 0x579610DB00000000000000000000000000000000000000000000000000000000 DUP2 MSTORE PUSH1 0x4 ADD PUSH1 0x40 MLOAD DUP1 SWAP2 SUB SWAP1 REVERT JUMPDEST PUSH1 0x0 DUP1 DUP1 SLOAD DUP1 PUSH1 0x20 MUL PUSH1 0x20 ADD PUSH1 0x40 MLOAD SWAP1 DUP2 ADD PUSH1 0x40 MSTORE DUP1 SWAP3 SWAP2 SWAP1 DUP2 DUP2 MSTORE PUSH1 0x20 ADD DUP3 DUP1 SLOAD DUP1 ISZERO PUSH2 0x91D JUMPI PUSH1 0x20 MUL DUP3 ADD SWAP2 SWAP1 PUSH1 0x0 MSTORE PUSH1 0x20 PUSH1 0x0 KECCAK256 SWAP1 JUMPDEST DUP2 PUSH1 0x0 SWAP1 SLOAD SWAP1 PUSH2 0x100 EXP SWAP1 DIV PUSH20 0xFFFFFFFFFFFFFFFFFFFFFFFFFFFFFFFFFFFFFFFF AND PUSH20 0xFFFFFFFFFFFFFFFFFFFFFFFFFFFFFFFFFFFFFFFF AND DUP2 MSTORE PUSH1 0x20 ADD SWAP1 PUSH1 0x1 ADD SWAP1 DUP1 DUP4 GT PUSH2 0x8D3 JUMPI JUMPDEST POP POP POP POP POP SWAP1 POP PUSH1 0x0 JUMPDEST DUP2 MLOAD DUP2 LT ISZERO PUSH2 0x9A8 JUMPI PUSH1 0x0 DUP3 DUP3 DUP2 MLOAD DUP2 LT PUSH2 0x945 JUMPI PUSH2 0x944 PUSH2 0x12F1 JUMP JUMPDEST JUMPDEST PUSH1 0x20 MUL PUSH1 0x20 ADD ADD MLOAD SWAP1 POP PUSH1 0x0 PUSH1 0x1 PUSH1 0x0 DUP4 PUSH20 0xFFFFFFFFFFFFFFFFFFFFFFFFFFFFFFFFFFFFFFFF AND PUSH20 0xFFFFFFFFFFFFFFFFFFFFFFFFFFFFFFFFFFFFFFFF AND DUP2 MSTORE PUSH1 0x20 ADD SWAP1 DUP2 MSTORE PUSH1 0x20 ADD PUSH1 0x0 KECCAK256 DUP2 SWAP1 SSTORE POP POP DUP1 DUP1 PUSH2 0x9A0 SWAP1 PUSH2 0x1320 JUMP JUMPDEST SWAP2 POP POP PUSH2 0x927 JUMP JUMPDEST POP PUSH1 0x0 PUSH8 0xFFFFFFFFFFFFFFFF DUP2 GT ISZERO PUSH2 0x9C4 JUMPI PUSH2 0x9C3 PUSH2 0x1368 JUMP JUMPDEST JUMPDEST PUSH1 0x40 MLOAD SWAP1 DUP1 DUP3 MSTORE DUP1 PUSH1 0x20 MUL PUSH1 0x20 ADD DUP3 ADD PUSH1 0x40 MSTORE DUP1 ISZERO PUSH2 0x9F2 JUMPI DUP2 PUSH1 0x20 ADD PUSH1 0x20 DUP3 MUL DUP1 CALLDATASIZE DUP4 CALLDATACOPY DUP1 DUP3 ADD SWAP2 POP POP SWAP1 POP JUMPDEST POP PUSH1 0x0 SWAP1 DUP1 MLOAD SWAP1 PUSH1 0x20 ADD SWAP1 PUSH2 0xA08 SWAP3 SWAP2 SWAP1 PUSH2 0xC68 JUMP JUMPDEST POP PUSH1 0x0 PUSH32 0x0 PUSH20 0xFFFFFFFFFFFFFFFFFFFFFFFFFFFFFFFFFFFFFFFF AND SELFBALANCE PUSH1 0x40 MLOAD PUSH2 0xA4F SWAP1 PUSH2 0x13C8 JUMP JUMPDEST PUSH1 0x0 PUSH1 0x40 MLOAD DUP1 DUP4 SUB DUP2 DUP6 DUP8 GAS CALL SWAP3 POP POP POP RETURNDATASIZE DUP1 PUSH1 0x0 DUP2 EQ PUSH2 0xA8C JUMPI PUSH1 0x40 MLOAD SWAP2 POP PUSH1 0x1F NOT PUSH1 0x3F RETURNDATASIZE ADD AND DUP3 ADD PUSH1 0x40 MSTORE RETURNDATASIZE DUP3 MSTORE RETURNDATASIZE PUSH1 0x0 PUSH1 0x20 DUP5 ADD RETURNDATACOPY PUSH2 0xA91 JUMP JUMPDEST PUSH1 0x60 SWAP2 POP JUMPDEST POP POP SWAP1 POP DUP1 PUSH2 0xA9F JUMPI PUSH1 0x0 DUP1 REVERT JUMPDEST POP POP JUMP JUMPDEST PUSH1 0x0 DUP1 DUP3 DUP2 SLOAD DUP2 LT PUSH2 0xAB8 JUMPI PUSH2 0xAB7 PUSH2 0x12F1 JUMP JUMPDEST JUMPDEST SWAP1 PUSH1 0x0 MSTORE PUSH1 0x20 PUSH1 0x0 KECCAK256 ADD PUSH1 0x0 SWAP1 SLOAD SWAP1 PUSH2 0x100 EXP SWAP1 DIV PUSH20 0xFFFFFFFFFFFFFFFFFFFFFFFFFFFFFFFFFFFFFFFF AND SWAP1 POP SWAP2 SWAP1 POP JUMP JUMPDEST PUSH1 0x0 DUP1 PUSH1 0x4 PUSH1 0x0 SWAP1 SLOAD SWAP1 PUSH2 0x100 EXP SWAP1 DIV PUSH20 0xFFFFFFFFFFFFFFFFFFFFFFFFFFFFFFFFFFFFFFFF AND PUSH20 0xFFFFFFFFFFFFFFFFFFFFFFFFFFFFFFFFFFFFFFFF AND PUSH4 0xFEAF968C PUSH1 0x40 MLOAD DUP2 PUSH4 0xFFFFFFFF AND PUSH1 0xE0 SHL DUP2 MSTORE PUSH1 0x4 ADD PUSH1 0xA0 PUSH1 0x40 MLOAD DUP1 DUP4 SUB DUP2 DUP7 GAS STATICCALL ISZERO DUP1 ISZERO PUSH2 0xB5A JUMPI RETURNDATASIZE PUSH1 0x0 DUP1 RETURNDATACOPY RETURNDATASIZE PUSH1 0x0 REVERT JUMPDEST POP POP POP POP PUSH1 0x40 MLOAD RETURNDATASIZE PUSH1 0x1F NOT PUSH1 0x1F DUP3 ADD AND DUP3 ADD DUP1 PUSH1 0x40 MSTORE POP DUP2 ADD SWAP1 PUSH2 0xB7E SWAP2 SWAP1 PUSH2 0xFC0 JUMP JUMPDEST POP POP POP SWAP2 POP POP PUSH5 0x2540BE400 DUP2 PUSH2 0xB95 SWAP2 SWAP1 PUSH2 0x106A JUMP JUMPDEST SWAP2 POP POP SWAP1 JUMP JUMPDEST PUSH1 0x0 DUP1 PUSH2 0xBA7 DUP4 PUSH2 0xBD7 JUMP JUMPDEST SWAP1 POP PUSH1 0x0 PUSH8 0xDE0B6B3A7640000 DUP6 DUP4 PUSH2 0xBC0 SWAP2 SWAP1 PUSH2 0x10E2 JUMP JUMPDEST PUSH2 0xBCA SWAP2 SWAP1 PUSH2 0x1153 JUMP JUMPDEST SWAP1 POP DUP1 SWAP3 POP POP POP SWAP3 SWAP2 POP POP JUMP JUMPDEST PUSH1 0x0 DUP1 DUP3 PUSH20 0xFFFFFFFFFFFFFFFFFFFFFFFFFFFFFFFFFFFFFFFF AND PUSH4 0xFEAF968C PUSH1 0x40 MLOAD DUP2 PUSH4 0xFFFFFFFF AND PUSH1 0xE0 SHL DUP2 MSTORE PUSH1 0x4 ADD PUSH1 0xA0 PUSH1 0x40 MLOAD DUP1 DUP4 SUB DUP2 DUP7 GAS STATICCALL ISZERO DUP1 ISZERO PUSH2 0xC25 JUMPI RETURNDATASIZE PUSH1 0x0 DUP1 RETURNDATACOPY RETURNDATASIZE PUSH1 0x0 REVERT JUMPDEST POP POP POP POP PUSH1 0x40 MLOAD RETURNDATASIZE PUSH1 0x1F NOT PUSH1 0x1F DUP3 ADD AND DUP3 ADD DUP1 PUSH1 0x40 MSTORE POP DUP2 ADD SWAP1 PUSH2 0xC49 SWAP2 SWAP1 PUSH2 0xFC0 JUMP JUMPDEST POP POP POP SWAP2 POP POP PUSH5 0x2540BE400 DUP2 PUSH2 0xC60 SWAP2 SWAP1 PUSH2 0x106A JUMP JUMPDEST SWAP2 POP POP SWAP2 SWAP1 POP JUMP JUMPDEST DUP3 DUP1 SLOAD DUP3 DUP3 SSTORE SWAP1 PUSH1 0x0 MSTORE PUSH1 0x20 PUSH1 0x0 KECCAK256 SWAP1 DUP2 ADD SWAP3 DUP3 ISZERO PUSH2 0xCE1 JUMPI SWAP2 PUSH1 0x20 MUL DUP3 ADD JUMPDEST DUP3 DUP2 GT ISZERO PUSH2 0xCE0 JUMPI DUP3 MLOAD DUP3 PUSH1 0x0 PUSH2 0x100 EXP DUP2 SLOAD DUP2 PUSH20 0xFFFFFFFFFFFFFFFFFFFFFFFFFFFFFFFFFFFFFFFF MUL NOT AND SWAP1 DUP4 PUSH20 0xFFFFFFFFFFFFFFFFFFFFFFFFFFFFFFFFFFFFFFFF AND MUL OR SWAP1 SSTORE POP SWAP2 PUSH1 0x20 ADD SWAP2 SWAP1 PUSH1 0x1 ADD SWAP1 PUSH2 0xC88 JUMP JUMPDEST JUMPDEST POP SWAP1 POP PUSH2 0xCEE SWAP2 SWAP1 PUSH2 0xCF2 JUMP JUMPDEST POP SWAP1 JUMP JUMPDEST JUMPDEST DUP1 DUP3 GT ISZERO PUSH2 0xD0B JUMPI PUSH1 0x0 DUP2 PUSH1 0x0 SWAP1 SSTORE POP PUSH1 0x1 ADD PUSH2 0xCF3 JUMP JUMPDEST POP SWAP1 JUMP JUMPDEST PUSH1 0x0 DUP1 REVERT JUMPDEST PUSH1 0x0 PUSH20 0xFFFFFFFFFFFFFFFFFFFFFFFFFFFFFFFFFFFFFFFF DUP3 AND SWAP1 POP SWAP2 SWAP1 POP JUMP JUMPDEST PUSH1 0x0 PUSH2 0xD3F DUP3 PUSH2 0xD14 JUMP JUMPDEST SWAP1 POP SWAP2 SWAP1 POP JUMP JUMPDEST PUSH2 0xD4F DUP2 PUSH2 0xD34 JUMP JUMPDEST DUP2 EQ PUSH2 0xD5A JUMPI PUSH1 0x0 DUP1 REVERT JUMPDEST POP JUMP JUMPDEST PUSH1 0x0 DUP2 CALLDATALOAD SWAP1 POP PUSH2 0xD6C DUP2 PUSH2 0xD46 JUMP JUMPDEST SWAP3 SWAP2 POP POP JUMP JUMPDEST PUSH1 0x0 PUSH1 0x20 DUP3 DUP5 SUB SLT ISZERO PUSH2 0xD88 JUMPI PUSH2 0xD87 PUSH2 0xD0F JUMP JUMPDEST JUMPDEST PUSH1 0x0 PUSH2 0xD96 DUP5 DUP3 DUP6 ADD PUSH2 0xD5D JUMP JUMPDEST SWAP2 POP POP SWAP3 SWAP2 POP POP JUMP JUMPDEST PUSH1 0x0 DUP2 SWAP1 POP SWAP2 SWAP1 POP JUMP JUMPDEST PUSH2 0xDB2 DUP2 PUSH2 0xD9F JUMP JUMPDEST DUP3 MSTORE POP POP JUMP JUMPDEST PUSH1 0x0 PUSH1 0x20 DUP3 ADD SWAP1 POP PUSH2 0xDCD PUSH1 0x0 DUP4 ADD DUP5 PUSH2 0xDA9 JUMP JUMPDEST SWAP3 SWAP2 POP POP JUMP JUMPDEST PUSH2 0xDDC DUP2 PUSH2 0xD9F JUMP JUMPDEST DUP2 EQ PUSH2 0xDE7 JUMPI PUSH1 0x0 DUP1 REVERT JUMPDEST POP JUMP JUMPDEST PUSH1 0x0 DUP2 CALLDATALOAD SWAP1 POP PUSH2 0xDF9 DUP2 PUSH2 0xDD3 JUMP JUMPDEST SWAP3 SWAP2 POP POP JUMP JUMPDEST PUSH1 0x0 PUSH1 0x20 DUP3 DUP5 SUB SLT ISZERO PUSH2 0xE15 JUMPI PUSH2 0xE14 PUSH2 0xD0F JUMP JUMPDEST JUMPDEST PUSH1 0x0 PUSH2 0xE23 DUP5 DUP3 DUP6 ADD PUSH2 0xDEA JUMP JUMPDEST SWAP2 POP POP SWAP3 SWAP2 POP POP JUMP JUMPDEST PUSH2 0xE35 DUP2 PUSH2 0xD34 JUMP JUMPDEST DUP3 MSTORE POP POP JUMP JUMPDEST PUSH1 0x0 PUSH1 0x20 DUP3 ADD SWAP1 POP PUSH2 0xE50 PUSH1 0x0 DUP4 ADD DUP5 PUSH2 0xE2C JUMP JUMPDEST SWAP3 SWAP2 POP POP JUMP JUMPDEST PUSH1 0x0 DUP2 SWAP1 POP SWAP2 SWAP1 POP JUMP JUMPDEST PUSH1 0x0 PUSH2 0xE7B PUSH2 0xE76 PUSH2 0xE71 DUP5 PUSH2 0xD14 JUMP JUMPDEST PUSH2 0xE56 JUMP JUMPDEST PUSH2 0xD14 JUMP JUMPDEST SWAP1 POP SWAP2 SWAP1 POP JUMP JUMPDEST PUSH1 0x0 PUSH2 0xE8D DUP3 PUSH2 0xE60 JUMP JUMPDEST SWAP1 POP SWAP2 SWAP1 POP JUMP JUMPDEST PUSH1 0x0 PUSH2 0xE9F DUP3 PUSH2 0xE82 JUMP JUMPDEST SWAP1 POP SWAP2 SWAP1 POP JUMP JUMPDEST PUSH2 0xEAF DUP2 PUSH2 0xE94 JUMP JUMPDEST DUP3 MSTORE POP POP JUMP JUMPDEST PUSH1 0x0 PUSH1 0x20 DUP3 ADD SWAP1 POP PUSH2 0xECA PUSH1 0x0 DUP4 ADD DUP5 PUSH2 0xEA6 JUMP JUMPDEST SWAP3 SWAP2 POP POP JUMP JUMPDEST PUSH1 0x0 DUP2 ISZERO ISZERO SWAP1 POP SWAP2 SWAP1 POP JUMP JUMPDEST PUSH2 0xEE5 DUP2 PUSH2 0xED0 JUMP JUMPDEST DUP3 MSTORE POP POP JUMP JUMPDEST PUSH1 0x0 PUSH1 0x20 DUP3 ADD SWAP1 POP PUSH2 0xF00 PUSH1 0x0 DUP4 ADD DUP5 PUSH2 0xEDC JUMP JUMPDEST SWAP3 SWAP2 POP POP JUMP JUMPDEST PUSH1 0x0 DUP2 MLOAD SWAP1 POP PUSH2 0xF15 DUP2 PUSH2 0xDD3 JUMP JUMPDEST SWAP3 SWAP2 POP POP JUMP JUMPDEST PUSH1 0x0 PUSH1 0x20 DUP3 DUP5 SUB SLT ISZERO PUSH2 0xF31 JUMPI PUSH2 0xF30 PUSH2 0xD0F JUMP JUMPDEST JUMPDEST PUSH1 0x0 PUSH2 0xF3F DUP5 DUP3 DUP6 ADD PUSH2 0xF06 JUMP JUMPDEST SWAP2 POP POP SWAP3 SWAP2 POP POP JUMP JUMPDEST PUSH1 0x0 PUSH10 0xFFFFFFFFFFFFFFFFFFFF DUP3 AND SWAP1 POP SWAP2 SWAP1 POP JUMP JUMPDEST PUSH2 0xF67 DUP2 PUSH2 0xF48 JUMP JUMPDEST DUP2 EQ PUSH2 0xF72 JUMPI PUSH1 0x0 DUP1 REVERT JUMPDEST POP JUMP JUMPDEST PUSH1 0x0 DUP2 MLOAD SWAP1 POP PUSH2 0xF84 DUP2 PUSH2 0xF5E JUMP JUMPDEST SWAP3 SWAP2 POP POP JUMP JUMPDEST PUSH1 0x0 DUP2 SWAP1 POP SWAP2 SWAP1 POP JUMP JUMPDEST PUSH2 0xF9D DUP2 PUSH2 0xF8A JUMP JUMPDEST DUP2 EQ PUSH2 0xFA8 JUMPI PUSH1 0x0 DUP1 REVERT JUMPDEST POP JUMP JUMPDEST PUSH1 0x0 DUP2 MLOAD SWAP1 POP PUSH2 0xFBA DUP2 PUSH2 0xF94 JUMP JUMPDEST SWAP3 SWAP2 POP POP JUMP JUMPDEST PUSH1 0x0 DUP1 PUSH1 0x0 DUP1 PUSH1 0x0 PUSH1 0xA0 DUP7 DUP9 SUB SLT ISZERO PUSH2 0xFDC JUMPI PUSH2 0xFDB PUSH2 0xD0F JUMP JUMPDEST JUMPDEST PUSH1 0x0 PUSH2 0xFEA DUP9 DUP3 DUP10 ADD PUSH2 0xF75 JUMP JUMPDEST SWAP6 POP POP PUSH1 0x20 PUSH2 0xFFB DUP9 DUP3 DUP10 ADD PUSH2 0xFAB JUMP JUMPDEST SWAP5 POP POP PUSH1 0x40 PUSH2 0x100C DUP9 DUP3 DUP10 ADD PUSH2 0xF06 JUMP JUMPDEST SWAP4 POP POP PUSH1 0x60 PUSH2 0x101D DUP9 DUP3 DUP10 ADD PUSH2 0xF06 JUMP JUMPDEST SWAP3 POP POP PUSH1 0x80 PUSH2 0x102E DUP9 DUP3 DUP10 ADD PUSH2 0xF75 JUMP JUMPDEST SWAP2 POP POP SWAP3 SWAP6 POP SWAP3 SWAP6 SWAP1 SWAP4 POP JUMP JUMPDEST PUSH32 0x4E487B7100000000000000000000000000000000000000000000000000000000 PUSH1 0x0 MSTORE PUSH1 0x11 PUSH1 0x4 MSTORE PUSH1 0x24 PUSH1 0x0 REVERT JUMPDEST PUSH1 0x0 PUSH2 0x1075 DUP3 PUSH2 0xF8A JUMP JUMPDEST SWAP2 POP PUSH2 0x1080 DUP4 PUSH2 0xF8A JUMP JUMPDEST SWAP3 POP DUP3 DUP3 MUL PUSH2 0x108E DUP2 PUSH2 0xF8A JUMP JUMPDEST SWAP2 POP PUSH32 0x8000000000000000000000000000000000000000000000000000000000000000 DUP5 EQ PUSH1 0x0 DUP5 SLT AND ISZERO PUSH2 0x10C6 JUMPI PUSH2 0x10C5 PUSH2 0x103B JUMP JUMPDEST JUMPDEST DUP3 DUP3 SDIV DUP5 EQ DUP4 ISZERO OR PUSH2 0x10DB JUMPI PUSH2 0x10DA PUSH2 0x103B JUMP JUMPDEST JUMPDEST POP SWAP3 SWAP2 POP POP JUMP JUMPDEST PUSH1 0x0 PUSH2 0x10ED DUP3 PUSH2 0xD9F JUMP JUMPDEST SWAP2 POP PUSH2 0x10F8 DUP4 PUSH2 0xD9F JUMP JUMPDEST SWAP3 POP DUP3 DUP3 MUL PUSH2 0x1106 DUP2 PUSH2 0xD9F JUMP JUMPDEST SWAP2 POP DUP3 DUP3 DIV DUP5 EQ DUP4 ISZERO OR PUSH2 0x111D JUMPI PUSH2 0x111C PUSH2 0x103B JUMP JUMPDEST JUMPDEST POP SWAP3 SWAP2 POP POP JUMP JUMPDEST PUSH32 0x4E487B7100000000000000000000000000000000000000000000000000000000 PUSH1 0x0 MSTORE PUSH1 0x12 PUSH1 0x4 MSTORE PUSH1 0x24 PUSH1 0x0 REVERT JUMPDEST PUSH1 0x0 PUSH2 0x115E DUP3 PUSH2 0xD9F JUMP JUMPDEST SWAP2 POP PUSH2 0x1169 DUP4 PUSH2 0xD9F JUMP JUMPDEST SWAP3 POP DUP3 PUSH2 0x1179 JUMPI PUSH2 0x1178 PUSH2 0x1124 JUMP JUMPDEST JUMPDEST DUP3 DUP3 DIV SWAP1 POP SWAP3 SWAP2 POP POP JUMP JUMPDEST PUSH1 0x0 PUSH2 0x118F DUP3 PUSH2 0xD9F JUMP JUMPDEST SWAP2 POP PUSH2 0x119A DUP4 PUSH2 0xD9F JUMP JUMPDEST SWAP3 POP DUP3 DUP3 SUB SWAP1 POP DUP2 DUP2 GT ISZERO PUSH2 0x11B2 JUMPI PUSH2 0x11B1 PUSH2 0x103B JUMP JUMPDEST JUMPDEST SWAP3 SWAP2 POP POP JUMP JUMPDEST PUSH1 0x0 DUP3 DUP3 MSTORE PUSH1 0x20 DUP3 ADD SWAP1 POP SWAP3 SWAP2 POP POP JUMP JUMPDEST PUSH32 0x4554480000000000000000000000000000000000000000000000000000000000 PUSH1 0x0 DUP3 ADD MSTORE POP JUMP JUMPDEST PUSH1 0x0 PUSH2 0x11FF PUSH1 0x3 DUP4 PUSH2 0x11B8 JUMP JUMPDEST SWAP2 POP PUSH2 0x120A DUP3 PUSH2 0x11C9 JUMP JUMPDEST PUSH1 0x20 DUP3 ADD SWAP1 POP SWAP2 SWAP1 POP JUMP JUMPDEST PUSH1 0x0 PUSH1 0x60 DUP3 ADD SWAP1 POP DUP2 DUP2 SUB PUSH1 0x0 DUP4 ADD MSTORE PUSH2 0x122E DUP2 PUSH2 0x11F2 JUMP JUMPDEST SWAP1 POP PUSH2 0x123D PUSH1 0x20 DUP4 ADD DUP6 PUSH2 0xDA9 JUMP JUMPDEST PUSH2 0x124A PUSH1 0x40 DUP4 ADD DUP5 PUSH2 0xDA9 JUMP JUMPDEST SWAP4 SWAP3 POP POP POP JUMP JUMPDEST PUSH32 0x596F75206E65656420746F207370656E64206D6F726520455448210000000000 PUSH1 0x0 DUP3 ADD MSTORE POP JUMP JUMPDEST PUSH1 0x0 PUSH2 0x1287 PUSH1 0x1B DUP4 PUSH2 0x11B8 JUMP JUMPDEST SWAP2 POP PUSH2 0x1292 DUP3 PUSH2 0x1251 JUMP JUMPDEST PUSH1 0x20 DUP3 ADD SWAP1 POP SWAP2 SWAP1 POP JUMP JUMPDEST PUSH1 0x0 PUSH1 0x20 DUP3 ADD SWAP1 POP DUP2 DUP2 SUB PUSH1 0x0 DUP4 ADD MSTORE PUSH2 0x12B6 DUP2 PUSH2 0x127A JUMP JUMPDEST SWAP1 POP SWAP2 SWAP1 POP JUMP JUMPDEST PUSH1 0x0 PUSH2 0x12C8 DUP3 PUSH2 0xD9F JUMP JUMPDEST SWAP2 POP PUSH2 0x12D3 DUP4 PUSH2 0xD9F JUMP JUMPDEST SWAP3 POP DUP3 DUP3 ADD SWAP1 POP DUP1 DUP3 GT ISZERO PUSH2 0x12EB JUMPI PUSH2 0x12EA PUSH2 0x103B JUMP JUMPDEST JUMPDEST SWAP3 SWAP2 POP POP JUMP JUMPDEST PUSH32 0x4E487B7100000000000000000000000000000000000000000000000000000000 PUSH1 0x0 MSTORE PUSH1 0x32 PUSH1 0x4 MSTORE PUSH1 0x24 PUSH1 0x0 REVERT JUMPDEST PUSH1 0x0 PUSH2 0x132B DUP3 PUSH2 0xD9F JUMP JUMPDEST SWAP2 POP PUSH32 0xFFFFFFFFFFFFFFFFFFFFFFFFFFFFFFFFFFFFFFFFFFFFFFFFFFFFFFFFFFFFFFFF DUP3 SUB PUSH2 0x135D JUMPI PUSH2 0x135C PUSH2 0x103B JUMP JUMPDEST JUMPDEST PUSH1 0x1 DUP3 ADD SWAP1 POP SWAP2 SWAP1 POP JUMP JUMPDEST PUSH32 0x4E487B7100000000000000000000000000000000000000000000000000000000 PUSH1 0x0 MSTORE PUSH1 0x41 PUSH1 0x4 MSTORE PUSH1 0x24 PUSH1 0x0 REVERT JUMPDEST PUSH1 0x0 DUP2 SWAP1 POP SWAP3 SWAP2 POP POP JUMP JUMPDEST POP JUMP JUMPDEST PUSH1 0x0 PUSH2 0x13B2 PUSH1 0x0 DUP4 PUSH2 0x1397 JUMP JUMPDEST SWAP2 POP PUSH2 0x13BD DUP3 PUSH2 0x13A2 JUMP JUMPDEST PUSH1 0x0 DUP3 ADD SWAP1 POP SWAP2 SWAP1 POP JUMP JUMPDEST PUSH1 0x0 PUSH2 0x13D3 DUP3 PUSH2 0x13A5 JUMP JUMPDEST SWAP2 POP DUP2 SWAP1 POP SWAP2 SWAP1 POP JUMP INVALID LOG2 PUSH5 0x6970667358 0x22 SLT KECCAK256 0xF8 PUSH22 0xE3D50D9549457A03848467D5A6B76CA0BB58EFD280B3 0xEA PUSH14 0xF2D6E433D06A64736F6C63430008 SLT STOP CALLER "
				},
				"gasEstimates": {
					"creation": {
						"codeDepositCost": "1027800",
						"executionCost": "infinite",
						"totalCost": "infinite"
					},
					"external": {
						"MINIMUM_USD()": "352",
						"change_lot()": "infinite",
						"cheaperWithdraw()": "infinite",
						"fund()": "infinite",
						"getAddressToAmountFunded(address)": "2865",
						"getBTCPrice()": "infinite",
						"getETHPrice()": "infinite",
						"getFunder(uint256)": "5033",
						"getOwner()": "infinite",
						"getPriceFeed()": "infinite",
						"getUSDCPrice()": "infinite",
						"getVersion()": "infinite",
						"percent()": "2474",
						"setPercent(uint256)": "22587"
					},
					"internal": {
						"abs(int256)": "infinite"
					}
				},
				"methodIdentifiers": {
					"MINIMUM_USD()": "6b69a592",
					"change_lot()": "ac70214c",
					"cheaperWithdraw()": "be2693f0",
					"fund()": "b60d4288",
					"getAddressToAmountFunded(address)": "0343fb25",
					"getBTCPrice()": "dd22db80",
					"getETHPrice()": "a607a8d9",
					"getFunder(uint256)": "d7b4750c",
					"getOwner()": "893d20e8",
					"getPriceFeed()": "9e87a5cd",
					"getUSDCPrice()": "4ad517bc",
					"getVersion()": "0d8e6e2c",
					"percent()": "70ba1113",
					"setPercent(uint256)": "7154b8b5"
				}
			},
			"storageLayout": {
				"storage": [
					{
						"astId": 74,
						"contract": "contracts/Checker.sol:Checker",
						"label": "s_funders",
						"offset": 0,
						"slot": "0",
						"type": "t_array(t_address)dyn_storage"
					},
					{
						"astId": 78,
						"contract": "contracts/Checker.sol:Checker",
						"label": "s_addressToAmountFunded",
						"offset": 0,
						"slot": "1",
						"type": "t_mapping(t_address,t_uint256)"
					},
					{
						"astId": 81,
						"contract": "contracts/Checker.sol:Checker",
						"label": "s_priceFeed",
						"offset": 0,
						"slot": "2",
						"type": "t_contract(AggregatorV3Interface)45"
					},
					{
						"astId": 84,
						"contract": "contracts/Checker.sol:Checker",
						"label": "USDC_priceFeed",
						"offset": 0,
						"slot": "3",
						"type": "t_contract(AggregatorV3Interface)45"
					},
					{
						"astId": 87,
						"contract": "contracts/Checker.sol:Checker",
						"label": "BTC_priceFeed",
						"offset": 0,
						"slot": "4",
						"type": "t_contract(AggregatorV3Interface)45"
					},
					{
						"astId": 90,
						"contract": "contracts/Checker.sol:Checker",
						"label": "percent",
						"offset": 0,
						"slot": "5",
						"type": "t_uint256"
					},
					{
						"astId": 92,
						"contract": "contracts/Checker.sol:Checker",
						"label": "last_price",
						"offset": 0,
						"slot": "6",
						"type": "t_uint256"
					}
				],
				"types": {
					"t_address": {
						"encoding": "inplace",
						"label": "address",
						"numberOfBytes": "20"
					},
					"t_array(t_address)dyn_storage": {
						"base": "t_address",
						"encoding": "dynamic_array",
						"label": "address[]",
						"numberOfBytes": "32"
					},
					"t_contract(AggregatorV3Interface)45": {
						"encoding": "inplace",
						"label": "contract AggregatorV3Interface",
						"numberOfBytes": "20"
					},
					"t_mapping(t_address,t_uint256)": {
						"encoding": "mapping",
						"key": "t_address",
						"label": "mapping(address => uint256)",
						"numberOfBytes": "32",
						"value": "t_uint256"
					},
					"t_uint256": {
						"encoding": "inplace",
						"label": "uint256",
						"numberOfBytes": "32"
					}
				}
			},
			"userdoc": {
				"kind": "user",
				"methods": {
					"fund()": {
						"notice": "Funds our contract based on the ETH/USD price"
					}
				},
				"version": 1
			}
		}
	}
}