{
	"contracts/TrustFund.sol": {
		"Logger": {
			"abi": [
				{
					"inputs": [],
					"name": "LastLine",
					"outputs": [
						{
							"internalType": "address",
							"name": "sender",
							"type": "address"
						},
						{
							"internalType": "uint256",
							"name": "amount",
							"type": "uint256"
						},
						{
							"internalType": "string",
							"name": "note",
							"type": "string"
						}
					],
					"stateMutability": "view",
					"type": "function"
				},
				{
					"inputs": [
						{
							"internalType": "address",
							"name": "_sender",
							"type": "address"
						},
						{
							"internalType": "uint256",
							"name": "_amount",
							"type": "uint256"
						},
						{
							"internalType": "string",
							"name": "_note",
							"type": "string"
						}
					],
					"name": "LogTransfer",
					"outputs": [],
					"stateMutability": "nonpayable",
					"type": "function"
				}
			],
			"devdoc": {
				"kind": "dev",
				"methods": {},
				"version": 1
			},
			"evm": {
				"assembly": "    /* \"contracts/TrustFund.sol\":1112:1469  contract Logger {... */\n  mstore(0x40, 0x80)\n  callvalue\n  dup1\n  iszero\n  tag_1\n  jumpi\n  0x00\n  dup1\n  revert\ntag_1:\n  pop\n  dataSize(sub_0)\n  dup1\n  dataOffset(sub_0)\n  0x00\n  codecopy\n  0x00\n  return\nstop\n\nsub_0: assembly {\n        /* \"contracts/TrustFund.sol\":1112:1469  contract Logger {... */\n      mstore(0x40, 0x80)\n      callvalue\n      dup1\n      iszero\n      tag_1\n      jumpi\n      0x00\n      dup1\n      revert\n    tag_1:\n      pop\n      jumpi(tag_2, lt(calldatasize, 0x04))\n      shr(0xe0, calldataload(0x00))\n      dup1\n      0x10176f86\n      eq\n      tag_3\n      jumpi\n      dup1\n      0xda223bc3\n      eq\n      tag_4\n      jumpi\n    tag_2:\n      0x00\n      dup1\n      revert\n        /* \"contracts/TrustFund.sol\":1262:1467  function LogTransfer(address _sender, uint256 _amount, string memory _note) public {... */\n    tag_3:\n      tag_5\n      0x04\n      dup1\n      calldatasize\n      sub\n      dup2\n      add\n      swap1\n      tag_6\n      swap2\n      swap1\n      tag_7\n      jump\t// in\n    tag_6:\n      tag_8\n      jump\t// in\n    tag_5:\n      stop\n        /* \"contracts/TrustFund.sol\":1234:1257  Message public LastLine */\n    tag_4:\n      tag_9\n      tag_10\n      jump\t// in\n    tag_9:\n      mload(0x40)\n      tag_11\n      swap4\n      swap3\n      swap2\n      swap1\n      tag_12\n      jump\t// in\n    tag_11:\n      mload(0x40)\n      dup1\n      swap2\n      sub\n      swap1\n      return\n        /* \"contracts/TrustFund.sol\":1262:1467  function LogTransfer(address _sender, uint256 _amount, string memory _note) public {... */\n    tag_8:\n        /* \"contracts/TrustFund.sol\":1369:1376  _sender */\n      dup3\n        /* \"contracts/TrustFund.sol\":1351:1359  LastLine */\n      0x01\n        /* \"contracts/TrustFund.sol\":1351:1366  LastLine.sender */\n      0x00\n      add\n      0x00\n        /* \"contracts/TrustFund.sol\":1351:1376  LastLine.sender = _sender */\n      0x0100\n      exp\n      dup2\n      sload\n      dup2\n      0xffffffffffffffffffffffffffffffffffffffff\n      mul\n      not\n      and\n      swap1\n      dup4\n      0xffffffffffffffffffffffffffffffffffffffff\n      and\n      mul\n      or\n      swap1\n      sstore\n      pop\n        /* \"contracts/TrustFund.sol\":1400:1407  _amount */\n      dup2\n        /* \"contracts/TrustFund.sol\":1382:1390  LastLine */\n      0x01\n        /* \"contracts/TrustFund.sol\":1382:1397  LastLine.amount */\n      dup1\n      add\n        /* \"contracts/TrustFund.sol\":1382:1407  LastLine.amount = _amount */\n      dup2\n      swap1\n      sstore\n      pop\n        /* \"contracts/TrustFund.sol\":1429:1434  _note */\n      dup1\n        /* \"contracts/TrustFund.sol\":1413:1421  LastLine */\n      0x01\n        /* \"contracts/TrustFund.sol\":1413:1426  LastLine.note */\n      0x02\n      add\n        /* \"contracts/TrustFund.sol\":1413:1434  LastLine.note = _note */\n      swap1\n      dup2\n      tag_14\n      swap2\n      swap1\n      tag_15\n      jump\t// in\n    tag_14:\n      pop\n        /* \"contracts/TrustFund.sol\":1440:1447  History */\n      0x00\n        /* \"contracts/TrustFund.sol\":1453:1461  LastLine */\n      0x01\n        /* \"contracts/TrustFund.sol\":1440:1462  History.push(LastLine) */\n      swap1\n      dup1\n      0x01\n      dup2\n      sload\n      add\n      dup1\n      dup3\n      sstore\n      dup1\n      swap2\n      pop\n      pop\n      0x01\n      swap1\n      sub\n      swap1\n      0x00\n      mstore\n      keccak256(0x00, 0x20)\n      swap1\n      0x03\n      mul\n      add\n      0x00\n      swap1\n      swap2\n      swap1\n      swap2\n      swap1\n      swap2\n      pop\n      0x00\n      dup3\n      add\n      0x00\n      swap1\n      sload\n      swap1\n      0x0100\n      exp\n      swap1\n      div\n      0xffffffffffffffffffffffffffffffffffffffff\n      and\n      dup2\n      0x00\n      add\n      exp(0x0100, 0x00)\n      dup2\n      sload\n      dup2\n      0xffffffffffffffffffffffffffffffffffffffff\n      mul\n      not\n      and\n      swap1\n      dup4\n      0xffffffffffffffffffffffffffffffffffffffff\n      and\n      mul\n      or\n      swap1\n      sstore\n      pop\n      0x01\n      dup3\n      add\n      sload\n      dup2\n      0x01\n      add\n      sstore\n      0x02\n      dup3\n      add\n      dup2\n      0x02\n      add\n      swap1\n      dup2\n      tag_17\n      swap2\n      swap1\n      tag_18\n      jump\t// in\n    tag_17:\n      pop\n      pop\n      pop\n        /* \"contracts/TrustFund.sol\":1262:1467  function LogTransfer(address _sender, uint256 _amount, string memory _note) public {... */\n      pop\n      pop\n      pop\n      jump\t// out\n        /* \"contracts/TrustFund.sol\":1234:1257  Message public LastLine */\n    tag_10:\n      0x01\n      dup1\n      0x00\n      add\n      0x00\n      swap1\n      sload\n      swap1\n      0x0100\n      exp\n      swap1\n      div\n      0xffffffffffffffffffffffffffffffffffffffff\n      and\n      swap1\n      dup1\n      0x01\n      add\n      sload\n      swap1\n      dup1\n      0x02\n      add\n      dup1\n      sload\n      tag_19\n      swap1\n      tag_20\n      jump\t// in\n    tag_19:\n      dup1\n      0x1f\n      add\n      0x20\n      dup1\n      swap2\n      div\n      mul\n      0x20\n      add\n      mload(0x40)\n      swap1\n      dup2\n      add\n      0x40\n      mstore\n      dup1\n      swap3\n      swap2\n      swap1\n      dup2\n      dup2\n      mstore\n      0x20\n      add\n      dup3\n      dup1\n      sload\n      tag_21\n      swap1\n      tag_20\n      jump\t// in\n    tag_21:\n      dup1\n      iszero\n      tag_22\n      jumpi\n      dup1\n      0x1f\n      lt\n      tag_23\n      jumpi\n      0x0100\n      dup1\n      dup4\n      sload\n      div\n      mul\n      dup4\n      mstore\n      swap2\n      0x20\n      add\n      swap2\n      jump(tag_22)\n    tag_23:\n      dup3\n      add\n      swap2\n      swap1\n      0x00\n      mstore\n      keccak256(0x00, 0x20)\n      swap1\n    tag_24:\n      dup2\n      sload\n      dup2\n      mstore\n      swap1\n      0x01\n      add\n      swap1\n      0x20\n      add\n      dup1\n      dup4\n      gt\n      tag_24\n      jumpi\n      dup3\n      swap1\n      sub\n      0x1f\n      and\n      dup3\n      add\n      swap2\n    tag_22:\n      pop\n      pop\n      pop\n      pop\n      pop\n      swap1\n      pop\n      dup4\n      jump\t// out\n        /* \"#utility.yul\":7:82   */\n    tag_25:\n        /* \"#utility.yul\":40:46   */\n      0x00\n        /* \"#utility.yul\":73:75   */\n      0x40\n        /* \"#utility.yul\":67:76   */\n      mload\n        /* \"#utility.yul\":57:76   */\n      swap1\n      pop\n        /* \"#utility.yul\":7:82   */\n      swap1\n      jump\t// out\n        /* \"#utility.yul\":88:205   */\n    tag_26:\n        /* \"#utility.yul\":197:198   */\n      0x00\n        /* \"#utility.yul\":194:195   */\n      dup1\n        /* \"#utility.yul\":187:199   */\n      revert\n        /* \"#utility.yul\":211:328   */\n    tag_27:\n        /* \"#utility.yul\":320:321   */\n      0x00\n        /* \"#utility.yul\":317:318   */\n      dup1\n        /* \"#utility.yul\":310:322   */\n      revert\n        /* \"#utility.yul\":334:460   */\n    tag_28:\n        /* \"#utility.yul\":371:378   */\n      0x00\n        /* \"#utility.yul\":411:453   */\n      0xffffffffffffffffffffffffffffffffffffffff\n        /* \"#utility.yul\":404:409   */\n      dup3\n        /* \"#utility.yul\":400:454   */\n      and\n        /* \"#utility.yul\":389:454   */\n      swap1\n      pop\n        /* \"#utility.yul\":334:460   */\n      swap2\n      swap1\n      pop\n      jump\t// out\n        /* \"#utility.yul\":466:562   */\n    tag_29:\n        /* \"#utility.yul\":503:510   */\n      0x00\n        /* \"#utility.yul\":532:556   */\n      tag_74\n        /* \"#utility.yul\":550:555   */\n      dup3\n        /* \"#utility.yul\":532:556   */\n      tag_28\n      jump\t// in\n    tag_74:\n        /* \"#utility.yul\":521:556   */\n      swap1\n      pop\n        /* \"#utility.yul\":466:562   */\n      swap2\n      swap1\n      pop\n      jump\t// out\n        /* \"#utility.yul\":568:690   */\n    tag_30:\n        /* \"#utility.yul\":641:665   */\n      tag_76\n        /* \"#utility.yul\":659:664   */\n      dup2\n        /* \"#utility.yul\":641:665   */\n      tag_29\n      jump\t// in\n    tag_76:\n        /* \"#utility.yul\":634:639   */\n      dup2\n        /* \"#utility.yul\":631:666   */\n      eq\n        /* \"#utility.yul\":621:684   */\n      tag_77\n      jumpi\n        /* \"#utility.yul\":680:681   */\n      0x00\n        /* \"#utility.yul\":677:678   */\n      dup1\n        /* \"#utility.yul\":670:682   */\n      revert\n        /* \"#utility.yul\":621:684   */\n    tag_77:\n        /* \"#utility.yul\":568:690   */\n      pop\n      jump\t// out\n        /* \"#utility.yul\":696:835   */\n    tag_31:\n        /* \"#utility.yul\":742:747   */\n      0x00\n        /* \"#utility.yul\":780:786   */\n      dup2\n        /* \"#utility.yul\":767:787   */\n      calldataload\n        /* \"#utility.yul\":758:787   */\n      swap1\n      pop\n        /* \"#utility.yul\":796:829   */\n      tag_79\n        /* \"#utility.yul\":823:828   */\n      dup2\n        /* \"#utility.yul\":796:829   */\n      tag_30\n      jump\t// in\n    tag_79:\n        /* \"#utility.yul\":696:835   */\n      swap3\n      swap2\n      pop\n      pop\n      jump\t// out\n        /* \"#utility.yul\":841:918   */\n    tag_32:\n        /* \"#utility.yul\":878:885   */\n      0x00\n        /* \"#utility.yul\":907:912   */\n      dup2\n        /* \"#utility.yul\":896:912   */\n      swap1\n      pop\n        /* \"#utility.yul\":841:918   */\n      swap2\n      swap1\n      pop\n      jump\t// out\n        /* \"#utility.yul\":924:1046   */\n    tag_33:\n        /* \"#utility.yul\":997:1021   */\n      tag_82\n        /* \"#utility.yul\":1015:1020   */\n      dup2\n        /* \"#utility.yul\":997:1021   */\n      tag_32\n      jump\t// in\n    tag_82:\n        /* \"#utility.yul\":990:995   */\n      dup2\n        /* \"#utility.yul\":987:1022   */\n      eq\n        /* \"#utility.yul\":977:1040   */\n      tag_83\n      jumpi\n        /* \"#utility.yul\":1036:1037   */\n      0x00\n        /* \"#utility.yul\":1033:1034   */\n      dup1\n        /* \"#utility.yul\":1026:1038   */\n      revert\n        /* \"#utility.yul\":977:1040   */\n    tag_83:\n        /* \"#utility.yul\":924:1046   */\n      pop\n      jump\t// out\n        /* \"#utility.yul\":1052:1191   */\n    tag_34:\n        /* \"#utility.yul\":1098:1103   */\n      0x00\n        /* \"#utility.yul\":1136:1142   */\n      dup2\n        /* \"#utility.yul\":1123:1143   */\n      calldataload\n        /* \"#utility.yul\":1114:1143   */\n      swap1\n      pop\n        /* \"#utility.yul\":1152:1185   */\n      tag_85\n        /* \"#utility.yul\":1179:1184   */\n      dup2\n        /* \"#utility.yul\":1152:1185   */\n      tag_33\n      jump\t// in\n    tag_85:\n        /* \"#utility.yul\":1052:1191   */\n      swap3\n      swap2\n      pop\n      pop\n      jump\t// out\n        /* \"#utility.yul\":1197:1314   */\n    tag_35:\n        /* \"#utility.yul\":1306:1307   */\n      0x00\n        /* \"#utility.yul\":1303:1304   */\n      dup1\n        /* \"#utility.yul\":1296:1308   */\n      revert\n        /* \"#utility.yul\":1320:1437   */\n    tag_36:\n        /* \"#utility.yul\":1429:1430   */\n      0x00\n        /* \"#utility.yul\":1426:1427   */\n      dup1\n        /* \"#utility.yul\":1419:1431   */\n      revert\n        /* \"#utility.yul\":1443:1545   */\n    tag_37:\n        /* \"#utility.yul\":1484:1490   */\n      0x00\n        /* \"#utility.yul\":1535:1537   */\n      0x1f\n        /* \"#utility.yul\":1531:1538   */\n      not\n        /* \"#utility.yul\":1526:1528   */\n      0x1f\n        /* \"#utility.yul\":1519:1524   */\n      dup4\n        /* \"#utility.yul\":1515:1529   */\n      add\n        /* \"#utility.yul\":1511:1539   */\n      and\n        /* \"#utility.yul\":1501:1539   */\n      swap1\n      pop\n        /* \"#utility.yul\":1443:1545   */\n      swap2\n      swap1\n      pop\n      jump\t// out\n        /* \"#utility.yul\":1551:1731   */\n    tag_38:\n        /* \"#utility.yul\":1599:1676   */\n      0x4e487b7100000000000000000000000000000000000000000000000000000000\n        /* \"#utility.yul\":1596:1597   */\n      0x00\n        /* \"#utility.yul\":1589:1677   */\n      mstore\n        /* \"#utility.yul\":1696:1700   */\n      0x41\n        /* \"#utility.yul\":1693:1694   */\n      0x04\n        /* \"#utility.yul\":1686:1701   */\n      mstore\n        /* \"#utility.yul\":1720:1724   */\n      0x24\n        /* \"#utility.yul\":1717:1718   */\n      0x00\n        /* \"#utility.yul\":1710:1725   */\n      revert\n        /* \"#utility.yul\":1737:2018   */\n    tag_39:\n        /* \"#utility.yul\":1820:1847   */\n      tag_91\n        /* \"#utility.yul\":1842:1846   */\n      dup3\n        /* \"#utility.yul\":1820:1847   */\n      tag_37\n      jump\t// in\n    tag_91:\n        /* \"#utility.yul\":1812:1818   */\n      dup2\n        /* \"#utility.yul\":1808:1848   */\n      add\n        /* \"#utility.yul\":1950:1956   */\n      dup2\n        /* \"#utility.yul\":1938:1948   */\n      dup2\n        /* \"#utility.yul\":1935:1957   */\n      lt\n        /* \"#utility.yul\":1914:1932   */\n      0xffffffffffffffff\n        /* \"#utility.yul\":1902:1912   */\n      dup3\n        /* \"#utility.yul\":1899:1933   */\n      gt\n        /* \"#utility.yul\":1896:1958   */\n      or\n        /* \"#utility.yul\":1893:1981   */\n      iszero\n      tag_92\n      jumpi\n        /* \"#utility.yul\":1961:1979   */\n      tag_93\n      tag_38\n      jump\t// in\n    tag_93:\n        /* \"#utility.yul\":1893:1981   */\n    tag_92:\n        /* \"#utility.yul\":2001:2011   */\n      dup1\n        /* \"#utility.yul\":1997:1999   */\n      0x40\n        /* \"#utility.yul\":1990:2012   */\n      mstore\n        /* \"#utility.yul\":1780:2018   */\n      pop\n        /* \"#utility.yul\":1737:2018   */\n      pop\n      pop\n      jump\t// out\n        /* \"#utility.yul\":2024:2153   */\n    tag_40:\n        /* \"#utility.yul\":2058:2064   */\n      0x00\n        /* \"#utility.yul\":2085:2105   */\n      tag_95\n      tag_25\n      jump\t// in\n    tag_95:\n        /* \"#utility.yul\":2075:2105   */\n      swap1\n      pop\n        /* \"#utility.yul\":2114:2147   */\n      tag_96\n        /* \"#utility.yul\":2142:2146   */\n      dup3\n        /* \"#utility.yul\":2134:2140   */\n      dup3\n        /* \"#utility.yul\":2114:2147   */\n      tag_39\n      jump\t// in\n    tag_96:\n        /* \"#utility.yul\":2024:2153   */\n      swap2\n      swap1\n      pop\n      jump\t// out\n        /* \"#utility.yul\":2159:2467   */\n    tag_41:\n        /* \"#utility.yul\":2221:2225   */\n      0x00\n        /* \"#utility.yul\":2311:2329   */\n      0xffffffffffffffff\n        /* \"#utility.yul\":2303:2309   */\n      dup3\n        /* \"#utility.yul\":2300:2330   */\n      gt\n        /* \"#utility.yul\":2297:2353   */\n      iszero\n      tag_98\n      jumpi\n        /* \"#utility.yul\":2333:2351   */\n      tag_99\n      tag_38\n      jump\t// in\n    tag_99:\n        /* \"#utility.yul\":2297:2353   */\n    tag_98:\n        /* \"#utility.yul\":2371:2400   */\n      tag_100\n        /* \"#utility.yul\":2393:2399   */\n      dup3\n        /* \"#utility.yul\":2371:2400   */\n      tag_37\n      jump\t// in\n    tag_100:\n        /* \"#utility.yul\":2363:2400   */\n      swap1\n      pop\n        /* \"#utility.yul\":2455:2459   */\n      0x20\n        /* \"#utility.yul\":2449:2453   */\n      dup2\n        /* \"#utility.yul\":2445:2460   */\n      add\n        /* \"#utility.yul\":2437:2460   */\n      swap1\n      pop\n        /* \"#utility.yul\":2159:2467   */\n      swap2\n      swap1\n      pop\n      jump\t// out\n        /* \"#utility.yul\":2473:2619   */\n    tag_42:\n        /* \"#utility.yul\":2570:2576   */\n      dup3\n        /* \"#utility.yul\":2565:2568   */\n      dup2\n        /* \"#utility.yul\":2560:2563   */\n      dup4\n        /* \"#utility.yul\":2547:2577   */\n      calldatacopy\n        /* \"#utility.yul\":2611:2612   */\n      0x00\n        /* \"#utility.yul\":2602:2608   */\n      dup4\n        /* \"#utility.yul\":2597:2600   */\n      dup4\n        /* \"#utility.yul\":2593:2609   */\n      add\n        /* \"#utility.yul\":2586:2613   */\n      mstore\n        /* \"#utility.yul\":2473:2619   */\n      pop\n      pop\n      pop\n      jump\t// out\n        /* \"#utility.yul\":2625:3050   */\n    tag_43:\n        /* \"#utility.yul\":2703:2708   */\n      0x00\n        /* \"#utility.yul\":2728:2794   */\n      tag_103\n        /* \"#utility.yul\":2744:2793   */\n      tag_104\n        /* \"#utility.yul\":2786:2792   */\n      dup5\n        /* \"#utility.yul\":2744:2793   */\n      tag_41\n      jump\t// in\n    tag_104:\n        /* \"#utility.yul\":2728:2794   */\n      tag_40\n      jump\t// in\n    tag_103:\n        /* \"#utility.yul\":2719:2794   */\n      swap1\n      pop\n        /* \"#utility.yul\":2817:2823   */\n      dup3\n        /* \"#utility.yul\":2810:2815   */\n      dup2\n        /* \"#utility.yul\":2803:2824   */\n      mstore\n        /* \"#utility.yul\":2855:2859   */\n      0x20\n        /* \"#utility.yul\":2848:2853   */\n      dup2\n        /* \"#utility.yul\":2844:2860   */\n      add\n        /* \"#utility.yul\":2893:2896   */\n      dup5\n        /* \"#utility.yul\":2884:2890   */\n      dup5\n        /* \"#utility.yul\":2879:2882   */\n      dup5\n        /* \"#utility.yul\":2875:2891   */\n      add\n        /* \"#utility.yul\":2872:2897   */\n      gt\n        /* \"#utility.yul\":2869:2981   */\n      iszero\n      tag_105\n      jumpi\n        /* \"#utility.yul\":2900:2979   */\n      tag_106\n      tag_36\n      jump\t// in\n    tag_106:\n        /* \"#utility.yul\":2869:2981   */\n    tag_105:\n        /* \"#utility.yul\":2990:3044   */\n      tag_107\n        /* \"#utility.yul\":3037:3043   */\n      dup5\n        /* \"#utility.yul\":3032:3035   */\n      dup3\n        /* \"#utility.yul\":3027:3030   */\n      dup6\n        /* \"#utility.yul\":2990:3044   */\n      tag_42\n      jump\t// in\n    tag_107:\n        /* \"#utility.yul\":2709:3050   */\n      pop\n        /* \"#utility.yul\":2625:3050   */\n      swap4\n      swap3\n      pop\n      pop\n      pop\n      jump\t// out\n        /* \"#utility.yul\":3070:3410   */\n    tag_44:\n        /* \"#utility.yul\":3126:3131   */\n      0x00\n        /* \"#utility.yul\":3175:3178   */\n      dup3\n        /* \"#utility.yul\":3168:3172   */\n      0x1f\n        /* \"#utility.yul\":3160:3166   */\n      dup4\n        /* \"#utility.yul\":3156:3173   */\n      add\n        /* \"#utility.yul\":3152:3179   */\n      slt\n        /* \"#utility.yul\":3142:3264   */\n      tag_109\n      jumpi\n        /* \"#utility.yul\":3183:3262   */\n      tag_110\n      tag_35\n      jump\t// in\n    tag_110:\n        /* \"#utility.yul\":3142:3264   */\n    tag_109:\n        /* \"#utility.yul\":3300:3306   */\n      dup2\n        /* \"#utility.yul\":3287:3307   */\n      calldataload\n        /* \"#utility.yul\":3325:3404   */\n      tag_111\n        /* \"#utility.yul\":3400:3403   */\n      dup5\n        /* \"#utility.yul\":3392:3398   */\n      dup3\n        /* \"#utility.yul\":3385:3389   */\n      0x20\n        /* \"#utility.yul\":3377:3383   */\n      dup7\n        /* \"#utility.yul\":3373:3390   */\n      add\n        /* \"#utility.yul\":3325:3404   */\n      tag_43\n      jump\t// in\n    tag_111:\n        /* \"#utility.yul\":3316:3404   */\n      swap2\n      pop\n        /* \"#utility.yul\":3132:3410   */\n      pop\n        /* \"#utility.yul\":3070:3410   */\n      swap3\n      swap2\n      pop\n      pop\n      jump\t// out\n        /* \"#utility.yul\":3416:4215   */\n    tag_7:\n        /* \"#utility.yul\":3503:3509   */\n      0x00\n        /* \"#utility.yul\":3511:3517   */\n      dup1\n        /* \"#utility.yul\":3519:3525   */\n      0x00\n        /* \"#utility.yul\":3568:3570   */\n      0x60\n        /* \"#utility.yul\":3556:3565   */\n      dup5\n        /* \"#utility.yul\":3547:3554   */\n      dup7\n        /* \"#utility.yul\":3543:3566   */\n      sub\n        /* \"#utility.yul\":3539:3571   */\n      slt\n        /* \"#utility.yul\":3536:3655   */\n      iszero\n      tag_113\n      jumpi\n        /* \"#utility.yul\":3574:3653   */\n      tag_114\n      tag_26\n      jump\t// in\n    tag_114:\n        /* \"#utility.yul\":3536:3655   */\n    tag_113:\n        /* \"#utility.yul\":3694:3695   */\n      0x00\n        /* \"#utility.yul\":3719:3772   */\n      tag_115\n        /* \"#utility.yul\":3764:3771   */\n      dup7\n        /* \"#utility.yul\":3755:3761   */\n      dup3\n        /* \"#utility.yul\":3744:3753   */\n      dup8\n        /* \"#utility.yul\":3740:3762   */\n      add\n        /* \"#utility.yul\":3719:3772   */\n      tag_31\n      jump\t// in\n    tag_115:\n        /* \"#utility.yul\":3709:3772   */\n      swap4\n      pop\n        /* \"#utility.yul\":3665:3782   */\n      pop\n        /* \"#utility.yul\":3821:3823   */\n      0x20\n        /* \"#utility.yul\":3847:3900   */\n      tag_116\n        /* \"#utility.yul\":3892:3899   */\n      dup7\n        /* \"#utility.yul\":3883:3889   */\n      dup3\n        /* \"#utility.yul\":3872:3881   */\n      dup8\n        /* \"#utility.yul\":3868:3890   */\n      add\n        /* \"#utility.yul\":3847:3900   */\n      tag_34\n      jump\t// in\n    tag_116:\n        /* \"#utility.yul\":3837:3900   */\n      swap3\n      pop\n        /* \"#utility.yul\":3792:3910   */\n      pop\n        /* \"#utility.yul\":3977:3979   */\n      0x40\n        /* \"#utility.yul\":3966:3975   */\n      dup5\n        /* \"#utility.yul\":3962:3980   */\n      add\n        /* \"#utility.yul\":3949:3981   */\n      calldataload\n        /* \"#utility.yul\":4008:4026   */\n      0xffffffffffffffff\n        /* \"#utility.yul\":4000:4006   */\n      dup2\n        /* \"#utility.yul\":3997:4027   */\n      gt\n        /* \"#utility.yul\":3994:4111   */\n      iszero\n      tag_117\n      jumpi\n        /* \"#utility.yul\":4030:4109   */\n      tag_118\n      tag_27\n      jump\t// in\n    tag_118:\n        /* \"#utility.yul\":3994:4111   */\n    tag_117:\n        /* \"#utility.yul\":4135:4198   */\n      tag_119\n        /* \"#utility.yul\":4190:4197   */\n      dup7\n        /* \"#utility.yul\":4181:4187   */\n      dup3\n        /* \"#utility.yul\":4170:4179   */\n      dup8\n        /* \"#utility.yul\":4166:4188   */\n      add\n        /* \"#utility.yul\":4135:4198   */\n      tag_44\n      jump\t// in\n    tag_119:\n        /* \"#utility.yul\":4125:4198   */\n      swap2\n      pop\n        /* \"#utility.yul\":3920:4208   */\n      pop\n        /* \"#utility.yul\":3416:4215   */\n      swap3\n      pop\n      swap3\n      pop\n      swap3\n      jump\t// out\n        /* \"#utility.yul\":4221:4339   */\n    tag_45:\n        /* \"#utility.yul\":4308:4332   */\n      tag_121\n        /* \"#utility.yul\":4326:4331   */\n      dup2\n        /* \"#utility.yul\":4308:4332   */\n      tag_29\n      jump\t// in\n    tag_121:\n        /* \"#utility.yul\":4303:4306   */\n      dup3\n        /* \"#utility.yul\":4296:4333   */\n      mstore\n        /* \"#utility.yul\":4221:4339   */\n      pop\n      pop\n      jump\t// out\n        /* \"#utility.yul\":4345:4463   */\n    tag_46:\n        /* \"#utility.yul\":4432:4456   */\n      tag_123\n        /* \"#utility.yul\":4450:4455   */\n      dup2\n        /* \"#utility.yul\":4432:4456   */\n      tag_32\n      jump\t// in\n    tag_123:\n        /* \"#utility.yul\":4427:4430   */\n      dup3\n        /* \"#utility.yul\":4420:4457   */\n      mstore\n        /* \"#utility.yul\":4345:4463   */\n      pop\n      pop\n      jump\t// out\n        /* \"#utility.yul\":4469:4568   */\n    tag_47:\n        /* \"#utility.yul\":4521:4527   */\n      0x00\n        /* \"#utility.yul\":4555:4560   */\n      dup2\n        /* \"#utility.yul\":4549:4561   */\n      mload\n        /* \"#utility.yul\":4539:4561   */\n      swap1\n      pop\n        /* \"#utility.yul\":4469:4568   */\n      swap2\n      swap1\n      pop\n      jump\t// out\n        /* \"#utility.yul\":4574:4743   */\n    tag_48:\n        /* \"#utility.yul\":4658:4669   */\n      0x00\n        /* \"#utility.yul\":4692:4698   */\n      dup3\n        /* \"#utility.yul\":4687:4690   */\n      dup3\n        /* \"#utility.yul\":4680:4699   */\n      mstore\n        /* \"#utility.yul\":4732:4736   */\n      0x20\n        /* \"#utility.yul\":4727:4730   */\n      dup3\n        /* \"#utility.yul\":4723:4737   */\n      add\n        /* \"#utility.yul\":4708:4737   */\n      swap1\n      pop\n        /* \"#utility.yul\":4574:4743   */\n      swap3\n      swap2\n      pop\n      pop\n      jump\t// out\n        /* \"#utility.yul\":4749:4995   */\n    tag_49:\n        /* \"#utility.yul\":4830:4831   */\n      0x00\n        /* \"#utility.yul\":4840:4953   */\n    tag_127:\n        /* \"#utility.yul\":4854:4860   */\n      dup4\n        /* \"#utility.yul\":4851:4852   */\n      dup2\n        /* \"#utility.yul\":4848:4861   */\n      lt\n        /* \"#utility.yul\":4840:4953   */\n      iszero\n      tag_129\n      jumpi\n        /* \"#utility.yul\":4939:4940   */\n      dup1\n        /* \"#utility.yul\":4934:4937   */\n      dup3\n        /* \"#utility.yul\":4930:4941   */\n      add\n        /* \"#utility.yul\":4924:4942   */\n      mload\n        /* \"#utility.yul\":4920:4921   */\n      dup2\n        /* \"#utility.yul\":4915:4918   */\n      dup5\n        /* \"#utility.yul\":4911:4922   */\n      add\n        /* \"#utility.yul\":4904:4943   */\n      mstore\n        /* \"#utility.yul\":4876:4878   */\n      0x20\n        /* \"#utility.yul\":4873:4874   */\n      dup2\n        /* \"#utility.yul\":4869:4879   */\n      add\n        /* \"#utility.yul\":4864:4879   */\n      swap1\n      pop\n        /* \"#utility.yul\":4840:4953   */\n      jump(tag_127)\n    tag_129:\n        /* \"#utility.yul\":4987:4988   */\n      0x00\n        /* \"#utility.yul\":4978:4984   */\n      dup5\n        /* \"#utility.yul\":4973:4976   */\n      dup5\n        /* \"#utility.yul\":4969:4985   */\n      add\n        /* \"#utility.yul\":4962:4989   */\n      mstore\n        /* \"#utility.yul\":4811:4995   */\n      pop\n        /* \"#utility.yul\":4749:4995   */\n      pop\n      pop\n      pop\n      jump\t// out\n        /* \"#utility.yul\":5001:5378   */\n    tag_50:\n        /* \"#utility.yul\":5089:5092   */\n      0x00\n        /* \"#utility.yul\":5117:5156   */\n      tag_131\n        /* \"#utility.yul\":5150:5155   */\n      dup3\n        /* \"#utility.yul\":5117:5156   */\n      tag_47\n      jump\t// in\n    tag_131:\n        /* \"#utility.yul\":5172:5243   */\n      tag_132\n        /* \"#utility.yul\":5236:5242   */\n      dup2\n        /* \"#utility.yul\":5231:5234   */\n      dup6\n        /* \"#utility.yul\":5172:5243   */\n      tag_48\n      jump\t// in\n    tag_132:\n        /* \"#utility.yul\":5165:5243   */\n      swap4\n      pop\n        /* \"#utility.yul\":5252:5317   */\n      tag_133\n        /* \"#utility.yul\":5310:5316   */\n      dup2\n        /* \"#utility.yul\":5305:5308   */\n      dup6\n        /* \"#utility.yul\":5298:5302   */\n      0x20\n        /* \"#utility.yul\":5291:5296   */\n      dup7\n        /* \"#utility.yul\":5287:5303   */\n      add\n        /* \"#utility.yul\":5252:5317   */\n      tag_49\n      jump\t// in\n    tag_133:\n        /* \"#utility.yul\":5342:5371   */\n      tag_134\n        /* \"#utility.yul\":5364:5370   */\n      dup2\n        /* \"#utility.yul\":5342:5371   */\n      tag_37\n      jump\t// in\n    tag_134:\n        /* \"#utility.yul\":5337:5340   */\n      dup5\n        /* \"#utility.yul\":5333:5372   */\n      add\n        /* \"#utility.yul\":5326:5372   */\n      swap2\n      pop\n        /* \"#utility.yul\":5093:5378   */\n      pop\n        /* \"#utility.yul\":5001:5378   */\n      swap3\n      swap2\n      pop\n      pop\n      jump\t// out\n        /* \"#utility.yul\":5384:5917   */\n    tag_12:\n        /* \"#utility.yul\":5553:5557   */\n      0x00\n        /* \"#utility.yul\":5591:5593   */\n      0x60\n        /* \"#utility.yul\":5580:5589   */\n      dup3\n        /* \"#utility.yul\":5576:5594   */\n      add\n        /* \"#utility.yul\":5568:5594   */\n      swap1\n      pop\n        /* \"#utility.yul\":5604:5675   */\n      tag_136\n        /* \"#utility.yul\":5672:5673   */\n      0x00\n        /* \"#utility.yul\":5661:5670   */\n      dup4\n        /* \"#utility.yul\":5657:5674   */\n      add\n        /* \"#utility.yul\":5648:5654   */\n      dup7\n        /* \"#utility.yul\":5604:5675   */\n      tag_45\n      jump\t// in\n    tag_136:\n        /* \"#utility.yul\":5685:5757   */\n      tag_137\n        /* \"#utility.yul\":5753:5755   */\n      0x20\n        /* \"#utility.yul\":5742:5751   */\n      dup4\n        /* \"#utility.yul\":5738:5756   */\n      add\n        /* \"#utility.yul\":5729:5735   */\n      dup6\n        /* \"#utility.yul\":5685:5757   */\n      tag_46\n      jump\t// in\n    tag_137:\n        /* \"#utility.yul\":5804:5813   */\n      dup2\n        /* \"#utility.yul\":5798:5802   */\n      dup2\n        /* \"#utility.yul\":5794:5814   */\n      sub\n        /* \"#utility.yul\":5789:5791   */\n      0x40\n        /* \"#utility.yul\":5778:5787   */\n      dup4\n        /* \"#utility.yul\":5774:5792   */\n      add\n        /* \"#utility.yul\":5767:5815   */\n      mstore\n        /* \"#utility.yul\":5832:5910   */\n      tag_138\n        /* \"#utility.yul\":5905:5909   */\n      dup2\n        /* \"#utility.yul\":5896:5902   */\n      dup5\n        /* \"#utility.yul\":5832:5910   */\n      tag_50\n      jump\t// in\n    tag_138:\n        /* \"#utility.yul\":5824:5910   */\n      swap1\n      pop\n        /* \"#utility.yul\":5384:5917   */\n      swap5\n      swap4\n      pop\n      pop\n      pop\n      pop\n      jump\t// out\n        /* \"#utility.yul\":5923:6103   */\n    tag_51:\n        /* \"#utility.yul\":5971:6048   */\n      0x4e487b7100000000000000000000000000000000000000000000000000000000\n        /* \"#utility.yul\":5968:5969   */\n      0x00\n        /* \"#utility.yul\":5961:6049   */\n      mstore\n        /* \"#utility.yul\":6068:6072   */\n      0x22\n        /* \"#utility.yul\":6065:6066   */\n      0x04\n        /* \"#utility.yul\":6058:6073   */\n      mstore\n        /* \"#utility.yul\":6092:6096   */\n      0x24\n        /* \"#utility.yul\":6089:6090   */\n      0x00\n        /* \"#utility.yul\":6082:6097   */\n      revert\n        /* \"#utility.yul\":6109:6429   */\n    tag_20:\n        /* \"#utility.yul\":6153:6159   */\n      0x00\n        /* \"#utility.yul\":6190:6191   */\n      0x02\n        /* \"#utility.yul\":6184:6188   */\n      dup3\n        /* \"#utility.yul\":6180:6192   */\n      div\n        /* \"#utility.yul\":6170:6192   */\n      swap1\n      pop\n        /* \"#utility.yul\":6237:6238   */\n      0x01\n        /* \"#utility.yul\":6231:6235   */\n      dup3\n        /* \"#utility.yul\":6227:6239   */\n      and\n        /* \"#utility.yul\":6258:6276   */\n      dup1\n        /* \"#utility.yul\":6248:6329   */\n      tag_141\n      jumpi\n        /* \"#utility.yul\":6314:6318   */\n      0x7f\n        /* \"#utility.yul\":6306:6312   */\n      dup3\n        /* \"#utility.yul\":6302:6319   */\n      and\n        /* \"#utility.yul\":6292:6319   */\n      swap2\n      pop\n        /* \"#utility.yul\":6248:6329   */\n    tag_141:\n        /* \"#utility.yul\":6376:6378   */\n      0x20\n        /* \"#utility.yul\":6368:6374   */\n      dup3\n        /* \"#utility.yul\":6365:6379   */\n      lt\n        /* \"#utility.yul\":6345:6363   */\n      dup2\n        /* \"#utility.yul\":6342:6380   */\n      sub\n        /* \"#utility.yul\":6339:6423   */\n      tag_142\n      jumpi\n        /* \"#utility.yul\":6395:6413   */\n      tag_143\n      tag_51\n      jump\t// in\n    tag_143:\n        /* \"#utility.yul\":6339:6423   */\n    tag_142:\n        /* \"#utility.yul\":6160:6429   */\n      pop\n        /* \"#utility.yul\":6109:6429   */\n      swap2\n      swap1\n      pop\n      jump\t// out\n        /* \"#utility.yul\":6435:6576   */\n    tag_52:\n        /* \"#utility.yul\":6484:6488   */\n      0x00\n        /* \"#utility.yul\":6507:6510   */\n      dup2\n        /* \"#utility.yul\":6499:6510   */\n      swap1\n      pop\n        /* \"#utility.yul\":6530:6533   */\n      dup2\n        /* \"#utility.yul\":6527:6528   */\n      0x00\n        /* \"#utility.yul\":6520:6534   */\n      mstore\n        /* \"#utility.yul\":6564:6568   */\n      0x20\n        /* \"#utility.yul\":6561:6562   */\n      0x00\n        /* \"#utility.yul\":6551:6569   */\n      keccak256\n        /* \"#utility.yul\":6543:6569   */\n      swap1\n      pop\n        /* \"#utility.yul\":6435:6576   */\n      swap2\n      swap1\n      pop\n      jump\t// out\n        /* \"#utility.yul\":6582:6675   */\n    tag_53:\n        /* \"#utility.yul\":6619:6625   */\n      0x00\n        /* \"#utility.yul\":6666:6668   */\n      0x20\n        /* \"#utility.yul\":6661:6663   */\n      0x1f\n        /* \"#utility.yul\":6654:6659   */\n      dup4\n        /* \"#utility.yul\":6650:6664   */\n      add\n        /* \"#utility.yul\":6646:6669   */\n      div\n        /* \"#utility.yul\":6636:6669   */\n      swap1\n      pop\n        /* \"#utility.yul\":6582:6675   */\n      swap2\n      swap1\n      pop\n      jump\t// out\n        /* \"#utility.yul\":6681:6788   */\n    tag_54:\n        /* \"#utility.yul\":6725:6733   */\n      0x00\n        /* \"#utility.yul\":6775:6780   */\n      dup3\n        /* \"#utility.yul\":6769:6773   */\n      dup3\n        /* \"#utility.yul\":6765:6781   */\n      shl\n        /* \"#utility.yul\":6744:6781   */\n      swap1\n      pop\n        /* \"#utility.yul\":6681:6788   */\n      swap3\n      swap2\n      pop\n      pop\n      jump\t// out\n        /* \"#utility.yul\":6794:7187   */\n    tag_55:\n        /* \"#utility.yul\":6863:6869   */\n      0x00\n        /* \"#utility.yul\":6913:6914   */\n      0x08\n        /* \"#utility.yul\":6901:6911   */\n      dup4\n        /* \"#utility.yul\":6897:6915   */\n      mul\n        /* \"#utility.yul\":6936:7033   */\n      tag_148\n        /* \"#utility.yul\":6966:7032   */\n      0xffffffffffffffffffffffffffffffffffffffffffffffffffffffffffffffff\n        /* \"#utility.yul\":6955:6964   */\n      dup3\n        /* \"#utility.yul\":6936:7033   */\n      tag_54\n      jump\t// in\n    tag_148:\n        /* \"#utility.yul\":7054:7093   */\n      tag_149\n        /* \"#utility.yul\":7084:7092   */\n      dup7\n        /* \"#utility.yul\":7073:7082   */\n      dup4\n        /* \"#utility.yul\":7054:7093   */\n      tag_54\n      jump\t// in\n    tag_149:\n        /* \"#utility.yul\":7042:7093   */\n      swap6\n      pop\n        /* \"#utility.yul\":7126:7130   */\n      dup1\n        /* \"#utility.yul\":7122:7131   */\n      not\n        /* \"#utility.yul\":7115:7120   */\n      dup5\n        /* \"#utility.yul\":7111:7132   */\n      and\n        /* \"#utility.yul\":7102:7132   */\n      swap4\n      pop\n        /* \"#utility.yul\":7175:7179   */\n      dup1\n        /* \"#utility.yul\":7165:7173   */\n      dup7\n        /* \"#utility.yul\":7161:7180   */\n      and\n        /* \"#utility.yul\":7154:7159   */\n      dup5\n        /* \"#utility.yul\":7151:7181   */\n      or\n        /* \"#utility.yul\":7141:7181   */\n      swap3\n      pop\n        /* \"#utility.yul\":6870:7187   */\n      pop\n      pop\n        /* \"#utility.yul\":6794:7187   */\n      swap4\n      swap3\n      pop\n      pop\n      pop\n      jump\t// out\n        /* \"#utility.yul\":7193:7253   */\n    tag_56:\n        /* \"#utility.yul\":7221:7224   */\n      0x00\n        /* \"#utility.yul\":7242:7247   */\n      dup2\n        /* \"#utility.yul\":7235:7247   */\n      swap1\n      pop\n        /* \"#utility.yul\":7193:7253   */\n      swap2\n      swap1\n      pop\n      jump\t// out\n        /* \"#utility.yul\":7259:7401   */\n    tag_57:\n        /* \"#utility.yul\":7309:7318   */\n      0x00\n        /* \"#utility.yul\":7342:7395   */\n      tag_152\n        /* \"#utility.yul\":7360:7394   */\n      tag_153\n        /* \"#utility.yul\":7369:7393   */\n      tag_154\n        /* \"#utility.yul\":7387:7392   */\n      dup5\n        /* \"#utility.yul\":7369:7393   */\n      tag_32\n      jump\t// in\n    tag_154:\n        /* \"#utility.yul\":7360:7394   */\n      tag_56\n      jump\t// in\n    tag_153:\n        /* \"#utility.yul\":7342:7395   */\n      tag_32\n      jump\t// in\n    tag_152:\n        /* \"#utility.yul\":7329:7395   */\n      swap1\n      pop\n        /* \"#utility.yul\":7259:7401   */\n      swap2\n      swap1\n      pop\n      jump\t// out\n        /* \"#utility.yul\":7407:7482   */\n    tag_58:\n        /* \"#utility.yul\":7450:7453   */\n      0x00\n        /* \"#utility.yul\":7471:7476   */\n      dup2\n        /* \"#utility.yul\":7464:7476   */\n      swap1\n      pop\n        /* \"#utility.yul\":7407:7482   */\n      swap2\n      swap1\n      pop\n      jump\t// out\n        /* \"#utility.yul\":7488:7757   */\n    tag_59:\n        /* \"#utility.yul\":7598:7637   */\n      tag_157\n        /* \"#utility.yul\":7629:7636   */\n      dup4\n        /* \"#utility.yul\":7598:7637   */\n      tag_57\n      jump\t// in\n    tag_157:\n        /* \"#utility.yul\":7659:7750   */\n      tag_158\n        /* \"#utility.yul\":7708:7749   */\n      tag_159\n        /* \"#utility.yul\":7732:7748   */\n      dup3\n        /* \"#utility.yul\":7708:7749   */\n      tag_58\n      jump\t// in\n    tag_159:\n        /* \"#utility.yul\":7700:7706   */\n      dup5\n        /* \"#utility.yul\":7693:7697   */\n      dup5\n        /* \"#utility.yul\":7687:7698   */\n      sload\n        /* \"#utility.yul\":7659:7750   */\n      tag_55\n      jump\t// in\n    tag_158:\n        /* \"#utility.yul\":7653:7657   */\n      dup3\n        /* \"#utility.yul\":7646:7751   */\n      sstore\n        /* \"#utility.yul\":7564:7757   */\n      pop\n        /* \"#utility.yul\":7488:7757   */\n      pop\n      pop\n      pop\n      jump\t// out\n        /* \"#utility.yul\":7763:7836   */\n    tag_60:\n        /* \"#utility.yul\":7808:7811   */\n      0x00\n        /* \"#utility.yul\":7763:7836   */\n      swap1\n      jump\t// out\n        /* \"#utility.yul\":7842:8031   */\n    tag_61:\n        /* \"#utility.yul\":7919:7951   */\n      tag_162\n      tag_60\n      jump\t// in\n    tag_162:\n        /* \"#utility.yul\":7960:8025   */\n      tag_163\n        /* \"#utility.yul\":8018:8024   */\n      dup2\n        /* \"#utility.yul\":8010:8016   */\n      dup5\n        /* \"#utility.yul\":8004:8008   */\n      dup5\n        /* \"#utility.yul\":7960:8025   */\n      tag_59\n      jump\t// in\n    tag_163:\n        /* \"#utility.yul\":7895:8031   */\n      pop\n        /* \"#utility.yul\":7842:8031   */\n      pop\n      pop\n      jump\t// out\n        /* \"#utility.yul\":8037:8223   */\n    tag_62:\n        /* \"#utility.yul\":8097:8217   */\n    tag_165:\n        /* \"#utility.yul\":8114:8117   */\n      dup2\n        /* \"#utility.yul\":8107:8112   */\n      dup2\n        /* \"#utility.yul\":8104:8118   */\n      lt\n        /* \"#utility.yul\":8097:8217   */\n      iszero\n      tag_167\n      jumpi\n        /* \"#utility.yul\":8168:8207   */\n      tag_168\n        /* \"#utility.yul\":8205:8206   */\n      0x00\n        /* \"#utility.yul\":8198:8203   */\n      dup3\n        /* \"#utility.yul\":8168:8207   */\n      tag_61\n      jump\t// in\n    tag_168:\n        /* \"#utility.yul\":8141:8142   */\n      0x01\n        /* \"#utility.yul\":8134:8139   */\n      dup2\n        /* \"#utility.yul\":8130:8143   */\n      add\n        /* \"#utility.yul\":8121:8143   */\n      swap1\n      pop\n        /* \"#utility.yul\":8097:8217   */\n      jump(tag_165)\n    tag_167:\n        /* \"#utility.yul\":8037:8223   */\n      pop\n      pop\n      jump\t// out\n        /* \"#utility.yul\":8229:8772   */\n    tag_63:\n        /* \"#utility.yul\":8330:8332   */\n      0x1f\n        /* \"#utility.yul\":8325:8328   */\n      dup3\n        /* \"#utility.yul\":8322:8333   */\n      gt\n        /* \"#utility.yul\":8319:8765   */\n      iszero\n      tag_170\n      jumpi\n        /* \"#utility.yul\":8364:8402   */\n      tag_171\n        /* \"#utility.yul\":8396:8401   */\n      dup2\n        /* \"#utility.yul\":8364:8402   */\n      tag_52\n      jump\t// in\n    tag_171:\n        /* \"#utility.yul\":8448:8477   */\n      tag_172\n        /* \"#utility.yul\":8466:8476   */\n      dup5\n        /* \"#utility.yul\":8448:8477   */\n      tag_53\n      jump\t// in\n    tag_172:\n        /* \"#utility.yul\":8438:8446   */\n      dup2\n        /* \"#utility.yul\":8434:8478   */\n      add\n        /* \"#utility.yul\":8631:8633   */\n      0x20\n        /* \"#utility.yul\":8619:8629   */\n      dup6\n        /* \"#utility.yul\":8616:8634   */\n      lt\n        /* \"#utility.yul\":8613:8662   */\n      iszero\n      tag_173\n      jumpi\n        /* \"#utility.yul\":8652:8660   */\n      dup2\n        /* \"#utility.yul\":8637:8660   */\n      swap1\n      pop\n        /* \"#utility.yul\":8613:8662   */\n    tag_173:\n        /* \"#utility.yul\":8675:8755   */\n      tag_174\n        /* \"#utility.yul\":8731:8753   */\n      tag_175\n        /* \"#utility.yul\":8749:8752   */\n      dup6\n        /* \"#utility.yul\":8731:8753   */\n      tag_53\n      jump\t// in\n    tag_175:\n        /* \"#utility.yul\":8721:8729   */\n      dup4\n        /* \"#utility.yul\":8717:8754   */\n      add\n        /* \"#utility.yul\":8704:8715   */\n      dup3\n        /* \"#utility.yul\":8675:8755   */\n      tag_62\n      jump\t// in\n    tag_174:\n        /* \"#utility.yul\":8334:8765   */\n      pop\n      pop\n        /* \"#utility.yul\":8319:8765   */\n    tag_170:\n        /* \"#utility.yul\":8229:8772   */\n      pop\n      pop\n      pop\n      jump\t// out\n        /* \"#utility.yul\":8778:8895   */\n    tag_64:\n        /* \"#utility.yul\":8832:8840   */\n      0x00\n        /* \"#utility.yul\":8882:8887   */\n      dup3\n        /* \"#utility.yul\":8876:8880   */\n      dup3\n        /* \"#utility.yul\":8872:8888   */\n      shr\n        /* \"#utility.yul\":8851:8888   */\n      swap1\n      pop\n        /* \"#utility.yul\":8778:8895   */\n      swap3\n      swap2\n      pop\n      pop\n      jump\t// out\n        /* \"#utility.yul\":8901:9070   */\n    tag_65:\n        /* \"#utility.yul\":8945:8951   */\n      0x00\n        /* \"#utility.yul\":8978:9029   */\n      tag_178\n        /* \"#utility.yul\":9026:9027   */\n      0x00\n        /* \"#utility.yul\":9022:9028   */\n      not\n        /* \"#utility.yul\":9014:9019   */\n      dup5\n        /* \"#utility.yul\":9011:9012   */\n      0x08\n        /* \"#utility.yul\":9007:9020   */\n      mul\n        /* \"#utility.yul\":8978:9029   */\n      tag_64\n      jump\t// in\n    tag_178:\n        /* \"#utility.yul\":8974:9030   */\n      not\n        /* \"#utility.yul\":9059:9063   */\n      dup1\n        /* \"#utility.yul\":9053:9057   */\n      dup4\n        /* \"#utility.yul\":9049:9064   */\n      and\n        /* \"#utility.yul\":9039:9064   */\n      swap2\n      pop\n        /* \"#utility.yul\":8952:9070   */\n      pop\n        /* \"#utility.yul\":8901:9070   */\n      swap3\n      swap2\n      pop\n      pop\n      jump\t// out\n        /* \"#utility.yul\":9075:9370   */\n    tag_66:\n        /* \"#utility.yul\":9151:9155   */\n      0x00\n        /* \"#utility.yul\":9297:9326   */\n      tag_180\n        /* \"#utility.yul\":9322:9325   */\n      dup4\n        /* \"#utility.yul\":9316:9320   */\n      dup4\n        /* \"#utility.yul\":9297:9326   */\n      tag_65\n      jump\t// in\n    tag_180:\n        /* \"#utility.yul\":9289:9326   */\n      swap2\n      pop\n        /* \"#utility.yul\":9359:9362   */\n      dup3\n        /* \"#utility.yul\":9356:9357   */\n      0x02\n        /* \"#utility.yul\":9352:9363   */\n      mul\n        /* \"#utility.yul\":9346:9350   */\n      dup3\n        /* \"#utility.yul\":9343:9364   */\n      or\n        /* \"#utility.yul\":9335:9364   */\n      swap1\n      pop\n        /* \"#utility.yul\":9075:9370   */\n      swap3\n      swap2\n      pop\n      pop\n      jump\t// out\n        /* \"#utility.yul\":9375:10770   */\n    tag_15:\n        /* \"#utility.yul\":9492:9529   */\n      tag_182\n        /* \"#utility.yul\":9525:9528   */\n      dup3\n        /* \"#utility.yul\":9492:9529   */\n      tag_47\n      jump\t// in\n    tag_182:\n        /* \"#utility.yul\":9594:9612   */\n      0xffffffffffffffff\n        /* \"#utility.yul\":9586:9592   */\n      dup2\n        /* \"#utility.yul\":9583:9613   */\n      gt\n        /* \"#utility.yul\":9580:9636   */\n      iszero\n      tag_183\n      jumpi\n        /* \"#utility.yul\":9616:9634   */\n      tag_184\n      tag_38\n      jump\t// in\n    tag_184:\n        /* \"#utility.yul\":9580:9636   */\n    tag_183:\n        /* \"#utility.yul\":9660:9698   */\n      tag_185\n        /* \"#utility.yul\":9692:9696   */\n      dup3\n        /* \"#utility.yul\":9686:9697   */\n      sload\n        /* \"#utility.yul\":9660:9698   */\n      tag_20\n      jump\t// in\n    tag_185:\n        /* \"#utility.yul\":9745:9812   */\n      tag_186\n        /* \"#utility.yul\":9805:9811   */\n      dup3\n        /* \"#utility.yul\":9797:9803   */\n      dup3\n        /* \"#utility.yul\":9791:9795   */\n      dup6\n        /* \"#utility.yul\":9745:9812   */\n      tag_63\n      jump\t// in\n    tag_186:\n        /* \"#utility.yul\":9839:9840   */\n      0x00\n        /* \"#utility.yul\":9863:9867   */\n      0x20\n        /* \"#utility.yul\":9850:9867   */\n      swap1\n      pop\n        /* \"#utility.yul\":9895:9897   */\n      0x1f\n        /* \"#utility.yul\":9887:9893   */\n      dup4\n        /* \"#utility.yul\":9884:9898   */\n      gt\n        /* \"#utility.yul\":9912:9913   */\n      0x01\n        /* \"#utility.yul\":9907:10525   */\n      dup2\n      eq\n      tag_188\n      jumpi\n        /* \"#utility.yul\":10569:10570   */\n      0x00\n        /* \"#utility.yul\":10586:10592   */\n      dup5\n        /* \"#utility.yul\":10583:10660   */\n      iszero\n      tag_189\n      jumpi\n        /* \"#utility.yul\":10635:10644   */\n      dup3\n        /* \"#utility.yul\":10630:10633   */\n      dup8\n        /* \"#utility.yul\":10626:10645   */\n      add\n        /* \"#utility.yul\":10620:10646   */\n      mload\n        /* \"#utility.yul\":10611:10646   */\n      swap1\n      pop\n        /* \"#utility.yul\":10583:10660   */\n    tag_189:\n        /* \"#utility.yul\":10686:10753   */\n      tag_190\n        /* \"#utility.yul\":10746:10752   */\n      dup6\n        /* \"#utility.yul\":10739:10744   */\n      dup3\n        /* \"#utility.yul\":10686:10753   */\n      tag_66\n      jump\t// in\n    tag_190:\n        /* \"#utility.yul\":10680:10684   */\n      dup7\n        /* \"#utility.yul\":10673:10754   */\n      sstore\n        /* \"#utility.yul\":10542:10764   */\n      pop\n        /* \"#utility.yul\":9877:10764   */\n      jump(tag_187)\n        /* \"#utility.yul\":9907:10525   */\n    tag_188:\n        /* \"#utility.yul\":9959:9963   */\n      0x1f\n        /* \"#utility.yul\":9955:9964   */\n      not\n        /* \"#utility.yul\":9947:9953   */\n      dup5\n        /* \"#utility.yul\":9943:9965   */\n      and\n        /* \"#utility.yul\":9993:10030   */\n      tag_191\n        /* \"#utility.yul\":10025:10029   */\n      dup7\n        /* \"#utility.yul\":9993:10030   */\n      tag_52\n      jump\t// in\n    tag_191:\n        /* \"#utility.yul\":10052:10053   */\n      0x00\n        /* \"#utility.yul\":10066:10274   */\n    tag_192:\n        /* \"#utility.yul\":10080:10087   */\n      dup3\n        /* \"#utility.yul\":10077:10078   */\n      dup2\n        /* \"#utility.yul\":10074:10088   */\n      lt\n        /* \"#utility.yul\":10066:10274   */\n      iszero\n      tag_194\n      jumpi\n        /* \"#utility.yul\":10159:10168   */\n      dup5\n        /* \"#utility.yul\":10154:10157   */\n      dup10\n        /* \"#utility.yul\":10150:10169   */\n      add\n        /* \"#utility.yul\":10144:10170   */\n      mload\n        /* \"#utility.yul\":10136:10142   */\n      dup3\n        /* \"#utility.yul\":10129:10171   */\n      sstore\n        /* \"#utility.yul\":10210:10211   */\n      0x01\n        /* \"#utility.yul\":10202:10208   */\n      dup3\n        /* \"#utility.yul\":10198:10212   */\n      add\n        /* \"#utility.yul\":10188:10212   */\n      swap2\n      pop\n        /* \"#utility.yul\":10257:10259   */\n      0x20\n        /* \"#utility.yul\":10246:10255   */\n      dup6\n        /* \"#utility.yul\":10242:10260   */\n      add\n        /* \"#utility.yul\":10229:10260   */\n      swap5\n      pop\n        /* \"#utility.yul\":10103:10107   */\n      0x20\n        /* \"#utility.yul\":10100:10101   */\n      dup2\n        /* \"#utility.yul\":10096:10108   */\n      add\n        /* \"#utility.yul\":10091:10108   */\n      swap1\n      pop\n        /* \"#utility.yul\":10066:10274   */\n      jump(tag_192)\n    tag_194:\n        /* \"#utility.yul\":10302:10308   */\n      dup7\n        /* \"#utility.yul\":10293:10300   */\n      dup4\n        /* \"#utility.yul\":10290:10309   */\n      lt\n        /* \"#utility.yul\":10287:10466   */\n      iszero\n      tag_195\n      jumpi\n        /* \"#utility.yul\":10360:10369   */\n      dup5\n        /* \"#utility.yul\":10355:10358   */\n      dup10\n        /* \"#utility.yul\":10351:10370   */\n      add\n        /* \"#utility.yul\":10345:10371   */\n      mload\n        /* \"#utility.yul\":10403:10451   */\n      tag_196\n        /* \"#utility.yul\":10445:10449   */\n      0x1f\n        /* \"#utility.yul\":10437:10443   */\n      dup10\n        /* \"#utility.yul\":10433:10450   */\n      and\n        /* \"#utility.yul\":10422:10431   */\n      dup3\n        /* \"#utility.yul\":10403:10451   */\n      tag_65\n      jump\t// in\n    tag_196:\n        /* \"#utility.yul\":10395:10401   */\n      dup4\n        /* \"#utility.yul\":10388:10452   */\n      sstore\n        /* \"#utility.yul\":10310:10466   */\n      pop\n        /* \"#utility.yul\":10287:10466   */\n    tag_195:\n        /* \"#utility.yul\":10512:10513   */\n      0x01\n        /* \"#utility.yul\":10508:10509   */\n      0x02\n        /* \"#utility.yul\":10500:10506   */\n      dup9\n        /* \"#utility.yul\":10496:10510   */\n      mul\n        /* \"#utility.yul\":10492:10514   */\n      add\n        /* \"#utility.yul\":10486:10490   */\n      dup9\n        /* \"#utility.yul\":10479:10515   */\n      sstore\n        /* \"#utility.yul\":9914:10525   */\n      pop\n      pop\n      pop\n        /* \"#utility.yul\":9877:10764   */\n    tag_187:\n      pop\n        /* \"#utility.yul\":9467:10770   */\n      pop\n      pop\n      pop\n        /* \"#utility.yul\":9375:10770   */\n      pop\n      pop\n      jump\t// out\n        /* \"#utility.yul\":10776:10925   */\n    tag_67:\n        /* \"#utility.yul\":10825:10831   */\n      0x00\n        /* \"#utility.yul\":10859:10864   */\n      dup2\n        /* \"#utility.yul\":10853:10865   */\n      sload\n        /* \"#utility.yul\":10843:10865   */\n      swap1\n      pop\n        /* \"#utility.yul\":10885:10918   */\n      tag_198\n        /* \"#utility.yul\":10911:10917   */\n      dup2\n        /* \"#utility.yul\":10885:10918   */\n      tag_20\n      jump\t// in\n    tag_198:\n        /* \"#utility.yul\":10875:10918   */\n      swap1\n      pop\n        /* \"#utility.yul\":10776:10925   */\n      swap2\n      swap1\n      pop\n      jump\t// out\n        /* \"#utility.yul\":10931:12382   */\n    tag_18:\n        /* \"#utility.yul\":11042:11045   */\n      dup2\n        /* \"#utility.yul\":11036:11040   */\n      dup2\n        /* \"#utility.yul\":11033:11046   */\n      sub\n        /* \"#utility.yul\":11030:11056   */\n      tag_200\n      jumpi\n        /* \"#utility.yul\":11049:11054   */\n      pop\n      pop\n      jump(tag_199)\n        /* \"#utility.yul\":11030:11056   */\n    tag_200:\n        /* \"#utility.yul\":11080:11114   */\n      tag_201\n        /* \"#utility.yul\":11110:11113   */\n      dup3\n        /* \"#utility.yul\":11080:11114   */\n      tag_67\n      jump\t// in\n    tag_201:\n        /* \"#utility.yul\":11179:11197   */\n      0xffffffffffffffff\n        /* \"#utility.yul\":11171:11177   */\n      dup2\n        /* \"#utility.yul\":11168:11198   */\n      gt\n        /* \"#utility.yul\":11165:11221   */\n      iszero\n      tag_202\n      jumpi\n        /* \"#utility.yul\":11201:11219   */\n      tag_203\n      tag_38\n      jump\t// in\n    tag_203:\n        /* \"#utility.yul\":11165:11221   */\n    tag_202:\n        /* \"#utility.yul\":11245:11283   */\n      tag_204\n        /* \"#utility.yul\":11277:11281   */\n      dup3\n        /* \"#utility.yul\":11271:11282   */\n      sload\n        /* \"#utility.yul\":11245:11283   */\n      tag_20\n      jump\t// in\n    tag_204:\n        /* \"#utility.yul\":11330:11397   */\n      tag_205\n        /* \"#utility.yul\":11390:11396   */\n      dup3\n        /* \"#utility.yul\":11382:11388   */\n      dup3\n        /* \"#utility.yul\":11376:11380   */\n      dup6\n        /* \"#utility.yul\":11330:11397   */\n      tag_63\n      jump\t// in\n    tag_205:\n        /* \"#utility.yul\":11424:11425   */\n      0x00\n        /* \"#utility.yul\":11453:11455   */\n      0x1f\n        /* \"#utility.yul\":11445:11451   */\n      dup4\n        /* \"#utility.yul\":11442:11456   */\n      gt\n        /* \"#utility.yul\":11470:11471   */\n      0x01\n        /* \"#utility.yul\":11465:12137   */\n      dup2\n      eq\n      tag_207\n      jumpi\n        /* \"#utility.yul\":12181:12182   */\n      0x00\n        /* \"#utility.yul\":12198:12204   */\n      dup5\n        /* \"#utility.yul\":12195:12272   */\n      iszero\n      tag_208\n      jumpi\n        /* \"#utility.yul\":12247:12256   */\n      dup3\n        /* \"#utility.yul\":12242:12245   */\n      dup8\n        /* \"#utility.yul\":12238:12257   */\n      add\n        /* \"#utility.yul\":12232:12258   */\n      sload\n        /* \"#utility.yul\":12223:12258   */\n      swap1\n      pop\n        /* \"#utility.yul\":12195:12272   */\n    tag_208:\n        /* \"#utility.yul\":12298:12365   */\n      tag_209\n        /* \"#utility.yul\":12358:12364   */\n      dup6\n        /* \"#utility.yul\":12351:12356   */\n      dup3\n        /* \"#utility.yul\":12298:12365   */\n      tag_66\n      jump\t// in\n    tag_209:\n        /* \"#utility.yul\":12292:12296   */\n      dup7\n        /* \"#utility.yul\":12285:12366   */\n      sstore\n        /* \"#utility.yul\":12154:12376   */\n      pop\n        /* \"#utility.yul\":11435:12376   */\n      jump(tag_206)\n        /* \"#utility.yul\":11465:12137   */\n    tag_207:\n        /* \"#utility.yul\":11517:11521   */\n      0x1f\n        /* \"#utility.yul\":11513:11522   */\n      not\n        /* \"#utility.yul\":11505:11511   */\n      dup5\n        /* \"#utility.yul\":11501:11523   */\n      and\n        /* \"#utility.yul\":11543:11579   */\n      tag_210\n        /* \"#utility.yul\":11575:11578   */\n      dup8\n        /* \"#utility.yul\":11543:11579   */\n      tag_52\n      jump\t// in\n    tag_210:\n        /* \"#utility.yul\":11536:11579   */\n      swap7\n      pop\n        /* \"#utility.yul\":11606:11643   */\n      tag_211\n        /* \"#utility.yul\":11638:11642   */\n      dup7\n        /* \"#utility.yul\":11606:11643   */\n      tag_52\n      jump\t// in\n    tag_211:\n        /* \"#utility.yul\":11665:11666   */\n      0x00\n        /* \"#utility.yul\":11679:11886   */\n    tag_212:\n        /* \"#utility.yul\":11693:11700   */\n      dup3\n        /* \"#utility.yul\":11690:11691   */\n      dup2\n        /* \"#utility.yul\":11687:11701   */\n      lt\n        /* \"#utility.yul\":11679:11886   */\n      iszero\n      tag_214\n      jumpi\n        /* \"#utility.yul\":11772:11781   */\n      dup5\n        /* \"#utility.yul\":11767:11770   */\n      dup10\n        /* \"#utility.yul\":11763:11782   */\n      add\n        /* \"#utility.yul\":11757:11783   */\n      sload\n        /* \"#utility.yul\":11749:11755   */\n      dup3\n        /* \"#utility.yul\":11742:11784   */\n      sstore\n        /* \"#utility.yul\":11823:11824   */\n      0x01\n        /* \"#utility.yul\":11815:11821   */\n      dup3\n        /* \"#utility.yul\":11811:11825   */\n      add\n        /* \"#utility.yul\":11801:11825   */\n      swap2\n      pop\n        /* \"#utility.yul\":11870:11871   */\n      0x01\n        /* \"#utility.yul\":11859:11868   */\n      dup6\n        /* \"#utility.yul\":11855:11872   */\n      add\n        /* \"#utility.yul\":11842:11872   */\n      swap5\n      pop\n        /* \"#utility.yul\":11716:11720   */\n      0x20\n        /* \"#utility.yul\":11713:11714   */\n      dup2\n        /* \"#utility.yul\":11709:11721   */\n      add\n        /* \"#utility.yul\":11704:11721   */\n      swap1\n      pop\n        /* \"#utility.yul\":11679:11886   */\n      jump(tag_212)\n    tag_214:\n        /* \"#utility.yul\":11914:11920   */\n      dup7\n        /* \"#utility.yul\":11905:11912   */\n      dup4\n        /* \"#utility.yul\":11902:11921   */\n      lt\n        /* \"#utility.yul\":11899:12078   */\n      iszero\n      tag_215\n      jumpi\n        /* \"#utility.yul\":11972:11981   */\n      dup5\n        /* \"#utility.yul\":11967:11970   */\n      dup10\n        /* \"#utility.yul\":11963:11982   */\n      add\n        /* \"#utility.yul\":11957:11983   */\n      sload\n        /* \"#utility.yul\":12015:12063   */\n      tag_216\n        /* \"#utility.yul\":12057:12061   */\n      0x1f\n        /* \"#utility.yul\":12049:12055   */\n      dup10\n        /* \"#utility.yul\":12045:12062   */\n      and\n        /* \"#utility.yul\":12034:12043   */\n      dup3\n        /* \"#utility.yul\":12015:12063   */\n      tag_65\n      jump\t// in\n    tag_216:\n        /* \"#utility.yul\":12007:12013   */\n      dup4\n        /* \"#utility.yul\":12000:12064   */\n      sstore\n        /* \"#utility.yul\":11922:12078   */\n      pop\n        /* \"#utility.yul\":11899:12078   */\n    tag_215:\n        /* \"#utility.yul\":12124:12125   */\n      0x01\n        /* \"#utility.yul\":12120:12121   */\n      0x02\n        /* \"#utility.yul\":12112:12118   */\n      dup9\n        /* \"#utility.yul\":12108:12122   */\n      mul\n        /* \"#utility.yul\":12104:12126   */\n      add\n        /* \"#utility.yul\":12098:12102   */\n      dup9\n        /* \"#utility.yul\":12091:12127   */\n      sstore\n        /* \"#utility.yul\":11472:12137   */\n      pop\n      pop\n      pop\n        /* \"#utility.yul\":11435:12376   */\n    tag_206:\n      pop\n        /* \"#utility.yul\":11020:12382   */\n      pop\n      pop\n      pop\n        /* \"#utility.yul\":10931:12382   */\n      pop\n      pop\n    tag_199:\n      jump\t// out\n\n    auxdata: 0xa26469706673582212206659ce8e20edd96545674aaf9e9b5582db27083716bd5a97b4bfc756deee61fc64736f6c63430008120033\n}\n",
				"bytecode": {
					"linkReferences": {},
					"object": "608060405234801561001057600080fd5b5061099b806100206000396000f3fe608060405234801561001057600080fd5b50600436106100365760003560e01c806310176f861461003b578063da223bc314610057575b600080fd5b6100556004803603810190610050919061043f565b610077565b005b61005f610191565b60405161006e9392919061054b565b60405180910390f35b82600160000160006101000a81548173ffffffffffffffffffffffffffffffffffffffff021916908373ffffffffffffffffffffffffffffffffffffffff16021790555081600180018190555080600160020190816100d69190610795565b506000600190806001815401808255809150506001900390600052602060002090600302016000909190919091506000820160009054906101000a900473ffffffffffffffffffffffffffffffffffffffff168160000160006101000a81548173ffffffffffffffffffffffffffffffffffffffff021916908373ffffffffffffffffffffffffffffffffffffffff1602179055506001820154816001015560028201816002019081610189919061087d565b505050505050565b60018060000160009054906101000a900473ffffffffffffffffffffffffffffffffffffffff16908060010154908060020180546101ce906105b8565b80601f01602080910402602001604051908101604052809291908181526020018280546101fa906105b8565b80156102475780601f1061021c57610100808354040283529160200191610247565b820191906000526020600020905b81548152906001019060200180831161022a57829003601f168201915b5050505050905083565b6000604051905090565b600080fd5b600080fd5b600073ffffffffffffffffffffffffffffffffffffffff82169050919050565b600061029082610265565b9050919050565b6102a081610285565b81146102ab57600080fd5b50565b6000813590506102bd81610297565b92915050565b6000819050919050565b6102d6816102c3565b81146102e157600080fd5b50565b6000813590506102f3816102cd565b92915050565b600080fd5b600080fd5b6000601f19601f8301169050919050565b7f4e487b7100000000000000000000000000000000000000000000000000000000600052604160045260246000fd5b61034c82610303565b810181811067ffffffffffffffff8211171561036b5761036a610314565b5b80604052505050565b600061037e610251565b905061038a8282610343565b919050565b600067ffffffffffffffff8211156103aa576103a9610314565b5b6103b382610303565b9050602081019050919050565b82818337600083830152505050565b60006103e26103dd8461038f565b610374565b9050828152602081018484840111156103fe576103fd6102fe565b5b6104098482856103c0565b509392505050565b600082601f830112610426576104256102f9565b5b81356104368482602086016103cf565b91505092915050565b6000806000606084860312156104585761045761025b565b5b6000610466868287016102ae565b9350506020610477868287016102e4565b925050604084013567ffffffffffffffff81111561049857610497610260565b5b6104a486828701610411565b9150509250925092565b6104b781610285565b82525050565b6104c6816102c3565b82525050565b600081519050919050565b600082825260208201905092915050565b60005b838110156105065780820151818401526020810190506104eb565b60008484015250505050565b600061051d826104cc565b61052781856104d7565b93506105378185602086016104e8565b61054081610303565b840191505092915050565b600060608201905061056060008301866104ae565b61056d60208301856104bd565b818103604083015261057f8184610512565b9050949350505050565b7f4e487b7100000000000000000000000000000000000000000000000000000000600052602260045260246000fd5b600060028204905060018216806105d057607f821691505b6020821081036105e3576105e2610589565b5b50919050565b60008190508160005260206000209050919050565b60006020601f8301049050919050565b600082821b905092915050565b60006008830261064b7fffffffffffffffffffffffffffffffffffffffffffffffffffffffffffffffff8261060e565b610655868361060e565b95508019841693508086168417925050509392505050565b6000819050919050565b600061069261068d610688846102c3565b61066d565b6102c3565b9050919050565b6000819050919050565b6106ac83610677565b6106c06106b882610699565b84845461061b565b825550505050565b600090565b6106d56106c8565b6106e08184846106a3565b505050565b5b81811015610704576106f96000826106cd565b6001810190506106e6565b5050565b601f8211156107495761071a816105e9565b610723846105fe565b81016020851015610732578190505b61074661073e856105fe565b8301826106e5565b50505b505050565b600082821c905092915050565b600061076c6000198460080261074e565b1980831691505092915050565b6000610785838361075b565b9150826002028217905092915050565b61079e826104cc565b67ffffffffffffffff8111156107b7576107b6610314565b5b6107c182546105b8565b6107cc828285610708565b600060209050601f8311600181146107ff57600084156107ed578287015190505b6107f78582610779565b86555061085f565b601f19841661080d866105e9565b60005b8281101561083557848901518255600182019150602085019450602081019050610810565b86831015610852578489015161084e601f89168261075b565b8355505b6001600288020188555050505b505050505050565b600081549050610876816105b8565b9050919050565b81810361088b575050610963565b61089482610867565b67ffffffffffffffff8111156108ad576108ac610314565b5b6108b782546105b8565b6108c2828285610708565b6000601f8311600181146108f157600084156108df578287015490505b6108e98582610779565b86555061095c565b601f1984166108ff876105e9565b965061090a866105e9565b60005b828110156109325784890154825560018201915060018501945060208101905061090d565b8683101561094f578489015461094b601f89168261075b565b8355505b6001600288020188555050505b5050505050505b56fea26469706673582212206659ce8e20edd96545674aaf9e9b5582db27083716bd5a97b4bfc756deee61fc64736f6c63430008120033",
					"opcodes": "PUSH1 0x80 PUSH1 0x40 MSTORE CALLVALUE DUP1 ISZERO PUSH2 0x10 JUMPI PUSH1 0x0 DUP1 REVERT JUMPDEST POP PUSH2 0x99B DUP1 PUSH2 0x20 PUSH1 0x0 CODECOPY PUSH1 0x0 RETURN INVALID PUSH1 0x80 PUSH1 0x40 MSTORE CALLVALUE DUP1 ISZERO PUSH2 0x10 JUMPI PUSH1 0x0 DUP1 REVERT JUMPDEST POP PUSH1 0x4 CALLDATASIZE LT PUSH2 0x36 JUMPI PUSH1 0x0 CALLDATALOAD PUSH1 0xE0 SHR DUP1 PUSH4 0x10176F86 EQ PUSH2 0x3B JUMPI DUP1 PUSH4 0xDA223BC3 EQ PUSH2 0x57 JUMPI JUMPDEST PUSH1 0x0 DUP1 REVERT JUMPDEST PUSH2 0x55 PUSH1 0x4 DUP1 CALLDATASIZE SUB DUP2 ADD SWAP1 PUSH2 0x50 SWAP2 SWAP1 PUSH2 0x43F JUMP JUMPDEST PUSH2 0x77 JUMP JUMPDEST STOP JUMPDEST PUSH2 0x5F PUSH2 0x191 JUMP JUMPDEST PUSH1 0x40 MLOAD PUSH2 0x6E SWAP4 SWAP3 SWAP2 SWAP1 PUSH2 0x54B JUMP JUMPDEST PUSH1 0x40 MLOAD DUP1 SWAP2 SUB SWAP1 RETURN JUMPDEST DUP3 PUSH1 0x1 PUSH1 0x0 ADD PUSH1 0x0 PUSH2 0x100 EXP DUP2 SLOAD DUP2 PUSH20 0xFFFFFFFFFFFFFFFFFFFFFFFFFFFFFFFFFFFFFFFF MUL NOT AND SWAP1 DUP4 PUSH20 0xFFFFFFFFFFFFFFFFFFFFFFFFFFFFFFFFFFFFFFFF AND MUL OR SWAP1 SSTORE POP DUP2 PUSH1 0x1 DUP1 ADD DUP2 SWAP1 SSTORE POP DUP1 PUSH1 0x1 PUSH1 0x2 ADD SWAP1 DUP2 PUSH2 0xD6 SWAP2 SWAP1 PUSH2 0x795 JUMP JUMPDEST POP PUSH1 0x0 PUSH1 0x1 SWAP1 DUP1 PUSH1 0x1 DUP2 SLOAD ADD DUP1 DUP3 SSTORE DUP1 SWAP2 POP POP PUSH1 0x1 SWAP1 SUB SWAP1 PUSH1 0x0 MSTORE PUSH1 0x20 PUSH1 0x0 KECCAK256 SWAP1 PUSH1 0x3 MUL ADD PUSH1 0x0 SWAP1 SWAP2 SWAP1 SWAP2 SWAP1 SWAP2 POP PUSH1 0x0 DUP3 ADD PUSH1 0x0 SWAP1 SLOAD SWAP1 PUSH2 0x100 EXP SWAP1 DIV PUSH20 0xFFFFFFFFFFFFFFFFFFFFFFFFFFFFFFFFFFFFFFFF AND DUP2 PUSH1 0x0 ADD PUSH1 0x0 PUSH2 0x100 EXP DUP2 SLOAD DUP2 PUSH20 0xFFFFFFFFFFFFFFFFFFFFFFFFFFFFFFFFFFFFFFFF MUL NOT AND SWAP1 DUP4 PUSH20 0xFFFFFFFFFFFFFFFFFFFFFFFFFFFFFFFFFFFFFFFF AND MUL OR SWAP1 SSTORE POP PUSH1 0x1 DUP3 ADD SLOAD DUP2 PUSH1 0x1 ADD SSTORE PUSH1 0x2 DUP3 ADD DUP2 PUSH1 0x2 ADD SWAP1 DUP2 PUSH2 0x189 SWAP2 SWAP1 PUSH2 0x87D JUMP JUMPDEST POP POP POP POP POP POP JUMP JUMPDEST PUSH1 0x1 DUP1 PUSH1 0x0 ADD PUSH1 0x0 SWAP1 SLOAD SWAP1 PUSH2 0x100 EXP SWAP1 DIV PUSH20 0xFFFFFFFFFFFFFFFFFFFFFFFFFFFFFFFFFFFFFFFF AND SWAP1 DUP1 PUSH1 0x1 ADD SLOAD SWAP1 DUP1 PUSH1 0x2 ADD DUP1 SLOAD PUSH2 0x1CE SWAP1 PUSH2 0x5B8 JUMP JUMPDEST DUP1 PUSH1 0x1F ADD PUSH1 0x20 DUP1 SWAP2 DIV MUL PUSH1 0x20 ADD PUSH1 0x40 MLOAD SWAP1 DUP2 ADD PUSH1 0x40 MSTORE DUP1 SWAP3 SWAP2 SWAP1 DUP2 DUP2 MSTORE PUSH1 0x20 ADD DUP3 DUP1 SLOAD PUSH2 0x1FA SWAP1 PUSH2 0x5B8 JUMP JUMPDEST DUP1 ISZERO PUSH2 0x247 JUMPI DUP1 PUSH1 0x1F LT PUSH2 0x21C JUMPI PUSH2 0x100 DUP1 DUP4 SLOAD DIV MUL DUP4 MSTORE SWAP2 PUSH1 0x20 ADD SWAP2 PUSH2 0x247 JUMP JUMPDEST DUP3 ADD SWAP2 SWAP1 PUSH1 0x0 MSTORE PUSH1 0x20 PUSH1 0x0 KECCAK256 SWAP1 JUMPDEST DUP2 SLOAD DUP2 MSTORE SWAP1 PUSH1 0x1 ADD SWAP1 PUSH1 0x20 ADD DUP1 DUP4 GT PUSH2 0x22A JUMPI DUP3 SWAP1 SUB PUSH1 0x1F AND DUP3 ADD SWAP2 JUMPDEST POP POP POP POP POP SWAP1 POP DUP4 JUMP JUMPDEST PUSH1 0x0 PUSH1 0x40 MLOAD SWAP1 POP SWAP1 JUMP JUMPDEST PUSH1 0x0 DUP1 REVERT JUMPDEST PUSH1 0x0 DUP1 REVERT JUMPDEST PUSH1 0x0 PUSH20 0xFFFFFFFFFFFFFFFFFFFFFFFFFFFFFFFFFFFFFFFF DUP3 AND SWAP1 POP SWAP2 SWAP1 POP JUMP JUMPDEST PUSH1 0x0 PUSH2 0x290 DUP3 PUSH2 0x265 JUMP JUMPDEST SWAP1 POP SWAP2 SWAP1 POP JUMP JUMPDEST PUSH2 0x2A0 DUP2 PUSH2 0x285 JUMP JUMPDEST DUP2 EQ PUSH2 0x2AB JUMPI PUSH1 0x0 DUP1 REVERT JUMPDEST POP JUMP JUMPDEST PUSH1 0x0 DUP2 CALLDATALOAD SWAP1 POP PUSH2 0x2BD DUP2 PUSH2 0x297 JUMP JUMPDEST SWAP3 SWAP2 POP POP JUMP JUMPDEST PUSH1 0x0 DUP2 SWAP1 POP SWAP2 SWAP1 POP JUMP JUMPDEST PUSH2 0x2D6 DUP2 PUSH2 0x2C3 JUMP JUMPDEST DUP2 EQ PUSH2 0x2E1 JUMPI PUSH1 0x0 DUP1 REVERT JUMPDEST POP JUMP JUMPDEST PUSH1 0x0 DUP2 CALLDATALOAD SWAP1 POP PUSH2 0x2F3 DUP2 PUSH2 0x2CD JUMP JUMPDEST SWAP3 SWAP2 POP POP JUMP JUMPDEST PUSH1 0x0 DUP1 REVERT JUMPDEST PUSH1 0x0 DUP1 REVERT JUMPDEST PUSH1 0x0 PUSH1 0x1F NOT PUSH1 0x1F DUP4 ADD AND SWAP1 POP SWAP2 SWAP1 POP JUMP JUMPDEST PUSH32 0x4E487B7100000000000000000000000000000000000000000000000000000000 PUSH1 0x0 MSTORE PUSH1 0x41 PUSH1 0x4 MSTORE PUSH1 0x24 PUSH1 0x0 REVERT JUMPDEST PUSH2 0x34C DUP3 PUSH2 0x303 JUMP JUMPDEST DUP2 ADD DUP2 DUP2 LT PUSH8 0xFFFFFFFFFFFFFFFF DUP3 GT OR ISZERO PUSH2 0x36B JUMPI PUSH2 0x36A PUSH2 0x314 JUMP JUMPDEST JUMPDEST DUP1 PUSH1 0x40 MSTORE POP POP POP JUMP JUMPDEST PUSH1 0x0 PUSH2 0x37E PUSH2 0x251 JUMP JUMPDEST SWAP1 POP PUSH2 0x38A DUP3 DUP3 PUSH2 0x343 JUMP JUMPDEST SWAP2 SWAP1 POP JUMP JUMPDEST PUSH1 0x0 PUSH8 0xFFFFFFFFFFFFFFFF DUP3 GT ISZERO PUSH2 0x3AA JUMPI PUSH2 0x3A9 PUSH2 0x314 JUMP JUMPDEST JUMPDEST PUSH2 0x3B3 DUP3 PUSH2 0x303 JUMP JUMPDEST SWAP1 POP PUSH1 0x20 DUP2 ADD SWAP1 POP SWAP2 SWAP1 POP JUMP JUMPDEST DUP3 DUP2 DUP4 CALLDATACOPY PUSH1 0x0 DUP4 DUP4 ADD MSTORE POP POP POP JUMP JUMPDEST PUSH1 0x0 PUSH2 0x3E2 PUSH2 0x3DD DUP5 PUSH2 0x38F JUMP JUMPDEST PUSH2 0x374 JUMP JUMPDEST SWAP1 POP DUP3 DUP2 MSTORE PUSH1 0x20 DUP2 ADD DUP5 DUP5 DUP5 ADD GT ISZERO PUSH2 0x3FE JUMPI PUSH2 0x3FD PUSH2 0x2FE JUMP JUMPDEST JUMPDEST PUSH2 0x409 DUP5 DUP3 DUP6 PUSH2 0x3C0 JUMP JUMPDEST POP SWAP4 SWAP3 POP POP POP JUMP JUMPDEST PUSH1 0x0 DUP3 PUSH1 0x1F DUP4 ADD SLT PUSH2 0x426 JUMPI PUSH2 0x425 PUSH2 0x2F9 JUMP JUMPDEST JUMPDEST DUP2 CALLDATALOAD PUSH2 0x436 DUP5 DUP3 PUSH1 0x20 DUP7 ADD PUSH2 0x3CF JUMP JUMPDEST SWAP2 POP POP SWAP3 SWAP2 POP POP JUMP JUMPDEST PUSH1 0x0 DUP1 PUSH1 0x0 PUSH1 0x60 DUP5 DUP7 SUB SLT ISZERO PUSH2 0x458 JUMPI PUSH2 0x457 PUSH2 0x25B JUMP JUMPDEST JUMPDEST PUSH1 0x0 PUSH2 0x466 DUP7 DUP3 DUP8 ADD PUSH2 0x2AE JUMP JUMPDEST SWAP4 POP POP PUSH1 0x20 PUSH2 0x477 DUP7 DUP3 DUP8 ADD PUSH2 0x2E4 JUMP JUMPDEST SWAP3 POP POP PUSH1 0x40 DUP5 ADD CALLDATALOAD PUSH8 0xFFFFFFFFFFFFFFFF DUP2 GT ISZERO PUSH2 0x498 JUMPI PUSH2 0x497 PUSH2 0x260 JUMP JUMPDEST JUMPDEST PUSH2 0x4A4 DUP7 DUP3 DUP8 ADD PUSH2 0x411 JUMP JUMPDEST SWAP2 POP POP SWAP3 POP SWAP3 POP SWAP3 JUMP JUMPDEST PUSH2 0x4B7 DUP2 PUSH2 0x285 JUMP JUMPDEST DUP3 MSTORE POP POP JUMP JUMPDEST PUSH2 0x4C6 DUP2 PUSH2 0x2C3 JUMP JUMPDEST DUP3 MSTORE POP POP JUMP JUMPDEST PUSH1 0x0 DUP2 MLOAD SWAP1 POP SWAP2 SWAP1 POP JUMP JUMPDEST PUSH1 0x0 DUP3 DUP3 MSTORE PUSH1 0x20 DUP3 ADD SWAP1 POP SWAP3 SWAP2 POP POP JUMP JUMPDEST PUSH1 0x0 JUMPDEST DUP4 DUP2 LT ISZERO PUSH2 0x506 JUMPI DUP1 DUP3 ADD MLOAD DUP2 DUP5 ADD MSTORE PUSH1 0x20 DUP2 ADD SWAP1 POP PUSH2 0x4EB JUMP JUMPDEST PUSH1 0x0 DUP5 DUP5 ADD MSTORE POP POP POP POP JUMP JUMPDEST PUSH1 0x0 PUSH2 0x51D DUP3 PUSH2 0x4CC JUMP JUMPDEST PUSH2 0x527 DUP2 DUP6 PUSH2 0x4D7 JUMP JUMPDEST SWAP4 POP PUSH2 0x537 DUP2 DUP6 PUSH1 0x20 DUP7 ADD PUSH2 0x4E8 JUMP JUMPDEST PUSH2 0x540 DUP2 PUSH2 0x303 JUMP JUMPDEST DUP5 ADD SWAP2 POP POP SWAP3 SWAP2 POP POP JUMP JUMPDEST PUSH1 0x0 PUSH1 0x60 DUP3 ADD SWAP1 POP PUSH2 0x560 PUSH1 0x0 DUP4 ADD DUP7 PUSH2 0x4AE JUMP JUMPDEST PUSH2 0x56D PUSH1 0x20 DUP4 ADD DUP6 PUSH2 0x4BD JUMP JUMPDEST DUP2 DUP2 SUB PUSH1 0x40 DUP4 ADD MSTORE PUSH2 0x57F DUP2 DUP5 PUSH2 0x512 JUMP JUMPDEST SWAP1 POP SWAP5 SWAP4 POP POP POP POP JUMP JUMPDEST PUSH32 0x4E487B7100000000000000000000000000000000000000000000000000000000 PUSH1 0x0 MSTORE PUSH1 0x22 PUSH1 0x4 MSTORE PUSH1 0x24 PUSH1 0x0 REVERT JUMPDEST PUSH1 0x0 PUSH1 0x2 DUP3 DIV SWAP1 POP PUSH1 0x1 DUP3 AND DUP1 PUSH2 0x5D0 JUMPI PUSH1 0x7F DUP3 AND SWAP2 POP JUMPDEST PUSH1 0x20 DUP3 LT DUP2 SUB PUSH2 0x5E3 JUMPI PUSH2 0x5E2 PUSH2 0x589 JUMP JUMPDEST JUMPDEST POP SWAP2 SWAP1 POP JUMP JUMPDEST PUSH1 0x0 DUP2 SWAP1 POP DUP2 PUSH1 0x0 MSTORE PUSH1 0x20 PUSH1 0x0 KECCAK256 SWAP1 POP SWAP2 SWAP1 POP JUMP JUMPDEST PUSH1 0x0 PUSH1 0x20 PUSH1 0x1F DUP4 ADD DIV SWAP1 POP SWAP2 SWAP1 POP JUMP JUMPDEST PUSH1 0x0 DUP3 DUP3 SHL SWAP1 POP SWAP3 SWAP2 POP POP JUMP JUMPDEST PUSH1 0x0 PUSH1 0x8 DUP4 MUL PUSH2 0x64B PUSH32 0xFFFFFFFFFFFFFFFFFFFFFFFFFFFFFFFFFFFFFFFFFFFFFFFFFFFFFFFFFFFFFFFF DUP3 PUSH2 0x60E JUMP JUMPDEST PUSH2 0x655 DUP7 DUP4 PUSH2 0x60E JUMP JUMPDEST SWAP6 POP DUP1 NOT DUP5 AND SWAP4 POP DUP1 DUP7 AND DUP5 OR SWAP3 POP POP POP SWAP4 SWAP3 POP POP POP JUMP JUMPDEST PUSH1 0x0 DUP2 SWAP1 POP SWAP2 SWAP1 POP JUMP JUMPDEST PUSH1 0x0 PUSH2 0x692 PUSH2 0x68D PUSH2 0x688 DUP5 PUSH2 0x2C3 JUMP JUMPDEST PUSH2 0x66D JUMP JUMPDEST PUSH2 0x2C3 JUMP JUMPDEST SWAP1 POP SWAP2 SWAP1 POP JUMP JUMPDEST PUSH1 0x0 DUP2 SWAP1 POP SWAP2 SWAP1 POP JUMP JUMPDEST PUSH2 0x6AC DUP4 PUSH2 0x677 JUMP JUMPDEST PUSH2 0x6C0 PUSH2 0x6B8 DUP3 PUSH2 0x699 JUMP JUMPDEST DUP5 DUP5 SLOAD PUSH2 0x61B JUMP JUMPDEST DUP3 SSTORE POP POP POP POP JUMP JUMPDEST PUSH1 0x0 SWAP1 JUMP JUMPDEST PUSH2 0x6D5 PUSH2 0x6C8 JUMP JUMPDEST PUSH2 0x6E0 DUP2 DUP5 DUP5 PUSH2 0x6A3 JUMP JUMPDEST POP POP POP JUMP JUMPDEST JUMPDEST DUP2 DUP2 LT ISZERO PUSH2 0x704 JUMPI PUSH2 0x6F9 PUSH1 0x0 DUP3 PUSH2 0x6CD JUMP JUMPDEST PUSH1 0x1 DUP2 ADD SWAP1 POP PUSH2 0x6E6 JUMP JUMPDEST POP POP JUMP JUMPDEST PUSH1 0x1F DUP3 GT ISZERO PUSH2 0x749 JUMPI PUSH2 0x71A DUP2 PUSH2 0x5E9 JUMP JUMPDEST PUSH2 0x723 DUP5 PUSH2 0x5FE JUMP JUMPDEST DUP2 ADD PUSH1 0x20 DUP6 LT ISZERO PUSH2 0x732 JUMPI DUP2 SWAP1 POP JUMPDEST PUSH2 0x746 PUSH2 0x73E DUP6 PUSH2 0x5FE JUMP JUMPDEST DUP4 ADD DUP3 PUSH2 0x6E5 JUMP JUMPDEST POP POP JUMPDEST POP POP POP JUMP JUMPDEST PUSH1 0x0 DUP3 DUP3 SHR SWAP1 POP SWAP3 SWAP2 POP POP JUMP JUMPDEST PUSH1 0x0 PUSH2 0x76C PUSH1 0x0 NOT DUP5 PUSH1 0x8 MUL PUSH2 0x74E JUMP JUMPDEST NOT DUP1 DUP4 AND SWAP2 POP POP SWAP3 SWAP2 POP POP JUMP JUMPDEST PUSH1 0x0 PUSH2 0x785 DUP4 DUP4 PUSH2 0x75B JUMP JUMPDEST SWAP2 POP DUP3 PUSH1 0x2 MUL DUP3 OR SWAP1 POP SWAP3 SWAP2 POP POP JUMP JUMPDEST PUSH2 0x79E DUP3 PUSH2 0x4CC JUMP JUMPDEST PUSH8 0xFFFFFFFFFFFFFFFF DUP2 GT ISZERO PUSH2 0x7B7 JUMPI PUSH2 0x7B6 PUSH2 0x314 JUMP JUMPDEST JUMPDEST PUSH2 0x7C1 DUP3 SLOAD PUSH2 0x5B8 JUMP JUMPDEST PUSH2 0x7CC DUP3 DUP3 DUP6 PUSH2 0x708 JUMP JUMPDEST PUSH1 0x0 PUSH1 0x20 SWAP1 POP PUSH1 0x1F DUP4 GT PUSH1 0x1 DUP2 EQ PUSH2 0x7FF JUMPI PUSH1 0x0 DUP5 ISZERO PUSH2 0x7ED JUMPI DUP3 DUP8 ADD MLOAD SWAP1 POP JUMPDEST PUSH2 0x7F7 DUP6 DUP3 PUSH2 0x779 JUMP JUMPDEST DUP7 SSTORE POP PUSH2 0x85F JUMP JUMPDEST PUSH1 0x1F NOT DUP5 AND PUSH2 0x80D DUP7 PUSH2 0x5E9 JUMP JUMPDEST PUSH1 0x0 JUMPDEST DUP3 DUP2 LT ISZERO PUSH2 0x835 JUMPI DUP5 DUP10 ADD MLOAD DUP3 SSTORE PUSH1 0x1 DUP3 ADD SWAP2 POP PUSH1 0x20 DUP6 ADD SWAP5 POP PUSH1 0x20 DUP2 ADD SWAP1 POP PUSH2 0x810 JUMP JUMPDEST DUP7 DUP4 LT ISZERO PUSH2 0x852 JUMPI DUP5 DUP10 ADD MLOAD PUSH2 0x84E PUSH1 0x1F DUP10 AND DUP3 PUSH2 0x75B JUMP JUMPDEST DUP4 SSTORE POP JUMPDEST PUSH1 0x1 PUSH1 0x2 DUP9 MUL ADD DUP9 SSTORE POP POP POP JUMPDEST POP POP POP POP POP POP JUMP JUMPDEST PUSH1 0x0 DUP2 SLOAD SWAP1 POP PUSH2 0x876 DUP2 PUSH2 0x5B8 JUMP JUMPDEST SWAP1 POP SWAP2 SWAP1 POP JUMP JUMPDEST DUP2 DUP2 SUB PUSH2 0x88B JUMPI POP POP PUSH2 0x963 JUMP JUMPDEST PUSH2 0x894 DUP3 PUSH2 0x867 JUMP JUMPDEST PUSH8 0xFFFFFFFFFFFFFFFF DUP2 GT ISZERO PUSH2 0x8AD JUMPI PUSH2 0x8AC PUSH2 0x314 JUMP JUMPDEST JUMPDEST PUSH2 0x8B7 DUP3 SLOAD PUSH2 0x5B8 JUMP JUMPDEST PUSH2 0x8C2 DUP3 DUP3 DUP6 PUSH2 0x708 JUMP JUMPDEST PUSH1 0x0 PUSH1 0x1F DUP4 GT PUSH1 0x1 DUP2 EQ PUSH2 0x8F1 JUMPI PUSH1 0x0 DUP5 ISZERO PUSH2 0x8DF JUMPI DUP3 DUP8 ADD SLOAD SWAP1 POP JUMPDEST PUSH2 0x8E9 DUP6 DUP3 PUSH2 0x779 JUMP JUMPDEST DUP7 SSTORE POP PUSH2 0x95C JUMP JUMPDEST PUSH1 0x1F NOT DUP5 AND PUSH2 0x8FF DUP8 PUSH2 0x5E9 JUMP JUMPDEST SWAP7 POP PUSH2 0x90A DUP7 PUSH2 0x5E9 JUMP JUMPDEST PUSH1 0x0 JUMPDEST DUP3 DUP2 LT ISZERO PUSH2 0x932 JUMPI DUP5 DUP10 ADD SLOAD DUP3 SSTORE PUSH1 0x1 DUP3 ADD SWAP2 POP PUSH1 0x1 DUP6 ADD SWAP5 POP PUSH1 0x20 DUP2 ADD SWAP1 POP PUSH2 0x90D JUMP JUMPDEST DUP7 DUP4 LT ISZERO PUSH2 0x94F JUMPI DUP5 DUP10 ADD SLOAD PUSH2 0x94B PUSH1 0x1F DUP10 AND DUP3 PUSH2 0x75B JUMP JUMPDEST DUP4 SSTORE POP JUMPDEST PUSH1 0x1 PUSH1 0x2 DUP9 MUL ADD DUP9 SSTORE POP POP POP JUMPDEST POP POP POP POP POP POP JUMPDEST JUMP INVALID LOG2 PUSH5 0x6970667358 0x22 SLT KECCAK256 PUSH7 0x59CE8E20EDD965 GASLIMIT PUSH8 0x4AAF9E9B5582DB27 ADDMOD CALLDATACOPY AND 0xBD GAS SWAP8 0xB4 0xBF 0xC7 JUMP 0xDE 0xEE PUSH2 0xFC64 PUSH20 0x6F6C634300081200330000000000000000000000 "
				},
				"gasEstimates": {
					"creation": {
						"codeDepositCost": "491800",
						"executionCost": "524",
						"totalCost": "492324"
					},
					"external": {
						"LastLine()": "infinite",
						"LogTransfer(address,uint256,string)": "infinite"
					}
				},
				"methodIdentifiers": {
					"LastLine()": "da223bc3",
					"LogTransfer(address,uint256,string)": "10176f86"
				}
			},
			"storageLayout": {
				"storage": [
					{
						"astId": 153,
						"contract": "contracts/TrustFund.sol:Logger",
						"label": "History",
						"offset": 0,
						"slot": "0",
						"type": "t_array(t_struct(Message)149_storage)dyn_storage"
					},
					{
						"astId": 156,
						"contract": "contracts/TrustFund.sol:Logger",
						"label": "LastLine",
						"offset": 0,
						"slot": "1",
						"type": "t_struct(Message)149_storage"
					}
				],
				"types": {
					"t_address": {
						"encoding": "inplace",
						"label": "address",
						"numberOfBytes": "20"
					},
					"t_array(t_struct(Message)149_storage)dyn_storage": {
						"base": "t_struct(Message)149_storage",
						"encoding": "dynamic_array",
						"label": "struct Logger.Message[]",
						"numberOfBytes": "32"
					},
					"t_string_storage": {
						"encoding": "bytes",
						"label": "string",
						"numberOfBytes": "32"
					},
					"t_struct(Message)149_storage": {
						"encoding": "inplace",
						"label": "struct Logger.Message",
						"members": [
							{
								"astId": 144,
								"contract": "contracts/TrustFund.sol:Logger",
								"label": "sender",
								"offset": 0,
								"slot": "0",
								"type": "t_address"
							},
							{
								"astId": 146,
								"contract": "contracts/TrustFund.sol:Logger",
								"label": "amount",
								"offset": 0,
								"slot": "1",
								"type": "t_uint256"
							},
							{
								"astId": 148,
								"contract": "contracts/TrustFund.sol:Logger",
								"label": "note",
								"offset": 0,
								"slot": "2",
								"type": "t_string_storage"
							}
						],
						"numberOfBytes": "96"
					},
					"t_uint256": {
						"encoding": "inplace",
						"label": "uint256",
						"numberOfBytes": "32"
					}
				}
			},
			"userdoc": {
				"kind": "user",
				"methods": {},
				"version": 1
			}
		}
	}
}