{
	"contracts/TrustFund.sol": {
		"TrustFund": {
			"abi": [
				{
					"inputs": [
						{
							"internalType": "uint256",
							"name": "_minDeposit",
							"type": "uint256"
						},
						{
							"internalType": "address",
							"name": "_logger",
							"type": "address"
						}
					],
					"stateMutability": "payable",
					"type": "constructor"
				},
				{
					"inputs": [],
					"name": "TrustLog",
					"outputs": [
						{
							"internalType": "contract Logger",
							"name": "",
							"type": "address"
						}
					],
					"stateMutability": "view",
					"type": "function"
				},
				{
					"inputs": [
						{
							"internalType": "address",
							"name": "_addr",
							"type": "address"
						}
					],
					"name": "checkBalance",
					"outputs": [
						{
							"internalType": "uint256",
							"name": "",
							"type": "uint256"
						}
					],
					"stateMutability": "view",
					"type": "function"
				},
				{
					"inputs": [],
					"name": "deposit",
					"outputs": [
						{
							"internalType": "bool",
							"name": "",
							"type": "bool"
						}
					],
					"stateMutability": "payable",
					"type": "function"
				},
				{
					"inputs": [],
					"name": "minDeposit",
					"outputs": [
						{
							"internalType": "uint256",
							"name": "",
							"type": "uint256"
						}
					],
					"stateMutability": "view",
					"type": "function"
				},
				{
					"inputs": [
						{
							"internalType": "uint256",
							"name": "_amount",
							"type": "uint256"
						}
					],
					"name": "withdraw",
					"outputs": [],
					"stateMutability": "nonpayable",
					"type": "function"
				}
			],
			"devdoc": {
				"kind": "dev",
				"methods": {},
				"version": 1
			},
			"evm": {
				"assembly": "    /* \"contracts/TrustFund.sol\":69:1110  contract TrustFund {... */\n  mstore(0x40, 0x80)\n    /* \"contracts/TrustFund.sol\":206:363  constructor (uint256 _minDeposit, address _logger) public payable {... */\n  mload(0x40)\n  sub(codesize, bytecodeSize)\n  dup1\n  bytecodeSize\n  dup4\n  codecopy\n  dup2\n  dup2\n  add\n  0x40\n  mstore\n  dup2\n  add\n  swap1\n  tag_1\n  swap2\n  swap1\n  tag_2\n  jump\t// in\ntag_1:\n    /* \"contracts/TrustFund.sol\":286:296  msg.sender */\n  caller\n    /* \"contracts/TrustFund.sol\":278:283  owner */\n  0x00\n  dup1\n    /* \"contracts/TrustFund.sol\":278:296  owner = msg.sender */\n  0x0100\n  exp\n  dup2\n  sload\n  dup2\n  0xffffffffffffffffffffffffffffffffffffffff\n  mul\n  not\n  and\n  swap1\n  dup4\n  0xffffffffffffffffffffffffffffffffffffffff\n  and\n  mul\n  or\n  swap1\n  sstore\n  pop\n    /* \"contracts/TrustFund.sol\":315:326  _minDeposit */\n  dup2\n    /* \"contracts/TrustFund.sol\":302:312  minDeposit */\n  0x01\n    /* \"contracts/TrustFund.sol\":302:326  minDeposit = _minDeposit */\n  dup2\n  swap1\n  sstore\n  pop\n    /* \"contracts/TrustFund.sol\":350:357  _logger */\n  dup1\n    /* \"contracts/TrustFund.sol\":332:340  TrustLog */\n  0x03\n  0x00\n    /* \"contracts/TrustFund.sol\":332:358  TrustLog = Logger(_logger) */\n  0x0100\n  exp\n  dup2\n  sload\n  dup2\n  0xffffffffffffffffffffffffffffffffffffffff\n  mul\n  not\n  and\n  swap1\n  dup4\n  0xffffffffffffffffffffffffffffffffffffffff\n  and\n  mul\n  or\n  swap1\n  sstore\n  pop\n    /* \"contracts/TrustFund.sol\":206:363  constructor (uint256 _minDeposit, address _logger) public payable {... */\n  pop\n  pop\n    /* \"contracts/TrustFund.sol\":69:1110  contract TrustFund {... */\n  jump(tag_5)\n    /* \"#utility.yul\":88:205   */\ntag_7:\n    /* \"#utility.yul\":197:198   */\n  0x00\n    /* \"#utility.yul\":194:195   */\n  dup1\n    /* \"#utility.yul\":187:199   */\n  revert\n    /* \"#utility.yul\":334:411   */\ntag_9:\n    /* \"#utility.yul\":371:378   */\n  0x00\n    /* \"#utility.yul\":400:405   */\n  dup2\n    /* \"#utility.yul\":389:405   */\n  swap1\n  pop\n    /* \"#utility.yul\":334:411   */\n  swap2\n  swap1\n  pop\n  jump\t// out\n    /* \"#utility.yul\":417:539   */\ntag_10:\n    /* \"#utility.yul\":490:514   */\n  tag_22\n    /* \"#utility.yul\":508:513   */\n  dup2\n    /* \"#utility.yul\":490:514   */\n  tag_9\n  jump\t// in\ntag_22:\n    /* \"#utility.yul\":483:488   */\n  dup2\n    /* \"#utility.yul\":480:515   */\n  eq\n    /* \"#utility.yul\":470:533   */\n  tag_23\n  jumpi\n    /* \"#utility.yul\":529:530   */\n  0x00\n    /* \"#utility.yul\":526:527   */\n  dup1\n    /* \"#utility.yul\":519:531   */\n  revert\n    /* \"#utility.yul\":470:533   */\ntag_23:\n    /* \"#utility.yul\":417:539   */\n  pop\n  jump\t// out\n    /* \"#utility.yul\":545:688   */\ntag_11:\n    /* \"#utility.yul\":602:607   */\n  0x00\n    /* \"#utility.yul\":633:639   */\n  dup2\n    /* \"#utility.yul\":627:640   */\n  mload\n    /* \"#utility.yul\":618:640   */\n  swap1\n  pop\n    /* \"#utility.yul\":649:682   */\n  tag_25\n    /* \"#utility.yul\":676:681   */\n  dup2\n    /* \"#utility.yul\":649:682   */\n  tag_10\n  jump\t// in\ntag_25:\n    /* \"#utility.yul\":545:688   */\n  swap3\n  swap2\n  pop\n  pop\n  jump\t// out\n    /* \"#utility.yul\":694:820   */\ntag_12:\n    /* \"#utility.yul\":731:738   */\n  0x00\n    /* \"#utility.yul\":771:813   */\n  0xffffffffffffffffffffffffffffffffffffffff\n    /* \"#utility.yul\":764:769   */\n  dup3\n    /* \"#utility.yul\":760:814   */\n  and\n    /* \"#utility.yul\":749:814   */\n  swap1\n  pop\n    /* \"#utility.yul\":694:820   */\n  swap2\n  swap1\n  pop\n  jump\t// out\n    /* \"#utility.yul\":826:922   */\ntag_13:\n    /* \"#utility.yul\":863:870   */\n  0x00\n    /* \"#utility.yul\":892:916   */\n  tag_28\n    /* \"#utility.yul\":910:915   */\n  dup3\n    /* \"#utility.yul\":892:916   */\n  tag_12\n  jump\t// in\ntag_28:\n    /* \"#utility.yul\":881:916   */\n  swap1\n  pop\n    /* \"#utility.yul\":826:922   */\n  swap2\n  swap1\n  pop\n  jump\t// out\n    /* \"#utility.yul\":928:1050   */\ntag_14:\n    /* \"#utility.yul\":1001:1025   */\n  tag_30\n    /* \"#utility.yul\":1019:1024   */\n  dup2\n    /* \"#utility.yul\":1001:1025   */\n  tag_13\n  jump\t// in\ntag_30:\n    /* \"#utility.yul\":994:999   */\n  dup2\n    /* \"#utility.yul\":991:1026   */\n  eq\n    /* \"#utility.yul\":981:1044   */\n  tag_31\n  jumpi\n    /* \"#utility.yul\":1040:1041   */\n  0x00\n    /* \"#utility.yul\":1037:1038   */\n  dup1\n    /* \"#utility.yul\":1030:1042   */\n  revert\n    /* \"#utility.yul\":981:1044   */\ntag_31:\n    /* \"#utility.yul\":928:1050   */\n  pop\n  jump\t// out\n    /* \"#utility.yul\":1056:1199   */\ntag_15:\n    /* \"#utility.yul\":1113:1118   */\n  0x00\n    /* \"#utility.yul\":1144:1150   */\n  dup2\n    /* \"#utility.yul\":1138:1151   */\n  mload\n    /* \"#utility.yul\":1129:1151   */\n  swap1\n  pop\n    /* \"#utility.yul\":1160:1193   */\n  tag_33\n    /* \"#utility.yul\":1187:1192   */\n  dup2\n    /* \"#utility.yul\":1160:1193   */\n  tag_14\n  jump\t// in\ntag_33:\n    /* \"#utility.yul\":1056:1199   */\n  swap3\n  swap2\n  pop\n  pop\n  jump\t// out\n    /* \"#utility.yul\":1205:1712   */\ntag_2:\n    /* \"#utility.yul\":1284:1290   */\n  0x00\n    /* \"#utility.yul\":1292:1298   */\n  dup1\n    /* \"#utility.yul\":1341:1343   */\n  0x40\n    /* \"#utility.yul\":1329:1338   */\n  dup4\n    /* \"#utility.yul\":1320:1327   */\n  dup6\n    /* \"#utility.yul\":1316:1339   */\n  sub\n    /* \"#utility.yul\":1312:1344   */\n  slt\n    /* \"#utility.yul\":1309:1428   */\n  iszero\n  tag_35\n  jumpi\n    /* \"#utility.yul\":1347:1426   */\n  tag_36\n  tag_7\n  jump\t// in\ntag_36:\n    /* \"#utility.yul\":1309:1428   */\ntag_35:\n    /* \"#utility.yul\":1467:1468   */\n  0x00\n    /* \"#utility.yul\":1492:1556   */\n  tag_37\n    /* \"#utility.yul\":1548:1555   */\n  dup6\n    /* \"#utility.yul\":1539:1545   */\n  dup3\n    /* \"#utility.yul\":1528:1537   */\n  dup7\n    /* \"#utility.yul\":1524:1546   */\n  add\n    /* \"#utility.yul\":1492:1556   */\n  tag_11\n  jump\t// in\ntag_37:\n    /* \"#utility.yul\":1482:1556   */\n  swap3\n  pop\n    /* \"#utility.yul\":1438:1566   */\n  pop\n    /* \"#utility.yul\":1605:1607   */\n  0x20\n    /* \"#utility.yul\":1631:1695   */\n  tag_38\n    /* \"#utility.yul\":1687:1694   */\n  dup6\n    /* \"#utility.yul\":1678:1684   */\n  dup3\n    /* \"#utility.yul\":1667:1676   */\n  dup7\n    /* \"#utility.yul\":1663:1685   */\n  add\n    /* \"#utility.yul\":1631:1695   */\n  tag_15\n  jump\t// in\ntag_38:\n    /* \"#utility.yul\":1621:1695   */\n  swap2\n  pop\n    /* \"#utility.yul\":1576:1705   */\n  pop\n    /* \"#utility.yul\":1205:1712   */\n  swap3\n  pop\n  swap3\n  swap1\n  pop\n  jump\t// out\n    /* \"contracts/TrustFund.sol\":69:1110  contract TrustFund {... */\ntag_5:\n  dataSize(sub_0)\n  dup1\n  dataOffset(sub_0)\n  0x00\n  codecopy\n  0x00\n  return\nstop\n\nsub_0: assembly {\n        /* \"contracts/TrustFund.sol\":69:1110  contract TrustFund {... */\n      mstore(0x40, 0x80)\n      jumpi(tag_1, lt(calldatasize, 0x04))\n      shr(0xe0, calldataload(0x00))\n      dup1\n      0x2e1a7d4d\n      eq\n      tag_2\n      jumpi\n      dup1\n      0x41b3d185\n      eq\n      tag_3\n      jumpi\n      dup1\n      0x5f515226\n      eq\n      tag_4\n      jumpi\n      dup1\n      0xd0e30db0\n      eq\n      tag_5\n      jumpi\n      dup1\n      0xdf6803d3\n      eq\n      tag_6\n      jumpi\n    tag_1:\n      0x00\n      dup1\n      revert\n        /* \"contracts/TrustFund.sol\":643:1004  function withdraw(uint256 _amount) public {... */\n    tag_2:\n      callvalue\n      dup1\n      iszero\n      tag_7\n      jumpi\n      0x00\n      dup1\n      revert\n    tag_7:\n      pop\n      tag_8\n      0x04\n      dup1\n      calldatasize\n      sub\n      dup2\n      add\n      swap1\n      tag_9\n      swap2\n      swap1\n      tag_10\n      jump\t// in\n    tag_9:\n      tag_11\n      jump\t// in\n    tag_8:\n      stop\n        /* \"contracts/TrustFund.sol\":109:134  uint256 public minDeposit */\n    tag_3:\n      callvalue\n      dup1\n      iszero\n      tag_12\n      jumpi\n      0x00\n      dup1\n      revert\n    tag_12:\n      pop\n      tag_13\n      tag_14\n      jump\t// in\n    tag_13:\n      mload(0x40)\n      tag_15\n      swap2\n      swap1\n      tag_16\n      jump\t// in\n    tag_15:\n      mload(0x40)\n      dup1\n      swap2\n      sub\n      swap1\n      return\n        /* \"contracts/TrustFund.sol\":1008:1108  function checkBalance(address _addr) public view returns (uint256) {... */\n    tag_4:\n      callvalue\n      dup1\n      iszero\n      tag_17\n      jumpi\n      0x00\n      dup1\n      revert\n    tag_17:\n      pop\n      tag_18\n      0x04\n      dup1\n      calldatasize\n      sub\n      dup2\n      add\n      swap1\n      tag_19\n      swap2\n      swap1\n      tag_20\n      jump\t// in\n    tag_19:\n      tag_21\n      jump\t// in\n    tag_18:\n      mload(0x40)\n      tag_22\n      swap2\n      swap1\n      tag_16\n      jump\t// in\n    tag_22:\n      mload(0x40)\n      dup1\n      swap2\n      sub\n      swap1\n      return\n        /* \"contracts/TrustFund.sol\":367:639  function deposit() public payable returns (bool) {... */\n    tag_5:\n      tag_23\n      tag_24\n      jump\t// in\n    tag_23:\n      mload(0x40)\n      tag_25\n      swap2\n      swap1\n      tag_26\n      jump\t// in\n    tag_25:\n      mload(0x40)\n      dup1\n      swap2\n      sub\n      swap1\n      return\n        /* \"contracts/TrustFund.sol\":179:201  Logger public TrustLog */\n    tag_6:\n      callvalue\n      dup1\n      iszero\n      tag_27\n      jumpi\n      0x00\n      dup1\n      revert\n    tag_27:\n      pop\n      tag_28\n      tag_29\n      jump\t// in\n    tag_28:\n      mload(0x40)\n      tag_30\n      swap2\n      swap1\n      tag_31\n      jump\t// in\n    tag_30:\n      mload(0x40)\n      dup1\n      swap2\n      sub\n      swap1\n      return\n        /* \"contracts/TrustFund.sol\":643:1004  function withdraw(uint256 _amount) public {... */\n    tag_11:\n        /* \"contracts/TrustFund.sol\":705:713  balances */\n      0x02\n        /* \"contracts/TrustFund.sol\":705:725  balances[msg.sender] */\n      0x00\n        /* \"contracts/TrustFund.sol\":714:724  msg.sender */\n      caller\n        /* \"contracts/TrustFund.sol\":705:725  balances[msg.sender] */\n      0xffffffffffffffffffffffffffffffffffffffff\n      and\n      0xffffffffffffffffffffffffffffffffffffffff\n      and\n      dup2\n      mstore\n      0x20\n      add\n      swap1\n      dup2\n      mstore\n      0x20\n      add\n      0x00\n      keccak256\n      sload\n        /* \"contracts/TrustFund.sol\":694:701  _amount */\n      dup2\n        /* \"contracts/TrustFund.sol\":694:725  _amount <= balances[msg.sender] */\n      gt\n        /* \"contracts/TrustFund.sol\":691:1000  if(_amount <= balances[msg.sender]) {... */\n      tag_33\n      jumpi\n        /* \"contracts/TrustFund.sol\":736:742  bool s */\n      0x00\n        /* \"contracts/TrustFund.sol\":748:758  msg.sender */\n      caller\n        /* \"contracts/TrustFund.sol\":748:763  msg.sender.call */\n      0xffffffffffffffffffffffffffffffffffffffff\n      and\n        /* \"contracts/TrustFund.sol\":771:778  _amount */\n      dup3\n        /* \"contracts/TrustFund.sol\":748:783  msg.sender.call{value: _amount}(\"\") */\n      mload(0x40)\n      tag_34\n      swap1\n      tag_35\n      jump\t// in\n    tag_34:\n      0x00\n      mload(0x40)\n      dup1\n      dup4\n      sub\n      dup2\n      dup6\n      dup8\n      gas\n      call\n      swap3\n      pop\n      pop\n      pop\n      returndatasize\n      dup1\n      0x00\n      dup2\n      eq\n      tag_38\n      jumpi\n      mload(0x40)\n      swap2\n      pop\n      and(add(returndatasize, 0x3f), not(0x1f))\n      dup3\n      add\n      0x40\n      mstore\n      returndatasize\n      dup3\n      mstore\n      returndatasize\n      0x00\n      0x20\n      dup5\n      add\n      returndatacopy\n      jump(tag_37)\n    tag_38:\n      0x60\n      swap2\n      pop\n    tag_37:\n      pop\n        /* \"contracts/TrustFund.sol\":735:783  (bool s, ) = msg.sender.call{value: _amount}(\"\") */\n      pop\n      swap1\n      pop\n        /* \"contracts/TrustFund.sol\":794:795  s */\n      dup1\n        /* \"contracts/TrustFund.sol\":791:994  if(s) {... */\n      iszero\n      tag_39\n      jumpi\n        /* \"contracts/TrustFund.sol\":831:838  _amount */\n      dup2\n        /* \"contracts/TrustFund.sol\":807:815  balances */\n      0x02\n        /* \"contracts/TrustFund.sol\":807:827  balances[msg.sender] */\n      0x00\n        /* \"contracts/TrustFund.sol\":816:826  msg.sender */\n      caller\n        /* \"contracts/TrustFund.sol\":807:827  balances[msg.sender] */\n      0xffffffffffffffffffffffffffffffffffffffff\n      and\n      0xffffffffffffffffffffffffffffffffffffffff\n      and\n      dup2\n      mstore\n      0x20\n      add\n      swap1\n      dup2\n      mstore\n      0x20\n      add\n      0x00\n      keccak256\n      0x00\n        /* \"contracts/TrustFund.sol\":807:838  balances[msg.sender] -= _amount */\n      dup3\n      dup3\n      sload\n      tag_40\n      swap2\n      swap1\n      tag_41\n      jump\t// in\n    tag_40:\n      swap3\n      pop\n      pop\n      dup2\n      swap1\n      sstore\n      pop\n        /* \"contracts/TrustFund.sol\":848:856  TrustLog */\n      0x03\n      0x00\n      swap1\n      sload\n      swap1\n      0x0100\n      exp\n      swap1\n      div\n      0xffffffffffffffffffffffffffffffffffffffff\n      and\n        /* \"contracts/TrustFund.sol\":848:868  TrustLog.LogTransfer */\n      0xffffffffffffffffffffffffffffffffffffffff\n      and\n      0x10176f86\n        /* \"contracts/TrustFund.sol\":869:879  msg.sender */\n      caller\n        /* \"contracts/TrustFund.sol\":881:888  _amount */\n      dup5\n        /* \"contracts/TrustFund.sol\":848:901  TrustLog.LogTransfer(msg.sender, _amount, \"withdraw\") */\n      mload(0x40)\n      dup4\n      0xffffffff\n      and\n      0xe0\n      shl\n      dup2\n      mstore\n      0x04\n      add\n      tag_42\n      swap3\n      swap2\n      swap1\n      tag_43\n      jump\t// in\n    tag_42:\n      0x00\n      mload(0x40)\n      dup1\n      dup4\n      sub\n      dup2\n      0x00\n      dup8\n      dup1\n      extcodesize\n      iszero\n      dup1\n      iszero\n      tag_44\n      jumpi\n      0x00\n      dup1\n      revert\n    tag_44:\n      pop\n      gas\n      call\n      iszero\n      dup1\n      iszero\n      tag_46\n      jumpi\n      returndatasize\n      0x00\n      dup1\n      returndatacopy\n      revert(0x00, returndatasize)\n    tag_46:\n      pop\n      pop\n      pop\n      pop\n        /* \"contracts/TrustFund.sol\":791:994  if(s) {... */\n      jump(tag_47)\n    tag_39:\n        /* \"contracts/TrustFund.sol\":926:934  TrustLog */\n      0x03\n      0x00\n      swap1\n      sload\n      swap1\n      0x0100\n      exp\n      swap1\n      div\n      0xffffffffffffffffffffffffffffffffffffffff\n      and\n        /* \"contracts/TrustFund.sol\":926:946  TrustLog.LogTransfer */\n      0xffffffffffffffffffffffffffffffffffffffff\n      and\n      0x10176f86\n        /* \"contracts/TrustFund.sol\":947:957  msg.sender */\n      caller\n        /* \"contracts/TrustFund.sol\":959:966  _amount */\n      dup5\n        /* \"contracts/TrustFund.sol\":926:985  TrustLog.LogTransfer(msg.sender, _amount, \"withdrawFailed\") */\n      mload(0x40)\n      dup4\n      0xffffffff\n      and\n      0xe0\n      shl\n      dup2\n      mstore\n      0x04\n      add\n      tag_48\n      swap3\n      swap2\n      swap1\n      tag_49\n      jump\t// in\n    tag_48:\n      0x00\n      mload(0x40)\n      dup1\n      dup4\n      sub\n      dup2\n      0x00\n      dup8\n      dup1\n      extcodesize\n      iszero\n      dup1\n      iszero\n      tag_50\n      jumpi\n      0x00\n      dup1\n      revert\n    tag_50:\n      pop\n      gas\n      call\n      iszero\n      dup1\n      iszero\n      tag_52\n      jumpi\n      returndatasize\n      0x00\n      dup1\n      returndatacopy\n      revert(0x00, returndatasize)\n    tag_52:\n      pop\n      pop\n      pop\n      pop\n        /* \"contracts/TrustFund.sol\":791:994  if(s) {... */\n    tag_47:\n        /* \"contracts/TrustFund.sol\":727:1000  {... */\n      pop\n        /* \"contracts/TrustFund.sol\":691:1000  if(_amount <= balances[msg.sender]) {... */\n    tag_33:\n        /* \"contracts/TrustFund.sol\":643:1004  function withdraw(uint256 _amount) public {... */\n      pop\n      jump\t// out\n        /* \"contracts/TrustFund.sol\":109:134  uint256 public minDeposit */\n    tag_14:\n      sload(0x01)\n      dup2\n      jump\t// out\n        /* \"contracts/TrustFund.sol\":1008:1108  function checkBalance(address _addr) public view returns (uint256) {... */\n    tag_21:\n        /* \"contracts/TrustFund.sol\":1066:1073  uint256 */\n      0x00\n        /* \"contracts/TrustFund.sol\":1088:1096  balances */\n      0x02\n        /* \"contracts/TrustFund.sol\":1088:1103  balances[_addr] */\n      0x00\n        /* \"contracts/TrustFund.sol\":1097:1102  _addr */\n      dup4\n        /* \"contracts/TrustFund.sol\":1088:1103  balances[_addr] */\n      0xffffffffffffffffffffffffffffffffffffffff\n      and\n      0xffffffffffffffffffffffffffffffffffffffff\n      and\n      dup2\n      mstore\n      0x20\n      add\n      swap1\n      dup2\n      mstore\n      0x20\n      add\n      0x00\n      keccak256\n      sload\n        /* \"contracts/TrustFund.sol\":1081:1103  return balances[_addr] */\n      swap1\n      pop\n        /* \"contracts/TrustFund.sol\":1008:1108  function checkBalance(address _addr) public view returns (uint256) {... */\n      swap2\n      swap1\n      pop\n      jump\t// out\n        /* \"contracts/TrustFund.sol\":367:639  function deposit() public payable returns (bool) {... */\n    tag_24:\n        /* \"contracts/TrustFund.sol\":410:414  bool */\n      0x00\n        /* \"contracts/TrustFund.sol\":438:448  minDeposit */\n      sload(0x01)\n        /* \"contracts/TrustFund.sol\":426:435  msg.value */\n      callvalue\n        /* \"contracts/TrustFund.sol\":426:448  msg.value > minDeposit */\n      gt\n        /* \"contracts/TrustFund.sol\":422:635  if (msg.value > minDeposit) {... */\n      iszero\n      tag_55\n      jumpi\n        /* \"contracts/TrustFund.sol\":480:489  msg.value */\n      callvalue\n        /* \"contracts/TrustFund.sol\":458:466  balances */\n      0x02\n        /* \"contracts/TrustFund.sol\":458:478  balances[msg.sender] */\n      0x00\n        /* \"contracts/TrustFund.sol\":467:477  msg.sender */\n      caller\n        /* \"contracts/TrustFund.sol\":458:478  balances[msg.sender] */\n      0xffffffffffffffffffffffffffffffffffffffff\n      and\n      0xffffffffffffffffffffffffffffffffffffffff\n      and\n      dup2\n      mstore\n      0x20\n      add\n      swap1\n      dup2\n      mstore\n      0x20\n      add\n      0x00\n      keccak256\n      0x00\n        /* \"contracts/TrustFund.sol\":458:489  balances[msg.sender]+=msg.value */\n      dup3\n      dup3\n      sload\n      tag_56\n      swap2\n      swap1\n      tag_57\n      jump\t// in\n    tag_56:\n      swap3\n      pop\n      pop\n      dup2\n      swap1\n      sstore\n      pop\n        /* \"contracts/TrustFund.sol\":497:505  TrustLog */\n      0x03\n      0x00\n      swap1\n      sload\n      swap1\n      0x0100\n      exp\n      swap1\n      div\n      0xffffffffffffffffffffffffffffffffffffffff\n      and\n        /* \"contracts/TrustFund.sol\":497:517  TrustLog.LogTransfer */\n      0xffffffffffffffffffffffffffffffffffffffff\n      and\n      0x10176f86\n        /* \"contracts/TrustFund.sol\":518:528  msg.sender */\n      caller\n        /* \"contracts/TrustFund.sol\":529:538  msg.value */\n      callvalue\n        /* \"contracts/TrustFund.sol\":497:549  TrustLog.LogTransfer(msg.sender,msg.value,\"deposit\") */\n      mload(0x40)\n      dup4\n      0xffffffff\n      and\n      0xe0\n      shl\n      dup2\n      mstore\n      0x04\n      add\n      tag_58\n      swap3\n      swap2\n      swap1\n      tag_59\n      jump\t// in\n    tag_58:\n      0x00\n      mload(0x40)\n      dup1\n      dup4\n      sub\n      dup2\n      0x00\n      dup8\n      dup1\n      extcodesize\n      iszero\n      dup1\n      iszero\n      tag_60\n      jumpi\n      0x00\n      dup1\n      revert\n    tag_60:\n      pop\n      gas\n      call\n      iszero\n      dup1\n      iszero\n      tag_62\n      jumpi\n      returndatasize\n      0x00\n      dup1\n      returndatacopy\n      revert(0x00, returndatasize)\n    tag_62:\n      pop\n      pop\n      pop\n      pop\n        /* \"contracts/TrustFund.sol\":422:635  if (msg.value > minDeposit) {... */\n      jump(tag_63)\n    tag_55:\n        /* \"contracts/TrustFund.sol\":570:578  TrustLog */\n      0x03\n      0x00\n      swap1\n      sload\n      swap1\n      0x0100\n      exp\n      swap1\n      div\n      0xffffffffffffffffffffffffffffffffffffffff\n      and\n        /* \"contracts/TrustFund.sol\":570:590  TrustLog.LogTransfer */\n      0xffffffffffffffffffffffffffffffffffffffff\n      and\n      0x10176f86\n        /* \"contracts/TrustFund.sol\":591:601  msg.sender */\n      caller\n        /* \"contracts/TrustFund.sol\":602:611  msg.value */\n      callvalue\n        /* \"contracts/TrustFund.sol\":570:628  TrustLog.LogTransfer(msg.sender,msg.value,\"depositFailed\") */\n      mload(0x40)\n      dup4\n      0xffffffff\n      and\n      0xe0\n      shl\n      dup2\n      mstore\n      0x04\n      add\n      tag_64\n      swap3\n      swap2\n      swap1\n      tag_65\n      jump\t// in\n    tag_64:\n      0x00\n      mload(0x40)\n      dup1\n      dup4\n      sub\n      dup2\n      0x00\n      dup8\n      dup1\n      extcodesize\n      iszero\n      dup1\n      iszero\n      tag_66\n      jumpi\n      0x00\n      dup1\n      revert\n    tag_66:\n      pop\n      gas\n      call\n      iszero\n      dup1\n      iszero\n      tag_68\n      jumpi\n      returndatasize\n      0x00\n      dup1\n      returndatacopy\n      revert(0x00, returndatasize)\n    tag_68:\n      pop\n      pop\n      pop\n      pop\n        /* \"contracts/TrustFund.sol\":422:635  if (msg.value > minDeposit) {... */\n    tag_63:\n        /* \"contracts/TrustFund.sol\":367:639  function deposit() public payable returns (bool) {... */\n      swap1\n      jump\t// out\n        /* \"contracts/TrustFund.sol\":179:201  Logger public TrustLog */\n    tag_29:\n      0x03\n      0x00\n      swap1\n      sload\n      swap1\n      0x0100\n      exp\n      swap1\n      div\n      0xffffffffffffffffffffffffffffffffffffffff\n      and\n      dup2\n      jump\t// out\n        /* \"#utility.yul\":88:205   */\n    tag_70:\n        /* \"#utility.yul\":197:198   */\n      0x00\n        /* \"#utility.yul\":194:195   */\n      dup1\n        /* \"#utility.yul\":187:199   */\n      revert\n        /* \"#utility.yul\":334:411   */\n    tag_72:\n        /* \"#utility.yul\":371:378   */\n      0x00\n        /* \"#utility.yul\":400:405   */\n      dup2\n        /* \"#utility.yul\":389:405   */\n      swap1\n      pop\n        /* \"#utility.yul\":334:411   */\n      swap2\n      swap1\n      pop\n      jump\t// out\n        /* \"#utility.yul\":417:539   */\n    tag_73:\n        /* \"#utility.yul\":490:514   */\n      tag_107\n        /* \"#utility.yul\":508:513   */\n      dup2\n        /* \"#utility.yul\":490:514   */\n      tag_72\n      jump\t// in\n    tag_107:\n        /* \"#utility.yul\":483:488   */\n      dup2\n        /* \"#utility.yul\":480:515   */\n      eq\n        /* \"#utility.yul\":470:533   */\n      tag_108\n      jumpi\n        /* \"#utility.yul\":529:530   */\n      0x00\n        /* \"#utility.yul\":526:527   */\n      dup1\n        /* \"#utility.yul\":519:531   */\n      revert\n        /* \"#utility.yul\":470:533   */\n    tag_108:\n        /* \"#utility.yul\":417:539   */\n      pop\n      jump\t// out\n        /* \"#utility.yul\":545:684   */\n    tag_74:\n        /* \"#utility.yul\":591:596   */\n      0x00\n        /* \"#utility.yul\":629:635   */\n      dup2\n        /* \"#utility.yul\":616:636   */\n      calldataload\n        /* \"#utility.yul\":607:636   */\n      swap1\n      pop\n        /* \"#utility.yul\":645:678   */\n      tag_110\n        /* \"#utility.yul\":672:677   */\n      dup2\n        /* \"#utility.yul\":645:678   */\n      tag_73\n      jump\t// in\n    tag_110:\n        /* \"#utility.yul\":545:684   */\n      swap3\n      swap2\n      pop\n      pop\n      jump\t// out\n        /* \"#utility.yul\":690:1019   */\n    tag_10:\n        /* \"#utility.yul\":749:755   */\n      0x00\n        /* \"#utility.yul\":798:800   */\n      0x20\n        /* \"#utility.yul\":786:795   */\n      dup3\n        /* \"#utility.yul\":777:784   */\n      dup5\n        /* \"#utility.yul\":773:796   */\n      sub\n        /* \"#utility.yul\":769:801   */\n      slt\n        /* \"#utility.yul\":766:885   */\n      iszero\n      tag_112\n      jumpi\n        /* \"#utility.yul\":804:883   */\n      tag_113\n      tag_70\n      jump\t// in\n    tag_113:\n        /* \"#utility.yul\":766:885   */\n    tag_112:\n        /* \"#utility.yul\":924:925   */\n      0x00\n        /* \"#utility.yul\":949:1002   */\n      tag_114\n        /* \"#utility.yul\":994:1001   */\n      dup5\n        /* \"#utility.yul\":985:991   */\n      dup3\n        /* \"#utility.yul\":974:983   */\n      dup6\n        /* \"#utility.yul\":970:992   */\n      add\n        /* \"#utility.yul\":949:1002   */\n      tag_74\n      jump\t// in\n    tag_114:\n        /* \"#utility.yul\":939:1002   */\n      swap2\n      pop\n        /* \"#utility.yul\":895:1012   */\n      pop\n        /* \"#utility.yul\":690:1019   */\n      swap3\n      swap2\n      pop\n      pop\n      jump\t// out\n        /* \"#utility.yul\":1025:1143   */\n    tag_75:\n        /* \"#utility.yul\":1112:1136   */\n      tag_116\n        /* \"#utility.yul\":1130:1135   */\n      dup2\n        /* \"#utility.yul\":1112:1136   */\n      tag_72\n      jump\t// in\n    tag_116:\n        /* \"#utility.yul\":1107:1110   */\n      dup3\n        /* \"#utility.yul\":1100:1137   */\n      mstore\n        /* \"#utility.yul\":1025:1143   */\n      pop\n      pop\n      jump\t// out\n        /* \"#utility.yul\":1149:1371   */\n    tag_16:\n        /* \"#utility.yul\":1242:1246   */\n      0x00\n        /* \"#utility.yul\":1280:1282   */\n      0x20\n        /* \"#utility.yul\":1269:1278   */\n      dup3\n        /* \"#utility.yul\":1265:1283   */\n      add\n        /* \"#utility.yul\":1257:1283   */\n      swap1\n      pop\n        /* \"#utility.yul\":1293:1364   */\n      tag_118\n        /* \"#utility.yul\":1361:1362   */\n      0x00\n        /* \"#utility.yul\":1350:1359   */\n      dup4\n        /* \"#utility.yul\":1346:1363   */\n      add\n        /* \"#utility.yul\":1337:1343   */\n      dup5\n        /* \"#utility.yul\":1293:1364   */\n      tag_75\n      jump\t// in\n    tag_118:\n        /* \"#utility.yul\":1149:1371   */\n      swap3\n      swap2\n      pop\n      pop\n      jump\t// out\n        /* \"#utility.yul\":1377:1503   */\n    tag_76:\n        /* \"#utility.yul\":1414:1421   */\n      0x00\n        /* \"#utility.yul\":1454:1496   */\n      0xffffffffffffffffffffffffffffffffffffffff\n        /* \"#utility.yul\":1447:1452   */\n      dup3\n        /* \"#utility.yul\":1443:1497   */\n      and\n        /* \"#utility.yul\":1432:1497   */\n      swap1\n      pop\n        /* \"#utility.yul\":1377:1503   */\n      swap2\n      swap1\n      pop\n      jump\t// out\n        /* \"#utility.yul\":1509:1605   */\n    tag_77:\n        /* \"#utility.yul\":1546:1553   */\n      0x00\n        /* \"#utility.yul\":1575:1599   */\n      tag_121\n        /* \"#utility.yul\":1593:1598   */\n      dup3\n        /* \"#utility.yul\":1575:1599   */\n      tag_76\n      jump\t// in\n    tag_121:\n        /* \"#utility.yul\":1564:1599   */\n      swap1\n      pop\n        /* \"#utility.yul\":1509:1605   */\n      swap2\n      swap1\n      pop\n      jump\t// out\n        /* \"#utility.yul\":1611:1733   */\n    tag_78:\n        /* \"#utility.yul\":1684:1708   */\n      tag_123\n        /* \"#utility.yul\":1702:1707   */\n      dup2\n        /* \"#utility.yul\":1684:1708   */\n      tag_77\n      jump\t// in\n    tag_123:\n        /* \"#utility.yul\":1677:1682   */\n      dup2\n        /* \"#utility.yul\":1674:1709   */\n      eq\n        /* \"#utility.yul\":1664:1727   */\n      tag_124\n      jumpi\n        /* \"#utility.yul\":1723:1724   */\n      0x00\n        /* \"#utility.yul\":1720:1721   */\n      dup1\n        /* \"#utility.yul\":1713:1725   */\n      revert\n        /* \"#utility.yul\":1664:1727   */\n    tag_124:\n        /* \"#utility.yul\":1611:1733   */\n      pop\n      jump\t// out\n        /* \"#utility.yul\":1739:1878   */\n    tag_79:\n        /* \"#utility.yul\":1785:1790   */\n      0x00\n        /* \"#utility.yul\":1823:1829   */\n      dup2\n        /* \"#utility.yul\":1810:1830   */\n      calldataload\n        /* \"#utility.yul\":1801:1830   */\n      swap1\n      pop\n        /* \"#utility.yul\":1839:1872   */\n      tag_126\n        /* \"#utility.yul\":1866:1871   */\n      dup2\n        /* \"#utility.yul\":1839:1872   */\n      tag_78\n      jump\t// in\n    tag_126:\n        /* \"#utility.yul\":1739:1878   */\n      swap3\n      swap2\n      pop\n      pop\n      jump\t// out\n        /* \"#utility.yul\":1884:2213   */\n    tag_20:\n        /* \"#utility.yul\":1943:1949   */\n      0x00\n        /* \"#utility.yul\":1992:1994   */\n      0x20\n        /* \"#utility.yul\":1980:1989   */\n      dup3\n        /* \"#utility.yul\":1971:1978   */\n      dup5\n        /* \"#utility.yul\":1967:1990   */\n      sub\n        /* \"#utility.yul\":1963:1995   */\n      slt\n        /* \"#utility.yul\":1960:2079   */\n      iszero\n      tag_128\n      jumpi\n        /* \"#utility.yul\":1998:2077   */\n      tag_129\n      tag_70\n      jump\t// in\n    tag_129:\n        /* \"#utility.yul\":1960:2079   */\n    tag_128:\n        /* \"#utility.yul\":2118:2119   */\n      0x00\n        /* \"#utility.yul\":2143:2196   */\n      tag_130\n        /* \"#utility.yul\":2188:2195   */\n      dup5\n        /* \"#utility.yul\":2179:2185   */\n      dup3\n        /* \"#utility.yul\":2168:2177   */\n      dup6\n        /* \"#utility.yul\":2164:2186   */\n      add\n        /* \"#utility.yul\":2143:2196   */\n      tag_79\n      jump\t// in\n    tag_130:\n        /* \"#utility.yul\":2133:2196   */\n      swap2\n      pop\n        /* \"#utility.yul\":2089:2206   */\n      pop\n        /* \"#utility.yul\":1884:2213   */\n      swap3\n      swap2\n      pop\n      pop\n      jump\t// out\n        /* \"#utility.yul\":2219:2309   */\n    tag_80:\n        /* \"#utility.yul\":2253:2260   */\n      0x00\n        /* \"#utility.yul\":2296:2301   */\n      dup2\n        /* \"#utility.yul\":2289:2302   */\n      iszero\n        /* \"#utility.yul\":2282:2303   */\n      iszero\n        /* \"#utility.yul\":2271:2303   */\n      swap1\n      pop\n        /* \"#utility.yul\":2219:2309   */\n      swap2\n      swap1\n      pop\n      jump\t// out\n        /* \"#utility.yul\":2315:2424   */\n    tag_81:\n        /* \"#utility.yul\":2396:2417   */\n      tag_133\n        /* \"#utility.yul\":2411:2416   */\n      dup2\n        /* \"#utility.yul\":2396:2417   */\n      tag_80\n      jump\t// in\n    tag_133:\n        /* \"#utility.yul\":2391:2394   */\n      dup3\n        /* \"#utility.yul\":2384:2418   */\n      mstore\n        /* \"#utility.yul\":2315:2424   */\n      pop\n      pop\n      jump\t// out\n        /* \"#utility.yul\":2430:2640   */\n    tag_26:\n        /* \"#utility.yul\":2517:2521   */\n      0x00\n        /* \"#utility.yul\":2555:2557   */\n      0x20\n        /* \"#utility.yul\":2544:2553   */\n      dup3\n        /* \"#utility.yul\":2540:2558   */\n      add\n        /* \"#utility.yul\":2532:2558   */\n      swap1\n      pop\n        /* \"#utility.yul\":2568:2633   */\n      tag_135\n        /* \"#utility.yul\":2630:2631   */\n      0x00\n        /* \"#utility.yul\":2619:2628   */\n      dup4\n        /* \"#utility.yul\":2615:2632   */\n      add\n        /* \"#utility.yul\":2606:2612   */\n      dup5\n        /* \"#utility.yul\":2568:2633   */\n      tag_81\n      jump\t// in\n    tag_135:\n        /* \"#utility.yul\":2430:2640   */\n      swap3\n      swap2\n      pop\n      pop\n      jump\t// out\n        /* \"#utility.yul\":2646:2706   */\n    tag_82:\n        /* \"#utility.yul\":2674:2677   */\n      0x00\n        /* \"#utility.yul\":2695:2700   */\n      dup2\n        /* \"#utility.yul\":2688:2700   */\n      swap1\n      pop\n        /* \"#utility.yul\":2646:2706   */\n      swap2\n      swap1\n      pop\n      jump\t// out\n        /* \"#utility.yul\":2712:2854   */\n    tag_83:\n        /* \"#utility.yul\":2762:2771   */\n      0x00\n        /* \"#utility.yul\":2795:2848   */\n      tag_138\n        /* \"#utility.yul\":2813:2847   */\n      tag_139\n        /* \"#utility.yul\":2822:2846   */\n      tag_140\n        /* \"#utility.yul\":2840:2845   */\n      dup5\n        /* \"#utility.yul\":2822:2846   */\n      tag_76\n      jump\t// in\n    tag_140:\n        /* \"#utility.yul\":2813:2847   */\n      tag_82\n      jump\t// in\n    tag_139:\n        /* \"#utility.yul\":2795:2848   */\n      tag_76\n      jump\t// in\n    tag_138:\n        /* \"#utility.yul\":2782:2848   */\n      swap1\n      pop\n        /* \"#utility.yul\":2712:2854   */\n      swap2\n      swap1\n      pop\n      jump\t// out\n        /* \"#utility.yul\":2860:2986   */\n    tag_84:\n        /* \"#utility.yul\":2910:2919   */\n      0x00\n        /* \"#utility.yul\":2943:2980   */\n      tag_142\n        /* \"#utility.yul\":2974:2979   */\n      dup3\n        /* \"#utility.yul\":2943:2980   */\n      tag_83\n      jump\t// in\n    tag_142:\n        /* \"#utility.yul\":2930:2980   */\n      swap1\n      pop\n        /* \"#utility.yul\":2860:2986   */\n      swap2\n      swap1\n      pop\n      jump\t// out\n        /* \"#utility.yul\":2992:3132   */\n    tag_85:\n        /* \"#utility.yul\":3056:3065   */\n      0x00\n        /* \"#utility.yul\":3089:3126   */\n      tag_144\n        /* \"#utility.yul\":3120:3125   */\n      dup3\n        /* \"#utility.yul\":3089:3126   */\n      tag_84\n      jump\t// in\n    tag_144:\n        /* \"#utility.yul\":3076:3126   */\n      swap1\n      pop\n        /* \"#utility.yul\":2992:3132   */\n      swap2\n      swap1\n      pop\n      jump\t// out\n        /* \"#utility.yul\":3138:3297   */\n    tag_86:\n        /* \"#utility.yul\":3239:3290   */\n      tag_146\n        /* \"#utility.yul\":3284:3289   */\n      dup2\n        /* \"#utility.yul\":3239:3290   */\n      tag_85\n      jump\t// in\n    tag_146:\n        /* \"#utility.yul\":3234:3237   */\n      dup3\n        /* \"#utility.yul\":3227:3291   */\n      mstore\n        /* \"#utility.yul\":3138:3297   */\n      pop\n      pop\n      jump\t// out\n        /* \"#utility.yul\":3303:3553   */\n    tag_31:\n        /* \"#utility.yul\":3410:3414   */\n      0x00\n        /* \"#utility.yul\":3448:3450   */\n      0x20\n        /* \"#utility.yul\":3437:3446   */\n      dup3\n        /* \"#utility.yul\":3433:3451   */\n      add\n        /* \"#utility.yul\":3425:3451   */\n      swap1\n      pop\n        /* \"#utility.yul\":3461:3546   */\n      tag_148\n        /* \"#utility.yul\":3543:3544   */\n      0x00\n        /* \"#utility.yul\":3532:3541   */\n      dup4\n        /* \"#utility.yul\":3528:3545   */\n      add\n        /* \"#utility.yul\":3519:3525   */\n      dup5\n        /* \"#utility.yul\":3461:3546   */\n      tag_86\n      jump\t// in\n    tag_148:\n        /* \"#utility.yul\":3303:3553   */\n      swap3\n      swap2\n      pop\n      pop\n      jump\t// out\n        /* \"#utility.yul\":3559:3706   */\n    tag_87:\n        /* \"#utility.yul\":3660:3671   */\n      0x00\n        /* \"#utility.yul\":3697:3700   */\n      dup2\n        /* \"#utility.yul\":3682:3700   */\n      swap1\n      pop\n        /* \"#utility.yul\":3559:3706   */\n      swap3\n      swap2\n      pop\n      pop\n      jump\t// out\n        /* \"#utility.yul\":3712:3826   */\n    tag_88:\n      pop\n      jump\t// out\n        /* \"#utility.yul\":3832:4230   */\n    tag_89:\n        /* \"#utility.yul\":3991:3994   */\n      0x00\n        /* \"#utility.yul\":4012:4095   */\n      tag_152\n        /* \"#utility.yul\":4093:4094   */\n      0x00\n        /* \"#utility.yul\":4088:4091   */\n      dup4\n        /* \"#utility.yul\":4012:4095   */\n      tag_87\n      jump\t// in\n    tag_152:\n        /* \"#utility.yul\":4005:4095   */\n      swap2\n      pop\n        /* \"#utility.yul\":4104:4197   */\n      tag_153\n        /* \"#utility.yul\":4193:4196   */\n      dup3\n        /* \"#utility.yul\":4104:4197   */\n      tag_88\n      jump\t// in\n    tag_153:\n        /* \"#utility.yul\":4222:4223   */\n      0x00\n        /* \"#utility.yul\":4217:4220   */\n      dup3\n        /* \"#utility.yul\":4213:4224   */\n      add\n        /* \"#utility.yul\":4206:4224   */\n      swap1\n      pop\n        /* \"#utility.yul\":3832:4230   */\n      swap2\n      swap1\n      pop\n      jump\t// out\n        /* \"#utility.yul\":4236:4615   */\n    tag_35:\n        /* \"#utility.yul\":4420:4423   */\n      0x00\n        /* \"#utility.yul\":4442:4589   */\n      tag_155\n        /* \"#utility.yul\":4585:4588   */\n      dup3\n        /* \"#utility.yul\":4442:4589   */\n      tag_89\n      jump\t// in\n    tag_155:\n        /* \"#utility.yul\":4435:4589   */\n      swap2\n      pop\n        /* \"#utility.yul\":4606:4609   */\n      dup2\n        /* \"#utility.yul\":4599:4609   */\n      swap1\n      pop\n        /* \"#utility.yul\":4236:4615   */\n      swap2\n      swap1\n      pop\n      jump\t// out\n        /* \"#utility.yul\":4621:4801   */\n    tag_90:\n        /* \"#utility.yul\":4669:4746   */\n      0x4e487b7100000000000000000000000000000000000000000000000000000000\n        /* \"#utility.yul\":4666:4667   */\n      0x00\n        /* \"#utility.yul\":4659:4747   */\n      mstore\n        /* \"#utility.yul\":4766:4770   */\n      0x11\n        /* \"#utility.yul\":4763:4764   */\n      0x04\n        /* \"#utility.yul\":4756:4771   */\n      mstore\n        /* \"#utility.yul\":4790:4794   */\n      0x24\n        /* \"#utility.yul\":4787:4788   */\n      0x00\n        /* \"#utility.yul\":4780:4795   */\n      revert\n        /* \"#utility.yul\":4807:5001   */\n    tag_41:\n        /* \"#utility.yul\":4847:4851   */\n      0x00\n        /* \"#utility.yul\":4867:4887   */\n      tag_158\n        /* \"#utility.yul\":4885:4886   */\n      dup3\n        /* \"#utility.yul\":4867:4887   */\n      tag_72\n      jump\t// in\n    tag_158:\n        /* \"#utility.yul\":4862:4887   */\n      swap2\n      pop\n        /* \"#utility.yul\":4901:4921   */\n      tag_159\n        /* \"#utility.yul\":4919:4920   */\n      dup4\n        /* \"#utility.yul\":4901:4921   */\n      tag_72\n      jump\t// in\n    tag_159:\n        /* \"#utility.yul\":4896:4921   */\n      swap3\n      pop\n        /* \"#utility.yul\":4945:4946   */\n      dup3\n        /* \"#utility.yul\":4942:4943   */\n      dup3\n        /* \"#utility.yul\":4938:4947   */\n      sub\n        /* \"#utility.yul\":4930:4947   */\n      swap1\n      pop\n        /* \"#utility.yul\":4969:4970   */\n      dup2\n        /* \"#utility.yul\":4963:4967   */\n      dup2\n        /* \"#utility.yul\":4960:4971   */\n      gt\n        /* \"#utility.yul\":4957:4994   */\n      iszero\n      tag_160\n      jumpi\n        /* \"#utility.yul\":4974:4992   */\n      tag_161\n      tag_90\n      jump\t// in\n    tag_161:\n        /* \"#utility.yul\":4957:4994   */\n    tag_160:\n        /* \"#utility.yul\":4807:5001   */\n      swap3\n      swap2\n      pop\n      pop\n      jump\t// out\n        /* \"#utility.yul\":5007:5125   */\n    tag_91:\n        /* \"#utility.yul\":5094:5118   */\n      tag_163\n        /* \"#utility.yul\":5112:5117   */\n      dup2\n        /* \"#utility.yul\":5094:5118   */\n      tag_77\n      jump\t// in\n    tag_163:\n        /* \"#utility.yul\":5089:5092   */\n      dup3\n        /* \"#utility.yul\":5082:5119   */\n      mstore\n        /* \"#utility.yul\":5007:5125   */\n      pop\n      pop\n      jump\t// out\n        /* \"#utility.yul\":5131:5300   */\n    tag_92:\n        /* \"#utility.yul\":5215:5226   */\n      0x00\n        /* \"#utility.yul\":5249:5255   */\n      dup3\n        /* \"#utility.yul\":5244:5247   */\n      dup3\n        /* \"#utility.yul\":5237:5256   */\n      mstore\n        /* \"#utility.yul\":5289:5293   */\n      0x20\n        /* \"#utility.yul\":5284:5287   */\n      dup3\n        /* \"#utility.yul\":5280:5294   */\n      add\n        /* \"#utility.yul\":5265:5294   */\n      swap1\n      pop\n        /* \"#utility.yul\":5131:5300   */\n      swap3\n      swap2\n      pop\n      pop\n      jump\t// out\n        /* \"#utility.yul\":5306:5464   */\n    tag_93:\n        /* \"#utility.yul\":5446:5456   */\n      0x7769746864726177000000000000000000000000000000000000000000000000\n        /* \"#utility.yul\":5442:5443   */\n      0x00\n        /* \"#utility.yul\":5434:5440   */\n      dup3\n        /* \"#utility.yul\":5430:5444   */\n      add\n        /* \"#utility.yul\":5423:5457   */\n      mstore\n        /* \"#utility.yul\":5306:5464   */\n      pop\n      jump\t// out\n        /* \"#utility.yul\":5470:5835   */\n    tag_94:\n        /* \"#utility.yul\":5612:5615   */\n      0x00\n        /* \"#utility.yul\":5633:5699   */\n      tag_167\n        /* \"#utility.yul\":5697:5698   */\n      0x08\n        /* \"#utility.yul\":5692:5695   */\n      dup4\n        /* \"#utility.yul\":5633:5699   */\n      tag_92\n      jump\t// in\n    tag_167:\n        /* \"#utility.yul\":5626:5699   */\n      swap2\n      pop\n        /* \"#utility.yul\":5708:5801   */\n      tag_168\n        /* \"#utility.yul\":5797:5800   */\n      dup3\n        /* \"#utility.yul\":5708:5801   */\n      tag_93\n      jump\t// in\n    tag_168:\n        /* \"#utility.yul\":5826:5828   */\n      0x20\n        /* \"#utility.yul\":5821:5824   */\n      dup3\n        /* \"#utility.yul\":5817:5829   */\n      add\n        /* \"#utility.yul\":5810:5829   */\n      swap1\n      pop\n        /* \"#utility.yul\":5470:5835   */\n      swap2\n      swap1\n      pop\n      jump\t// out\n        /* \"#utility.yul\":5841:6480   */\n    tag_43:\n        /* \"#utility.yul\":6063:6067   */\n      0x00\n        /* \"#utility.yul\":6101:6103   */\n      0x60\n        /* \"#utility.yul\":6090:6099   */\n      dup3\n        /* \"#utility.yul\":6086:6104   */\n      add\n        /* \"#utility.yul\":6078:6104   */\n      swap1\n      pop\n        /* \"#utility.yul\":6114:6185   */\n      tag_170\n        /* \"#utility.yul\":6182:6183   */\n      0x00\n        /* \"#utility.yul\":6171:6180   */\n      dup4\n        /* \"#utility.yul\":6167:6184   */\n      add\n        /* \"#utility.yul\":6158:6164   */\n      dup6\n        /* \"#utility.yul\":6114:6185   */\n      tag_91\n      jump\t// in\n    tag_170:\n        /* \"#utility.yul\":6195:6267   */\n      tag_171\n        /* \"#utility.yul\":6263:6265   */\n      0x20\n        /* \"#utility.yul\":6252:6261   */\n      dup4\n        /* \"#utility.yul\":6248:6266   */\n      add\n        /* \"#utility.yul\":6239:6245   */\n      dup5\n        /* \"#utility.yul\":6195:6267   */\n      tag_75\n      jump\t// in\n    tag_171:\n        /* \"#utility.yul\":6314:6323   */\n      dup2\n        /* \"#utility.yul\":6308:6312   */\n      dup2\n        /* \"#utility.yul\":6304:6324   */\n      sub\n        /* \"#utility.yul\":6299:6301   */\n      0x40\n        /* \"#utility.yul\":6288:6297   */\n      dup4\n        /* \"#utility.yul\":6284:6302   */\n      add\n        /* \"#utility.yul\":6277:6325   */\n      mstore\n        /* \"#utility.yul\":6342:6473   */\n      tag_172\n        /* \"#utility.yul\":6468:6472   */\n      dup2\n        /* \"#utility.yul\":6342:6473   */\n      tag_94\n      jump\t// in\n    tag_172:\n        /* \"#utility.yul\":6334:6473   */\n      swap1\n      pop\n        /* \"#utility.yul\":5841:6480   */\n      swap4\n      swap3\n      pop\n      pop\n      pop\n      jump\t// out\n        /* \"#utility.yul\":6486:6650   */\n    tag_95:\n        /* \"#utility.yul\":6626:6642   */\n      0x77697468647261774661696c6564000000000000000000000000000000000000\n        /* \"#utility.yul\":6622:6623   */\n      0x00\n        /* \"#utility.yul\":6614:6620   */\n      dup3\n        /* \"#utility.yul\":6610:6624   */\n      add\n        /* \"#utility.yul\":6603:6643   */\n      mstore\n        /* \"#utility.yul\":6486:6650   */\n      pop\n      jump\t// out\n        /* \"#utility.yul\":6656:7022   */\n    tag_96:\n        /* \"#utility.yul\":6798:6801   */\n      0x00\n        /* \"#utility.yul\":6819:6886   */\n      tag_175\n        /* \"#utility.yul\":6883:6885   */\n      0x0e\n        /* \"#utility.yul\":6878:6881   */\n      dup4\n        /* \"#utility.yul\":6819:6886   */\n      tag_92\n      jump\t// in\n    tag_175:\n        /* \"#utility.yul\":6812:6886   */\n      swap2\n      pop\n        /* \"#utility.yul\":6895:6988   */\n      tag_176\n        /* \"#utility.yul\":6984:6987   */\n      dup3\n        /* \"#utility.yul\":6895:6988   */\n      tag_95\n      jump\t// in\n    tag_176:\n        /* \"#utility.yul\":7013:7015   */\n      0x20\n        /* \"#utility.yul\":7008:7011   */\n      dup3\n        /* \"#utility.yul\":7004:7016   */\n      add\n        /* \"#utility.yul\":6997:7016   */\n      swap1\n      pop\n        /* \"#utility.yul\":6656:7022   */\n      swap2\n      swap1\n      pop\n      jump\t// out\n        /* \"#utility.yul\":7028:7667   */\n    tag_49:\n        /* \"#utility.yul\":7250:7254   */\n      0x00\n        /* \"#utility.yul\":7288:7290   */\n      0x60\n        /* \"#utility.yul\":7277:7286   */\n      dup3\n        /* \"#utility.yul\":7273:7291   */\n      add\n        /* \"#utility.yul\":7265:7291   */\n      swap1\n      pop\n        /* \"#utility.yul\":7301:7372   */\n      tag_178\n        /* \"#utility.yul\":7369:7370   */\n      0x00\n        /* \"#utility.yul\":7358:7367   */\n      dup4\n        /* \"#utility.yul\":7354:7371   */\n      add\n        /* \"#utility.yul\":7345:7351   */\n      dup6\n        /* \"#utility.yul\":7301:7372   */\n      tag_91\n      jump\t// in\n    tag_178:\n        /* \"#utility.yul\":7382:7454   */\n      tag_179\n        /* \"#utility.yul\":7450:7452   */\n      0x20\n        /* \"#utility.yul\":7439:7448   */\n      dup4\n        /* \"#utility.yul\":7435:7453   */\n      add\n        /* \"#utility.yul\":7426:7432   */\n      dup5\n        /* \"#utility.yul\":7382:7454   */\n      tag_75\n      jump\t// in\n    tag_179:\n        /* \"#utility.yul\":7501:7510   */\n      dup2\n        /* \"#utility.yul\":7495:7499   */\n      dup2\n        /* \"#utility.yul\":7491:7511   */\n      sub\n        /* \"#utility.yul\":7486:7488   */\n      0x40\n        /* \"#utility.yul\":7475:7484   */\n      dup4\n        /* \"#utility.yul\":7471:7489   */\n      add\n        /* \"#utility.yul\":7464:7512   */\n      mstore\n        /* \"#utility.yul\":7529:7660   */\n      tag_180\n        /* \"#utility.yul\":7655:7659   */\n      dup2\n        /* \"#utility.yul\":7529:7660   */\n      tag_96\n      jump\t// in\n    tag_180:\n        /* \"#utility.yul\":7521:7660   */\n      swap1\n      pop\n        /* \"#utility.yul\":7028:7667   */\n      swap4\n      swap3\n      pop\n      pop\n      pop\n      jump\t// out\n        /* \"#utility.yul\":7673:7864   */\n    tag_57:\n        /* \"#utility.yul\":7713:7716   */\n      0x00\n        /* \"#utility.yul\":7732:7752   */\n      tag_182\n        /* \"#utility.yul\":7750:7751   */\n      dup3\n        /* \"#utility.yul\":7732:7752   */\n      tag_72\n      jump\t// in\n    tag_182:\n        /* \"#utility.yul\":7727:7752   */\n      swap2\n      pop\n        /* \"#utility.yul\":7766:7786   */\n      tag_183\n        /* \"#utility.yul\":7784:7785   */\n      dup4\n        /* \"#utility.yul\":7766:7786   */\n      tag_72\n      jump\t// in\n    tag_183:\n        /* \"#utility.yul\":7761:7786   */\n      swap3\n      pop\n        /* \"#utility.yul\":7809:7810   */\n      dup3\n        /* \"#utility.yul\":7806:7807   */\n      dup3\n        /* \"#utility.yul\":7802:7811   */\n      add\n        /* \"#utility.yul\":7795:7811   */\n      swap1\n      pop\n        /* \"#utility.yul\":7830:7833   */\n      dup1\n        /* \"#utility.yul\":7827:7828   */\n      dup3\n        /* \"#utility.yul\":7824:7834   */\n      gt\n        /* \"#utility.yul\":7821:7857   */\n      iszero\n      tag_184\n      jumpi\n        /* \"#utility.yul\":7837:7855   */\n      tag_185\n      tag_90\n      jump\t// in\n    tag_185:\n        /* \"#utility.yul\":7821:7857   */\n    tag_184:\n        /* \"#utility.yul\":7673:7864   */\n      swap3\n      swap2\n      pop\n      pop\n      jump\t// out\n        /* \"#utility.yul\":7870:8027   */\n    tag_97:\n        /* \"#utility.yul\":8010:8019   */\n      0x6465706f73697400000000000000000000000000000000000000000000000000\n        /* \"#utility.yul\":8006:8007   */\n      0x00\n        /* \"#utility.yul\":7998:8004   */\n      dup3\n        /* \"#utility.yul\":7994:8008   */\n      add\n        /* \"#utility.yul\":7987:8020   */\n      mstore\n        /* \"#utility.yul\":7870:8027   */\n      pop\n      jump\t// out\n        /* \"#utility.yul\":8033:8398   */\n    tag_98:\n        /* \"#utility.yul\":8175:8178   */\n      0x00\n        /* \"#utility.yul\":8196:8262   */\n      tag_188\n        /* \"#utility.yul\":8260:8261   */\n      0x07\n        /* \"#utility.yul\":8255:8258   */\n      dup4\n        /* \"#utility.yul\":8196:8262   */\n      tag_92\n      jump\t// in\n    tag_188:\n        /* \"#utility.yul\":8189:8262   */\n      swap2\n      pop\n        /* \"#utility.yul\":8271:8364   */\n      tag_189\n        /* \"#utility.yul\":8360:8363   */\n      dup3\n        /* \"#utility.yul\":8271:8364   */\n      tag_97\n      jump\t// in\n    tag_189:\n        /* \"#utility.yul\":8389:8391   */\n      0x20\n        /* \"#utility.yul\":8384:8387   */\n      dup3\n        /* \"#utility.yul\":8380:8392   */\n      add\n        /* \"#utility.yul\":8373:8392   */\n      swap1\n      pop\n        /* \"#utility.yul\":8033:8398   */\n      swap2\n      swap1\n      pop\n      jump\t// out\n        /* \"#utility.yul\":8404:9043   */\n    tag_59:\n        /* \"#utility.yul\":8626:8630   */\n      0x00\n        /* \"#utility.yul\":8664:8666   */\n      0x60\n        /* \"#utility.yul\":8653:8662   */\n      dup3\n        /* \"#utility.yul\":8649:8667   */\n      add\n        /* \"#utility.yul\":8641:8667   */\n      swap1\n      pop\n        /* \"#utility.yul\":8677:8748   */\n      tag_191\n        /* \"#utility.yul\":8745:8746   */\n      0x00\n        /* \"#utility.yul\":8734:8743   */\n      dup4\n        /* \"#utility.yul\":8730:8747   */\n      add\n        /* \"#utility.yul\":8721:8727   */\n      dup6\n        /* \"#utility.yul\":8677:8748   */\n      tag_91\n      jump\t// in\n    tag_191:\n        /* \"#utility.yul\":8758:8830   */\n      tag_192\n        /* \"#utility.yul\":8826:8828   */\n      0x20\n        /* \"#utility.yul\":8815:8824   */\n      dup4\n        /* \"#utility.yul\":8811:8829   */\n      add\n        /* \"#utility.yul\":8802:8808   */\n      dup5\n        /* \"#utility.yul\":8758:8830   */\n      tag_75\n      jump\t// in\n    tag_192:\n        /* \"#utility.yul\":8877:8886   */\n      dup2\n        /* \"#utility.yul\":8871:8875   */\n      dup2\n        /* \"#utility.yul\":8867:8887   */\n      sub\n        /* \"#utility.yul\":8862:8864   */\n      0x40\n        /* \"#utility.yul\":8851:8860   */\n      dup4\n        /* \"#utility.yul\":8847:8865   */\n      add\n        /* \"#utility.yul\":8840:8888   */\n      mstore\n        /* \"#utility.yul\":8905:9036   */\n      tag_193\n        /* \"#utility.yul\":9031:9035   */\n      dup2\n        /* \"#utility.yul\":8905:9036   */\n      tag_98\n      jump\t// in\n    tag_193:\n        /* \"#utility.yul\":8897:9036   */\n      swap1\n      pop\n        /* \"#utility.yul\":8404:9043   */\n      swap4\n      swap3\n      pop\n      pop\n      pop\n      jump\t// out\n        /* \"#utility.yul\":9049:9212   */\n    tag_99:\n        /* \"#utility.yul\":9189:9204   */\n      0x6465706f7369744661696c656400000000000000000000000000000000000000\n        /* \"#utility.yul\":9185:9186   */\n      0x00\n        /* \"#utility.yul\":9177:9183   */\n      dup3\n        /* \"#utility.yul\":9173:9187   */\n      add\n        /* \"#utility.yul\":9166:9205   */\n      mstore\n        /* \"#utility.yul\":9049:9212   */\n      pop\n      jump\t// out\n        /* \"#utility.yul\":9218:9584   */\n    tag_100:\n        /* \"#utility.yul\":9360:9363   */\n      0x00\n        /* \"#utility.yul\":9381:9448   */\n      tag_196\n        /* \"#utility.yul\":9445:9447   */\n      0x0d\n        /* \"#utility.yul\":9440:9443   */\n      dup4\n        /* \"#utility.yul\":9381:9448   */\n      tag_92\n      jump\t// in\n    tag_196:\n        /* \"#utility.yul\":9374:9448   */\n      swap2\n      pop\n        /* \"#utility.yul\":9457:9550   */\n      tag_197\n        /* \"#utility.yul\":9546:9549   */\n      dup3\n        /* \"#utility.yul\":9457:9550   */\n      tag_99\n      jump\t// in\n    tag_197:\n        /* \"#utility.yul\":9575:9577   */\n      0x20\n        /* \"#utility.yul\":9570:9573   */\n      dup3\n        /* \"#utility.yul\":9566:9578   */\n      add\n        /* \"#utility.yul\":9559:9578   */\n      swap1\n      pop\n        /* \"#utility.yul\":9218:9584   */\n      swap2\n      swap1\n      pop\n      jump\t// out\n        /* \"#utility.yul\":9590:10229   */\n    tag_65:\n        /* \"#utility.yul\":9812:9816   */\n      0x00\n        /* \"#utility.yul\":9850:9852   */\n      0x60\n        /* \"#utility.yul\":9839:9848   */\n      dup3\n        /* \"#utility.yul\":9835:9853   */\n      add\n        /* \"#utility.yul\":9827:9853   */\n      swap1\n      pop\n        /* \"#utility.yul\":9863:9934   */\n      tag_199\n        /* \"#utility.yul\":9931:9932   */\n      0x00\n        /* \"#utility.yul\":9920:9929   */\n      dup4\n        /* \"#utility.yul\":9916:9933   */\n      add\n        /* \"#utility.yul\":9907:9913   */\n      dup6\n        /* \"#utility.yul\":9863:9934   */\n      tag_91\n      jump\t// in\n    tag_199:\n        /* \"#utility.yul\":9944:10016   */\n      tag_200\n        /* \"#utility.yul\":10012:10014   */\n      0x20\n        /* \"#utility.yul\":10001:10010   */\n      dup4\n        /* \"#utility.yul\":9997:10015   */\n      add\n        /* \"#utility.yul\":9988:9994   */\n      dup5\n        /* \"#utility.yul\":9944:10016   */\n      tag_75\n      jump\t// in\n    tag_200:\n        /* \"#utility.yul\":10063:10072   */\n      dup2\n        /* \"#utility.yul\":10057:10061   */\n      dup2\n        /* \"#utility.yul\":10053:10073   */\n      sub\n        /* \"#utility.yul\":10048:10050   */\n      0x40\n        /* \"#utility.yul\":10037:10046   */\n      dup4\n        /* \"#utility.yul\":10033:10051   */\n      add\n        /* \"#utility.yul\":10026:10074   */\n      mstore\n        /* \"#utility.yul\":10091:10222   */\n      tag_201\n        /* \"#utility.yul\":10217:10221   */\n      dup2\n        /* \"#utility.yul\":10091:10222   */\n      tag_100\n      jump\t// in\n    tag_201:\n        /* \"#utility.yul\":10083:10222   */\n      swap1\n      pop\n        /* \"#utility.yul\":9590:10229   */\n      swap4\n      swap3\n      pop\n      pop\n      pop\n      jump\t// out\n\n    auxdata: 0xa2646970667358221220870da53ef86afb83ec7c7e2284a7e4595e66de7880f9fffba1e26ad93b0f18a964736f6c63430008120033\n}\n",
				"bytecode": {
					"linkReferences": {},
					"object": "6080604052604051610c1a380380610c1a8339818101604052810190610025919061014d565b336000806101000a81548173ffffffffffffffffffffffffffffffffffffffff021916908373ffffffffffffffffffffffffffffffffffffffff1602179055508160018190555080600360006101000a81548173ffffffffffffffffffffffffffffffffffffffff021916908373ffffffffffffffffffffffffffffffffffffffff160217905550505061018d565b600080fd5b6000819050919050565b6100cc816100b9565b81146100d757600080fd5b50565b6000815190506100e9816100c3565b92915050565b600073ffffffffffffffffffffffffffffffffffffffff82169050919050565b600061011a826100ef565b9050919050565b61012a8161010f565b811461013557600080fd5b50565b60008151905061014781610121565b92915050565b60008060408385031215610164576101636100b4565b5b6000610172858286016100da565b925050602061018385828601610138565b9150509250929050565b610a7e8061019c6000396000f3fe60806040526004361061004a5760003560e01c80632e1a7d4d1461004f57806341b3d185146100785780635f515226146100a3578063d0e30db0146100e0578063df6803d3146100fe575b600080fd5b34801561005b57600080fd5b5061007660048036038101906100719190610599565b610129565b005b34801561008457600080fd5b5061008d610360565b60405161009a91906105d5565b60405180910390f35b3480156100af57600080fd5b506100ca60048036038101906100c5919061064e565b610366565b6040516100d791906105d5565b60405180910390f35b6100e86103af565b6040516100f59190610696565b60405180910390f35b34801561010a57600080fd5b50610113610538565b6040516101209190610710565b60405180910390f35b600260003373ffffffffffffffffffffffffffffffffffffffff1673ffffffffffffffffffffffffffffffffffffffff16815260200190815260200160002054811161035d5760003373ffffffffffffffffffffffffffffffffffffffff16826040516101959061075c565b60006040518083038185875af1925050503d80600081146101d2576040519150601f19603f3d011682016040523d82523d6000602084013e6101d7565b606091505b5050905080156102cb5781600260003373ffffffffffffffffffffffffffffffffffffffff1673ffffffffffffffffffffffffffffffffffffffff168152602001908152602001600020600082825461023091906107a0565b92505081905550600360009054906101000a900473ffffffffffffffffffffffffffffffffffffffff1673ffffffffffffffffffffffffffffffffffffffff166310176f8633846040518363ffffffff1660e01b8152600401610294929190610840565b600060405180830381600087803b1580156102ae57600080fd5b505af11580156102c2573d6000803e3d6000fd5b5050505061035b565b600360009054906101000a900473ffffffffffffffffffffffffffffffffffffffff1673ffffffffffffffffffffffffffffffffffffffff166310176f8633846040518363ffffffff1660e01b81526004016103289291906108c8565b600060405180830381600087803b15801561034257600080fd5b505af1158015610356573d6000803e3d6000fd5b505050505b505b50565b60015481565b6000600260008373ffffffffffffffffffffffffffffffffffffffff1673ffffffffffffffffffffffffffffffffffffffff168152602001908152602001600020549050919050565b60006001543411156104a55734600260003373ffffffffffffffffffffffffffffffffffffffff1673ffffffffffffffffffffffffffffffffffffffff168152602001908152602001600020600082825461040a9190610904565b92505081905550600360009054906101000a900473ffffffffffffffffffffffffffffffffffffffff1673ffffffffffffffffffffffffffffffffffffffff166310176f8633346040518363ffffffff1660e01b815260040161046e929190610984565b600060405180830381600087803b15801561048857600080fd5b505af115801561049c573d6000803e3d6000fd5b50505050610535565b600360009054906101000a900473ffffffffffffffffffffffffffffffffffffffff1673ffffffffffffffffffffffffffffffffffffffff166310176f8633346040518363ffffffff1660e01b8152600401610502929190610a0c565b600060405180830381600087803b15801561051c57600080fd5b505af1158015610530573d6000803e3d6000fd5b505050505b90565b600360009054906101000a900473ffffffffffffffffffffffffffffffffffffffff1681565b600080fd5b6000819050919050565b61057681610563565b811461058157600080fd5b50565b6000813590506105938161056d565b92915050565b6000602082840312156105af576105ae61055e565b5b60006105bd84828501610584565b91505092915050565b6105cf81610563565b82525050565b60006020820190506105ea60008301846105c6565b92915050565b600073ffffffffffffffffffffffffffffffffffffffff82169050919050565b600061061b826105f0565b9050919050565b61062b81610610565b811461063657600080fd5b50565b60008135905061064881610622565b92915050565b6000602082840312156106645761066361055e565b5b600061067284828501610639565b91505092915050565b60008115159050919050565b6106908161067b565b82525050565b60006020820190506106ab6000830184610687565b92915050565b6000819050919050565b60006106d66106d16106cc846105f0565b6106b1565b6105f0565b9050919050565b60006106e8826106bb565b9050919050565b60006106fa826106dd565b9050919050565b61070a816106ef565b82525050565b60006020820190506107256000830184610701565b92915050565b600081905092915050565b50565b600061074660008361072b565b915061075182610736565b600082019050919050565b600061076782610739565b9150819050919050565b7f4e487b7100000000000000000000000000000000000000000000000000000000600052601160045260246000fd5b60006107ab82610563565b91506107b683610563565b92508282039050818111156107ce576107cd610771565b5b92915050565b6107dd81610610565b82525050565b600082825260208201905092915050565b7f7769746864726177000000000000000000000000000000000000000000000000600082015250565b600061082a6008836107e3565b9150610835826107f4565b602082019050919050565b600060608201905061085560008301856107d4565b61086260208301846105c6565b81810360408301526108738161081d565b90509392505050565b7f77697468647261774661696c6564000000000000000000000000000000000000600082015250565b60006108b2600e836107e3565b91506108bd8261087c565b602082019050919050565b60006060820190506108dd60008301856107d4565b6108ea60208301846105c6565b81810360408301526108fb816108a5565b90509392505050565b600061090f82610563565b915061091a83610563565b925082820190508082111561093257610931610771565b5b92915050565b7f6465706f73697400000000000000000000000000000000000000000000000000600082015250565b600061096e6007836107e3565b915061097982610938565b602082019050919050565b600060608201905061099960008301856107d4565b6109a660208301846105c6565b81810360408301526109b781610961565b90509392505050565b7f6465706f7369744661696c656400000000000000000000000000000000000000600082015250565b60006109f6600d836107e3565b9150610a01826109c0565b602082019050919050565b6000606082019050610a2160008301856107d4565b610a2e60208301846105c6565b8181036040830152610a3f816109e9565b9050939250505056fea2646970667358221220870da53ef86afb83ec7c7e2284a7e4595e66de7880f9fffba1e26ad93b0f18a964736f6c63430008120033",
					"opcodes": "PUSH1 0x80 PUSH1 0x40 MSTORE PUSH1 0x40 MLOAD PUSH2 0xC1A CODESIZE SUB DUP1 PUSH2 0xC1A DUP4 CODECOPY DUP2 DUP2 ADD PUSH1 0x40 MSTORE DUP2 ADD SWAP1 PUSH2 0x25 SWAP2 SWAP1 PUSH2 0x14D JUMP JUMPDEST CALLER PUSH1 0x0 DUP1 PUSH2 0x100 EXP DUP2 SLOAD DUP2 PUSH20 0xFFFFFFFFFFFFFFFFFFFFFFFFFFFFFFFFFFFFFFFF MUL NOT AND SWAP1 DUP4 PUSH20 0xFFFFFFFFFFFFFFFFFFFFFFFFFFFFFFFFFFFFFFFF AND MUL OR SWAP1 SSTORE POP DUP2 PUSH1 0x1 DUP2 SWAP1 SSTORE POP DUP1 PUSH1 0x3 PUSH1 0x0 PUSH2 0x100 EXP DUP2 SLOAD DUP2 PUSH20 0xFFFFFFFFFFFFFFFFFFFFFFFFFFFFFFFFFFFFFFFF MUL NOT AND SWAP1 DUP4 PUSH20 0xFFFFFFFFFFFFFFFFFFFFFFFFFFFFFFFFFFFFFFFF AND MUL OR SWAP1 SSTORE POP POP POP PUSH2 0x18D JUMP JUMPDEST PUSH1 0x0 DUP1 REVERT JUMPDEST PUSH1 0x0 DUP2 SWAP1 POP SWAP2 SWAP1 POP JUMP JUMPDEST PUSH2 0xCC DUP2 PUSH2 0xB9 JUMP JUMPDEST DUP2 EQ PUSH2 0xD7 JUMPI PUSH1 0x0 DUP1 REVERT JUMPDEST POP JUMP JUMPDEST PUSH1 0x0 DUP2 MLOAD SWAP1 POP PUSH2 0xE9 DUP2 PUSH2 0xC3 JUMP JUMPDEST SWAP3 SWAP2 POP POP JUMP JUMPDEST PUSH1 0x0 PUSH20 0xFFFFFFFFFFFFFFFFFFFFFFFFFFFFFFFFFFFFFFFF DUP3 AND SWAP1 POP SWAP2 SWAP1 POP JUMP JUMPDEST PUSH1 0x0 PUSH2 0x11A DUP3 PUSH2 0xEF JUMP JUMPDEST SWAP1 POP SWAP2 SWAP1 POP JUMP JUMPDEST PUSH2 0x12A DUP2 PUSH2 0x10F JUMP JUMPDEST DUP2 EQ PUSH2 0x135 JUMPI PUSH1 0x0 DUP1 REVERT JUMPDEST POP JUMP JUMPDEST PUSH1 0x0 DUP2 MLOAD SWAP1 POP PUSH2 0x147 DUP2 PUSH2 0x121 JUMP JUMPDEST SWAP3 SWAP2 POP POP JUMP JUMPDEST PUSH1 0x0 DUP1 PUSH1 0x40 DUP4 DUP6 SUB SLT ISZERO PUSH2 0x164 JUMPI PUSH2 0x163 PUSH2 0xB4 JUMP JUMPDEST JUMPDEST PUSH1 0x0 PUSH2 0x172 DUP6 DUP3 DUP7 ADD PUSH2 0xDA JUMP JUMPDEST SWAP3 POP POP PUSH1 0x20 PUSH2 0x183 DUP6 DUP3 DUP7 ADD PUSH2 0x138 JUMP JUMPDEST SWAP2 POP POP SWAP3 POP SWAP3 SWAP1 POP JUMP JUMPDEST PUSH2 0xA7E DUP1 PUSH2 0x19C PUSH1 0x0 CODECOPY PUSH1 0x0 RETURN INVALID PUSH1 0x80 PUSH1 0x40 MSTORE PUSH1 0x4 CALLDATASIZE LT PUSH2 0x4A JUMPI PUSH1 0x0 CALLDATALOAD PUSH1 0xE0 SHR DUP1 PUSH4 0x2E1A7D4D EQ PUSH2 0x4F JUMPI DUP1 PUSH4 0x41B3D185 EQ PUSH2 0x78 JUMPI DUP1 PUSH4 0x5F515226 EQ PUSH2 0xA3 JUMPI DUP1 PUSH4 0xD0E30DB0 EQ PUSH2 0xE0 JUMPI DUP1 PUSH4 0xDF6803D3 EQ PUSH2 0xFE JUMPI JUMPDEST PUSH1 0x0 DUP1 REVERT JUMPDEST CALLVALUE DUP1 ISZERO PUSH2 0x5B JUMPI PUSH1 0x0 DUP1 REVERT JUMPDEST POP PUSH2 0x76 PUSH1 0x4 DUP1 CALLDATASIZE SUB DUP2 ADD SWAP1 PUSH2 0x71 SWAP2 SWAP1 PUSH2 0x599 JUMP JUMPDEST PUSH2 0x129 JUMP JUMPDEST STOP JUMPDEST CALLVALUE DUP1 ISZERO PUSH2 0x84 JUMPI PUSH1 0x0 DUP1 REVERT JUMPDEST POP PUSH2 0x8D PUSH2 0x360 JUMP JUMPDEST PUSH1 0x40 MLOAD PUSH2 0x9A SWAP2 SWAP1 PUSH2 0x5D5 JUMP JUMPDEST PUSH1 0x40 MLOAD DUP1 SWAP2 SUB SWAP1 RETURN JUMPDEST CALLVALUE DUP1 ISZERO PUSH2 0xAF JUMPI PUSH1 0x0 DUP1 REVERT JUMPDEST POP PUSH2 0xCA PUSH1 0x4 DUP1 CALLDATASIZE SUB DUP2 ADD SWAP1 PUSH2 0xC5 SWAP2 SWAP1 PUSH2 0x64E JUMP JUMPDEST PUSH2 0x366 JUMP JUMPDEST PUSH1 0x40 MLOAD PUSH2 0xD7 SWAP2 SWAP1 PUSH2 0x5D5 JUMP JUMPDEST PUSH1 0x40 MLOAD DUP1 SWAP2 SUB SWAP1 RETURN JUMPDEST PUSH2 0xE8 PUSH2 0x3AF JUMP JUMPDEST PUSH1 0x40 MLOAD PUSH2 0xF5 SWAP2 SWAP1 PUSH2 0x696 JUMP JUMPDEST PUSH1 0x40 MLOAD DUP1 SWAP2 SUB SWAP1 RETURN JUMPDEST CALLVALUE DUP1 ISZERO PUSH2 0x10A JUMPI PUSH1 0x0 DUP1 REVERT JUMPDEST POP PUSH2 0x113 PUSH2 0x538 JUMP JUMPDEST PUSH1 0x40 MLOAD PUSH2 0x120 SWAP2 SWAP1 PUSH2 0x710 JUMP JUMPDEST PUSH1 0x40 MLOAD DUP1 SWAP2 SUB SWAP1 RETURN JUMPDEST PUSH1 0x2 PUSH1 0x0 CALLER PUSH20 0xFFFFFFFFFFFFFFFFFFFFFFFFFFFFFFFFFFFFFFFF AND PUSH20 0xFFFFFFFFFFFFFFFFFFFFFFFFFFFFFFFFFFFFFFFF AND DUP2 MSTORE PUSH1 0x20 ADD SWAP1 DUP2 MSTORE PUSH1 0x20 ADD PUSH1 0x0 KECCAK256 SLOAD DUP2 GT PUSH2 0x35D JUMPI PUSH1 0x0 CALLER PUSH20 0xFFFFFFFFFFFFFFFFFFFFFFFFFFFFFFFFFFFFFFFF AND DUP3 PUSH1 0x40 MLOAD PUSH2 0x195 SWAP1 PUSH2 0x75C JUMP JUMPDEST PUSH1 0x0 PUSH1 0x40 MLOAD DUP1 DUP4 SUB DUP2 DUP6 DUP8 GAS CALL SWAP3 POP POP POP RETURNDATASIZE DUP1 PUSH1 0x0 DUP2 EQ PUSH2 0x1D2 JUMPI PUSH1 0x40 MLOAD SWAP2 POP PUSH1 0x1F NOT PUSH1 0x3F RETURNDATASIZE ADD AND DUP3 ADD PUSH1 0x40 MSTORE RETURNDATASIZE DUP3 MSTORE RETURNDATASIZE PUSH1 0x0 PUSH1 0x20 DUP5 ADD RETURNDATACOPY PUSH2 0x1D7 JUMP JUMPDEST PUSH1 0x60 SWAP2 POP JUMPDEST POP POP SWAP1 POP DUP1 ISZERO PUSH2 0x2CB JUMPI DUP2 PUSH1 0x2 PUSH1 0x0 CALLER PUSH20 0xFFFFFFFFFFFFFFFFFFFFFFFFFFFFFFFFFFFFFFFF AND PUSH20 0xFFFFFFFFFFFFFFFFFFFFFFFFFFFFFFFFFFFFFFFF AND DUP2 MSTORE PUSH1 0x20 ADD SWAP1 DUP2 MSTORE PUSH1 0x20 ADD PUSH1 0x0 KECCAK256 PUSH1 0x0 DUP3 DUP3 SLOAD PUSH2 0x230 SWAP2 SWAP1 PUSH2 0x7A0 JUMP JUMPDEST SWAP3 POP POP DUP2 SWAP1 SSTORE POP PUSH1 0x3 PUSH1 0x0 SWAP1 SLOAD SWAP1 PUSH2 0x100 EXP SWAP1 DIV PUSH20 0xFFFFFFFFFFFFFFFFFFFFFFFFFFFFFFFFFFFFFFFF AND PUSH20 0xFFFFFFFFFFFFFFFFFFFFFFFFFFFFFFFFFFFFFFFF AND PUSH4 0x10176F86 CALLER DUP5 PUSH1 0x40 MLOAD DUP4 PUSH4 0xFFFFFFFF AND PUSH1 0xE0 SHL DUP2 MSTORE PUSH1 0x4 ADD PUSH2 0x294 SWAP3 SWAP2 SWAP1 PUSH2 0x840 JUMP JUMPDEST PUSH1 0x0 PUSH1 0x40 MLOAD DUP1 DUP4 SUB DUP2 PUSH1 0x0 DUP8 DUP1 EXTCODESIZE ISZERO DUP1 ISZERO PUSH2 0x2AE JUMPI PUSH1 0x0 DUP1 REVERT JUMPDEST POP GAS CALL ISZERO DUP1 ISZERO PUSH2 0x2C2 JUMPI RETURNDATASIZE PUSH1 0x0 DUP1 RETURNDATACOPY RETURNDATASIZE PUSH1 0x0 REVERT JUMPDEST POP POP POP POP PUSH2 0x35B JUMP JUMPDEST PUSH1 0x3 PUSH1 0x0 SWAP1 SLOAD SWAP1 PUSH2 0x100 EXP SWAP1 DIV PUSH20 0xFFFFFFFFFFFFFFFFFFFFFFFFFFFFFFFFFFFFFFFF AND PUSH20 0xFFFFFFFFFFFFFFFFFFFFFFFFFFFFFFFFFFFFFFFF AND PUSH4 0x10176F86 CALLER DUP5 PUSH1 0x40 MLOAD DUP4 PUSH4 0xFFFFFFFF AND PUSH1 0xE0 SHL DUP2 MSTORE PUSH1 0x4 ADD PUSH2 0x328 SWAP3 SWAP2 SWAP1 PUSH2 0x8C8 JUMP JUMPDEST PUSH1 0x0 PUSH1 0x40 MLOAD DUP1 DUP4 SUB DUP2 PUSH1 0x0 DUP8 DUP1 EXTCODESIZE ISZERO DUP1 ISZERO PUSH2 0x342 JUMPI PUSH1 0x0 DUP1 REVERT JUMPDEST POP GAS CALL ISZERO DUP1 ISZERO PUSH2 0x356 JUMPI RETURNDATASIZE PUSH1 0x0 DUP1 RETURNDATACOPY RETURNDATASIZE PUSH1 0x0 REVERT JUMPDEST POP POP POP POP JUMPDEST POP JUMPDEST POP JUMP JUMPDEST PUSH1 0x1 SLOAD DUP2 JUMP JUMPDEST PUSH1 0x0 PUSH1 0x2 PUSH1 0x0 DUP4 PUSH20 0xFFFFFFFFFFFFFFFFFFFFFFFFFFFFFFFFFFFFFFFF AND PUSH20 0xFFFFFFFFFFFFFFFFFFFFFFFFFFFFFFFFFFFFFFFF AND DUP2 MSTORE PUSH1 0x20 ADD SWAP1 DUP2 MSTORE PUSH1 0x20 ADD PUSH1 0x0 KECCAK256 SLOAD SWAP1 POP SWAP2 SWAP1 POP JUMP JUMPDEST PUSH1 0x0 PUSH1 0x1 SLOAD CALLVALUE GT ISZERO PUSH2 0x4A5 JUMPI CALLVALUE PUSH1 0x2 PUSH1 0x0 CALLER PUSH20 0xFFFFFFFFFFFFFFFFFFFFFFFFFFFFFFFFFFFFFFFF AND PUSH20 0xFFFFFFFFFFFFFFFFFFFFFFFFFFFFFFFFFFFFFFFF AND DUP2 MSTORE PUSH1 0x20 ADD SWAP1 DUP2 MSTORE PUSH1 0x20 ADD PUSH1 0x0 KECCAK256 PUSH1 0x0 DUP3 DUP3 SLOAD PUSH2 0x40A SWAP2 SWAP1 PUSH2 0x904 JUMP JUMPDEST SWAP3 POP POP DUP2 SWAP1 SSTORE POP PUSH1 0x3 PUSH1 0x0 SWAP1 SLOAD SWAP1 PUSH2 0x100 EXP SWAP1 DIV PUSH20 0xFFFFFFFFFFFFFFFFFFFFFFFFFFFFFFFFFFFFFFFF AND PUSH20 0xFFFFFFFFFFFFFFFFFFFFFFFFFFFFFFFFFFFFFFFF AND PUSH4 0x10176F86 CALLER CALLVALUE PUSH1 0x40 MLOAD DUP4 PUSH4 0xFFFFFFFF AND PUSH1 0xE0 SHL DUP2 MSTORE PUSH1 0x4 ADD PUSH2 0x46E SWAP3 SWAP2 SWAP1 PUSH2 0x984 JUMP JUMPDEST PUSH1 0x0 PUSH1 0x40 MLOAD DUP1 DUP4 SUB DUP2 PUSH1 0x0 DUP8 DUP1 EXTCODESIZE ISZERO DUP1 ISZERO PUSH2 0x488 JUMPI PUSH1 0x0 DUP1 REVERT JUMPDEST POP GAS CALL ISZERO DUP1 ISZERO PUSH2 0x49C JUMPI RETURNDATASIZE PUSH1 0x0 DUP1 RETURNDATACOPY RETURNDATASIZE PUSH1 0x0 REVERT JUMPDEST POP POP POP POP PUSH2 0x535 JUMP JUMPDEST PUSH1 0x3 PUSH1 0x0 SWAP1 SLOAD SWAP1 PUSH2 0x100 EXP SWAP1 DIV PUSH20 0xFFFFFFFFFFFFFFFFFFFFFFFFFFFFFFFFFFFFFFFF AND PUSH20 0xFFFFFFFFFFFFFFFFFFFFFFFFFFFFFFFFFFFFFFFF AND PUSH4 0x10176F86 CALLER CALLVALUE PUSH1 0x40 MLOAD DUP4 PUSH4 0xFFFFFFFF AND PUSH1 0xE0 SHL DUP2 MSTORE PUSH1 0x4 ADD PUSH2 0x502 SWAP3 SWAP2 SWAP1 PUSH2 0xA0C JUMP JUMPDEST PUSH1 0x0 PUSH1 0x40 MLOAD DUP1 DUP4 SUB DUP2 PUSH1 0x0 DUP8 DUP1 EXTCODESIZE ISZERO DUP1 ISZERO PUSH2 0x51C JUMPI PUSH1 0x0 DUP1 REVERT JUMPDEST POP GAS CALL ISZERO DUP1 ISZERO PUSH2 0x530 JUMPI RETURNDATASIZE PUSH1 0x0 DUP1 RETURNDATACOPY RETURNDATASIZE PUSH1 0x0 REVERT JUMPDEST POP POP POP POP JUMPDEST SWAP1 JUMP JUMPDEST PUSH1 0x3 PUSH1 0x0 SWAP1 SLOAD SWAP1 PUSH2 0x100 EXP SWAP1 DIV PUSH20 0xFFFFFFFFFFFFFFFFFFFFFFFFFFFFFFFFFFFFFFFF AND DUP2 JUMP JUMPDEST PUSH1 0x0 DUP1 REVERT JUMPDEST PUSH1 0x0 DUP2 SWAP1 POP SWAP2 SWAP1 POP JUMP JUMPDEST PUSH2 0x576 DUP2 PUSH2 0x563 JUMP JUMPDEST DUP2 EQ PUSH2 0x581 JUMPI PUSH1 0x0 DUP1 REVERT JUMPDEST POP JUMP JUMPDEST PUSH1 0x0 DUP2 CALLDATALOAD SWAP1 POP PUSH2 0x593 DUP2 PUSH2 0x56D JUMP JUMPDEST SWAP3 SWAP2 POP POP JUMP JUMPDEST PUSH1 0x0 PUSH1 0x20 DUP3 DUP5 SUB SLT ISZERO PUSH2 0x5AF JUMPI PUSH2 0x5AE PUSH2 0x55E JUMP JUMPDEST JUMPDEST PUSH1 0x0 PUSH2 0x5BD DUP5 DUP3 DUP6 ADD PUSH2 0x584 JUMP JUMPDEST SWAP2 POP POP SWAP3 SWAP2 POP POP JUMP JUMPDEST PUSH2 0x5CF DUP2 PUSH2 0x563 JUMP JUMPDEST DUP3 MSTORE POP POP JUMP JUMPDEST PUSH1 0x0 PUSH1 0x20 DUP3 ADD SWAP1 POP PUSH2 0x5EA PUSH1 0x0 DUP4 ADD DUP5 PUSH2 0x5C6 JUMP JUMPDEST SWAP3 SWAP2 POP POP JUMP JUMPDEST PUSH1 0x0 PUSH20 0xFFFFFFFFFFFFFFFFFFFFFFFFFFFFFFFFFFFFFFFF DUP3 AND SWAP1 POP SWAP2 SWAP1 POP JUMP JUMPDEST PUSH1 0x0 PUSH2 0x61B DUP3 PUSH2 0x5F0 JUMP JUMPDEST SWAP1 POP SWAP2 SWAP1 POP JUMP JUMPDEST PUSH2 0x62B DUP2 PUSH2 0x610 JUMP JUMPDEST DUP2 EQ PUSH2 0x636 JUMPI PUSH1 0x0 DUP1 REVERT JUMPDEST POP JUMP JUMPDEST PUSH1 0x0 DUP2 CALLDATALOAD SWAP1 POP PUSH2 0x648 DUP2 PUSH2 0x622 JUMP JUMPDEST SWAP3 SWAP2 POP POP JUMP JUMPDEST PUSH1 0x0 PUSH1 0x20 DUP3 DUP5 SUB SLT ISZERO PUSH2 0x664 JUMPI PUSH2 0x663 PUSH2 0x55E JUMP JUMPDEST JUMPDEST PUSH1 0x0 PUSH2 0x672 DUP5 DUP3 DUP6 ADD PUSH2 0x639 JUMP JUMPDEST SWAP2 POP POP SWAP3 SWAP2 POP POP JUMP JUMPDEST PUSH1 0x0 DUP2 ISZERO ISZERO SWAP1 POP SWAP2 SWAP1 POP JUMP JUMPDEST PUSH2 0x690 DUP2 PUSH2 0x67B JUMP JUMPDEST DUP3 MSTORE POP POP JUMP JUMPDEST PUSH1 0x0 PUSH1 0x20 DUP3 ADD SWAP1 POP PUSH2 0x6AB PUSH1 0x0 DUP4 ADD DUP5 PUSH2 0x687 JUMP JUMPDEST SWAP3 SWAP2 POP POP JUMP JUMPDEST PUSH1 0x0 DUP2 SWAP1 POP SWAP2 SWAP1 POP JUMP JUMPDEST PUSH1 0x0 PUSH2 0x6D6 PUSH2 0x6D1 PUSH2 0x6CC DUP5 PUSH2 0x5F0 JUMP JUMPDEST PUSH2 0x6B1 JUMP JUMPDEST PUSH2 0x5F0 JUMP JUMPDEST SWAP1 POP SWAP2 SWAP1 POP JUMP JUMPDEST PUSH1 0x0 PUSH2 0x6E8 DUP3 PUSH2 0x6BB JUMP JUMPDEST SWAP1 POP SWAP2 SWAP1 POP JUMP JUMPDEST PUSH1 0x0 PUSH2 0x6FA DUP3 PUSH2 0x6DD JUMP JUMPDEST SWAP1 POP SWAP2 SWAP1 POP JUMP JUMPDEST PUSH2 0x70A DUP2 PUSH2 0x6EF JUMP JUMPDEST DUP3 MSTORE POP POP JUMP JUMPDEST PUSH1 0x0 PUSH1 0x20 DUP3 ADD SWAP1 POP PUSH2 0x725 PUSH1 0x0 DUP4 ADD DUP5 PUSH2 0x701 JUMP JUMPDEST SWAP3 SWAP2 POP POP JUMP JUMPDEST PUSH1 0x0 DUP2 SWAP1 POP SWAP3 SWAP2 POP POP JUMP JUMPDEST POP JUMP JUMPDEST PUSH1 0x0 PUSH2 0x746 PUSH1 0x0 DUP4 PUSH2 0x72B JUMP JUMPDEST SWAP2 POP PUSH2 0x751 DUP3 PUSH2 0x736 JUMP JUMPDEST PUSH1 0x0 DUP3 ADD SWAP1 POP SWAP2 SWAP1 POP JUMP JUMPDEST PUSH1 0x0 PUSH2 0x767 DUP3 PUSH2 0x739 JUMP JUMPDEST SWAP2 POP DUP2 SWAP1 POP SWAP2 SWAP1 POP JUMP JUMPDEST PUSH32 0x4E487B7100000000000000000000000000000000000000000000000000000000 PUSH1 0x0 MSTORE PUSH1 0x11 PUSH1 0x4 MSTORE PUSH1 0x24 PUSH1 0x0 REVERT JUMPDEST PUSH1 0x0 PUSH2 0x7AB DUP3 PUSH2 0x563 JUMP JUMPDEST SWAP2 POP PUSH2 0x7B6 DUP4 PUSH2 0x563 JUMP JUMPDEST SWAP3 POP DUP3 DUP3 SUB SWAP1 POP DUP2 DUP2 GT ISZERO PUSH2 0x7CE JUMPI PUSH2 0x7CD PUSH2 0x771 JUMP JUMPDEST JUMPDEST SWAP3 SWAP2 POP POP JUMP JUMPDEST PUSH2 0x7DD DUP2 PUSH2 0x610 JUMP JUMPDEST DUP3 MSTORE POP POP JUMP JUMPDEST PUSH1 0x0 DUP3 DUP3 MSTORE PUSH1 0x20 DUP3 ADD SWAP1 POP SWAP3 SWAP2 POP POP JUMP JUMPDEST PUSH32 0x7769746864726177000000000000000000000000000000000000000000000000 PUSH1 0x0 DUP3 ADD MSTORE POP JUMP JUMPDEST PUSH1 0x0 PUSH2 0x82A PUSH1 0x8 DUP4 PUSH2 0x7E3 JUMP JUMPDEST SWAP2 POP PUSH2 0x835 DUP3 PUSH2 0x7F4 JUMP JUMPDEST PUSH1 0x20 DUP3 ADD SWAP1 POP SWAP2 SWAP1 POP JUMP JUMPDEST PUSH1 0x0 PUSH1 0x60 DUP3 ADD SWAP1 POP PUSH2 0x855 PUSH1 0x0 DUP4 ADD DUP6 PUSH2 0x7D4 JUMP JUMPDEST PUSH2 0x862 PUSH1 0x20 DUP4 ADD DUP5 PUSH2 0x5C6 JUMP JUMPDEST DUP2 DUP2 SUB PUSH1 0x40 DUP4 ADD MSTORE PUSH2 0x873 DUP2 PUSH2 0x81D JUMP JUMPDEST SWAP1 POP SWAP4 SWAP3 POP POP POP JUMP JUMPDEST PUSH32 0x77697468647261774661696C6564000000000000000000000000000000000000 PUSH1 0x0 DUP3 ADD MSTORE POP JUMP JUMPDEST PUSH1 0x0 PUSH2 0x8B2 PUSH1 0xE DUP4 PUSH2 0x7E3 JUMP JUMPDEST SWAP2 POP PUSH2 0x8BD DUP3 PUSH2 0x87C JUMP JUMPDEST PUSH1 0x20 DUP3 ADD SWAP1 POP SWAP2 SWAP1 POP JUMP JUMPDEST PUSH1 0x0 PUSH1 0x60 DUP3 ADD SWAP1 POP PUSH2 0x8DD PUSH1 0x0 DUP4 ADD DUP6 PUSH2 0x7D4 JUMP JUMPDEST PUSH2 0x8EA PUSH1 0x20 DUP4 ADD DUP5 PUSH2 0x5C6 JUMP JUMPDEST DUP2 DUP2 SUB PUSH1 0x40 DUP4 ADD MSTORE PUSH2 0x8FB DUP2 PUSH2 0x8A5 JUMP JUMPDEST SWAP1 POP SWAP4 SWAP3 POP POP POP JUMP JUMPDEST PUSH1 0x0 PUSH2 0x90F DUP3 PUSH2 0x563 JUMP JUMPDEST SWAP2 POP PUSH2 0x91A DUP4 PUSH2 0x563 JUMP JUMPDEST SWAP3 POP DUP3 DUP3 ADD SWAP1 POP DUP1 DUP3 GT ISZERO PUSH2 0x932 JUMPI PUSH2 0x931 PUSH2 0x771 JUMP JUMPDEST JUMPDEST SWAP3 SWAP2 POP POP JUMP JUMPDEST PUSH32 0x6465706F73697400000000000000000000000000000000000000000000000000 PUSH1 0x0 DUP3 ADD MSTORE POP JUMP JUMPDEST PUSH1 0x0 PUSH2 0x96E PUSH1 0x7 DUP4 PUSH2 0x7E3 JUMP JUMPDEST SWAP2 POP PUSH2 0x979 DUP3 PUSH2 0x938 JUMP JUMPDEST PUSH1 0x20 DUP3 ADD SWAP1 POP SWAP2 SWAP1 POP JUMP JUMPDEST PUSH1 0x0 PUSH1 0x60 DUP3 ADD SWAP1 POP PUSH2 0x999 PUSH1 0x0 DUP4 ADD DUP6 PUSH2 0x7D4 JUMP JUMPDEST PUSH2 0x9A6 PUSH1 0x20 DUP4 ADD DUP5 PUSH2 0x5C6 JUMP JUMPDEST DUP2 DUP2 SUB PUSH1 0x40 DUP4 ADD MSTORE PUSH2 0x9B7 DUP2 PUSH2 0x961 JUMP JUMPDEST SWAP1 POP SWAP4 SWAP3 POP POP POP JUMP JUMPDEST PUSH32 0x6465706F7369744661696C656400000000000000000000000000000000000000 PUSH1 0x0 DUP3 ADD MSTORE POP JUMP JUMPDEST PUSH1 0x0 PUSH2 0x9F6 PUSH1 0xD DUP4 PUSH2 0x7E3 JUMP JUMPDEST SWAP2 POP PUSH2 0xA01 DUP3 PUSH2 0x9C0 JUMP JUMPDEST PUSH1 0x20 DUP3 ADD SWAP1 POP SWAP2 SWAP1 POP JUMP JUMPDEST PUSH1 0x0 PUSH1 0x60 DUP3 ADD SWAP1 POP PUSH2 0xA21 PUSH1 0x0 DUP4 ADD DUP6 PUSH2 0x7D4 JUMP JUMPDEST PUSH2 0xA2E PUSH1 0x20 DUP4 ADD DUP5 PUSH2 0x5C6 JUMP JUMPDEST DUP2 DUP2 SUB PUSH1 0x40 DUP4 ADD MSTORE PUSH2 0xA3F DUP2 PUSH2 0x9E9 JUMP JUMPDEST SWAP1 POP SWAP4 SWAP3 POP POP POP JUMP INVALID LOG2 PUSH5 0x6970667358 0x22 SLT KECCAK256 DUP8 0xD 0xA5 RETURNDATACOPY 0xF8 PUSH11 0xFB83EC7C7E2284A7E4595E PUSH7 0xDE7880F9FFFBA1 0xE2 PUSH11 0xD93B0F18A964736F6C6343 STOP ADDMOD SLT STOP CALLER "
				},
				"gasEstimates": {
					"creation": {
						"codeDepositCost": "537200",
						"executionCost": "infinite",
						"totalCost": "infinite"
					},
					"external": {
						"TrustLog()": "infinite",
						"checkBalance(address)": "2863",
						"deposit()": "infinite",
						"minDeposit()": "2429",
						"withdraw(uint256)": "infinite"
					}
				},
				"methodIdentifiers": {
					"TrustLog()": "df6803d3",
					"checkBalance(address)": "5f515226",
					"deposit()": "d0e30db0",
					"minDeposit()": "41b3d185",
					"withdraw(uint256)": "2e1a7d4d"
				}
			},
			"storageLayout": {
				"storage": [
					{
						"astId": 3,
						"contract": "contracts/TrustFund.sol:TrustFund",
						"label": "owner",
						"offset": 0,
						"slot": "0",
						"type": "t_address"
					},
					{
						"astId": 5,
						"contract": "contracts/TrustFund.sol:TrustFund",
						"label": "minDeposit",
						"offset": 0,
						"slot": "1",
						"type": "t_uint256"
					},
					{
						"astId": 9,
						"contract": "contracts/TrustFund.sol:TrustFund",
						"label": "balances",
						"offset": 0,
						"slot": "2",
						"type": "t_mapping(t_address,t_uint256)"
					},
					{
						"astId": 12,
						"contract": "contracts/TrustFund.sol:TrustFund",
						"label": "TrustLog",
						"offset": 0,
						"slot": "3",
						"type": "t_contract(Logger)191"
					}
				],
				"types": {
					"t_address": {
						"encoding": "inplace",
						"label": "address",
						"numberOfBytes": "20"
					},
					"t_contract(Logger)191": {
						"encoding": "inplace",
						"label": "contract Logger",
						"numberOfBytes": "20"
					},
					"t_mapping(t_address,t_uint256)": {
						"encoding": "mapping",
						"key": "t_address",
						"label": "mapping(address => uint256)",
						"numberOfBytes": "32",
						"value": "t_uint256"
					},
					"t_uint256": {
						"encoding": "inplace",
						"label": "uint256",
						"numberOfBytes": "32"
					}
				}
			},
			"userdoc": {
				"kind": "user",
				"methods": {},
				"version": 1
			}
		}
	}
}