{
	"contracts/TF_erc20.sol": {
		"TF": {
			"abi": [
				{
					"constant": true,
					"inputs": [],
					"name": "name",
					"outputs": [
						{
							"name": "",
							"type": "string"
						}
					],
					"payable": false,
					"stateMutability": "view",
					"type": "function"
				},
				{
					"constant": false,
					"inputs": [
						{
							"name": "spender",
							"type": "address"
						},
						{
							"name": "value",
							"type": "uint256"
						}
					],
					"name": "approve",
					"outputs": [
						{
							"name": "",
							"type": "bool"
						}
					],
					"payable": false,
					"stateMutability": "nonpayable",
					"type": "function"
				},
				{
					"constant": true,
					"inputs": [],
					"name": "totalSupply",
					"outputs": [
						{
							"name": "",
							"type": "uint256"
						}
					],
					"payable": false,
					"stateMutability": "view",
					"type": "function"
				},
				{
					"constant": false,
					"inputs": [
						{
							"name": "sender",
							"type": "address"
						},
						{
							"name": "recipient",
							"type": "address"
						},
						{
							"name": "amount",
							"type": "uint256"
						}
					],
					"name": "transferFrom",
					"outputs": [
						{
							"name": "",
							"type": "bool"
						}
					],
					"payable": false,
					"stateMutability": "nonpayable",
					"type": "function"
				},
				{
					"constant": true,
					"inputs": [],
					"name": "decimals",
					"outputs": [
						{
							"name": "",
							"type": "uint8"
						}
					],
					"payable": false,
					"stateMutability": "view",
					"type": "function"
				},
				{
					"constant": false,
					"inputs": [
						{
							"name": "spender",
							"type": "address"
						},
						{
							"name": "addedValue",
							"type": "uint256"
						}
					],
					"name": "increaseAllowance",
					"outputs": [
						{
							"name": "",
							"type": "bool"
						}
					],
					"payable": false,
					"stateMutability": "nonpayable",
					"type": "function"
				},
				{
					"constant": true,
					"inputs": [
						{
							"name": "account",
							"type": "address"
						}
					],
					"name": "balanceOf",
					"outputs": [
						{
							"name": "",
							"type": "uint256"
						}
					],
					"payable": false,
					"stateMutability": "view",
					"type": "function"
				},
				{
					"constant": true,
					"inputs": [],
					"name": "symbol",
					"outputs": [
						{
							"name": "",
							"type": "string"
						}
					],
					"payable": false,
					"stateMutability": "view",
					"type": "function"
				},
				{
					"constant": false,
					"inputs": [
						{
							"name": "spender",
							"type": "address"
						},
						{
							"name": "value",
							"type": "uint256"
						}
					],
					"name": "approveTest",
					"outputs": [
						{
							"name": "",
							"type": "address"
						},
						{
							"name": "",
							"type": "address"
						},
						{
							"name": "",
							"type": "uint256"
						}
					],
					"payable": false,
					"stateMutability": "nonpayable",
					"type": "function"
				},
				{
					"constant": false,
					"inputs": [
						{
							"name": "spender",
							"type": "address"
						},
						{
							"name": "subtractedValue",
							"type": "uint256"
						}
					],
					"name": "decreaseAllowance",
					"outputs": [
						{
							"name": "",
							"type": "bool"
						}
					],
					"payable": false,
					"stateMutability": "nonpayable",
					"type": "function"
				},
				{
					"constant": false,
					"inputs": [
						{
							"name": "recipient",
							"type": "address"
						},
						{
							"name": "amount",
							"type": "uint256"
						}
					],
					"name": "transfer",
					"outputs": [
						{
							"name": "",
							"type": "bool"
						}
					],
					"payable": false,
					"stateMutability": "nonpayable",
					"type": "function"
				},
				{
					"constant": true,
					"inputs": [
						{
							"name": "owner",
							"type": "address"
						},
						{
							"name": "spender",
							"type": "address"
						}
					],
					"name": "allowance",
					"outputs": [
						{
							"name": "",
							"type": "uint256"
						}
					],
					"payable": false,
					"stateMutability": "view",
					"type": "function"
				},
				{
					"inputs": [
						{
							"name": "_contract",
							"type": "address"
						}
					],
					"payable": false,
					"stateMutability": "nonpayable",
					"type": "constructor"
				},
				{
					"anonymous": false,
					"inputs": [
						{
							"indexed": true,
							"name": "from",
							"type": "address"
						},
						{
							"indexed": true,
							"name": "to",
							"type": "address"
						},
						{
							"indexed": false,
							"name": "value",
							"type": "uint256"
						}
					],
					"name": "Transfer",
					"type": "event"
				},
				{
					"anonymous": false,
					"inputs": [
						{
							"indexed": true,
							"name": "owner",
							"type": "address"
						},
						{
							"indexed": true,
							"name": "spender",
							"type": "address"
						},
						{
							"indexed": false,
							"name": "value",
							"type": "uint256"
						}
					],
					"name": "Approval",
					"type": "event"
				}
			],
			"devdoc": {
				"methods": {
					"allowance(address,address)": {
						"details": "See `IERC20.allowance`."
					},
					"approve(address,uint256)": {
						"details": "See `IERC20.approve`.     * Requirements:     * - `spender` cannot be the zero address."
					},
					"balanceOf(address)": {
						"details": "See `IERC20.balanceOf`."
					},
					"decimals()": {
						"details": "Returns the number of decimals used to get its user representation. For example, if `decimals` equals `2`, a balance of `505` tokens should be displayed to a user as `5,05` (`505 / 10 ** 2`).     * Tokens usually opt for a value of 18, imitating the relationship between Ether and Wei.     * > Note that this information is only used for _display_ purposes: it in no way affects any of the arithmetic of the contract, including `IERC20.balanceOf` and `IERC20.transfer`."
					},
					"decreaseAllowance(address,uint256)": {
						"details": "Atomically decreases the allowance granted to `spender` by the caller.     * This is an alternative to `approve` that can be used as a mitigation for problems described in `IERC20.approve`.     * Emits an `Approval` event indicating the updated allowance.     * Requirements:     * - `spender` cannot be the zero address. - `spender` must have allowance for the caller of at least `subtractedValue`."
					},
					"increaseAllowance(address,uint256)": {
						"details": "Atomically increases the allowance granted to `spender` by the caller.     * This is an alternative to `approve` that can be used as a mitigation for problems described in `IERC20.approve`.     * Emits an `Approval` event indicating the updated allowance.     * Requirements:     * - `spender` cannot be the zero address."
					},
					"name()": {
						"details": "Returns the name of the token."
					},
					"symbol()": {
						"details": "Returns the symbol of the token, usually a shorter version of the name."
					},
					"totalSupply()": {
						"details": "See `IERC20.totalSupply`."
					},
					"transfer(address,uint256)": {
						"details": "See `IERC20.transfer`.     * Requirements:     * - `recipient` cannot be the zero address. - the caller must have a balance of at least `amount`."
					},
					"transferFrom(address,address,uint256)": {
						"details": "See `IERC20.transferFrom`.     * Emits an `Approval` event indicating the updated allowance. This is not required by the EIP. See the note at the beginning of `ERC20`;     * Requirements: - `sender` and `recipient` cannot be the zero address. - `sender` must have a balance of at least `value`. - the caller must have allowance for `sender`'s tokens of at least `amount`."
					}
				}
			},
			"evm": {
				"assembly": "    /* \"contracts/TF_erc20.sol\":4941:13231  contract TF is IERC20 {... */\n  mstore(0x40, 0x80)\n    /* \"contracts/TF_erc20.sol\":5258:5293  string private _name = \"zTrustFund\" */\n  0x40\n  dup1\n  mload\n  swap1\n  dup2\n  add\n  0x40\n  mstore\n  dup1\n  0xa\n  dup2\n  mstore\n  0x20\n  add\n  0x7a547275737446756e6400000000000000000000000000000000000000000000\n  dup2\n  mstore\n  pop\n  0x2\n  swap1\n  dup1\n  mload\n  swap1\n  0x20\n  add\n  swap1\n  tag_1\n  swap3\n  swap2\n  swap1\n  jump\t// in(tag_2)\ntag_1:\n  pop\n    /* \"contracts/TF_erc20.sol\":5299:5329  string private _symbol = \"zTF\" */\n  0x40\n  dup1\n  mload\n  swap1\n  dup2\n  add\n  0x40\n  mstore\n  dup1\n  0x3\n  dup2\n  mstore\n  0x20\n  add\n  0x7a54460000000000000000000000000000000000000000000000000000000000\n  dup2\n  mstore\n  pop\n  0x3\n  swap1\n  dup1\n  mload\n  swap1\n  0x20\n  add\n  swap1\n  tag_3\n  swap3\n  swap2\n  swap1\n  jump\t// in(tag_2)\ntag_3:\n  pop\n    /* \"contracts/TF_erc20.sol\":5361:5363  18 */\n  0x12\n    /* \"contracts/TF_erc20.sol\":5335:5363  uint8 private _decimals = 18 */\n  0x4\n  exp(0x100, 0x0)\n  dup2\n  sload\n  dup2\n  0xff\n  mul\n  not\n  and\n  swap1\n  dup4\n  0xff\n  and\n  mul\n  or\n  swap1\n  sstore\n  pop\n    /* \"contracts/TF_erc20.sol\":5370:5494  constructor (address _contract) public {... */\n  callvalue\n    /* \"--CODEGEN--\":8:17   */\n  dup1\n    /* \"--CODEGEN--\":5:7   */\n  iszero\n  tag_4\n  jumpi\n    /* \"--CODEGEN--\":30:31   */\n  0x0\n    /* \"--CODEGEN--\":27:28   */\n  dup1\n    /* \"--CODEGEN--\":20:32   */\n  revert\n    /* \"--CODEGEN--\":5:7   */\ntag_4:\n    /* \"contracts/TF_erc20.sol\":5370:5494  constructor (address _contract) public {... */\n  pop\n  mload(0x40)\n  0x20\n  dup1\n  bytecodeSize\n  dup4\n  codecopy\n  dup2\n  add\n  dup1\n  0x40\n  mstore\n  dup2\n  add\n  swap1\n  dup1\n  dup1\n  mload\n  swap1\n  0x20\n  add\n  swap1\n  swap3\n  swap2\n  swap1\n  pop\n  pop\n  pop\n    /* \"contracts/TF_erc20.sol\":5420:5475  _mint(_contract, 1000000000 * 10 ** uint256(_decimals)) */\n  tag_7\n    /* \"contracts/TF_erc20.sol\":5426:5435  _contract */\n  dup2\n    /* \"contracts/TF_erc20.sol\":5464:5473  _decimals */\n  0x4\n  0x0\n  swap1\n  sload\n  swap1\n  0x100\n  exp\n  swap1\n  div\n  0xff\n  and\n    /* \"contracts/TF_erc20.sol\":5456:5474  uint256(_decimals) */\n  0xff\n  and\n    /* \"contracts/TF_erc20.sol\":5450:5452  10 */\n  0xa\n    /* \"contracts/TF_erc20.sol\":5450:5474  10 ** uint256(_decimals) */\n  exp\n    /* \"contracts/TF_erc20.sol\":5437:5447  1000000000 */\n  0x3b9aca00\n    /* \"contracts/TF_erc20.sol\":5437:5474  1000000000 * 10 ** uint256(_decimals) */\n  mul\n    /* \"contracts/TF_erc20.sol\":5420:5425  _mint */\n  mul(0x100000000, tag_8)\n    /* \"contracts/TF_erc20.sol\":5420:5475  _mint(_contract, 1000000000 * 10 ** uint256(_decimals)) */\n  0x100000000\n  swap1\n  div\n  jump\t// in\ntag_7:\n    /* \"contracts/TF_erc20.sol\":5370:5494  constructor (address _contract) public {... */\n  pop\n    /* \"contracts/TF_erc20.sol\":4941:13231  contract TF is IERC20 {... */\n  jump(tag_9)\n    /* \"contracts/TF_erc20.sol\":10951:11253  function _mint(address account, uint256 amount) internal {... */\ntag_8:\n    /* \"contracts/TF_erc20.sol\":11045:11046  0 */\n  0x0\n    /* \"contracts/TF_erc20.sol\":11026:11047  account != address(0) */\n  0xffffffffffffffffffffffffffffffffffffffff\n  and\n    /* \"contracts/TF_erc20.sol\":11026:11033  account */\n  dup3\n    /* \"contracts/TF_erc20.sol\":11026:11047  account != address(0) */\n  0xffffffffffffffffffffffffffffffffffffffff\n  and\n  eq\n  iszero\n    /* \"contracts/TF_erc20.sol\":11018:11083  require(account != address(0), \"ERC20: mint to the zero address\") */\n  iszero\n  iszero\n  tag_11\n  jumpi\n  mload(0x40)\n  0x8c379a000000000000000000000000000000000000000000000000000000000\n  dup2\n  mstore\n  0x4\n  add\n  dup1\n  dup1\n  0x20\n  add\n  dup3\n  dup2\n  sub\n  dup3\n  mstore\n  0x1f\n  dup2\n  mstore\n  0x20\n  add\n  dup1\n  0x45524332303a206d696e7420746f20746865207a65726f206164647265737300\n  dup2\n  mstore\n  pop\n  0x20\n  add\n  swap2\n  pop\n  pop\n  mload(0x40)\n  dup1\n  swap2\n  sub\n  swap1\n  revert\ntag_11:\n    /* \"contracts/TF_erc20.sol\":11109:11133  _totalSupply.add(amount) */\n  tag_12\n    /* \"contracts/TF_erc20.sol\":11126:11132  amount */\n  dup2\n    /* \"contracts/TF_erc20.sol\":11109:11121  _totalSupply */\n  sload(0x5)\n    /* \"contracts/TF_erc20.sol\":11109:11125  _totalSupply.add */\n  or(tag_0_76, mul(0x100000000, tag_13))\n  swap1\n    /* \"contracts/TF_erc20.sol\":11109:11133  _totalSupply.add(amount) */\n  swap2\n  swap1\n  0x100000000\n  swap1\n  div\n  jump\t// in\ntag_12:\n    /* \"contracts/TF_erc20.sol\":11094:11106  _totalSupply */\n  0x5\n    /* \"contracts/TF_erc20.sol\":11094:11133  _totalSupply = _totalSupply.add(amount) */\n  dup2\n  swap1\n  sstore\n  pop\n    /* \"contracts/TF_erc20.sol\":11164:11194  _balances[account].add(amount) */\n  tag_14\n    /* \"contracts/TF_erc20.sol\":11187:11193  amount */\n  dup2\n    /* \"contracts/TF_erc20.sol\":11164:11173  _balances */\n  0x0\n    /* \"contracts/TF_erc20.sol\":11164:11182  _balances[account] */\n  dup1\n    /* \"contracts/TF_erc20.sol\":11174:11181  account */\n  dup6\n    /* \"contracts/TF_erc20.sol\":11164:11182  _balances[account] */\n  0xffffffffffffffffffffffffffffffffffffffff\n  and\n  0xffffffffffffffffffffffffffffffffffffffff\n  and\n  dup2\n  mstore\n  0x20\n  add\n  swap1\n  dup2\n  mstore\n  0x20\n  add\n  0x0\n  keccak256\n  sload\n    /* \"contracts/TF_erc20.sol\":11164:11186  _balances[account].add */\n  or(tag_0_76, mul(0x100000000, tag_13))\n  swap1\n    /* \"contracts/TF_erc20.sol\":11164:11194  _balances[account].add(amount) */\n  swap2\n  swap1\n  0x100000000\n  swap1\n  div\n  jump\t// in\ntag_14:\n    /* \"contracts/TF_erc20.sol\":11143:11152  _balances */\n  0x0\n    /* \"contracts/TF_erc20.sol\":11143:11161  _balances[account] */\n  dup1\n    /* \"contracts/TF_erc20.sol\":11153:11160  account */\n  dup5\n    /* \"contracts/TF_erc20.sol\":11143:11161  _balances[account] */\n  0xffffffffffffffffffffffffffffffffffffffff\n  and\n  0xffffffffffffffffffffffffffffffffffffffff\n  and\n  dup2\n  mstore\n  0x20\n  add\n  swap1\n  dup2\n  mstore\n  0x20\n  add\n  0x0\n  keccak256\n    /* \"contracts/TF_erc20.sol\":11143:11194  _balances[account] = _balances[account].add(amount) */\n  dup2\n  swap1\n  sstore\n  pop\n    /* \"contracts/TF_erc20.sol\":11230:11237  account */\n  dup2\n    /* \"contracts/TF_erc20.sol\":11209:11246  Transfer(address(0), account, amount) */\n  0xffffffffffffffffffffffffffffffffffffffff\n  and\n    /* \"contracts/TF_erc20.sol\":11226:11227  0 */\n  0x0\n    /* \"contracts/TF_erc20.sol\":11209:11246  Transfer(address(0), account, amount) */\n  0xffffffffffffffffffffffffffffffffffffffff\n  and\n  0xddf252ad1be2c89b69c2b068fc378daa952ba7f163c4a11628f55a4df523b3ef\n    /* \"contracts/TF_erc20.sol\":11239:11245  amount */\n  dup4\n    /* \"contracts/TF_erc20.sol\":11209:11246  Transfer(address(0), account, amount) */\n  mload(0x40)\n  dup1\n  dup3\n  dup2\n  mstore\n  0x20\n  add\n  swap2\n  pop\n  pop\n  mload(0x40)\n  dup1\n  swap2\n  sub\n  swap1\n  log3\n    /* \"contracts/TF_erc20.sol\":10951:11253  function _mint(address account, uint256 amount) internal {... */\n  pop\n  pop\n  jump\t// out\n    /* \"contracts/TF_erc20.sol\":1095:1271  function add(uint256 a, uint256 b) internal pure returns (uint256) {... */\ntag_13:\n    /* \"contracts/TF_erc20.sol\":1153:1160  uint256 */\n  0x0\n    /* \"contracts/TF_erc20.sol\":1172:1181  uint256 c */\n  dup1\n    /* \"contracts/TF_erc20.sol\":1188:1189  b */\n  dup3\n    /* \"contracts/TF_erc20.sol\":1184:1185  a */\n  dup5\n    /* \"contracts/TF_erc20.sol\":1184:1189  a + b */\n  add\n    /* \"contracts/TF_erc20.sol\":1172:1189  uint256 c = a + b */\n  swap1\n  pop\n    /* \"contracts/TF_erc20.sol\":1212:1213  a */\n  dup4\n    /* \"contracts/TF_erc20.sol\":1207:1208  c */\n  dup2\n    /* \"contracts/TF_erc20.sol\":1207:1213  c >= a */\n  lt\n  iszero\n    /* \"contracts/TF_erc20.sol\":1199:1245  require(c >= a, \"SafeMath: addition overflow\") */\n  iszero\n  iszero\n  tag_16\n  jumpi\n  mload(0x40)\n  0x8c379a000000000000000000000000000000000000000000000000000000000\n  dup2\n  mstore\n  0x4\n  add\n  dup1\n  dup1\n  0x20\n  add\n  dup3\n  dup2\n  sub\n  dup3\n  mstore\n  0x1b\n  dup2\n  mstore\n  0x20\n  add\n  dup1\n  0x536166654d6174683a206164646974696f6e206f766572666c6f770000000000\n  dup2\n  mstore\n  pop\n  0x20\n  add\n  swap2\n  pop\n  pop\n  mload(0x40)\n  dup1\n  swap2\n  sub\n  swap1\n  revert\ntag_16:\n    /* \"contracts/TF_erc20.sol\":1263:1264  c */\n  dup1\n    /* \"contracts/TF_erc20.sol\":1256:1264  return c */\n  swap2\n  pop\n    /* \"contracts/TF_erc20.sol\":1095:1271  function add(uint256 a, uint256 b) internal pure returns (uint256) {... */\n  pop\n  swap3\n  swap2\n  pop\n  pop\n  jump\t// out\n    /* \"contracts/TF_erc20.sol\":4941:13231  contract TF is IERC20 {... */\ntag_2:\n  dup3\n  dup1\n  sload\n  0x1\n  dup2\n  0x1\n  and\n  iszero\n  0x100\n  mul\n  sub\n  and\n  0x2\n  swap1\n  div\n  swap1\n  0x0\n  mstore\n  keccak256(0x0, 0x20)\n  swap1\n  0x1f\n  add\n  0x20\n  swap1\n  div\n  dup2\n  add\n  swap3\n  dup3\n  0x1f\n  lt\n  tag_18\n  jumpi\n  dup1\n  mload\n  not(0xff)\n  and\n  dup4\n  dup1\n  add\n  or\n  dup6\n  sstore\n  jump(tag_17)\ntag_18:\n  dup3\n  dup1\n  add\n  0x1\n  add\n  dup6\n  sstore\n  dup3\n  iszero\n  tag_17\n  jumpi\n  swap2\n  dup3\n  add\ntag_19:\n  dup3\n  dup2\n  gt\n  iszero\n  tag_20\n  jumpi\n  dup3\n  mload\n  dup3\n  sstore\n  swap2\n  0x20\n  add\n  swap2\n  swap1\n  0x1\n  add\n  swap1\n  jump(tag_19)\ntag_20:\ntag_17:\n  pop\n  swap1\n  pop\n  tag_21\n  swap2\n  swap1\n  jump\t// in(tag_22)\ntag_21:\n  pop\n  swap1\n  jump\t// out\ntag_22:\n  tag_23\n  swap2\n  swap1\ntag_24:\n  dup1\n  dup3\n  gt\n  iszero\n  tag_25\n  jumpi\n  0x0\n  dup2\n  0x0\n  swap1\n  sstore\n  pop\n  0x1\n  add\n  jump(tag_24)\ntag_25:\n  pop\n  swap1\n  jump\ntag_23:\n  swap1\n  jump\t// out\ntag_9:\n  dataSize(sub_0)\n  dup1\n  dataOffset(sub_0)\n  0x0\n  codecopy\n  0x0\n  return\nstop\n\nsub_0: assembly {\n        /* \"contracts/TF_erc20.sol\":4941:13231  contract TF is IERC20 {... */\n      mstore(0x40, 0x80)\n      jumpi(tag_1, lt(calldatasize, 0x4))\n      calldataload(0x0)\n      0x100000000000000000000000000000000000000000000000000000000\n      swap1\n      div\n      0xffffffff\n      and\n      dup1\n      0x6fdde03\n      eq\n      tag_2\n      jumpi\n      dup1\n      0x95ea7b3\n      eq\n      tag_3\n      jumpi\n      dup1\n      0x18160ddd\n      eq\n      tag_4\n      jumpi\n      dup1\n      0x23b872dd\n      eq\n      tag_5\n      jumpi\n      dup1\n      0x313ce567\n      eq\n      tag_6\n      jumpi\n      dup1\n      0x39509351\n      eq\n      tag_7\n      jumpi\n      dup1\n      0x70a08231\n      eq\n      tag_8\n      jumpi\n      dup1\n      0x95d89b41\n      eq\n      tag_9\n      jumpi\n      dup1\n      0xa25fb97a\n      eq\n      tag_10\n      jumpi\n      dup1\n      0xa457c2d7\n      eq\n      tag_11\n      jumpi\n      dup1\n      0xa9059cbb\n      eq\n      tag_12\n      jumpi\n      dup1\n      0xdd62ed3e\n      eq\n      tag_13\n      jumpi\n    tag_1:\n      0x0\n      dup1\n      revert\n        /* \"contracts/TF_erc20.sol\":5559:5640  function name() public view returns (string memory) {... */\n    tag_2:\n      callvalue\n        /* \"--CODEGEN--\":8:17   */\n      dup1\n        /* \"--CODEGEN--\":5:7   */\n      iszero\n      tag_14\n      jumpi\n        /* \"--CODEGEN--\":30:31   */\n      0x0\n        /* \"--CODEGEN--\":27:28   */\n      dup1\n        /* \"--CODEGEN--\":20:32   */\n      revert\n        /* \"--CODEGEN--\":5:7   */\n    tag_14:\n        /* \"contracts/TF_erc20.sol\":5559:5640  function name() public view returns (string memory) {... */\n      pop\n      tag_15\n      jump(tag_16)\n    tag_15:\n      mload(0x40)\n      dup1\n      dup1\n      0x20\n      add\n      dup3\n      dup2\n      sub\n      dup3\n      mstore\n      dup4\n      dup2\n      dup2\n      mload\n      dup2\n      mstore\n      0x20\n      add\n      swap2\n      pop\n      dup1\n      mload\n      swap1\n      0x20\n      add\n      swap1\n      dup1\n      dup4\n      dup4\n        /* \"--CODEGEN--\":23:24   */\n      0x0\n        /* \"--CODEGEN--\":8:108   */\n    tag_17:\n        /* \"--CODEGEN--\":33:36   */\n      dup4\n        /* \"--CODEGEN--\":30:31   */\n      dup2\n        /* \"--CODEGEN--\":27:37   */\n      lt\n        /* \"--CODEGEN--\":8:108   */\n      iszero\n      tag_18\n      jumpi\n        /* \"--CODEGEN--\":99:100   */\n      dup1\n        /* \"--CODEGEN--\":94:97   */\n      dup3\n        /* \"--CODEGEN--\":90:101   */\n      add\n        /* \"--CODEGEN--\":84:102   */\n      mload\n        /* \"--CODEGEN--\":80:81   */\n      dup2\n        /* \"--CODEGEN--\":75:78   */\n      dup5\n        /* \"--CODEGEN--\":71:82   */\n      add\n        /* \"--CODEGEN--\":64:103   */\n      mstore\n        /* \"--CODEGEN--\":52:54   */\n      0x20\n        /* \"--CODEGEN--\":49:50   */\n      dup2\n        /* \"--CODEGEN--\":45:55   */\n      add\n        /* \"--CODEGEN--\":40:55   */\n      swap1\n      pop\n        /* \"--CODEGEN--\":8:108   */\n      jump(tag_17)\n    tag_18:\n        /* \"--CODEGEN--\":12:26   */\n      pop\n        /* \"contracts/TF_erc20.sol\":5559:5640  function name() public view returns (string memory) {... */\n      pop\n      pop\n      pop\n      swap1\n      pop\n      swap1\n      dup2\n      add\n      swap1\n      0x1f\n      and\n      dup1\n      iszero\n      tag_20\n      jumpi\n      dup1\n      dup3\n      sub\n      dup1\n      mload\n      0x1\n      dup4\n      0x20\n      sub\n      0x100\n      exp\n      sub\n      not\n      and\n      dup2\n      mstore\n      0x20\n      add\n      swap2\n      pop\n    tag_20:\n      pop\n      swap3\n      pop\n      pop\n      pop\n      mload(0x40)\n      dup1\n      swap2\n      sub\n      swap1\n      return\n        /* \"contracts/TF_erc20.sol\":7633:7778  function approve(address spender, uint256 value) public returns (bool) {... */\n    tag_3:\n      callvalue\n        /* \"--CODEGEN--\":8:17   */\n      dup1\n        /* \"--CODEGEN--\":5:7   */\n      iszero\n      tag_21\n      jumpi\n        /* \"--CODEGEN--\":30:31   */\n      0x0\n        /* \"--CODEGEN--\":27:28   */\n      dup1\n        /* \"--CODEGEN--\":20:32   */\n      revert\n        /* \"--CODEGEN--\":5:7   */\n    tag_21:\n        /* \"contracts/TF_erc20.sol\":7633:7778  function approve(address spender, uint256 value) public returns (bool) {... */\n      pop\n      tag_22\n      0x4\n      dup1\n      calldatasize\n      sub\n      dup2\n      add\n      swap1\n      dup1\n      dup1\n      calldataload\n      0xffffffffffffffffffffffffffffffffffffffff\n      and\n      swap1\n      0x20\n      add\n      swap1\n      swap3\n      swap2\n      swap1\n      dup1\n      calldataload\n      swap1\n      0x20\n      add\n      swap1\n      swap3\n      swap2\n      swap1\n      pop\n      pop\n      pop\n      jump(tag_23)\n    tag_22:\n      mload(0x40)\n      dup1\n      dup3\n      iszero\n      iszero\n      iszero\n      iszero\n      dup2\n      mstore\n      0x20\n      add\n      swap2\n      pop\n      pop\n      mload(0x40)\n      dup1\n      swap2\n      sub\n      swap1\n      return\n        /* \"contracts/TF_erc20.sol\":6694:6783  function totalSupply() public view returns (uint256) {... */\n    tag_4:\n      callvalue\n        /* \"--CODEGEN--\":8:17   */\n      dup1\n        /* \"--CODEGEN--\":5:7   */\n      iszero\n      tag_24\n      jumpi\n        /* \"--CODEGEN--\":30:31   */\n      0x0\n        /* \"--CODEGEN--\":27:28   */\n      dup1\n        /* \"--CODEGEN--\":20:32   */\n      revert\n        /* \"--CODEGEN--\":5:7   */\n    tag_24:\n        /* \"contracts/TF_erc20.sol\":6694:6783  function totalSupply() public view returns (uint256) {... */\n      pop\n      tag_25\n      jump(tag_26)\n    tag_25:\n      mload(0x40)\n      dup1\n      dup3\n      dup2\n      mstore\n      0x20\n      add\n      swap2\n      pop\n      pop\n      mload(0x40)\n      dup1\n      swap2\n      sub\n      swap1\n      return\n        /* \"contracts/TF_erc20.sol\":8235:8487  function transferFrom(address sender, address recipient, uint256 amount) public returns (bool) {... */\n    tag_5:\n      callvalue\n        /* \"--CODEGEN--\":8:17   */\n      dup1\n        /* \"--CODEGEN--\":5:7   */\n      iszero\n      tag_27\n      jumpi\n        /* \"--CODEGEN--\":30:31   */\n      0x0\n        /* \"--CODEGEN--\":27:28   */\n      dup1\n        /* \"--CODEGEN--\":20:32   */\n      revert\n        /* \"--CODEGEN--\":5:7   */\n    tag_27:\n        /* \"contracts/TF_erc20.sol\":8235:8487  function transferFrom(address sender, address recipient, uint256 amount) public returns (bool) {... */\n      pop\n      tag_28\n      0x4\n      dup1\n      calldatasize\n      sub\n      dup2\n      add\n      swap1\n      dup1\n      dup1\n      calldataload\n      0xffffffffffffffffffffffffffffffffffffffff\n      and\n      swap1\n      0x20\n      add\n      swap1\n      swap3\n      swap2\n      swap1\n      dup1\n      calldataload\n      0xffffffffffffffffffffffffffffffffffffffff\n      and\n      swap1\n      0x20\n      add\n      swap1\n      swap3\n      swap2\n      swap1\n      dup1\n      calldataload\n      swap1\n      0x20\n      add\n      swap1\n      swap3\n      swap2\n      swap1\n      pop\n      pop\n      pop\n      jump(tag_29)\n    tag_28:\n      mload(0x40)\n      dup1\n      dup3\n      iszero\n      iszero\n      iszero\n      iszero\n      dup2\n      mstore\n      0x20\n      add\n      swap2\n      pop\n      pop\n      mload(0x40)\n      dup1\n      swap2\n      sub\n      swap1\n      return\n        /* \"contracts/TF_erc20.sol\":6393:6474  function decimals() public view returns (uint8) {... */\n    tag_6:\n      callvalue\n        /* \"--CODEGEN--\":8:17   */\n      dup1\n        /* \"--CODEGEN--\":5:7   */\n      iszero\n      tag_30\n      jumpi\n        /* \"--CODEGEN--\":30:31   */\n      0x0\n        /* \"--CODEGEN--\":27:28   */\n      dup1\n        /* \"--CODEGEN--\":20:32   */\n      revert\n        /* \"--CODEGEN--\":5:7   */\n    tag_30:\n        /* \"contracts/TF_erc20.sol\":6393:6474  function decimals() public view returns (uint8) {... */\n      pop\n      tag_31\n      jump(tag_32)\n    tag_31:\n      mload(0x40)\n      dup1\n      dup3\n      0xff\n      and\n      0xff\n      and\n      dup2\n      mstore\n      0x20\n      add\n      swap2\n      pop\n      pop\n      mload(0x40)\n      dup1\n      swap2\n      sub\n      swap1\n      return\n        /* \"contracts/TF_erc20.sol\":8882:9085  function increaseAllowance(address spender, uint256 addedValue) public returns (bool) {... */\n    tag_7:\n      callvalue\n        /* \"--CODEGEN--\":8:17   */\n      dup1\n        /* \"--CODEGEN--\":5:7   */\n      iszero\n      tag_33\n      jumpi\n        /* \"--CODEGEN--\":30:31   */\n      0x0\n        /* \"--CODEGEN--\":27:28   */\n      dup1\n        /* \"--CODEGEN--\":20:32   */\n      revert\n        /* \"--CODEGEN--\":5:7   */\n    tag_33:\n        /* \"contracts/TF_erc20.sol\":8882:9085  function increaseAllowance(address spender, uint256 addedValue) public returns (bool) {... */\n      pop\n      tag_34\n      0x4\n      dup1\n      calldatasize\n      sub\n      dup2\n      add\n      swap1\n      dup1\n      dup1\n      calldataload\n      0xffffffffffffffffffffffffffffffffffffffff\n      and\n      swap1\n      0x20\n      add\n      swap1\n      swap3\n      swap2\n      swap1\n      dup1\n      calldataload\n      swap1\n      0x20\n      add\n      swap1\n      swap3\n      swap2\n      swap1\n      pop\n      pop\n      pop\n      jump(tag_35)\n    tag_34:\n      mload(0x40)\n      dup1\n      dup3\n      iszero\n      iszero\n      iszero\n      iszero\n      dup2\n      mstore\n      0x20\n      add\n      swap2\n      pop\n      pop\n      mload(0x40)\n      dup1\n      swap2\n      sub\n      swap1\n      return\n        /* \"contracts/TF_erc20.sol\":6841:6949  function balanceOf(address account) public view returns (uint256) {... */\n    tag_8:\n      callvalue\n        /* \"--CODEGEN--\":8:17   */\n      dup1\n        /* \"--CODEGEN--\":5:7   */\n      iszero\n      tag_36\n      jumpi\n        /* \"--CODEGEN--\":30:31   */\n      0x0\n        /* \"--CODEGEN--\":27:28   */\n      dup1\n        /* \"--CODEGEN--\":20:32   */\n      revert\n        /* \"--CODEGEN--\":5:7   */\n    tag_36:\n        /* \"contracts/TF_erc20.sol\":6841:6949  function balanceOf(address account) public view returns (uint256) {... */\n      pop\n      tag_37\n      0x4\n      dup1\n      calldatasize\n      sub\n      dup2\n      add\n      swap1\n      dup1\n      dup1\n      calldataload\n      0xffffffffffffffffffffffffffffffffffffffff\n      and\n      swap1\n      0x20\n      add\n      swap1\n      swap3\n      swap2\n      swap1\n      pop\n      pop\n      pop\n      jump(tag_38)\n    tag_37:\n      mload(0x40)\n      dup1\n      dup3\n      dup2\n      mstore\n      0x20\n      add\n      swap2\n      pop\n      pop\n      mload(0x40)\n      dup1\n      swap2\n      sub\n      swap1\n      return\n        /* \"contracts/TF_erc20.sol\":5753:5838  function symbol() public view returns (string memory) {... */\n    tag_9:\n      callvalue\n        /* \"--CODEGEN--\":8:17   */\n      dup1\n        /* \"--CODEGEN--\":5:7   */\n      iszero\n      tag_39\n      jumpi\n        /* \"--CODEGEN--\":30:31   */\n      0x0\n        /* \"--CODEGEN--\":27:28   */\n      dup1\n        /* \"--CODEGEN--\":20:32   */\n      revert\n        /* \"--CODEGEN--\":5:7   */\n    tag_39:\n        /* \"contracts/TF_erc20.sol\":5753:5838  function symbol() public view returns (string memory) {... */\n      pop\n      tag_40\n      jump(tag_41)\n    tag_40:\n      mload(0x40)\n      dup1\n      dup1\n      0x20\n      add\n      dup3\n      dup2\n      sub\n      dup3\n      mstore\n      dup4\n      dup2\n      dup2\n      mload\n      dup2\n      mstore\n      0x20\n      add\n      swap2\n      pop\n      dup1\n      mload\n      swap1\n      0x20\n      add\n      swap1\n      dup1\n      dup4\n      dup4\n        /* \"--CODEGEN--\":23:24   */\n      0x0\n        /* \"--CODEGEN--\":8:108   */\n    tag_42:\n        /* \"--CODEGEN--\":33:36   */\n      dup4\n        /* \"--CODEGEN--\":30:31   */\n      dup2\n        /* \"--CODEGEN--\":27:37   */\n      lt\n        /* \"--CODEGEN--\":8:108   */\n      iszero\n      tag_43\n      jumpi\n        /* \"--CODEGEN--\":99:100   */\n      dup1\n        /* \"--CODEGEN--\":94:97   */\n      dup3\n        /* \"--CODEGEN--\":90:101   */\n      add\n        /* \"--CODEGEN--\":84:102   */\n      mload\n        /* \"--CODEGEN--\":80:81   */\n      dup2\n        /* \"--CODEGEN--\":75:78   */\n      dup5\n        /* \"--CODEGEN--\":71:82   */\n      add\n        /* \"--CODEGEN--\":64:103   */\n      mstore\n        /* \"--CODEGEN--\":52:54   */\n      0x20\n        /* \"--CODEGEN--\":49:50   */\n      dup2\n        /* \"--CODEGEN--\":45:55   */\n      add\n        /* \"--CODEGEN--\":40:55   */\n      swap1\n      pop\n        /* \"--CODEGEN--\":8:108   */\n      jump(tag_42)\n    tag_43:\n        /* \"--CODEGEN--\":12:26   */\n      pop\n        /* \"contracts/TF_erc20.sol\":5753:5838  function symbol() public view returns (string memory) {... */\n      pop\n      pop\n      pop\n      swap1\n      pop\n      swap1\n      dup2\n      add\n      swap1\n      0x1f\n      and\n      dup1\n      iszero\n      tag_45\n      jumpi\n      dup1\n      dup3\n      sub\n      dup1\n      mload\n      0x1\n      dup4\n      0x20\n      sub\n      0x100\n      exp\n      sub\n      not\n      and\n      dup2\n      mstore\n      0x20\n      add\n      swap2\n      pop\n    tag_45:\n      pop\n      swap3\n      pop\n      pop\n      pop\n      mload(0x40)\n      dup1\n      swap2\n      sub\n      swap1\n      return\n        /* \"contracts/TF_erc20.sol\":12999:13229  function approveTest(address spender, uint256 value) public returns (address, address, uint256) {... */\n    tag_10:\n      callvalue\n        /* \"--CODEGEN--\":8:17   */\n      dup1\n        /* \"--CODEGEN--\":5:7   */\n      iszero\n      tag_46\n      jumpi\n        /* \"--CODEGEN--\":30:31   */\n      0x0\n        /* \"--CODEGEN--\":27:28   */\n      dup1\n        /* \"--CODEGEN--\":20:32   */\n      revert\n        /* \"--CODEGEN--\":5:7   */\n    tag_46:\n        /* \"contracts/TF_erc20.sol\":12999:13229  function approveTest(address spender, uint256 value) public returns (address, address, uint256) {... */\n      pop\n      tag_47\n      0x4\n      dup1\n      calldatasize\n      sub\n      dup2\n      add\n      swap1\n      dup1\n      dup1\n      calldataload\n      0xffffffffffffffffffffffffffffffffffffffff\n      and\n      swap1\n      0x20\n      add\n      swap1\n      swap3\n      swap2\n      swap1\n      dup1\n      calldataload\n      swap1\n      0x20\n      add\n      swap1\n      swap3\n      swap2\n      swap1\n      pop\n      pop\n      pop\n      jump(tag_48)\n    tag_47:\n      mload(0x40)\n      dup1\n      dup5\n      0xffffffffffffffffffffffffffffffffffffffff\n      and\n      0xffffffffffffffffffffffffffffffffffffffff\n      and\n      dup2\n      mstore\n      0x20\n      add\n      dup4\n      0xffffffffffffffffffffffffffffffffffffffff\n      and\n      0xffffffffffffffffffffffffffffffffffffffff\n      and\n      dup2\n      mstore\n      0x20\n      add\n      dup3\n      dup2\n      mstore\n      0x20\n      add\n      swap4\n      pop\n      pop\n      pop\n      pop\n      mload(0x40)\n      dup1\n      swap2\n      sub\n      swap1\n      return\n        /* \"contracts/TF_erc20.sol\":9572:9785  function decreaseAllowance(address spender, uint256 subtractedValue) public returns (bool) {... */\n    tag_11:\n      callvalue\n        /* \"--CODEGEN--\":8:17   */\n      dup1\n        /* \"--CODEGEN--\":5:7   */\n      iszero\n      tag_49\n      jumpi\n        /* \"--CODEGEN--\":30:31   */\n      0x0\n        /* \"--CODEGEN--\":27:28   */\n      dup1\n        /* \"--CODEGEN--\":20:32   */\n      revert\n        /* \"--CODEGEN--\":5:7   */\n    tag_49:\n        /* \"contracts/TF_erc20.sol\":9572:9785  function decreaseAllowance(address spender, uint256 subtractedValue) public returns (bool) {... */\n      pop\n      tag_50\n      0x4\n      dup1\n      calldatasize\n      sub\n      dup2\n      add\n      swap1\n      dup1\n      dup1\n      calldataload\n      0xffffffffffffffffffffffffffffffffffffffff\n      and\n      swap1\n      0x20\n      add\n      swap1\n      swap3\n      swap2\n      swap1\n      dup1\n      calldataload\n      swap1\n      0x20\n      add\n      swap1\n      swap3\n      swap2\n      swap1\n      pop\n      pop\n      pop\n      jump(tag_51)\n    tag_50:\n      mload(0x40)\n      dup1\n      dup3\n      iszero\n      iszero\n      iszero\n      iszero\n      dup2\n      mstore\n      0x20\n      add\n      swap2\n      pop\n      pop\n      mload(0x40)\n      dup1\n      swap2\n      sub\n      swap1\n      return\n        /* \"contracts/TF_erc20.sol\":7152:7305  function transfer(address recipient, uint256 amount) public returns (bool) {... */\n    tag_12:\n      callvalue\n        /* \"--CODEGEN--\":8:17   */\n      dup1\n        /* \"--CODEGEN--\":5:7   */\n      iszero\n      tag_52\n      jumpi\n        /* \"--CODEGEN--\":30:31   */\n      0x0\n        /* \"--CODEGEN--\":27:28   */\n      dup1\n        /* \"--CODEGEN--\":20:32   */\n      revert\n        /* \"--CODEGEN--\":5:7   */\n    tag_52:\n        /* \"contracts/TF_erc20.sol\":7152:7305  function transfer(address recipient, uint256 amount) public returns (bool) {... */\n      pop\n      tag_53\n      0x4\n      dup1\n      calldatasize\n      sub\n      dup2\n      add\n      swap1\n      dup1\n      dup1\n      calldataload\n      0xffffffffffffffffffffffffffffffffffffffff\n      and\n      swap1\n      0x20\n      add\n      swap1\n      swap3\n      swap2\n      swap1\n      dup1\n      calldataload\n      swap1\n      0x20\n      add\n      swap1\n      swap3\n      swap2\n      swap1\n      pop\n      pop\n      pop\n      jump(tag_54)\n    tag_53:\n      mload(0x40)\n      dup1\n      dup3\n      iszero\n      iszero\n      iszero\n      iszero\n      dup2\n      mstore\n      0x20\n      add\n      swap2\n      pop\n      pop\n      mload(0x40)\n      dup1\n      swap2\n      sub\n      swap1\n      return\n        /* \"contracts/TF_erc20.sol\":7363:7495  function allowance(address owner, address spender) public view returns (uint256) {... */\n    tag_13:\n      callvalue\n        /* \"--CODEGEN--\":8:17   */\n      dup1\n        /* \"--CODEGEN--\":5:7   */\n      iszero\n      tag_55\n      jumpi\n        /* \"--CODEGEN--\":30:31   */\n      0x0\n        /* \"--CODEGEN--\":27:28   */\n      dup1\n        /* \"--CODEGEN--\":20:32   */\n      revert\n        /* \"--CODEGEN--\":5:7   */\n    tag_55:\n        /* \"contracts/TF_erc20.sol\":7363:7495  function allowance(address owner, address spender) public view returns (uint256) {... */\n      pop\n      tag_56\n      0x4\n      dup1\n      calldatasize\n      sub\n      dup2\n      add\n      swap1\n      dup1\n      dup1\n      calldataload\n      0xffffffffffffffffffffffffffffffffffffffff\n      and\n      swap1\n      0x20\n      add\n      swap1\n      swap3\n      swap2\n      swap1\n      dup1\n      calldataload\n      0xffffffffffffffffffffffffffffffffffffffff\n      and\n      swap1\n      0x20\n      add\n      swap1\n      swap3\n      swap2\n      swap1\n      pop\n      pop\n      pop\n      jump(tag_57)\n    tag_56:\n      mload(0x40)\n      dup1\n      dup3\n      dup2\n      mstore\n      0x20\n      add\n      swap2\n      pop\n      pop\n      mload(0x40)\n      dup1\n      swap2\n      sub\n      swap1\n      return\n        /* \"contracts/TF_erc20.sol\":5559:5640  function name() public view returns (string memory) {... */\n    tag_16:\n        /* \"contracts/TF_erc20.sol\":5596:5602  string */\n      0x60\n        /* \"contracts/TF_erc20.sol\":5628:5633  _name */\n      0x2\n        /* \"contracts/TF_erc20.sol\":5621:5633  return _name */\n      dup1\n      sload\n      0x1\n      dup2\n      0x1\n      and\n      iszero\n      0x100\n      mul\n      sub\n      and\n      0x2\n      swap1\n      div\n      dup1\n      0x1f\n      add\n      0x20\n      dup1\n      swap2\n      div\n      mul\n      0x20\n      add\n      mload(0x40)\n      swap1\n      dup2\n      add\n      0x40\n      mstore\n      dup1\n      swap3\n      swap2\n      swap1\n      dup2\n      dup2\n      mstore\n      0x20\n      add\n      dup3\n      dup1\n      sload\n      0x1\n      dup2\n      0x1\n      and\n      iszero\n      0x100\n      mul\n      sub\n      and\n      0x2\n      swap1\n      div\n      dup1\n      iszero\n      tag_59\n      jumpi\n      dup1\n      0x1f\n      lt\n      tag_60\n      jumpi\n      0x100\n      dup1\n      dup4\n      sload\n      div\n      mul\n      dup4\n      mstore\n      swap2\n      0x20\n      add\n      swap2\n      jump(tag_59)\n    tag_60:\n      dup3\n      add\n      swap2\n      swap1\n      0x0\n      mstore\n      keccak256(0x0, 0x20)\n      swap1\n    tag_61:\n      dup2\n      sload\n      dup2\n      mstore\n      swap1\n      0x1\n      add\n      swap1\n      0x20\n      add\n      dup1\n      dup4\n      gt\n      tag_61\n      jumpi\n      dup3\n      swap1\n      sub\n      0x1f\n      and\n      dup3\n      add\n      swap2\n    tag_59:\n      pop\n      pop\n      pop\n      pop\n      pop\n      swap1\n      pop\n        /* \"contracts/TF_erc20.sol\":5559:5640  function name() public view returns (string memory) {... */\n      swap1\n      jump\t// out\n        /* \"contracts/TF_erc20.sol\":7633:7778  function approve(address spender, uint256 value) public returns (bool) {... */\n    tag_23:\n        /* \"contracts/TF_erc20.sol\":7698:7702  bool */\n      0x0\n        /* \"contracts/TF_erc20.sol\":7714:7750  _approve(msg.sender, spender, value) */\n      tag_63\n        /* \"contracts/TF_erc20.sol\":7723:7733  msg.sender */\n      caller\n        /* \"contracts/TF_erc20.sol\":7735:7742  spender */\n      dup5\n        /* \"contracts/TF_erc20.sol\":7744:7749  value */\n      dup5\n        /* \"contracts/TF_erc20.sol\":7714:7722  _approve */\n      tag_64\n        /* \"contracts/TF_erc20.sol\":7714:7750  _approve(msg.sender, spender, value) */\n      jump\t// in\n    tag_63:\n        /* \"contracts/TF_erc20.sol\":7767:7771  true */\n      0x1\n        /* \"contracts/TF_erc20.sol\":7760:7771  return true */\n      swap1\n      pop\n        /* \"contracts/TF_erc20.sol\":7633:7778  function approve(address spender, uint256 value) public returns (bool) {... */\n      swap3\n      swap2\n      pop\n      pop\n      jump\t// out\n        /* \"contracts/TF_erc20.sol\":6694:6783  function totalSupply() public view returns (uint256) {... */\n    tag_26:\n        /* \"contracts/TF_erc20.sol\":6738:6745  uint256 */\n      0x0\n        /* \"contracts/TF_erc20.sol\":6764:6776  _totalSupply */\n      sload(0x5)\n        /* \"contracts/TF_erc20.sol\":6757:6776  return _totalSupply */\n      swap1\n      pop\n        /* \"contracts/TF_erc20.sol\":6694:6783  function totalSupply() public view returns (uint256) {... */\n      swap1\n      jump\t// out\n        /* \"contracts/TF_erc20.sol\":8235:8487  function transferFrom(address sender, address recipient, uint256 amount) public returns (bool) {... */\n    tag_29:\n        /* \"contracts/TF_erc20.sol\":8324:8328  bool */\n      0x0\n        /* \"contracts/TF_erc20.sol\":8340:8376  _transfer(sender, recipient, amount) */\n      tag_67\n        /* \"contracts/TF_erc20.sol\":8350:8356  sender */\n      dup5\n        /* \"contracts/TF_erc20.sol\":8358:8367  recipient */\n      dup5\n        /* \"contracts/TF_erc20.sol\":8369:8375  amount */\n      dup5\n        /* \"contracts/TF_erc20.sol\":8340:8349  _transfer */\n      tag_68\n        /* \"contracts/TF_erc20.sol\":8340:8376  _transfer(sender, recipient, amount) */\n      jump\t// in\n    tag_67:\n        /* \"contracts/TF_erc20.sol\":8386:8459  _approve(sender, msg.sender, _allowances[sender][msg.sender].sub(amount)) */\n      tag_69\n        /* \"contracts/TF_erc20.sol\":8395:8401  sender */\n      dup5\n        /* \"contracts/TF_erc20.sol\":8403:8413  msg.sender */\n      caller\n        /* \"contracts/TF_erc20.sol\":8415:8458  _allowances[sender][msg.sender].sub(amount) */\n      tag_70\n        /* \"contracts/TF_erc20.sol\":8451:8457  amount */\n      dup6\n        /* \"contracts/TF_erc20.sol\":8415:8426  _allowances */\n      0x1\n        /* \"contracts/TF_erc20.sol\":8415:8434  _allowances[sender] */\n      0x0\n        /* \"contracts/TF_erc20.sol\":8427:8433  sender */\n      dup11\n        /* \"contracts/TF_erc20.sol\":8415:8434  _allowances[sender] */\n      0xffffffffffffffffffffffffffffffffffffffff\n      and\n      0xffffffffffffffffffffffffffffffffffffffff\n      and\n      dup2\n      mstore\n      0x20\n      add\n      swap1\n      dup2\n      mstore\n      0x20\n      add\n      0x0\n      keccak256\n        /* \"contracts/TF_erc20.sol\":8415:8446  _allowances[sender][msg.sender] */\n      0x0\n        /* \"contracts/TF_erc20.sol\":8435:8445  msg.sender */\n      caller\n        /* \"contracts/TF_erc20.sol\":8415:8446  _allowances[sender][msg.sender] */\n      0xffffffffffffffffffffffffffffffffffffffff\n      and\n      0xffffffffffffffffffffffffffffffffffffffff\n      and\n      dup2\n      mstore\n      0x20\n      add\n      swap1\n      dup2\n      mstore\n      0x20\n      add\n      0x0\n      keccak256\n      sload\n        /* \"contracts/TF_erc20.sol\":8415:8450  _allowances[sender][msg.sender].sub */\n      tag_71\n      swap1\n        /* \"contracts/TF_erc20.sol\":8415:8458  _allowances[sender][msg.sender].sub(amount) */\n      swap2\n      swap1\n      0xffffffff\n      and\n      jump\t// in\n    tag_70:\n        /* \"contracts/TF_erc20.sol\":8386:8394  _approve */\n      tag_64\n        /* \"contracts/TF_erc20.sol\":8386:8459  _approve(sender, msg.sender, _allowances[sender][msg.sender].sub(amount)) */\n      jump\t// in\n    tag_69:\n        /* \"contracts/TF_erc20.sol\":8476:8480  true */\n      0x1\n        /* \"contracts/TF_erc20.sol\":8469:8480  return true */\n      swap1\n      pop\n        /* \"contracts/TF_erc20.sol\":8235:8487  function transferFrom(address sender, address recipient, uint256 amount) public returns (bool) {... */\n      swap4\n      swap3\n      pop\n      pop\n      pop\n      jump\t// out\n        /* \"contracts/TF_erc20.sol\":6393:6474  function decimals() public view returns (uint8) {... */\n    tag_32:\n        /* \"contracts/TF_erc20.sol\":6434:6439  uint8 */\n      0x0\n        /* \"contracts/TF_erc20.sol\":6458:6467  _decimals */\n      0x4\n      0x0\n      swap1\n      sload\n      swap1\n      0x100\n      exp\n      swap1\n      div\n      0xff\n      and\n        /* \"contracts/TF_erc20.sol\":6451:6467  return _decimals */\n      swap1\n      pop\n        /* \"contracts/TF_erc20.sol\":6393:6474  function decimals() public view returns (uint8) {... */\n      swap1\n      jump\t// out\n        /* \"contracts/TF_erc20.sol\":8882:9085  function increaseAllowance(address spender, uint256 addedValue) public returns (bool) {... */\n    tag_35:\n        /* \"contracts/TF_erc20.sol\":8962:8966  bool */\n      0x0\n        /* \"contracts/TF_erc20.sol\":8978:9057  _approve(msg.sender, spender, _allowances[msg.sender][spender].add(addedValue)) */\n      tag_74\n        /* \"contracts/TF_erc20.sol\":8987:8997  msg.sender */\n      caller\n        /* \"contracts/TF_erc20.sol\":8999:9006  spender */\n      dup5\n        /* \"contracts/TF_erc20.sol\":9008:9056  _allowances[msg.sender][spender].add(addedValue) */\n      tag_75\n        /* \"contracts/TF_erc20.sol\":9045:9055  addedValue */\n      dup6\n        /* \"contracts/TF_erc20.sol\":9008:9019  _allowances */\n      0x1\n        /* \"contracts/TF_erc20.sol\":9008:9031  _allowances[msg.sender] */\n      0x0\n        /* \"contracts/TF_erc20.sol\":9020:9030  msg.sender */\n      caller\n        /* \"contracts/TF_erc20.sol\":9008:9031  _allowances[msg.sender] */\n      0xffffffffffffffffffffffffffffffffffffffff\n      and\n      0xffffffffffffffffffffffffffffffffffffffff\n      and\n      dup2\n      mstore\n      0x20\n      add\n      swap1\n      dup2\n      mstore\n      0x20\n      add\n      0x0\n      keccak256\n        /* \"contracts/TF_erc20.sol\":9008:9040  _allowances[msg.sender][spender] */\n      0x0\n        /* \"contracts/TF_erc20.sol\":9032:9039  spender */\n      dup10\n        /* \"contracts/TF_erc20.sol\":9008:9040  _allowances[msg.sender][spender] */\n      0xffffffffffffffffffffffffffffffffffffffff\n      and\n      0xffffffffffffffffffffffffffffffffffffffff\n      and\n      dup2\n      mstore\n      0x20\n      add\n      swap1\n      dup2\n      mstore\n      0x20\n      add\n      0x0\n      keccak256\n      sload\n        /* \"contracts/TF_erc20.sol\":9008:9044  _allowances[msg.sender][spender].add */\n      tag_76\n      swap1\n        /* \"contracts/TF_erc20.sol\":9008:9056  _allowances[msg.sender][spender].add(addedValue) */\n      swap2\n      swap1\n      0xffffffff\n      and\n      jump\t// in\n    tag_75:\n        /* \"contracts/TF_erc20.sol\":8978:8986  _approve */\n      tag_64\n        /* \"contracts/TF_erc20.sol\":8978:9057  _approve(msg.sender, spender, _allowances[msg.sender][spender].add(addedValue)) */\n      jump\t// in\n    tag_74:\n        /* \"contracts/TF_erc20.sol\":9074:9078  true */\n      0x1\n        /* \"contracts/TF_erc20.sol\":9067:9078  return true */\n      swap1\n      pop\n        /* \"contracts/TF_erc20.sol\":8882:9085  function increaseAllowance(address spender, uint256 addedValue) public returns (bool) {... */\n      swap3\n      swap2\n      pop\n      pop\n      jump\t// out\n        /* \"contracts/TF_erc20.sol\":6841:6949  function balanceOf(address account) public view returns (uint256) {... */\n    tag_38:\n        /* \"contracts/TF_erc20.sol\":6898:6905  uint256 */\n      0x0\n        /* \"contracts/TF_erc20.sol\":6924:6933  _balances */\n      dup1\n        /* \"contracts/TF_erc20.sol\":6924:6942  _balances[account] */\n      0x0\n        /* \"contracts/TF_erc20.sol\":6934:6941  account */\n      dup4\n        /* \"contracts/TF_erc20.sol\":6924:6942  _balances[account] */\n      0xffffffffffffffffffffffffffffffffffffffff\n      and\n      0xffffffffffffffffffffffffffffffffffffffff\n      and\n      dup2\n      mstore\n      0x20\n      add\n      swap1\n      dup2\n      mstore\n      0x20\n      add\n      0x0\n      keccak256\n      sload\n        /* \"contracts/TF_erc20.sol\":6917:6942  return _balances[account] */\n      swap1\n      pop\n        /* \"contracts/TF_erc20.sol\":6841:6949  function balanceOf(address account) public view returns (uint256) {... */\n      swap2\n      swap1\n      pop\n      jump\t// out\n        /* \"contracts/TF_erc20.sol\":5753:5838  function symbol() public view returns (string memory) {... */\n    tag_41:\n        /* \"contracts/TF_erc20.sol\":5792:5798  string */\n      0x60\n        /* \"contracts/TF_erc20.sol\":5824:5831  _symbol */\n      0x3\n        /* \"contracts/TF_erc20.sol\":5817:5831  return _symbol */\n      dup1\n      sload\n      0x1\n      dup2\n      0x1\n      and\n      iszero\n      0x100\n      mul\n      sub\n      and\n      0x2\n      swap1\n      div\n      dup1\n      0x1f\n      add\n      0x20\n      dup1\n      swap2\n      div\n      mul\n      0x20\n      add\n      mload(0x40)\n      swap1\n      dup2\n      add\n      0x40\n      mstore\n      dup1\n      swap3\n      swap2\n      swap1\n      dup2\n      dup2\n      mstore\n      0x20\n      add\n      dup3\n      dup1\n      sload\n      0x1\n      dup2\n      0x1\n      and\n      iszero\n      0x100\n      mul\n      sub\n      and\n      0x2\n      swap1\n      div\n      dup1\n      iszero\n      tag_79\n      jumpi\n      dup1\n      0x1f\n      lt\n      tag_80\n      jumpi\n      0x100\n      dup1\n      dup4\n      sload\n      div\n      mul\n      dup4\n      mstore\n      swap2\n      0x20\n      add\n      swap2\n      jump(tag_79)\n    tag_80:\n      dup3\n      add\n      swap2\n      swap1\n      0x0\n      mstore\n      keccak256(0x0, 0x20)\n      swap1\n    tag_81:\n      dup2\n      sload\n      dup2\n      mstore\n      swap1\n      0x1\n      add\n      swap1\n      0x20\n      add\n      dup1\n      dup4\n      gt\n      tag_81\n      jumpi\n      dup3\n      swap1\n      sub\n      0x1f\n      and\n      dup3\n      add\n      swap2\n    tag_79:\n      pop\n      pop\n      pop\n      pop\n      pop\n      swap1\n      pop\n        /* \"contracts/TF_erc20.sol\":5753:5838  function symbol() public view returns (string memory) {... */\n      swap1\n      jump\t// out\n        /* \"contracts/TF_erc20.sol\":12999:13229  function approveTest(address spender, uint256 value) public returns (address, address, uint256) {... */\n    tag_48:\n        /* \"contracts/TF_erc20.sol\":13068:13075  address */\n      0x0\n        /* \"contracts/TF_erc20.sol\":13077:13084  address */\n      dup1\n        /* \"contracts/TF_erc20.sol\":13086:13093  uint256 */\n      0x0\n        /* \"contracts/TF_erc20.sol\":13140:13145  value */\n      dup4\n        /* \"contracts/TF_erc20.sol\":13105:13116  _allowances */\n      0x1\n        /* \"contracts/TF_erc20.sol\":13105:13128  _allowances[msg.sender] */\n      0x0\n        /* \"contracts/TF_erc20.sol\":13117:13127  msg.sender */\n      caller\n        /* \"contracts/TF_erc20.sol\":13105:13128  _allowances[msg.sender] */\n      0xffffffffffffffffffffffffffffffffffffffff\n      and\n      0xffffffffffffffffffffffffffffffffffffffff\n      and\n      dup2\n      mstore\n      0x20\n      add\n      swap1\n      dup2\n      mstore\n      0x20\n      add\n      0x0\n      keccak256\n        /* \"contracts/TF_erc20.sol\":13105:13137  _allowances[msg.sender][spender] */\n      0x0\n        /* \"contracts/TF_erc20.sol\":13129:13136  spender */\n      dup8\n        /* \"contracts/TF_erc20.sol\":13105:13137  _allowances[msg.sender][spender] */\n      0xffffffffffffffffffffffffffffffffffffffff\n      and\n      0xffffffffffffffffffffffffffffffffffffffff\n      and\n      dup2\n      mstore\n      0x20\n      add\n      swap1\n      dup2\n      mstore\n      0x20\n      add\n      0x0\n      keccak256\n        /* \"contracts/TF_erc20.sol\":13105:13145  _allowances[msg.sender][spender] = value */\n      dup2\n      swap1\n      sstore\n      pop\n        /* \"contracts/TF_erc20.sol\":13163:13173  msg.sender */\n      caller\n        /* \"contracts/TF_erc20.sol\":13175:13182  spender */\n      dup6\n        /* \"contracts/TF_erc20.sol\":13184:13195  _allowances */\n      0x1\n        /* \"contracts/TF_erc20.sol\":13184:13207  _allowances[msg.sender] */\n      0x0\n        /* \"contracts/TF_erc20.sol\":13196:13206  msg.sender */\n      caller\n        /* \"contracts/TF_erc20.sol\":13184:13207  _allowances[msg.sender] */\n      0xffffffffffffffffffffffffffffffffffffffff\n      and\n      0xffffffffffffffffffffffffffffffffffffffff\n      and\n      dup2\n      mstore\n      0x20\n      add\n      swap1\n      dup2\n      mstore\n      0x20\n      add\n      0x0\n      keccak256\n        /* \"contracts/TF_erc20.sol\":13184:13216  _allowances[msg.sender][spender] */\n      0x0\n        /* \"contracts/TF_erc20.sol\":13208:13215  spender */\n      dup9\n        /* \"contracts/TF_erc20.sol\":13184:13216  _allowances[msg.sender][spender] */\n      0xffffffffffffffffffffffffffffffffffffffff\n      and\n      0xffffffffffffffffffffffffffffffffffffffff\n      and\n      dup2\n      mstore\n      0x20\n      add\n      swap1\n      dup2\n      mstore\n      0x20\n      add\n      0x0\n      keccak256\n      sload\n        /* \"contracts/TF_erc20.sol\":13155:13217  return (msg.sender, spender, _allowances[msg.sender][spender]) */\n      swap3\n      pop\n      swap3\n      pop\n      swap3\n      pop\n        /* \"contracts/TF_erc20.sol\":12999:13229  function approveTest(address spender, uint256 value) public returns (address, address, uint256) {... */\n      swap3\n      pop\n      swap3\n      pop\n      swap3\n      jump\t// out\n        /* \"contracts/TF_erc20.sol\":9572:9785  function decreaseAllowance(address spender, uint256 subtractedValue) public returns (bool) {... */\n    tag_51:\n        /* \"contracts/TF_erc20.sol\":9657:9661  bool */\n      0x0\n        /* \"contracts/TF_erc20.sol\":9673:9757  _approve(msg.sender, spender, _allowances[msg.sender][spender].sub(subtractedValue)) */\n      tag_84\n        /* \"contracts/TF_erc20.sol\":9682:9692  msg.sender */\n      caller\n        /* \"contracts/TF_erc20.sol\":9694:9701  spender */\n      dup5\n        /* \"contracts/TF_erc20.sol\":9703:9756  _allowances[msg.sender][spender].sub(subtractedValue) */\n      tag_85\n        /* \"contracts/TF_erc20.sol\":9740:9755  subtractedValue */\n      dup6\n        /* \"contracts/TF_erc20.sol\":9703:9714  _allowances */\n      0x1\n        /* \"contracts/TF_erc20.sol\":9703:9726  _allowances[msg.sender] */\n      0x0\n        /* \"contracts/TF_erc20.sol\":9715:9725  msg.sender */\n      caller\n        /* \"contracts/TF_erc20.sol\":9703:9726  _allowances[msg.sender] */\n      0xffffffffffffffffffffffffffffffffffffffff\n      and\n      0xffffffffffffffffffffffffffffffffffffffff\n      and\n      dup2\n      mstore\n      0x20\n      add\n      swap1\n      dup2\n      mstore\n      0x20\n      add\n      0x0\n      keccak256\n        /* \"contracts/TF_erc20.sol\":9703:9735  _allowances[msg.sender][spender] */\n      0x0\n        /* \"contracts/TF_erc20.sol\":9727:9734  spender */\n      dup10\n        /* \"contracts/TF_erc20.sol\":9703:9735  _allowances[msg.sender][spender] */\n      0xffffffffffffffffffffffffffffffffffffffff\n      and\n      0xffffffffffffffffffffffffffffffffffffffff\n      and\n      dup2\n      mstore\n      0x20\n      add\n      swap1\n      dup2\n      mstore\n      0x20\n      add\n      0x0\n      keccak256\n      sload\n        /* \"contracts/TF_erc20.sol\":9703:9739  _allowances[msg.sender][spender].sub */\n      tag_71\n      swap1\n        /* \"contracts/TF_erc20.sol\":9703:9756  _allowances[msg.sender][spender].sub(subtractedValue) */\n      swap2\n      swap1\n      0xffffffff\n      and\n      jump\t// in\n    tag_85:\n        /* \"contracts/TF_erc20.sol\":9673:9681  _approve */\n      tag_64\n        /* \"contracts/TF_erc20.sol\":9673:9757  _approve(msg.sender, spender, _allowances[msg.sender][spender].sub(subtractedValue)) */\n      jump\t// in\n    tag_84:\n        /* \"contracts/TF_erc20.sol\":9774:9778  true */\n      0x1\n        /* \"contracts/TF_erc20.sol\":9767:9778  return true */\n      swap1\n      pop\n        /* \"contracts/TF_erc20.sol\":9572:9785  function decreaseAllowance(address spender, uint256 subtractedValue) public returns (bool) {... */\n      swap3\n      swap2\n      pop\n      pop\n      jump\t// out\n        /* \"contracts/TF_erc20.sol\":7152:7305  function transfer(address recipient, uint256 amount) public returns (bool) {... */\n    tag_54:\n        /* \"contracts/TF_erc20.sol\":7221:7225  bool */\n      0x0\n        /* \"contracts/TF_erc20.sol\":7237:7277  _transfer(msg.sender, recipient, amount) */\n      tag_87\n        /* \"contracts/TF_erc20.sol\":7247:7257  msg.sender */\n      caller\n        /* \"contracts/TF_erc20.sol\":7259:7268  recipient */\n      dup5\n        /* \"contracts/TF_erc20.sol\":7270:7276  amount */\n      dup5\n        /* \"contracts/TF_erc20.sol\":7237:7246  _transfer */\n      tag_68\n        /* \"contracts/TF_erc20.sol\":7237:7277  _transfer(msg.sender, recipient, amount) */\n      jump\t// in\n    tag_87:\n        /* \"contracts/TF_erc20.sol\":7294:7298  true */\n      0x1\n        /* \"contracts/TF_erc20.sol\":7287:7298  return true */\n      swap1\n      pop\n        /* \"contracts/TF_erc20.sol\":7152:7305  function transfer(address recipient, uint256 amount) public returns (bool) {... */\n      swap3\n      swap2\n      pop\n      pop\n      jump\t// out\n        /* \"contracts/TF_erc20.sol\":7363:7495  function allowance(address owner, address spender) public view returns (uint256) {... */\n    tag_57:\n        /* \"contracts/TF_erc20.sol\":7435:7442  uint256 */\n      0x0\n        /* \"contracts/TF_erc20.sol\":7461:7472  _allowances */\n      0x1\n        /* \"contracts/TF_erc20.sol\":7461:7479  _allowances[owner] */\n      0x0\n        /* \"contracts/TF_erc20.sol\":7473:7478  owner */\n      dup5\n        /* \"contracts/TF_erc20.sol\":7461:7479  _allowances[owner] */\n      0xffffffffffffffffffffffffffffffffffffffff\n      and\n      0xffffffffffffffffffffffffffffffffffffffff\n      and\n      dup2\n      mstore\n      0x20\n      add\n      swap1\n      dup2\n      mstore\n      0x20\n      add\n      0x0\n      keccak256\n        /* \"contracts/TF_erc20.sol\":7461:7488  _allowances[owner][spender] */\n      0x0\n        /* \"contracts/TF_erc20.sol\":7480:7487  spender */\n      dup4\n        /* \"contracts/TF_erc20.sol\":7461:7488  _allowances[owner][spender] */\n      0xffffffffffffffffffffffffffffffffffffffff\n      and\n      0xffffffffffffffffffffffffffffffffffffffff\n      and\n      dup2\n      mstore\n      0x20\n      add\n      swap1\n      dup2\n      mstore\n      0x20\n      add\n      0x0\n      keccak256\n      sload\n        /* \"contracts/TF_erc20.sol\":7454:7488  return _allowances[owner][spender] */\n      swap1\n      pop\n        /* \"contracts/TF_erc20.sol\":7363:7495  function allowance(address owner, address spender) public view returns (uint256) {... */\n      swap3\n      swap2\n      pop\n      pop\n      jump\t// out\n        /* \"contracts/TF_erc20.sol\":12298:12627  function _approve(address owner, address spender, uint256 value) internal {... */\n    tag_64:\n        /* \"contracts/TF_erc20.sol\":12407:12408  0 */\n      0x0\n        /* \"contracts/TF_erc20.sol\":12390:12409  owner != address(0) */\n      0xffffffffffffffffffffffffffffffffffffffff\n      and\n        /* \"contracts/TF_erc20.sol\":12390:12395  owner */\n      dup4\n        /* \"contracts/TF_erc20.sol\":12390:12409  owner != address(0) */\n      0xffffffffffffffffffffffffffffffffffffffff\n      and\n      eq\n      iszero\n        /* \"contracts/TF_erc20.sol\":12382:12450  require(owner != address(0), \"ERC20: approve from the zero address\") */\n      iszero\n      iszero\n      tag_90\n      jumpi\n      mload(0x40)\n      0x8c379a000000000000000000000000000000000000000000000000000000000\n      dup2\n      mstore\n      0x4\n      add\n      dup1\n      dup1\n      0x20\n      add\n      dup3\n      dup2\n      sub\n      dup3\n      mstore\n      0x24\n      dup2\n      mstore\n      0x20\n      add\n      dup1\n      0x45524332303a20617070726f76652066726f6d20746865207a65726f20616464\n      dup2\n      mstore\n      0x20\n      add\n      0x7265737300000000000000000000000000000000000000000000000000000000\n      dup2\n      mstore\n      pop\n      0x40\n      add\n      swap2\n      pop\n      pop\n      mload(0x40)\n      dup1\n      swap2\n      sub\n      swap1\n      revert\n    tag_90:\n        /* \"contracts/TF_erc20.sol\":12487:12488  0 */\n      0x0\n        /* \"contracts/TF_erc20.sol\":12468:12489  spender != address(0) */\n      0xffffffffffffffffffffffffffffffffffffffff\n      and\n        /* \"contracts/TF_erc20.sol\":12468:12475  spender */\n      dup3\n        /* \"contracts/TF_erc20.sol\":12468:12489  spender != address(0) */\n      0xffffffffffffffffffffffffffffffffffffffff\n      and\n      eq\n      iszero\n        /* \"contracts/TF_erc20.sol\":12460:12528  require(spender != address(0), \"ERC20: approve to the zero address\") */\n      iszero\n      iszero\n      tag_91\n      jumpi\n      mload(0x40)\n      0x8c379a000000000000000000000000000000000000000000000000000000000\n      dup2\n      mstore\n      0x4\n      add\n      dup1\n      dup1\n      0x20\n      add\n      dup3\n      dup2\n      sub\n      dup3\n      mstore\n      0x22\n      dup2\n      mstore\n      0x20\n      add\n      dup1\n      0x45524332303a20617070726f766520746f20746865207a65726f206164647265\n      dup2\n      mstore\n      0x20\n      add\n      0x7373000000000000000000000000000000000000000000000000000000000000\n      dup2\n      mstore\n      pop\n      0x40\n      add\n      swap2\n      pop\n      pop\n      mload(0x40)\n      dup1\n      swap2\n      sub\n      swap1\n      revert\n    tag_91:\n        /* \"contracts/TF_erc20.sol\":12569:12574  value */\n      dup1\n        /* \"contracts/TF_erc20.sol\":12539:12550  _allowances */\n      0x1\n        /* \"contracts/TF_erc20.sol\":12539:12557  _allowances[owner] */\n      0x0\n        /* \"contracts/TF_erc20.sol\":12551:12556  owner */\n      dup6\n        /* \"contracts/TF_erc20.sol\":12539:12557  _allowances[owner] */\n      0xffffffffffffffffffffffffffffffffffffffff\n      and\n      0xffffffffffffffffffffffffffffffffffffffff\n      and\n      dup2\n      mstore\n      0x20\n      add\n      swap1\n      dup2\n      mstore\n      0x20\n      add\n      0x0\n      keccak256\n        /* \"contracts/TF_erc20.sol\":12539:12566  _allowances[owner][spender] */\n      0x0\n        /* \"contracts/TF_erc20.sol\":12558:12565  spender */\n      dup5\n        /* \"contracts/TF_erc20.sol\":12539:12566  _allowances[owner][spender] */\n      0xffffffffffffffffffffffffffffffffffffffff\n      and\n      0xffffffffffffffffffffffffffffffffffffffff\n      and\n      dup2\n      mstore\n      0x20\n      add\n      swap1\n      dup2\n      mstore\n      0x20\n      add\n      0x0\n      keccak256\n        /* \"contracts/TF_erc20.sol\":12539:12574  _allowances[owner][spender] = value */\n      dup2\n      swap1\n      sstore\n      pop\n        /* \"contracts/TF_erc20.sol\":12605:12612  spender */\n      dup2\n        /* \"contracts/TF_erc20.sol\":12589:12620  Approval(owner, spender, value) */\n      0xffffffffffffffffffffffffffffffffffffffff\n      and\n        /* \"contracts/TF_erc20.sol\":12598:12603  owner */\n      dup4\n        /* \"contracts/TF_erc20.sol\":12589:12620  Approval(owner, spender, value) */\n      0xffffffffffffffffffffffffffffffffffffffff\n      and\n      0x8c5be1e5ebec7d5bd14f71427d1e84f3dd0314c0f7b2291e5b200ac8c7c3b925\n        /* \"contracts/TF_erc20.sol\":12614:12619  value */\n      dup4\n        /* \"contracts/TF_erc20.sol\":12589:12620  Approval(owner, spender, value) */\n      mload(0x40)\n      dup1\n      dup3\n      dup2\n      mstore\n      0x20\n      add\n      swap2\n      pop\n      pop\n      mload(0x40)\n      dup1\n      swap2\n      sub\n      swap1\n      log3\n        /* \"contracts/TF_erc20.sol\":12298:12627  function _approve(address owner, address spender, uint256 value) internal {... */\n      pop\n      pop\n      pop\n      jump\t// out\n        /* \"contracts/TF_erc20.sol\":10259:10681  function _transfer(address sender, address recipient, uint256 amount) internal {... */\n    tag_68:\n        /* \"contracts/TF_erc20.sol\":10374:10375  0 */\n      0x0\n        /* \"contracts/TF_erc20.sol\":10356:10376  sender != address(0) */\n      0xffffffffffffffffffffffffffffffffffffffff\n      and\n        /* \"contracts/TF_erc20.sol\":10356:10362  sender */\n      dup4\n        /* \"contracts/TF_erc20.sol\":10356:10376  sender != address(0) */\n      0xffffffffffffffffffffffffffffffffffffffff\n      and\n      eq\n      iszero\n        /* \"contracts/TF_erc20.sol\":10348:10418  require(sender != address(0), \"ERC20: transfer from the zero address\") */\n      iszero\n      iszero\n      tag_93\n      jumpi\n      mload(0x40)\n      0x8c379a000000000000000000000000000000000000000000000000000000000\n      dup2\n      mstore\n      0x4\n      add\n      dup1\n      dup1\n      0x20\n      add\n      dup3\n      dup2\n      sub\n      dup3\n      mstore\n      0x25\n      dup2\n      mstore\n      0x20\n      add\n      dup1\n      0x45524332303a207472616e736665722066726f6d20746865207a65726f206164\n      dup2\n      mstore\n      0x20\n      add\n      0x6472657373000000000000000000000000000000000000000000000000000000\n      dup2\n      mstore\n      pop\n      0x40\n      add\n      swap2\n      pop\n      pop\n      mload(0x40)\n      dup1\n      swap2\n      sub\n      swap1\n      revert\n    tag_93:\n        /* \"contracts/TF_erc20.sol\":10457:10458  0 */\n      0x0\n        /* \"contracts/TF_erc20.sol\":10436:10459  recipient != address(0) */\n      0xffffffffffffffffffffffffffffffffffffffff\n      and\n        /* \"contracts/TF_erc20.sol\":10436:10445  recipient */\n      dup3\n        /* \"contracts/TF_erc20.sol\":10436:10459  recipient != address(0) */\n      0xffffffffffffffffffffffffffffffffffffffff\n      and\n      eq\n      iszero\n        /* \"contracts/TF_erc20.sol\":10428:10499  require(recipient != address(0), \"ERC20: transfer to the zero address\") */\n      iszero\n      iszero\n      tag_94\n      jumpi\n      mload(0x40)\n      0x8c379a000000000000000000000000000000000000000000000000000000000\n      dup2\n      mstore\n      0x4\n      add\n      dup1\n      dup1\n      0x20\n      add\n      dup3\n      dup2\n      sub\n      dup3\n      mstore\n      0x23\n      dup2\n      mstore\n      0x20\n      add\n      dup1\n      0x45524332303a207472616e7366657220746f20746865207a65726f2061646472\n      dup2\n      mstore\n      0x20\n      add\n      0x6573730000000000000000000000000000000000000000000000000000000000\n      dup2\n      mstore\n      pop\n      0x40\n      add\n      swap2\n      pop\n      pop\n      mload(0x40)\n      dup1\n      swap2\n      sub\n      swap1\n      revert\n    tag_94:\n        /* \"contracts/TF_erc20.sol\":10530:10559  _balances[sender].sub(amount) */\n      tag_95\n        /* \"contracts/TF_erc20.sol\":10552:10558  amount */\n      dup2\n        /* \"contracts/TF_erc20.sol\":10530:10539  _balances */\n      0x0\n        /* \"contracts/TF_erc20.sol\":10530:10547  _balances[sender] */\n      dup1\n        /* \"contracts/TF_erc20.sol\":10540:10546  sender */\n      dup7\n        /* \"contracts/TF_erc20.sol\":10530:10547  _balances[sender] */\n      0xffffffffffffffffffffffffffffffffffffffff\n      and\n      0xffffffffffffffffffffffffffffffffffffffff\n      and\n      dup2\n      mstore\n      0x20\n      add\n      swap1\n      dup2\n      mstore\n      0x20\n      add\n      0x0\n      keccak256\n      sload\n        /* \"contracts/TF_erc20.sol\":10530:10551  _balances[sender].sub */\n      tag_71\n      swap1\n        /* \"contracts/TF_erc20.sol\":10530:10559  _balances[sender].sub(amount) */\n      swap2\n      swap1\n      0xffffffff\n      and\n      jump\t// in\n    tag_95:\n        /* \"contracts/TF_erc20.sol\":10510:10519  _balances */\n      0x0\n        /* \"contracts/TF_erc20.sol\":10510:10527  _balances[sender] */\n      dup1\n        /* \"contracts/TF_erc20.sol\":10520:10526  sender */\n      dup6\n        /* \"contracts/TF_erc20.sol\":10510:10527  _balances[sender] */\n      0xffffffffffffffffffffffffffffffffffffffff\n      and\n      0xffffffffffffffffffffffffffffffffffffffff\n      and\n      dup2\n      mstore\n      0x20\n      add\n      swap1\n      dup2\n      mstore\n      0x20\n      add\n      0x0\n      keccak256\n        /* \"contracts/TF_erc20.sol\":10510:10559  _balances[sender] = _balances[sender].sub(amount) */\n      dup2\n      swap1\n      sstore\n      pop\n        /* \"contracts/TF_erc20.sol\":10592:10624  _balances[recipient].add(amount) */\n      tag_96\n        /* \"contracts/TF_erc20.sol\":10617:10623  amount */\n      dup2\n        /* \"contracts/TF_erc20.sol\":10592:10601  _balances */\n      0x0\n        /* \"contracts/TF_erc20.sol\":10592:10612  _balances[recipient] */\n      dup1\n        /* \"contracts/TF_erc20.sol\":10602:10611  recipient */\n      dup6\n        /* \"contracts/TF_erc20.sol\":10592:10612  _balances[recipient] */\n      0xffffffffffffffffffffffffffffffffffffffff\n      and\n      0xffffffffffffffffffffffffffffffffffffffff\n      and\n      dup2\n      mstore\n      0x20\n      add\n      swap1\n      dup2\n      mstore\n      0x20\n      add\n      0x0\n      keccak256\n      sload\n        /* \"contracts/TF_erc20.sol\":10592:10616  _balances[recipient].add */\n      tag_76\n      swap1\n        /* \"contracts/TF_erc20.sol\":10592:10624  _balances[recipient].add(amount) */\n      swap2\n      swap1\n      0xffffffff\n      and\n      jump\t// in\n    tag_96:\n        /* \"contracts/TF_erc20.sol\":10569:10578  _balances */\n      0x0\n        /* \"contracts/TF_erc20.sol\":10569:10589  _balances[recipient] */\n      dup1\n        /* \"contracts/TF_erc20.sol\":10579:10588  recipient */\n      dup5\n        /* \"contracts/TF_erc20.sol\":10569:10589  _balances[recipient] */\n      0xffffffffffffffffffffffffffffffffffffffff\n      and\n      0xffffffffffffffffffffffffffffffffffffffff\n      and\n      dup2\n      mstore\n      0x20\n      add\n      swap1\n      dup2\n      mstore\n      0x20\n      add\n      0x0\n      keccak256\n        /* \"contracts/TF_erc20.sol\":10569:10624  _balances[recipient] = _balances[recipient].add(amount) */\n      dup2\n      swap1\n      sstore\n      pop\n        /* \"contracts/TF_erc20.sol\":10656:10665  recipient */\n      dup2\n        /* \"contracts/TF_erc20.sol\":10639:10674  Transfer(sender, recipient, amount) */\n      0xffffffffffffffffffffffffffffffffffffffff\n      and\n        /* \"contracts/TF_erc20.sol\":10648:10654  sender */\n      dup4\n        /* \"contracts/TF_erc20.sol\":10639:10674  Transfer(sender, recipient, amount) */\n      0xffffffffffffffffffffffffffffffffffffffff\n      and\n      0xddf252ad1be2c89b69c2b068fc378daa952ba7f163c4a11628f55a4df523b3ef\n        /* \"contracts/TF_erc20.sol\":10667:10673  amount */\n      dup4\n        /* \"contracts/TF_erc20.sol\":10639:10674  Transfer(sender, recipient, amount) */\n      mload(0x40)\n      dup1\n      dup3\n      dup2\n      mstore\n      0x20\n      add\n      swap2\n      pop\n      pop\n      mload(0x40)\n      dup1\n      swap2\n      sub\n      swap1\n      log3\n        /* \"contracts/TF_erc20.sol\":10259:10681  function _transfer(address sender, address recipient, uint256 amount) internal {... */\n      pop\n      pop\n      pop\n      jump\t// out\n        /* \"contracts/TF_erc20.sol\":1535:1716  function sub(uint256 a, uint256 b) internal pure returns (uint256) {... */\n    tag_71:\n        /* \"contracts/TF_erc20.sol\":1593:1600  uint256 */\n      0x0\n        /* \"contracts/TF_erc20.sol\":1673:1682  uint256 c */\n      dup1\n        /* \"contracts/TF_erc20.sol\":1689:1690  b */\n      dup3\n        /* \"contracts/TF_erc20.sol\":1685:1686  a */\n      dup5\n        /* \"contracts/TF_erc20.sol\":1685:1690  a - b */\n      sub\n        /* \"contracts/TF_erc20.sol\":1673:1690  uint256 c = a - b */\n      swap1\n      pop\n        /* \"contracts/TF_erc20.sol\":1708:1709  c */\n      dup1\n        /* \"contracts/TF_erc20.sol\":1701:1709  return c */\n      swap2\n      pop\n        /* \"contracts/TF_erc20.sol\":1535:1716  function sub(uint256 a, uint256 b) internal pure returns (uint256) {... */\n      pop\n      swap3\n      swap2\n      pop\n      pop\n      jump\t// out\n        /* \"contracts/TF_erc20.sol\":1095:1271  function add(uint256 a, uint256 b) internal pure returns (uint256) {... */\n    tag_76:\n        /* \"contracts/TF_erc20.sol\":1153:1160  uint256 */\n      0x0\n        /* \"contracts/TF_erc20.sol\":1172:1181  uint256 c */\n      dup1\n        /* \"contracts/TF_erc20.sol\":1188:1189  b */\n      dup3\n        /* \"contracts/TF_erc20.sol\":1184:1185  a */\n      dup5\n        /* \"contracts/TF_erc20.sol\":1184:1189  a + b */\n      add\n        /* \"contracts/TF_erc20.sol\":1172:1189  uint256 c = a + b */\n      swap1\n      pop\n        /* \"contracts/TF_erc20.sol\":1212:1213  a */\n      dup4\n        /* \"contracts/TF_erc20.sol\":1207:1208  c */\n      dup2\n        /* \"contracts/TF_erc20.sol\":1207:1213  c >= a */\n      lt\n      iszero\n        /* \"contracts/TF_erc20.sol\":1199:1245  require(c >= a, \"SafeMath: addition overflow\") */\n      iszero\n      iszero\n      tag_99\n      jumpi\n      mload(0x40)\n      0x8c379a000000000000000000000000000000000000000000000000000000000\n      dup2\n      mstore\n      0x4\n      add\n      dup1\n      dup1\n      0x20\n      add\n      dup3\n      dup2\n      sub\n      dup3\n      mstore\n      0x1b\n      dup2\n      mstore\n      0x20\n      add\n      dup1\n      0x536166654d6174683a206164646974696f6e206f766572666c6f770000000000\n      dup2\n      mstore\n      pop\n      0x20\n      add\n      swap2\n      pop\n      pop\n      mload(0x40)\n      dup1\n      swap2\n      sub\n      swap1\n      revert\n    tag_99:\n        /* \"contracts/TF_erc20.sol\":1263:1264  c */\n      dup1\n        /* \"contracts/TF_erc20.sol\":1256:1264  return c */\n      swap2\n      pop\n        /* \"contracts/TF_erc20.sol\":1095:1271  function add(uint256 a, uint256 b) internal pure returns (uint256) {... */\n      pop\n      swap3\n      swap2\n      pop\n      pop\n      jump\t// out\n\n    auxdata: 0xa165627a7a7230582071b7cfa86647c47553457817d47a88ef94f05d5ee8bf01836f9ae79556b3fbb90029\n}\n",
				"bytecode": {
					"linkReferences": {},
					"object": "60806040526040805190810160405280600a81526020017f7a547275737446756e6400000000000000000000000000000000000000000000815250600290805190602001906200005192919062000393565b506040805190810160405280600381526020017f7a54460000000000000000000000000000000000000000000000000000000000815250600390805190602001906200009f92919062000393565b506012600460006101000a81548160ff021916908360ff160217905550348015620000c957600080fd5b5060405160208062001619833981018060405281019080805190602001909291905050506200012381600460009054906101000a900460ff1660ff16600a0a633b9aca00026200012a640100000000026401000000009004565b5062000442565b600073ffffffffffffffffffffffffffffffffffffffff168273ffffffffffffffffffffffffffffffffffffffff1614151515620001d0576040517f08c379a000000000000000000000000000000000000000000000000000000000815260040180806020018281038252601f8152602001807f45524332303a206d696e7420746f20746865207a65726f20616464726573730081525060200191505060405180910390fd5b620001f581600554620003086401000000000262001111179091906401000000009004565b6005819055506200025c816000808573ffffffffffffffffffffffffffffffffffffffff1673ffffffffffffffffffffffffffffffffffffffff16815260200190815260200160002054620003086401000000000262001111179091906401000000009004565b6000808473ffffffffffffffffffffffffffffffffffffffff1673ffffffffffffffffffffffffffffffffffffffff168152602001908152602001600020819055508173ffffffffffffffffffffffffffffffffffffffff16600073ffffffffffffffffffffffffffffffffffffffff167fddf252ad1be2c89b69c2b068fc378daa952ba7f163c4a11628f55a4df523b3ef836040518082815260200191505060405180910390a35050565b600080828401905083811015151562000389576040517f08c379a000000000000000000000000000000000000000000000000000000000815260040180806020018281038252601b8152602001807f536166654d6174683a206164646974696f6e206f766572666c6f77000000000081525060200191505060405180910390fd5b8091505092915050565b828054600181600116156101000203166002900490600052602060002090601f016020900481019282601f10620003d657805160ff191683800117855562000407565b8280016001018555821562000407579182015b8281111562000406578251825591602001919060010190620003e9565b5b5090506200041691906200041a565b5090565b6200043f91905b808211156200043b57600081600090555060010162000421565b5090565b90565b6111c780620004526000396000f3006080604052600436106100ba576000357c0100000000000000000000000000000000000000000000000000000000900463ffffffff16806306fdde03146100bf578063095ea7b31461014f57806318160ddd146101b457806323b872dd146101df578063313ce56714610264578063395093511461029557806370a08231146102fa57806395d89b4114610351578063a25fb97a146103e1578063a457c2d7146104a8578063a9059cbb1461050d578063dd62ed3e14610572575b600080fd5b3480156100cb57600080fd5b506100d46105e9565b6040518080602001828103825283818151815260200191508051906020019080838360005b838110156101145780820151818401526020810190506100f9565b50505050905090810190601f1680156101415780820380516001836020036101000a031916815260200191505b509250505060405180910390f35b34801561015b57600080fd5b5061019a600480360381019080803573ffffffffffffffffffffffffffffffffffffffff1690602001909291908035906020019092919050505061068b565b604051808215151515815260200191505060405180910390f35b3480156101c057600080fd5b506101c96106a2565b6040518082815260200191505060405180910390f35b3480156101eb57600080fd5b5061024a600480360381019080803573ffffffffffffffffffffffffffffffffffffffff169060200190929190803573ffffffffffffffffffffffffffffffffffffffff169060200190929190803590602001909291905050506106ac565b604051808215151515815260200191505060405180910390f35b34801561027057600080fd5b5061027961075d565b604051808260ff1660ff16815260200191505060405180910390f35b3480156102a157600080fd5b506102e0600480360381019080803573ffffffffffffffffffffffffffffffffffffffff16906020019092919080359060200190929190505050610774565b604051808215151515815260200191505060405180910390f35b34801561030657600080fd5b5061033b600480360381019080803573ffffffffffffffffffffffffffffffffffffffff169060200190929190505050610819565b6040518082815260200191505060405180910390f35b34801561035d57600080fd5b50610366610861565b6040518080602001828103825283818151815260200191508051906020019080838360005b838110156103a657808201518184015260208101905061038b565b50505050905090810190601f1680156103d35780820380516001836020036101000a031916815260200191505b509250505060405180910390f35b3480156103ed57600080fd5b5061042c600480360381019080803573ffffffffffffffffffffffffffffffffffffffff16906020019092919080359060200190929190505050610903565b604051808473ffffffffffffffffffffffffffffffffffffffff1673ffffffffffffffffffffffffffffffffffffffff1681526020018373ffffffffffffffffffffffffffffffffffffffff1673ffffffffffffffffffffffffffffffffffffffff168152602001828152602001935050505060405180910390f35b3480156104b457600080fd5b506104f3600480360381019080803573ffffffffffffffffffffffffffffffffffffffff16906020019092919080359060200190929190505050610a15565b604051808215151515815260200191505060405180910390f35b34801561051957600080fd5b50610558600480360381019080803573ffffffffffffffffffffffffffffffffffffffff16906020019092919080359060200190929190505050610aba565b604051808215151515815260200191505060405180910390f35b34801561057e57600080fd5b506105d3600480360381019080803573ffffffffffffffffffffffffffffffffffffffff169060200190929190803573ffffffffffffffffffffffffffffffffffffffff169060200190929190505050610ad1565b6040518082815260200191505060405180910390f35b606060028054600181600116156101000203166002900480601f0160208091040260200160405190810160405280929190818152602001828054600181600116156101000203166002900480156106815780601f1061065657610100808354040283529160200191610681565b820191906000526020600020905b81548152906001019060200180831161066457829003601f168201915b5050505050905090565b6000610698338484610b58565b6001905092915050565b6000600554905090565b60006106b9848484610dd9565b610752843361074d85600160008a73ffffffffffffffffffffffffffffffffffffffff1673ffffffffffffffffffffffffffffffffffffffff16815260200190815260200160002060003373ffffffffffffffffffffffffffffffffffffffff1673ffffffffffffffffffffffffffffffffffffffff168152602001908152602001600020546110ff90919063ffffffff16565b610b58565b600190509392505050565b6000600460009054906101000a900460ff16905090565b600061080f338461080a85600160003373ffffffffffffffffffffffffffffffffffffffff1673ffffffffffffffffffffffffffffffffffffffff16815260200190815260200160002060008973ffffffffffffffffffffffffffffffffffffffff1673ffffffffffffffffffffffffffffffffffffffff1681526020019081526020016000205461111190919063ffffffff16565b610b58565b6001905092915050565b60008060008373ffffffffffffffffffffffffffffffffffffffff1673ffffffffffffffffffffffffffffffffffffffff168152602001908152602001600020549050919050565b606060038054600181600116156101000203166002900480601f0160208091040260200160405190810160405280929190818152602001828054600181600116156101000203166002900480156108f95780601f106108ce576101008083540402835291602001916108f9565b820191906000526020600020905b8154815290600101906020018083116108dc57829003601f168201915b5050505050905090565b600080600083600160003373ffffffffffffffffffffffffffffffffffffffff1673ffffffffffffffffffffffffffffffffffffffff16815260200190815260200160002060008773ffffffffffffffffffffffffffffffffffffffff1673ffffffffffffffffffffffffffffffffffffffff168152602001908152602001600020819055503385600160003373ffffffffffffffffffffffffffffffffffffffff1673ffffffffffffffffffffffffffffffffffffffff16815260200190815260200160002060008873ffffffffffffffffffffffffffffffffffffffff1673ffffffffffffffffffffffffffffffffffffffff168152602001908152602001600020549250925092509250925092565b6000610ab03384610aab85600160003373ffffffffffffffffffffffffffffffffffffffff1673ffffffffffffffffffffffffffffffffffffffff16815260200190815260200160002060008973ffffffffffffffffffffffffffffffffffffffff1673ffffffffffffffffffffffffffffffffffffffff168152602001908152602001600020546110ff90919063ffffffff16565b610b58565b6001905092915050565b6000610ac7338484610dd9565b6001905092915050565b6000600160008473ffffffffffffffffffffffffffffffffffffffff1673ffffffffffffffffffffffffffffffffffffffff16815260200190815260200160002060008373ffffffffffffffffffffffffffffffffffffffff1673ffffffffffffffffffffffffffffffffffffffff16815260200190815260200160002054905092915050565b600073ffffffffffffffffffffffffffffffffffffffff168373ffffffffffffffffffffffffffffffffffffffff1614151515610c23576040517f08c379a00000000000000000000000000000000000000000000000000000000081526004018080602001828103825260248152602001807f45524332303a20617070726f76652066726f6d20746865207a65726f2061646481526020017f726573730000000000000000000000000000000000000000000000000000000081525060400191505060405180910390fd5b600073ffffffffffffffffffffffffffffffffffffffff168273ffffffffffffffffffffffffffffffffffffffff1614151515610cee576040517f08c379a00000000000000000000000000000000000000000000000000000000081526004018080602001828103825260228152602001807f45524332303a20617070726f766520746f20746865207a65726f20616464726581526020017f737300000000000000000000000000000000000000000000000000000000000081525060400191505060405180910390fd5b80600160008573ffffffffffffffffffffffffffffffffffffffff1673ffffffffffffffffffffffffffffffffffffffff16815260200190815260200160002060008473ffffffffffffffffffffffffffffffffffffffff1673ffffffffffffffffffffffffffffffffffffffff168152602001908152602001600020819055508173ffffffffffffffffffffffffffffffffffffffff168373ffffffffffffffffffffffffffffffffffffffff167f8c5be1e5ebec7d5bd14f71427d1e84f3dd0314c0f7b2291e5b200ac8c7c3b925836040518082815260200191505060405180910390a3505050565b600073ffffffffffffffffffffffffffffffffffffffff168373ffffffffffffffffffffffffffffffffffffffff1614151515610ea4576040517f08c379a00000000000000000000000000000000000000000000000000000000081526004018080602001828103825260258152602001807f45524332303a207472616e736665722066726f6d20746865207a65726f20616481526020017f647265737300000000000000000000000000000000000000000000000000000081525060400191505060405180910390fd5b600073ffffffffffffffffffffffffffffffffffffffff168273ffffffffffffffffffffffffffffffffffffffff1614151515610f6f576040517f08c379a00000000000000000000000000000000000000000000000000000000081526004018080602001828103825260238152602001807f45524332303a207472616e7366657220746f20746865207a65726f206164647281526020017f657373000000000000000000000000000000000000000000000000000000000081525060400191505060405180910390fd5b610fc0816000808673ffffffffffffffffffffffffffffffffffffffff1673ffffffffffffffffffffffffffffffffffffffff168152602001908152602001600020546110ff90919063ffffffff16565b6000808573ffffffffffffffffffffffffffffffffffffffff1673ffffffffffffffffffffffffffffffffffffffff16815260200190815260200160002081905550611053816000808573ffffffffffffffffffffffffffffffffffffffff1673ffffffffffffffffffffffffffffffffffffffff1681526020019081526020016000205461111190919063ffffffff16565b6000808473ffffffffffffffffffffffffffffffffffffffff1673ffffffffffffffffffffffffffffffffffffffff168152602001908152602001600020819055508173ffffffffffffffffffffffffffffffffffffffff168373ffffffffffffffffffffffffffffffffffffffff167fddf252ad1be2c89b69c2b068fc378daa952ba7f163c4a11628f55a4df523b3ef836040518082815260200191505060405180910390a3505050565b60008082840390508091505092915050565b6000808284019050838110151515611191576040517f08c379a000000000000000000000000000000000000000000000000000000000815260040180806020018281038252601b8152602001807f536166654d6174683a206164646974696f6e206f766572666c6f77000000000081525060200191505060405180910390fd5b80915050929150505600a165627a7a7230582071b7cfa86647c47553457817d47a88ef94f05d5ee8bf01836f9ae79556b3fbb90029",
					"opcodes": "PUSH1 0x80 PUSH1 0x40 MSTORE PUSH1 0x40 DUP1 MLOAD SWAP1 DUP2 ADD PUSH1 0x40 MSTORE DUP1 PUSH1 0xA DUP2 MSTORE PUSH1 0x20 ADD PUSH32 0x7A547275737446756E6400000000000000000000000000000000000000000000 DUP2 MSTORE POP PUSH1 0x2 SWAP1 DUP1 MLOAD SWAP1 PUSH1 0x20 ADD SWAP1 PUSH3 0x51 SWAP3 SWAP2 SWAP1 PUSH3 0x393 JUMP JUMPDEST POP PUSH1 0x40 DUP1 MLOAD SWAP1 DUP2 ADD PUSH1 0x40 MSTORE DUP1 PUSH1 0x3 DUP2 MSTORE PUSH1 0x20 ADD PUSH32 0x7A54460000000000000000000000000000000000000000000000000000000000 DUP2 MSTORE POP PUSH1 0x3 SWAP1 DUP1 MLOAD SWAP1 PUSH1 0x20 ADD SWAP1 PUSH3 0x9F SWAP3 SWAP2 SWAP1 PUSH3 0x393 JUMP JUMPDEST POP PUSH1 0x12 PUSH1 0x4 PUSH1 0x0 PUSH2 0x100 EXP DUP2 SLOAD DUP2 PUSH1 0xFF MUL NOT AND SWAP1 DUP4 PUSH1 0xFF AND MUL OR SWAP1 SSTORE POP CALLVALUE DUP1 ISZERO PUSH3 0xC9 JUMPI PUSH1 0x0 DUP1 REVERT JUMPDEST POP PUSH1 0x40 MLOAD PUSH1 0x20 DUP1 PUSH3 0x1619 DUP4 CODECOPY DUP2 ADD DUP1 PUSH1 0x40 MSTORE DUP2 ADD SWAP1 DUP1 DUP1 MLOAD SWAP1 PUSH1 0x20 ADD SWAP1 SWAP3 SWAP2 SWAP1 POP POP POP PUSH3 0x123 DUP2 PUSH1 0x4 PUSH1 0x0 SWAP1 SLOAD SWAP1 PUSH2 0x100 EXP SWAP1 DIV PUSH1 0xFF AND PUSH1 0xFF AND PUSH1 0xA EXP PUSH4 0x3B9ACA00 MUL PUSH3 0x12A PUSH5 0x100000000 MUL PUSH5 0x100000000 SWAP1 DIV JUMP JUMPDEST POP PUSH3 0x442 JUMP JUMPDEST PUSH1 0x0 PUSH20 0xFFFFFFFFFFFFFFFFFFFFFFFFFFFFFFFFFFFFFFFF AND DUP3 PUSH20 0xFFFFFFFFFFFFFFFFFFFFFFFFFFFFFFFFFFFFFFFF AND EQ ISZERO ISZERO ISZERO PUSH3 0x1D0 JUMPI PUSH1 0x40 MLOAD PUSH32 0x8C379A000000000000000000000000000000000000000000000000000000000 DUP2 MSTORE PUSH1 0x4 ADD DUP1 DUP1 PUSH1 0x20 ADD DUP3 DUP2 SUB DUP3 MSTORE PUSH1 0x1F DUP2 MSTORE PUSH1 0x20 ADD DUP1 PUSH32 0x45524332303A206D696E7420746F20746865207A65726F206164647265737300 DUP2 MSTORE POP PUSH1 0x20 ADD SWAP2 POP POP PUSH1 0x40 MLOAD DUP1 SWAP2 SUB SWAP1 REVERT JUMPDEST PUSH3 0x1F5 DUP2 PUSH1 0x5 SLOAD PUSH3 0x308 PUSH5 0x100000000 MUL PUSH3 0x1111 OR SWAP1 SWAP2 SWAP1 PUSH5 0x100000000 SWAP1 DIV JUMP JUMPDEST PUSH1 0x5 DUP2 SWAP1 SSTORE POP PUSH3 0x25C DUP2 PUSH1 0x0 DUP1 DUP6 PUSH20 0xFFFFFFFFFFFFFFFFFFFFFFFFFFFFFFFFFFFFFFFF AND PUSH20 0xFFFFFFFFFFFFFFFFFFFFFFFFFFFFFFFFFFFFFFFF AND DUP2 MSTORE PUSH1 0x20 ADD SWAP1 DUP2 MSTORE PUSH1 0x20 ADD PUSH1 0x0 KECCAK256 SLOAD PUSH3 0x308 PUSH5 0x100000000 MUL PUSH3 0x1111 OR SWAP1 SWAP2 SWAP1 PUSH5 0x100000000 SWAP1 DIV JUMP JUMPDEST PUSH1 0x0 DUP1 DUP5 PUSH20 0xFFFFFFFFFFFFFFFFFFFFFFFFFFFFFFFFFFFFFFFF AND PUSH20 0xFFFFFFFFFFFFFFFFFFFFFFFFFFFFFFFFFFFFFFFF AND DUP2 MSTORE PUSH1 0x20 ADD SWAP1 DUP2 MSTORE PUSH1 0x20 ADD PUSH1 0x0 KECCAK256 DUP2 SWAP1 SSTORE POP DUP2 PUSH20 0xFFFFFFFFFFFFFFFFFFFFFFFFFFFFFFFFFFFFFFFF AND PUSH1 0x0 PUSH20 0xFFFFFFFFFFFFFFFFFFFFFFFFFFFFFFFFFFFFFFFF AND PUSH32 0xDDF252AD1BE2C89B69C2B068FC378DAA952BA7F163C4A11628F55A4DF523B3EF DUP4 PUSH1 0x40 MLOAD DUP1 DUP3 DUP2 MSTORE PUSH1 0x20 ADD SWAP2 POP POP PUSH1 0x40 MLOAD DUP1 SWAP2 SUB SWAP1 LOG3 POP POP JUMP JUMPDEST PUSH1 0x0 DUP1 DUP3 DUP5 ADD SWAP1 POP DUP4 DUP2 LT ISZERO ISZERO ISZERO PUSH3 0x389 JUMPI PUSH1 0x40 MLOAD PUSH32 0x8C379A000000000000000000000000000000000000000000000000000000000 DUP2 MSTORE PUSH1 0x4 ADD DUP1 DUP1 PUSH1 0x20 ADD DUP3 DUP2 SUB DUP3 MSTORE PUSH1 0x1B DUP2 MSTORE PUSH1 0x20 ADD DUP1 PUSH32 0x536166654D6174683A206164646974696F6E206F766572666C6F770000000000 DUP2 MSTORE POP PUSH1 0x20 ADD SWAP2 POP POP PUSH1 0x40 MLOAD DUP1 SWAP2 SUB SWAP1 REVERT JUMPDEST DUP1 SWAP2 POP POP SWAP3 SWAP2 POP POP JUMP JUMPDEST DUP3 DUP1 SLOAD PUSH1 0x1 DUP2 PUSH1 0x1 AND ISZERO PUSH2 0x100 MUL SUB AND PUSH1 0x2 SWAP1 DIV SWAP1 PUSH1 0x0 MSTORE PUSH1 0x20 PUSH1 0x0 KECCAK256 SWAP1 PUSH1 0x1F ADD PUSH1 0x20 SWAP1 DIV DUP2 ADD SWAP3 DUP3 PUSH1 0x1F LT PUSH3 0x3D6 JUMPI DUP1 MLOAD PUSH1 0xFF NOT AND DUP4 DUP1 ADD OR DUP6 SSTORE PUSH3 0x407 JUMP JUMPDEST DUP3 DUP1 ADD PUSH1 0x1 ADD DUP6 SSTORE DUP3 ISZERO PUSH3 0x407 JUMPI SWAP2 DUP3 ADD JUMPDEST DUP3 DUP2 GT ISZERO PUSH3 0x406 JUMPI DUP3 MLOAD DUP3 SSTORE SWAP2 PUSH1 0x20 ADD SWAP2 SWAP1 PUSH1 0x1 ADD SWAP1 PUSH3 0x3E9 JUMP JUMPDEST JUMPDEST POP SWAP1 POP PUSH3 0x416 SWAP2 SWAP1 PUSH3 0x41A JUMP JUMPDEST POP SWAP1 JUMP JUMPDEST PUSH3 0x43F SWAP2 SWAP1 JUMPDEST DUP1 DUP3 GT ISZERO PUSH3 0x43B JUMPI PUSH1 0x0 DUP2 PUSH1 0x0 SWAP1 SSTORE POP PUSH1 0x1 ADD PUSH3 0x421 JUMP JUMPDEST POP SWAP1 JUMP JUMPDEST SWAP1 JUMP JUMPDEST PUSH2 0x11C7 DUP1 PUSH3 0x452 PUSH1 0x0 CODECOPY PUSH1 0x0 RETURN STOP PUSH1 0x80 PUSH1 0x40 MSTORE PUSH1 0x4 CALLDATASIZE LT PUSH2 0xBA JUMPI PUSH1 0x0 CALLDATALOAD PUSH29 0x100000000000000000000000000000000000000000000000000000000 SWAP1 DIV PUSH4 0xFFFFFFFF AND DUP1 PUSH4 0x6FDDE03 EQ PUSH2 0xBF JUMPI DUP1 PUSH4 0x95EA7B3 EQ PUSH2 0x14F JUMPI DUP1 PUSH4 0x18160DDD EQ PUSH2 0x1B4 JUMPI DUP1 PUSH4 0x23B872DD EQ PUSH2 0x1DF JUMPI DUP1 PUSH4 0x313CE567 EQ PUSH2 0x264 JUMPI DUP1 PUSH4 0x39509351 EQ PUSH2 0x295 JUMPI DUP1 PUSH4 0x70A08231 EQ PUSH2 0x2FA JUMPI DUP1 PUSH4 0x95D89B41 EQ PUSH2 0x351 JUMPI DUP1 PUSH4 0xA25FB97A EQ PUSH2 0x3E1 JUMPI DUP1 PUSH4 0xA457C2D7 EQ PUSH2 0x4A8 JUMPI DUP1 PUSH4 0xA9059CBB EQ PUSH2 0x50D JUMPI DUP1 PUSH4 0xDD62ED3E EQ PUSH2 0x572 JUMPI JUMPDEST PUSH1 0x0 DUP1 REVERT JUMPDEST CALLVALUE DUP1 ISZERO PUSH2 0xCB JUMPI PUSH1 0x0 DUP1 REVERT JUMPDEST POP PUSH2 0xD4 PUSH2 0x5E9 JUMP JUMPDEST PUSH1 0x40 MLOAD DUP1 DUP1 PUSH1 0x20 ADD DUP3 DUP2 SUB DUP3 MSTORE DUP4 DUP2 DUP2 MLOAD DUP2 MSTORE PUSH1 0x20 ADD SWAP2 POP DUP1 MLOAD SWAP1 PUSH1 0x20 ADD SWAP1 DUP1 DUP4 DUP4 PUSH1 0x0 JUMPDEST DUP4 DUP2 LT ISZERO PUSH2 0x114 JUMPI DUP1 DUP3 ADD MLOAD DUP2 DUP5 ADD MSTORE PUSH1 0x20 DUP2 ADD SWAP1 POP PUSH2 0xF9 JUMP JUMPDEST POP POP POP POP SWAP1 POP SWAP1 DUP2 ADD SWAP1 PUSH1 0x1F AND DUP1 ISZERO PUSH2 0x141 JUMPI DUP1 DUP3 SUB DUP1 MLOAD PUSH1 0x1 DUP4 PUSH1 0x20 SUB PUSH2 0x100 EXP SUB NOT AND DUP2 MSTORE PUSH1 0x20 ADD SWAP2 POP JUMPDEST POP SWAP3 POP POP POP PUSH1 0x40 MLOAD DUP1 SWAP2 SUB SWAP1 RETURN JUMPDEST CALLVALUE DUP1 ISZERO PUSH2 0x15B JUMPI PUSH1 0x0 DUP1 REVERT JUMPDEST POP PUSH2 0x19A PUSH1 0x4 DUP1 CALLDATASIZE SUB DUP2 ADD SWAP1 DUP1 DUP1 CALLDATALOAD PUSH20 0xFFFFFFFFFFFFFFFFFFFFFFFFFFFFFFFFFFFFFFFF AND SWAP1 PUSH1 0x20 ADD SWAP1 SWAP3 SWAP2 SWAP1 DUP1 CALLDATALOAD SWAP1 PUSH1 0x20 ADD SWAP1 SWAP3 SWAP2 SWAP1 POP POP POP PUSH2 0x68B JUMP JUMPDEST PUSH1 0x40 MLOAD DUP1 DUP3 ISZERO ISZERO ISZERO ISZERO DUP2 MSTORE PUSH1 0x20 ADD SWAP2 POP POP PUSH1 0x40 MLOAD DUP1 SWAP2 SUB SWAP1 RETURN JUMPDEST CALLVALUE DUP1 ISZERO PUSH2 0x1C0 JUMPI PUSH1 0x0 DUP1 REVERT JUMPDEST POP PUSH2 0x1C9 PUSH2 0x6A2 JUMP JUMPDEST PUSH1 0x40 MLOAD DUP1 DUP3 DUP2 MSTORE PUSH1 0x20 ADD SWAP2 POP POP PUSH1 0x40 MLOAD DUP1 SWAP2 SUB SWAP1 RETURN JUMPDEST CALLVALUE DUP1 ISZERO PUSH2 0x1EB JUMPI PUSH1 0x0 DUP1 REVERT JUMPDEST POP PUSH2 0x24A PUSH1 0x4 DUP1 CALLDATASIZE SUB DUP2 ADD SWAP1 DUP1 DUP1 CALLDATALOAD PUSH20 0xFFFFFFFFFFFFFFFFFFFFFFFFFFFFFFFFFFFFFFFF AND SWAP1 PUSH1 0x20 ADD SWAP1 SWAP3 SWAP2 SWAP1 DUP1 CALLDATALOAD PUSH20 0xFFFFFFFFFFFFFFFFFFFFFFFFFFFFFFFFFFFFFFFF AND SWAP1 PUSH1 0x20 ADD SWAP1 SWAP3 SWAP2 SWAP1 DUP1 CALLDATALOAD SWAP1 PUSH1 0x20 ADD SWAP1 SWAP3 SWAP2 SWAP1 POP POP POP PUSH2 0x6AC JUMP JUMPDEST PUSH1 0x40 MLOAD DUP1 DUP3 ISZERO ISZERO ISZERO ISZERO DUP2 MSTORE PUSH1 0x20 ADD SWAP2 POP POP PUSH1 0x40 MLOAD DUP1 SWAP2 SUB SWAP1 RETURN JUMPDEST CALLVALUE DUP1 ISZERO PUSH2 0x270 JUMPI PUSH1 0x0 DUP1 REVERT JUMPDEST POP PUSH2 0x279 PUSH2 0x75D JUMP JUMPDEST PUSH1 0x40 MLOAD DUP1 DUP3 PUSH1 0xFF AND PUSH1 0xFF AND DUP2 MSTORE PUSH1 0x20 ADD SWAP2 POP POP PUSH1 0x40 MLOAD DUP1 SWAP2 SUB SWAP1 RETURN JUMPDEST CALLVALUE DUP1 ISZERO PUSH2 0x2A1 JUMPI PUSH1 0x0 DUP1 REVERT JUMPDEST POP PUSH2 0x2E0 PUSH1 0x4 DUP1 CALLDATASIZE SUB DUP2 ADD SWAP1 DUP1 DUP1 CALLDATALOAD PUSH20 0xFFFFFFFFFFFFFFFFFFFFFFFFFFFFFFFFFFFFFFFF AND SWAP1 PUSH1 0x20 ADD SWAP1 SWAP3 SWAP2 SWAP1 DUP1 CALLDATALOAD SWAP1 PUSH1 0x20 ADD SWAP1 SWAP3 SWAP2 SWAP1 POP POP POP PUSH2 0x774 JUMP JUMPDEST PUSH1 0x40 MLOAD DUP1 DUP3 ISZERO ISZERO ISZERO ISZERO DUP2 MSTORE PUSH1 0x20 ADD SWAP2 POP POP PUSH1 0x40 MLOAD DUP1 SWAP2 SUB SWAP1 RETURN JUMPDEST CALLVALUE DUP1 ISZERO PUSH2 0x306 JUMPI PUSH1 0x0 DUP1 REVERT JUMPDEST POP PUSH2 0x33B PUSH1 0x4 DUP1 CALLDATASIZE SUB DUP2 ADD SWAP1 DUP1 DUP1 CALLDATALOAD PUSH20 0xFFFFFFFFFFFFFFFFFFFFFFFFFFFFFFFFFFFFFFFF AND SWAP1 PUSH1 0x20 ADD SWAP1 SWAP3 SWAP2 SWAP1 POP POP POP PUSH2 0x819 JUMP JUMPDEST PUSH1 0x40 MLOAD DUP1 DUP3 DUP2 MSTORE PUSH1 0x20 ADD SWAP2 POP POP PUSH1 0x40 MLOAD DUP1 SWAP2 SUB SWAP1 RETURN JUMPDEST CALLVALUE DUP1 ISZERO PUSH2 0x35D JUMPI PUSH1 0x0 DUP1 REVERT JUMPDEST POP PUSH2 0x366 PUSH2 0x861 JUMP JUMPDEST PUSH1 0x40 MLOAD DUP1 DUP1 PUSH1 0x20 ADD DUP3 DUP2 SUB DUP3 MSTORE DUP4 DUP2 DUP2 MLOAD DUP2 MSTORE PUSH1 0x20 ADD SWAP2 POP DUP1 MLOAD SWAP1 PUSH1 0x20 ADD SWAP1 DUP1 DUP4 DUP4 PUSH1 0x0 JUMPDEST DUP4 DUP2 LT ISZERO PUSH2 0x3A6 JUMPI DUP1 DUP3 ADD MLOAD DUP2 DUP5 ADD MSTORE PUSH1 0x20 DUP2 ADD SWAP1 POP PUSH2 0x38B JUMP JUMPDEST POP POP POP POP SWAP1 POP SWAP1 DUP2 ADD SWAP1 PUSH1 0x1F AND DUP1 ISZERO PUSH2 0x3D3 JUMPI DUP1 DUP3 SUB DUP1 MLOAD PUSH1 0x1 DUP4 PUSH1 0x20 SUB PUSH2 0x100 EXP SUB NOT AND DUP2 MSTORE PUSH1 0x20 ADD SWAP2 POP JUMPDEST POP SWAP3 POP POP POP PUSH1 0x40 MLOAD DUP1 SWAP2 SUB SWAP1 RETURN JUMPDEST CALLVALUE DUP1 ISZERO PUSH2 0x3ED JUMPI PUSH1 0x0 DUP1 REVERT JUMPDEST POP PUSH2 0x42C PUSH1 0x4 DUP1 CALLDATASIZE SUB DUP2 ADD SWAP1 DUP1 DUP1 CALLDATALOAD PUSH20 0xFFFFFFFFFFFFFFFFFFFFFFFFFFFFFFFFFFFFFFFF AND SWAP1 PUSH1 0x20 ADD SWAP1 SWAP3 SWAP2 SWAP1 DUP1 CALLDATALOAD SWAP1 PUSH1 0x20 ADD SWAP1 SWAP3 SWAP2 SWAP1 POP POP POP PUSH2 0x903 JUMP JUMPDEST PUSH1 0x40 MLOAD DUP1 DUP5 PUSH20 0xFFFFFFFFFFFFFFFFFFFFFFFFFFFFFFFFFFFFFFFF AND PUSH20 0xFFFFFFFFFFFFFFFFFFFFFFFFFFFFFFFFFFFFFFFF AND DUP2 MSTORE PUSH1 0x20 ADD DUP4 PUSH20 0xFFFFFFFFFFFFFFFFFFFFFFFFFFFFFFFFFFFFFFFF AND PUSH20 0xFFFFFFFFFFFFFFFFFFFFFFFFFFFFFFFFFFFFFFFF AND DUP2 MSTORE PUSH1 0x20 ADD DUP3 DUP2 MSTORE PUSH1 0x20 ADD SWAP4 POP POP POP POP PUSH1 0x40 MLOAD DUP1 SWAP2 SUB SWAP1 RETURN JUMPDEST CALLVALUE DUP1 ISZERO PUSH2 0x4B4 JUMPI PUSH1 0x0 DUP1 REVERT JUMPDEST POP PUSH2 0x4F3 PUSH1 0x4 DUP1 CALLDATASIZE SUB DUP2 ADD SWAP1 DUP1 DUP1 CALLDATALOAD PUSH20 0xFFFFFFFFFFFFFFFFFFFFFFFFFFFFFFFFFFFFFFFF AND SWAP1 PUSH1 0x20 ADD SWAP1 SWAP3 SWAP2 SWAP1 DUP1 CALLDATALOAD SWAP1 PUSH1 0x20 ADD SWAP1 SWAP3 SWAP2 SWAP1 POP POP POP PUSH2 0xA15 JUMP JUMPDEST PUSH1 0x40 MLOAD DUP1 DUP3 ISZERO ISZERO ISZERO ISZERO DUP2 MSTORE PUSH1 0x20 ADD SWAP2 POP POP PUSH1 0x40 MLOAD DUP1 SWAP2 SUB SWAP1 RETURN JUMPDEST CALLVALUE DUP1 ISZERO PUSH2 0x519 JUMPI PUSH1 0x0 DUP1 REVERT JUMPDEST POP PUSH2 0x558 PUSH1 0x4 DUP1 CALLDATASIZE SUB DUP2 ADD SWAP1 DUP1 DUP1 CALLDATALOAD PUSH20 0xFFFFFFFFFFFFFFFFFFFFFFFFFFFFFFFFFFFFFFFF AND SWAP1 PUSH1 0x20 ADD SWAP1 SWAP3 SWAP2 SWAP1 DUP1 CALLDATALOAD SWAP1 PUSH1 0x20 ADD SWAP1 SWAP3 SWAP2 SWAP1 POP POP POP PUSH2 0xABA JUMP JUMPDEST PUSH1 0x40 MLOAD DUP1 DUP3 ISZERO ISZERO ISZERO ISZERO DUP2 MSTORE PUSH1 0x20 ADD SWAP2 POP POP PUSH1 0x40 MLOAD DUP1 SWAP2 SUB SWAP1 RETURN JUMPDEST CALLVALUE DUP1 ISZERO PUSH2 0x57E JUMPI PUSH1 0x0 DUP1 REVERT JUMPDEST POP PUSH2 0x5D3 PUSH1 0x4 DUP1 CALLDATASIZE SUB DUP2 ADD SWAP1 DUP1 DUP1 CALLDATALOAD PUSH20 0xFFFFFFFFFFFFFFFFFFFFFFFFFFFFFFFFFFFFFFFF AND SWAP1 PUSH1 0x20 ADD SWAP1 SWAP3 SWAP2 SWAP1 DUP1 CALLDATALOAD PUSH20 0xFFFFFFFFFFFFFFFFFFFFFFFFFFFFFFFFFFFFFFFF AND SWAP1 PUSH1 0x20 ADD SWAP1 SWAP3 SWAP2 SWAP1 POP POP POP PUSH2 0xAD1 JUMP JUMPDEST PUSH1 0x40 MLOAD DUP1 DUP3 DUP2 MSTORE PUSH1 0x20 ADD SWAP2 POP POP PUSH1 0x40 MLOAD DUP1 SWAP2 SUB SWAP1 RETURN JUMPDEST PUSH1 0x60 PUSH1 0x2 DUP1 SLOAD PUSH1 0x1 DUP2 PUSH1 0x1 AND ISZERO PUSH2 0x100 MUL SUB AND PUSH1 0x2 SWAP1 DIV DUP1 PUSH1 0x1F ADD PUSH1 0x20 DUP1 SWAP2 DIV MUL PUSH1 0x20 ADD PUSH1 0x40 MLOAD SWAP1 DUP2 ADD PUSH1 0x40 MSTORE DUP1 SWAP3 SWAP2 SWAP1 DUP2 DUP2 MSTORE PUSH1 0x20 ADD DUP3 DUP1 SLOAD PUSH1 0x1 DUP2 PUSH1 0x1 AND ISZERO PUSH2 0x100 MUL SUB AND PUSH1 0x2 SWAP1 DIV DUP1 ISZERO PUSH2 0x681 JUMPI DUP1 PUSH1 0x1F LT PUSH2 0x656 JUMPI PUSH2 0x100 DUP1 DUP4 SLOAD DIV MUL DUP4 MSTORE SWAP2 PUSH1 0x20 ADD SWAP2 PUSH2 0x681 JUMP JUMPDEST DUP3 ADD SWAP2 SWAP1 PUSH1 0x0 MSTORE PUSH1 0x20 PUSH1 0x0 KECCAK256 SWAP1 JUMPDEST DUP2 SLOAD DUP2 MSTORE SWAP1 PUSH1 0x1 ADD SWAP1 PUSH1 0x20 ADD DUP1 DUP4 GT PUSH2 0x664 JUMPI DUP3 SWAP1 SUB PUSH1 0x1F AND DUP3 ADD SWAP2 JUMPDEST POP POP POP POP POP SWAP1 POP SWAP1 JUMP JUMPDEST PUSH1 0x0 PUSH2 0x698 CALLER DUP5 DUP5 PUSH2 0xB58 JUMP JUMPDEST PUSH1 0x1 SWAP1 POP SWAP3 SWAP2 POP POP JUMP JUMPDEST PUSH1 0x0 PUSH1 0x5 SLOAD SWAP1 POP SWAP1 JUMP JUMPDEST PUSH1 0x0 PUSH2 0x6B9 DUP5 DUP5 DUP5 PUSH2 0xDD9 JUMP JUMPDEST PUSH2 0x752 DUP5 CALLER PUSH2 0x74D DUP6 PUSH1 0x1 PUSH1 0x0 DUP11 PUSH20 0xFFFFFFFFFFFFFFFFFFFFFFFFFFFFFFFFFFFFFFFF AND PUSH20 0xFFFFFFFFFFFFFFFFFFFFFFFFFFFFFFFFFFFFFFFF AND DUP2 MSTORE PUSH1 0x20 ADD SWAP1 DUP2 MSTORE PUSH1 0x20 ADD PUSH1 0x0 KECCAK256 PUSH1 0x0 CALLER PUSH20 0xFFFFFFFFFFFFFFFFFFFFFFFFFFFFFFFFFFFFFFFF AND PUSH20 0xFFFFFFFFFFFFFFFFFFFFFFFFFFFFFFFFFFFFFFFF AND DUP2 MSTORE PUSH1 0x20 ADD SWAP1 DUP2 MSTORE PUSH1 0x20 ADD PUSH1 0x0 KECCAK256 SLOAD PUSH2 0x10FF SWAP1 SWAP2 SWAP1 PUSH4 0xFFFFFFFF AND JUMP JUMPDEST PUSH2 0xB58 JUMP JUMPDEST PUSH1 0x1 SWAP1 POP SWAP4 SWAP3 POP POP POP JUMP JUMPDEST PUSH1 0x0 PUSH1 0x4 PUSH1 0x0 SWAP1 SLOAD SWAP1 PUSH2 0x100 EXP SWAP1 DIV PUSH1 0xFF AND SWAP1 POP SWAP1 JUMP JUMPDEST PUSH1 0x0 PUSH2 0x80F CALLER DUP5 PUSH2 0x80A DUP6 PUSH1 0x1 PUSH1 0x0 CALLER PUSH20 0xFFFFFFFFFFFFFFFFFFFFFFFFFFFFFFFFFFFFFFFF AND PUSH20 0xFFFFFFFFFFFFFFFFFFFFFFFFFFFFFFFFFFFFFFFF AND DUP2 MSTORE PUSH1 0x20 ADD SWAP1 DUP2 MSTORE PUSH1 0x20 ADD PUSH1 0x0 KECCAK256 PUSH1 0x0 DUP10 PUSH20 0xFFFFFFFFFFFFFFFFFFFFFFFFFFFFFFFFFFFFFFFF AND PUSH20 0xFFFFFFFFFFFFFFFFFFFFFFFFFFFFFFFFFFFFFFFF AND DUP2 MSTORE PUSH1 0x20 ADD SWAP1 DUP2 MSTORE PUSH1 0x20 ADD PUSH1 0x0 KECCAK256 SLOAD PUSH2 0x1111 SWAP1 SWAP2 SWAP1 PUSH4 0xFFFFFFFF AND JUMP JUMPDEST PUSH2 0xB58 JUMP JUMPDEST PUSH1 0x1 SWAP1 POP SWAP3 SWAP2 POP POP JUMP JUMPDEST PUSH1 0x0 DUP1 PUSH1 0x0 DUP4 PUSH20 0xFFFFFFFFFFFFFFFFFFFFFFFFFFFFFFFFFFFFFFFF AND PUSH20 0xFFFFFFFFFFFFFFFFFFFFFFFFFFFFFFFFFFFFFFFF AND DUP2 MSTORE PUSH1 0x20 ADD SWAP1 DUP2 MSTORE PUSH1 0x20 ADD PUSH1 0x0 KECCAK256 SLOAD SWAP1 POP SWAP2 SWAP1 POP JUMP JUMPDEST PUSH1 0x60 PUSH1 0x3 DUP1 SLOAD PUSH1 0x1 DUP2 PUSH1 0x1 AND ISZERO PUSH2 0x100 MUL SUB AND PUSH1 0x2 SWAP1 DIV DUP1 PUSH1 0x1F ADD PUSH1 0x20 DUP1 SWAP2 DIV MUL PUSH1 0x20 ADD PUSH1 0x40 MLOAD SWAP1 DUP2 ADD PUSH1 0x40 MSTORE DUP1 SWAP3 SWAP2 SWAP1 DUP2 DUP2 MSTORE PUSH1 0x20 ADD DUP3 DUP1 SLOAD PUSH1 0x1 DUP2 PUSH1 0x1 AND ISZERO PUSH2 0x100 MUL SUB AND PUSH1 0x2 SWAP1 DIV DUP1 ISZERO PUSH2 0x8F9 JUMPI DUP1 PUSH1 0x1F LT PUSH2 0x8CE JUMPI PUSH2 0x100 DUP1 DUP4 SLOAD DIV MUL DUP4 MSTORE SWAP2 PUSH1 0x20 ADD SWAP2 PUSH2 0x8F9 JUMP JUMPDEST DUP3 ADD SWAP2 SWAP1 PUSH1 0x0 MSTORE PUSH1 0x20 PUSH1 0x0 KECCAK256 SWAP1 JUMPDEST DUP2 SLOAD DUP2 MSTORE SWAP1 PUSH1 0x1 ADD SWAP1 PUSH1 0x20 ADD DUP1 DUP4 GT PUSH2 0x8DC JUMPI DUP3 SWAP1 SUB PUSH1 0x1F AND DUP3 ADD SWAP2 JUMPDEST POP POP POP POP POP SWAP1 POP SWAP1 JUMP JUMPDEST PUSH1 0x0 DUP1 PUSH1 0x0 DUP4 PUSH1 0x1 PUSH1 0x0 CALLER PUSH20 0xFFFFFFFFFFFFFFFFFFFFFFFFFFFFFFFFFFFFFFFF AND PUSH20 0xFFFFFFFFFFFFFFFFFFFFFFFFFFFFFFFFFFFFFFFF AND DUP2 MSTORE PUSH1 0x20 ADD SWAP1 DUP2 MSTORE PUSH1 0x20 ADD PUSH1 0x0 KECCAK256 PUSH1 0x0 DUP8 PUSH20 0xFFFFFFFFFFFFFFFFFFFFFFFFFFFFFFFFFFFFFFFF AND PUSH20 0xFFFFFFFFFFFFFFFFFFFFFFFFFFFFFFFFFFFFFFFF AND DUP2 MSTORE PUSH1 0x20 ADD SWAP1 DUP2 MSTORE PUSH1 0x20 ADD PUSH1 0x0 KECCAK256 DUP2 SWAP1 SSTORE POP CALLER DUP6 PUSH1 0x1 PUSH1 0x0 CALLER PUSH20 0xFFFFFFFFFFFFFFFFFFFFFFFFFFFFFFFFFFFFFFFF AND PUSH20 0xFFFFFFFFFFFFFFFFFFFFFFFFFFFFFFFFFFFFFFFF AND DUP2 MSTORE PUSH1 0x20 ADD SWAP1 DUP2 MSTORE PUSH1 0x20 ADD PUSH1 0x0 KECCAK256 PUSH1 0x0 DUP9 PUSH20 0xFFFFFFFFFFFFFFFFFFFFFFFFFFFFFFFFFFFFFFFF AND PUSH20 0xFFFFFFFFFFFFFFFFFFFFFFFFFFFFFFFFFFFFFFFF AND DUP2 MSTORE PUSH1 0x20 ADD SWAP1 DUP2 MSTORE PUSH1 0x20 ADD PUSH1 0x0 KECCAK256 SLOAD SWAP3 POP SWAP3 POP SWAP3 POP SWAP3 POP SWAP3 POP SWAP3 JUMP JUMPDEST PUSH1 0x0 PUSH2 0xAB0 CALLER DUP5 PUSH2 0xAAB DUP6 PUSH1 0x1 PUSH1 0x0 CALLER PUSH20 0xFFFFFFFFFFFFFFFFFFFFFFFFFFFFFFFFFFFFFFFF AND PUSH20 0xFFFFFFFFFFFFFFFFFFFFFFFFFFFFFFFFFFFFFFFF AND DUP2 MSTORE PUSH1 0x20 ADD SWAP1 DUP2 MSTORE PUSH1 0x20 ADD PUSH1 0x0 KECCAK256 PUSH1 0x0 DUP10 PUSH20 0xFFFFFFFFFFFFFFFFFFFFFFFFFFFFFFFFFFFFFFFF AND PUSH20 0xFFFFFFFFFFFFFFFFFFFFFFFFFFFFFFFFFFFFFFFF AND DUP2 MSTORE PUSH1 0x20 ADD SWAP1 DUP2 MSTORE PUSH1 0x20 ADD PUSH1 0x0 KECCAK256 SLOAD PUSH2 0x10FF SWAP1 SWAP2 SWAP1 PUSH4 0xFFFFFFFF AND JUMP JUMPDEST PUSH2 0xB58 JUMP JUMPDEST PUSH1 0x1 SWAP1 POP SWAP3 SWAP2 POP POP JUMP JUMPDEST PUSH1 0x0 PUSH2 0xAC7 CALLER DUP5 DUP5 PUSH2 0xDD9 JUMP JUMPDEST PUSH1 0x1 SWAP1 POP SWAP3 SWAP2 POP POP JUMP JUMPDEST PUSH1 0x0 PUSH1 0x1 PUSH1 0x0 DUP5 PUSH20 0xFFFFFFFFFFFFFFFFFFFFFFFFFFFFFFFFFFFFFFFF AND PUSH20 0xFFFFFFFFFFFFFFFFFFFFFFFFFFFFFFFFFFFFFFFF AND DUP2 MSTORE PUSH1 0x20 ADD SWAP1 DUP2 MSTORE PUSH1 0x20 ADD PUSH1 0x0 KECCAK256 PUSH1 0x0 DUP4 PUSH20 0xFFFFFFFFFFFFFFFFFFFFFFFFFFFFFFFFFFFFFFFF AND PUSH20 0xFFFFFFFFFFFFFFFFFFFFFFFFFFFFFFFFFFFFFFFF AND DUP2 MSTORE PUSH1 0x20 ADD SWAP1 DUP2 MSTORE PUSH1 0x20 ADD PUSH1 0x0 KECCAK256 SLOAD SWAP1 POP SWAP3 SWAP2 POP POP JUMP JUMPDEST PUSH1 0x0 PUSH20 0xFFFFFFFFFFFFFFFFFFFFFFFFFFFFFFFFFFFFFFFF AND DUP4 PUSH20 0xFFFFFFFFFFFFFFFFFFFFFFFFFFFFFFFFFFFFFFFF AND EQ ISZERO ISZERO ISZERO PUSH2 0xC23 JUMPI PUSH1 0x40 MLOAD PUSH32 0x8C379A000000000000000000000000000000000000000000000000000000000 DUP2 MSTORE PUSH1 0x4 ADD DUP1 DUP1 PUSH1 0x20 ADD DUP3 DUP2 SUB DUP3 MSTORE PUSH1 0x24 DUP2 MSTORE PUSH1 0x20 ADD DUP1 PUSH32 0x45524332303A20617070726F76652066726F6D20746865207A65726F20616464 DUP2 MSTORE PUSH1 0x20 ADD PUSH32 0x7265737300000000000000000000000000000000000000000000000000000000 DUP2 MSTORE POP PUSH1 0x40 ADD SWAP2 POP POP PUSH1 0x40 MLOAD DUP1 SWAP2 SUB SWAP1 REVERT JUMPDEST PUSH1 0x0 PUSH20 0xFFFFFFFFFFFFFFFFFFFFFFFFFFFFFFFFFFFFFFFF AND DUP3 PUSH20 0xFFFFFFFFFFFFFFFFFFFFFFFFFFFFFFFFFFFFFFFF AND EQ ISZERO ISZERO ISZERO PUSH2 0xCEE JUMPI PUSH1 0x40 MLOAD PUSH32 0x8C379A000000000000000000000000000000000000000000000000000000000 DUP2 MSTORE PUSH1 0x4 ADD DUP1 DUP1 PUSH1 0x20 ADD DUP3 DUP2 SUB DUP3 MSTORE PUSH1 0x22 DUP2 MSTORE PUSH1 0x20 ADD DUP1 PUSH32 0x45524332303A20617070726F766520746F20746865207A65726F206164647265 DUP2 MSTORE PUSH1 0x20 ADD PUSH32 0x7373000000000000000000000000000000000000000000000000000000000000 DUP2 MSTORE POP PUSH1 0x40 ADD SWAP2 POP POP PUSH1 0x40 MLOAD DUP1 SWAP2 SUB SWAP1 REVERT JUMPDEST DUP1 PUSH1 0x1 PUSH1 0x0 DUP6 PUSH20 0xFFFFFFFFFFFFFFFFFFFFFFFFFFFFFFFFFFFFFFFF AND PUSH20 0xFFFFFFFFFFFFFFFFFFFFFFFFFFFFFFFFFFFFFFFF AND DUP2 MSTORE PUSH1 0x20 ADD SWAP1 DUP2 MSTORE PUSH1 0x20 ADD PUSH1 0x0 KECCAK256 PUSH1 0x0 DUP5 PUSH20 0xFFFFFFFFFFFFFFFFFFFFFFFFFFFFFFFFFFFFFFFF AND PUSH20 0xFFFFFFFFFFFFFFFFFFFFFFFFFFFFFFFFFFFFFFFF AND DUP2 MSTORE PUSH1 0x20 ADD SWAP1 DUP2 MSTORE PUSH1 0x20 ADD PUSH1 0x0 KECCAK256 DUP2 SWAP1 SSTORE POP DUP2 PUSH20 0xFFFFFFFFFFFFFFFFFFFFFFFFFFFFFFFFFFFFFFFF AND DUP4 PUSH20 0xFFFFFFFFFFFFFFFFFFFFFFFFFFFFFFFFFFFFFFFF AND PUSH32 0x8C5BE1E5EBEC7D5BD14F71427D1E84F3DD0314C0F7B2291E5B200AC8C7C3B925 DUP4 PUSH1 0x40 MLOAD DUP1 DUP3 DUP2 MSTORE PUSH1 0x20 ADD SWAP2 POP POP PUSH1 0x40 MLOAD DUP1 SWAP2 SUB SWAP1 LOG3 POP POP POP JUMP JUMPDEST PUSH1 0x0 PUSH20 0xFFFFFFFFFFFFFFFFFFFFFFFFFFFFFFFFFFFFFFFF AND DUP4 PUSH20 0xFFFFFFFFFFFFFFFFFFFFFFFFFFFFFFFFFFFFFFFF AND EQ ISZERO ISZERO ISZERO PUSH2 0xEA4 JUMPI PUSH1 0x40 MLOAD PUSH32 0x8C379A000000000000000000000000000000000000000000000000000000000 DUP2 MSTORE PUSH1 0x4 ADD DUP1 DUP1 PUSH1 0x20 ADD DUP3 DUP2 SUB DUP3 MSTORE PUSH1 0x25 DUP2 MSTORE PUSH1 0x20 ADD DUP1 PUSH32 0x45524332303A207472616E736665722066726F6D20746865207A65726F206164 DUP2 MSTORE PUSH1 0x20 ADD PUSH32 0x6472657373000000000000000000000000000000000000000000000000000000 DUP2 MSTORE POP PUSH1 0x40 ADD SWAP2 POP POP PUSH1 0x40 MLOAD DUP1 SWAP2 SUB SWAP1 REVERT JUMPDEST PUSH1 0x0 PUSH20 0xFFFFFFFFFFFFFFFFFFFFFFFFFFFFFFFFFFFFFFFF AND DUP3 PUSH20 0xFFFFFFFFFFFFFFFFFFFFFFFFFFFFFFFFFFFFFFFF AND EQ ISZERO ISZERO ISZERO PUSH2 0xF6F JUMPI PUSH1 0x40 MLOAD PUSH32 0x8C379A000000000000000000000000000000000000000000000000000000000 DUP2 MSTORE PUSH1 0x4 ADD DUP1 DUP1 PUSH1 0x20 ADD DUP3 DUP2 SUB DUP3 MSTORE PUSH1 0x23 DUP2 MSTORE PUSH1 0x20 ADD DUP1 PUSH32 0x45524332303A207472616E7366657220746F20746865207A65726F2061646472 DUP2 MSTORE PUSH1 0x20 ADD PUSH32 0x6573730000000000000000000000000000000000000000000000000000000000 DUP2 MSTORE POP PUSH1 0x40 ADD SWAP2 POP POP PUSH1 0x40 MLOAD DUP1 SWAP2 SUB SWAP1 REVERT JUMPDEST PUSH2 0xFC0 DUP2 PUSH1 0x0 DUP1 DUP7 PUSH20 0xFFFFFFFFFFFFFFFFFFFFFFFFFFFFFFFFFFFFFFFF AND PUSH20 0xFFFFFFFFFFFFFFFFFFFFFFFFFFFFFFFFFFFFFFFF AND DUP2 MSTORE PUSH1 0x20 ADD SWAP1 DUP2 MSTORE PUSH1 0x20 ADD PUSH1 0x0 KECCAK256 SLOAD PUSH2 0x10FF SWAP1 SWAP2 SWAP1 PUSH4 0xFFFFFFFF AND JUMP JUMPDEST PUSH1 0x0 DUP1 DUP6 PUSH20 0xFFFFFFFFFFFFFFFFFFFFFFFFFFFFFFFFFFFFFFFF AND PUSH20 0xFFFFFFFFFFFFFFFFFFFFFFFFFFFFFFFFFFFFFFFF AND DUP2 MSTORE PUSH1 0x20 ADD SWAP1 DUP2 MSTORE PUSH1 0x20 ADD PUSH1 0x0 KECCAK256 DUP2 SWAP1 SSTORE POP PUSH2 0x1053 DUP2 PUSH1 0x0 DUP1 DUP6 PUSH20 0xFFFFFFFFFFFFFFFFFFFFFFFFFFFFFFFFFFFFFFFF AND PUSH20 0xFFFFFFFFFFFFFFFFFFFFFFFFFFFFFFFFFFFFFFFF AND DUP2 MSTORE PUSH1 0x20 ADD SWAP1 DUP2 MSTORE PUSH1 0x20 ADD PUSH1 0x0 KECCAK256 SLOAD PUSH2 0x1111 SWAP1 SWAP2 SWAP1 PUSH4 0xFFFFFFFF AND JUMP JUMPDEST PUSH1 0x0 DUP1 DUP5 PUSH20 0xFFFFFFFFFFFFFFFFFFFFFFFFFFFFFFFFFFFFFFFF AND PUSH20 0xFFFFFFFFFFFFFFFFFFFFFFFFFFFFFFFFFFFFFFFF AND DUP2 MSTORE PUSH1 0x20 ADD SWAP1 DUP2 MSTORE PUSH1 0x20 ADD PUSH1 0x0 KECCAK256 DUP2 SWAP1 SSTORE POP DUP2 PUSH20 0xFFFFFFFFFFFFFFFFFFFFFFFFFFFFFFFFFFFFFFFF AND DUP4 PUSH20 0xFFFFFFFFFFFFFFFFFFFFFFFFFFFFFFFFFFFFFFFF AND PUSH32 0xDDF252AD1BE2C89B69C2B068FC378DAA952BA7F163C4A11628F55A4DF523B3EF DUP4 PUSH1 0x40 MLOAD DUP1 DUP3 DUP2 MSTORE PUSH1 0x20 ADD SWAP2 POP POP PUSH1 0x40 MLOAD DUP1 SWAP2 SUB SWAP1 LOG3 POP POP POP JUMP JUMPDEST PUSH1 0x0 DUP1 DUP3 DUP5 SUB SWAP1 POP DUP1 SWAP2 POP POP SWAP3 SWAP2 POP POP JUMP JUMPDEST PUSH1 0x0 DUP1 DUP3 DUP5 ADD SWAP1 POP DUP4 DUP2 LT ISZERO ISZERO ISZERO PUSH2 0x1191 JUMPI PUSH1 0x40 MLOAD PUSH32 0x8C379A000000000000000000000000000000000000000000000000000000000 DUP2 MSTORE PUSH1 0x4 ADD DUP1 DUP1 PUSH1 0x20 ADD DUP3 DUP2 SUB DUP3 MSTORE PUSH1 0x1B DUP2 MSTORE PUSH1 0x20 ADD DUP1 PUSH32 0x536166654D6174683A206164646974696F6E206F766572666C6F770000000000 DUP2 MSTORE POP PUSH1 0x20 ADD SWAP2 POP POP PUSH1 0x40 MLOAD DUP1 SWAP2 SUB SWAP1 REVERT JUMPDEST DUP1 SWAP2 POP POP SWAP3 SWAP2 POP POP JUMP STOP LOG1 PUSH6 0x627A7A723058 KECCAK256 PUSH18 0xB7CFA86647C47553457817D47A88EF94F05D 0x5e 0xe8 0xbf ADD DUP4 PUSH16 0x9AE79556B3FBB9002900000000000000 "
				},
				"gasEstimates": {
					"creation": {
						"codeDepositCost": "910200",
						"executionCost": "infinite",
						"totalCost": "infinite"
					},
					"external": {
						"allowance(address,address)": "926",
						"approve(address,uint256)": "22481",
						"approveTest(address,uint256)": "21134",
						"balanceOf(address)": "691",
						"decimals()": "538",
						"decreaseAllowance(address,uint256)": "infinite",
						"increaseAllowance(address,uint256)": "infinite",
						"name()": "infinite",
						"symbol()": "infinite",
						"totalSupply()": "446",
						"transfer(address,uint256)": "infinite",
						"transferFrom(address,address,uint256)": "infinite"
					},
					"internal": {
						"_approve(address,address,uint256)": "infinite",
						"_burn(address,uint256)": "infinite",
						"_burnFrom(address,uint256)": "infinite",
						"_mint(address,uint256)": "infinite",
						"_transfer(address,address,uint256)": "infinite"
					}
				},
				"methodIdentifiers": {
					"allowance(address,address)": "dd62ed3e",
					"approve(address,uint256)": "095ea7b3",
					"approveTest(address,uint256)": "a25fb97a",
					"balanceOf(address)": "70a08231",
					"decimals()": "313ce567",
					"decreaseAllowance(address,uint256)": "a457c2d7",
					"increaseAllowance(address,uint256)": "39509351",
					"name()": "06fdde03",
					"symbol()": "95d89b41",
					"totalSupply()": "18160ddd",
					"transfer(address,uint256)": "a9059cbb",
					"transferFrom(address,address,uint256)": "23b872dd"
				}
			},
			"userdoc": {
				"methods": {}
			}
		}
	}
}