{
	"contracts/TrustFund.sol": {
		"Checker": {
			"abi": [
				{
					"constant": true,
					"inputs": [],
					"name": "getETHPrice",
					"outputs": [
						{
							"name": "",
							"type": "uint256"
						}
					],
					"payable": false,
					"stateMutability": "view",
					"type": "function"
				},
				{
					"constant": false,
					"inputs": [],
					"name": "change_lot",
					"outputs": [
						{
							"name": "",
							"type": "bool"
						}
					],
					"payable": false,
					"stateMutability": "nonpayable",
					"type": "function"
				}
			],
			"devdoc": {
				"methods": {}
			},
			"evm": {
				"assembly": "    /* \"contracts/TrustFund.sol\":3239:3424  contract Checker {... */\n  mstore(0x40, 0x80)\n  callvalue\n    /* \"--CODEGEN--\":8:17   */\n  dup1\n    /* \"--CODEGEN--\":5:7   */\n  iszero\n  tag_1\n  jumpi\n    /* \"--CODEGEN--\":30:31   */\n  0x0\n    /* \"--CODEGEN--\":27:28   */\n  dup1\n    /* \"--CODEGEN--\":20:32   */\n  revert\n    /* \"--CODEGEN--\":5:7   */\ntag_1:\n    /* \"contracts/TrustFund.sol\":3239:3424  contract Checker {... */\n  pop\n  dataSize(sub_0)\n  dup1\n  dataOffset(sub_0)\n  0x0\n  codecopy\n  0x0\n  return\nstop\n\nsub_0: assembly {\n        /* \"contracts/TrustFund.sol\":3239:3424  contract Checker {... */\n      mstore(0x40, 0x80)\n      jumpi(tag_1, lt(calldatasize, 0x4))\n      calldataload(0x0)\n      0x100000000000000000000000000000000000000000000000000000000\n      swap1\n      div\n      0xffffffff\n      and\n      dup1\n      0xa607a8d9\n      eq\n      tag_2\n      jumpi\n      dup1\n      0xac70214c\n      eq\n      tag_3\n      jumpi\n    tag_1:\n      0x0\n      dup1\n      revert\n        /* \"contracts/TrustFund.sol\":3260:3352  function getETHPrice() public view returns (uint256){... */\n    tag_2:\n      callvalue\n        /* \"--CODEGEN--\":8:17   */\n      dup1\n        /* \"--CODEGEN--\":5:7   */\n      iszero\n      tag_4\n      jumpi\n        /* \"--CODEGEN--\":30:31   */\n      0x0\n        /* \"--CODEGEN--\":27:28   */\n      dup1\n        /* \"--CODEGEN--\":20:32   */\n      revert\n        /* \"--CODEGEN--\":5:7   */\n    tag_4:\n        /* \"contracts/TrustFund.sol\":3260:3352  function getETHPrice() public view returns (uint256){... */\n      pop\n      tag_5\n      jump(tag_6)\n    tag_5:\n      mload(0x40)\n      dup1\n      dup3\n      dup2\n      mstore\n      0x20\n      add\n      swap2\n      pop\n      pop\n      mload(0x40)\n      dup1\n      swap2\n      sub\n      swap1\n      return\n        /* \"contracts/TrustFund.sol\":3356:3422  function change_lot() public returns (bool){... */\n    tag_3:\n      callvalue\n        /* \"--CODEGEN--\":8:17   */\n      dup1\n        /* \"--CODEGEN--\":5:7   */\n      iszero\n      tag_7\n      jumpi\n        /* \"--CODEGEN--\":30:31   */\n      0x0\n        /* \"--CODEGEN--\":27:28   */\n      dup1\n        /* \"--CODEGEN--\":20:32   */\n      revert\n        /* \"--CODEGEN--\":5:7   */\n    tag_7:\n        /* \"contracts/TrustFund.sol\":3356:3422  function change_lot() public returns (bool){... */\n      pop\n      tag_8\n      jump(tag_9)\n    tag_8:\n      mload(0x40)\n      dup1\n      dup3\n      iszero\n      iszero\n      iszero\n      iszero\n      dup2\n      mstore\n      0x20\n      add\n      swap2\n      pop\n      pop\n      mload(0x40)\n      dup1\n      swap2\n      sub\n      swap1\n      return\n        /* \"contracts/TrustFund.sol\":3260:3352  function getETHPrice() public view returns (uint256){... */\n    tag_6:\n        /* \"contracts/TrustFund.sol\":3304:3311  uint256 */\n      0x0\n        /* \"contracts/TrustFund.sol\":3325:3347  1567933900000000000000 */\n      0x54ff7436c7b8d8c000\n        /* \"contracts/TrustFund.sol\":3318:3347  return 1567933900000000000000 */\n      swap1\n      pop\n        /* \"contracts/TrustFund.sol\":3260:3352  function getETHPrice() public view returns (uint256){... */\n      swap1\n      jump\t// out\n        /* \"contracts/TrustFund.sol\":3356:3422  function change_lot() public returns (bool){... */\n    tag_9:\n        /* \"contracts/TrustFund.sol\":3394:3398  bool */\n      0x0\n        /* \"contracts/TrustFund.sol\":3412:3417  false */\n      dup1\n        /* \"contracts/TrustFund.sol\":3405:3417  return false */\n      swap1\n      pop\n        /* \"contracts/TrustFund.sol\":3356:3422  function change_lot() public returns (bool){... */\n      swap1\n      jump\t// out\n\n    auxdata: 0xa165627a7a7230582003e7de5634390259d3d5ca721525cd8f33b4054b335297d8755540cd8514400d0029\n}\n",
				"bytecode": {
					"linkReferences": {},
					"object": "608060405234801561001057600080fd5b5060e78061001f6000396000f3006080604052600436106049576000357c0100000000000000000000000000000000000000000000000000000000900463ffffffff168063a607a8d914604e578063ac70214c146076575b600080fd5b348015605957600080fd5b50606060a2565b6040518082815260200191505060405180910390f35b348015608157600080fd5b50608860b3565b604051808215151515815260200191505060405180910390f35b60006854ff7436c7b8d8c000905090565b6000809050905600a165627a7a7230582003e7de5634390259d3d5ca721525cd8f33b4054b335297d8755540cd8514400d0029",
					"opcodes": "PUSH1 0x80 PUSH1 0x40 MSTORE CALLVALUE DUP1 ISZERO PUSH2 0x10 JUMPI PUSH1 0x0 DUP1 REVERT JUMPDEST POP PUSH1 0xE7 DUP1 PUSH2 0x1F PUSH1 0x0 CODECOPY PUSH1 0x0 RETURN STOP PUSH1 0x80 PUSH1 0x40 MSTORE PUSH1 0x4 CALLDATASIZE LT PUSH1 0x49 JUMPI PUSH1 0x0 CALLDATALOAD PUSH29 0x100000000000000000000000000000000000000000000000000000000 SWAP1 DIV PUSH4 0xFFFFFFFF AND DUP1 PUSH4 0xA607A8D9 EQ PUSH1 0x4E JUMPI DUP1 PUSH4 0xAC70214C EQ PUSH1 0x76 JUMPI JUMPDEST PUSH1 0x0 DUP1 REVERT JUMPDEST CALLVALUE DUP1 ISZERO PUSH1 0x59 JUMPI PUSH1 0x0 DUP1 REVERT JUMPDEST POP PUSH1 0x60 PUSH1 0xA2 JUMP JUMPDEST PUSH1 0x40 MLOAD DUP1 DUP3 DUP2 MSTORE PUSH1 0x20 ADD SWAP2 POP POP PUSH1 0x40 MLOAD DUP1 SWAP2 SUB SWAP1 RETURN JUMPDEST CALLVALUE DUP1 ISZERO PUSH1 0x81 JUMPI PUSH1 0x0 DUP1 REVERT JUMPDEST POP PUSH1 0x88 PUSH1 0xB3 JUMP JUMPDEST PUSH1 0x40 MLOAD DUP1 DUP3 ISZERO ISZERO ISZERO ISZERO DUP2 MSTORE PUSH1 0x20 ADD SWAP2 POP POP PUSH1 0x40 MLOAD DUP1 SWAP2 SUB SWAP1 RETURN JUMPDEST PUSH1 0x0 PUSH9 0x54FF7436C7B8D8C000 SWAP1 POP SWAP1 JUMP JUMPDEST PUSH1 0x0 DUP1 SWAP1 POP SWAP1 JUMP STOP LOG1 PUSH6 0x627A7A723058 KECCAK256 SUB 0xe7 0xde JUMP CALLVALUE CODECOPY MUL MSIZE 0xd3 0xd5 0xca PUSH19 0x1525CD8F33B4054B335297D8755540CD851440 0xd STOP 0x29 "
				},
				"gasEstimates": {
					"creation": {
						"codeDepositCost": "46200",
						"executionCost": "99",
						"totalCost": "46299"
					},
					"external": {
						"change_lot()": "236",
						"getETHPrice()": "202"
					}
				},
				"methodIdentifiers": {
					"change_lot()": "ac70214c",
					"getETHPrice()": "a607a8d9"
				}
			},
			"userdoc": {
				"methods": {}
			}
		}
	}
}