{
	"contracts/Checker.sol": {
		"Checker": {
			"abi": [
				{
					"inputs": [],
					"stateMutability": "nonpayable",
					"type": "constructor"
				},
				{
					"inputs": [],
					"name": "FundMe__NotOwner",
					"type": "error"
				},
				{
					"inputs": [],
					"name": "MINIMUM_USD",
					"outputs": [
						{
							"internalType": "uint256",
							"name": "",
							"type": "uint256"
						}
					],
					"stateMutability": "view",
					"type": "function"
				},
				{
					"inputs": [],
					"name": "change_lot",
					"outputs": [
						{
							"internalType": "bool",
							"name": "",
							"type": "bool"
						}
					],
					"stateMutability": "nonpayable",
					"type": "function"
				},
				{
					"inputs": [],
					"name": "cheaperWithdraw",
					"outputs": [],
					"stateMutability": "nonpayable",
					"type": "function"
				},
				{
					"inputs": [],
					"name": "fund",
					"outputs": [],
					"stateMutability": "payable",
					"type": "function"
				},
				{
					"inputs": [
						{
							"internalType": "address",
							"name": "fundingAddress",
							"type": "address"
						}
					],
					"name": "getAddressToAmountFunded",
					"outputs": [
						{
							"internalType": "uint256",
							"name": "",
							"type": "uint256"
						}
					],
					"stateMutability": "view",
					"type": "function"
				},
				{
					"inputs": [],
					"name": "getBTCPrice",
					"outputs": [
						{
							"internalType": "uint256",
							"name": "",
							"type": "uint256"
						}
					],
					"stateMutability": "view",
					"type": "function"
				},
				{
					"inputs": [],
					"name": "getETHPrice",
					"outputs": [
						{
							"internalType": "uint256",
							"name": "",
							"type": "uint256"
						}
					],
					"stateMutability": "view",
					"type": "function"
				},
				{
					"inputs": [
						{
							"internalType": "uint256",
							"name": "index",
							"type": "uint256"
						}
					],
					"name": "getFunder",
					"outputs": [
						{
							"internalType": "address",
							"name": "",
							"type": "address"
						}
					],
					"stateMutability": "view",
					"type": "function"
				},
				{
					"inputs": [],
					"name": "getOwner",
					"outputs": [
						{
							"internalType": "address",
							"name": "",
							"type": "address"
						}
					],
					"stateMutability": "view",
					"type": "function"
				},
				{
					"inputs": [],
					"name": "getPriceFeed",
					"outputs": [
						{
							"internalType": "contract AggregatorV3Interface",
							"name": "",
							"type": "address"
						}
					],
					"stateMutability": "view",
					"type": "function"
				},
				{
					"inputs": [],
					"name": "getUSDCPrice",
					"outputs": [
						{
							"internalType": "uint256",
							"name": "",
							"type": "uint256"
						}
					],
					"stateMutability": "view",
					"type": "function"
				},
				{
					"inputs": [],
					"name": "getVersion",
					"outputs": [
						{
							"internalType": "uint256",
							"name": "",
							"type": "uint256"
						}
					],
					"stateMutability": "view",
					"type": "function"
				},
				{
					"inputs": [],
					"name": "percent",
					"outputs": [
						{
							"internalType": "uint256",
							"name": "",
							"type": "uint256"
						}
					],
					"stateMutability": "view",
					"type": "function"
				},
				{
					"inputs": [
						{
							"internalType": "uint256",
							"name": "_p",
							"type": "uint256"
						}
					],
					"name": "setPercent",
					"outputs": [],
					"stateMutability": "nonpayable",
					"type": "function"
				}
			],
			"devdoc": {
				"kind": "dev",
				"methods": {},
				"version": 1
			},
			"evm": {
				"assembly": "    /* \"contracts/Checker.sol\":258:4577  contract Checker {... */\n  mstore(0x40, 0xa0)\n    /* \"contracts/Checker.sol\":732:735  100 */\n  0x64\n    /* \"contracts/Checker.sol\":707:735  uint256 public percent = 100 */\n  0x05\n  sstore\n    /* \"contracts/Checker.sol\":972:1579  constructor() {... */\n  callvalue\n  dup1\n  iszero\n  tag_1\n  jumpi\n  0x00\n  dup1\n  revert\ntag_1:\n  pop\n    /* \"contracts/Checker.sol\":1107:1127  address ETH_USD_addr */\n  0x00\n    /* \"contracts/Checker.sol\":1130:1172  0xD4a33860578De61DBAbDc8BFdb98FD742fA7028e */\n  0xd4a33860578de61dbabdc8bfdb98fd742fa7028e\n    /* \"contracts/Checker.sol\":1107:1172  address ETH_USD_addr = 0xD4a33860578De61DBAbDc8BFdb98FD742fA7028e */\n  swap1\n  pop\n    /* \"contracts/Checker.sol\":1182:1203  address USDC_USD_addr */\n  0x00\n    /* \"contracts/Checker.sol\":1206:1248  0xAb5c49580294Aff77670F839ea425f5b78ab3Ae7 */\n  0xab5c49580294aff77670f839ea425f5b78ab3ae7\n    /* \"contracts/Checker.sol\":1182:1248  address USDC_USD_addr = 0xAb5c49580294Aff77670F839ea425f5b78ab3Ae7 */\n  swap1\n  pop\n    /* \"contracts/Checker.sol\":1258:1278  address BTC_USD_addr */\n  0x00\n    /* \"contracts/Checker.sol\":1281:1323  0xA39434A63A52E749F02807ae27335515BA4b07F7 */\n  0xa39434a63a52e749f02807ae27335515ba4b07f7\n    /* \"contracts/Checker.sol\":1258:1323  address BTC_USD_addr = 0xA39434A63A52E749F02807ae27335515BA4b07F7 */\n  swap1\n  pop\n    /* \"contracts/Checker.sol\":1369:1381  ETH_USD_addr */\n  dup3\n    /* \"contracts/Checker.sol\":1333:1344  s_priceFeed */\n  0x02\n  0x00\n    /* \"contracts/Checker.sol\":1333:1382  s_priceFeed = AggregatorV3Interface(ETH_USD_addr) */\n  0x0100\n  exp\n  dup2\n  sload\n  dup2\n  0xffffffffffffffffffffffffffffffffffffffff\n  mul\n  not\n  and\n  swap1\n  dup4\n  0xffffffffffffffffffffffffffffffffffffffff\n  and\n  mul\n  or\n  swap1\n  sstore\n  pop\n    /* \"contracts/Checker.sol\":1431:1444  USDC_USD_addr */\n  dup2\n    /* \"contracts/Checker.sol\":1392:1406  USDC_priceFeed */\n  0x03\n  0x00\n    /* \"contracts/Checker.sol\":1392:1445  USDC_priceFeed = AggregatorV3Interface(USDC_USD_addr) */\n  0x0100\n  exp\n  dup2\n  sload\n  dup2\n  0xffffffffffffffffffffffffffffffffffffffff\n  mul\n  not\n  and\n  swap1\n  dup4\n  0xffffffffffffffffffffffffffffffffffffffff\n  and\n  mul\n  or\n  swap1\n  sstore\n  pop\n    /* \"contracts/Checker.sol\":1493:1505  BTC_USD_addr */\n  dup1\n    /* \"contracts/Checker.sol\":1455:1468  BTC_priceFeed */\n  0x04\n  0x00\n    /* \"contracts/Checker.sol\":1455:1506  BTC_priceFeed = AggregatorV3Interface(BTC_USD_addr) */\n  0x0100\n  exp\n  dup2\n  sload\n  dup2\n  0xffffffffffffffffffffffffffffffffffffffff\n  mul\n  not\n  and\n  swap1\n  dup4\n  0xffffffffffffffffffffffffffffffffffffffff\n  and\n  mul\n  or\n  swap1\n  sstore\n  pop\n    /* \"contracts/Checker.sol\":1526:1536  msg.sender */\n  caller\n    /* \"contracts/Checker.sol\":1516:1536  i_owner = msg.sender */\n  0xffffffffffffffffffffffffffffffffffffffff\n  and\n  0x80\n  dup2\n  0xffffffffffffffffffffffffffffffffffffffff\n  and\n  dup2\n  mstore\n  pop\n  pop\n    /* \"contracts/Checker.sol\":1559:1572  getETHPrice() */\n  tag_4\n    /* \"contracts/Checker.sol\":1559:1570  getETHPrice */\n  shl(0x20, tag_5)\n    /* \"contracts/Checker.sol\":1559:1572  getETHPrice() */\n  0x20\n  shr\n  jump\t// in\ntag_4:\n    /* \"contracts/Checker.sol\":1546:1556  last_price */\n  0x06\n    /* \"contracts/Checker.sol\":1546:1572  last_price = getETHPrice() */\n  dup2\n  swap1\n  sstore\n  pop\n    /* \"contracts/Checker.sol\":986:1579  {... */\n  pop\n  pop\n  pop\n    /* \"contracts/Checker.sol\":258:4577  contract Checker {... */\n  jump(tag_6)\n    /* \"contracts/Checker.sol\":2732:2955  function getETHPrice() public view returns (uint256) {... */\ntag_5:\n    /* \"contracts/Checker.sol\":2776:2783  uint256 */\n  0x00\n    /* \"contracts/Checker.sol\":2798:2811  int256 answer */\n  dup1\n    /* \"contracts/Checker.sol\":2821:2832  s_priceFeed */\n  0x02\n  0x00\n  swap1\n  sload\n  swap1\n  0x0100\n  exp\n  swap1\n  div\n  0xffffffffffffffffffffffffffffffffffffffff\n  and\n    /* \"contracts/Checker.sol\":2821:2848  s_priceFeed.latestRoundData */\n  0xffffffffffffffffffffffffffffffffffffffff\n  and\n  0xfeaf968c\n    /* \"contracts/Checker.sol\":2821:2850  s_priceFeed.latestRoundData() */\n  mload(0x40)\n  dup2\n  0xffffffff\n  and\n  0xe0\n  shl\n  dup2\n  mstore\n  0x04\n  add\n  0xa0\n  mload(0x40)\n  dup1\n  dup4\n  sub\n  dup2\n  dup7\n  gas\n  staticcall\n  iszero\n  dup1\n  iszero\n  tag_9\n  jumpi\n  returndatasize\n  0x00\n  dup1\n  returndatacopy\n  revert(0x00, returndatasize)\ntag_9:\n  pop\n  pop\n  pop\n  pop\n  mload(0x40)\n  returndatasize\n  not(0x1f)\n  0x1f\n  dup3\n  add\n  and\n  dup3\n  add\n  dup1\n  0x40\n  mstore\n  pop\n  dup2\n  add\n  swap1\n  tag_10\n  swap2\n  swap1\n  tag_11\n  jump\t// in\ntag_10:\n    /* \"contracts/Checker.sol\":2795:2850  (, int256 answer, , , ) = s_priceFeed.latestRoundData() */\n  pop\n  pop\n  pop\n  swap2\n  pop\n  pop\n    /* \"contracts/Checker.sol\":2945:2948  100 */\n  0x64\n    /* \"contracts/Checker.sol\":2935:2942  percent */\n  sload(0x05)\n    /* \"contracts/Checker.sol\":2920:2931  10000000000 */\n  0x02540be400\n    /* \"contracts/Checker.sol\":2911:2917  answer */\n  dup4\n    /* \"contracts/Checker.sol\":2911:2931  answer * 10000000000 */\n  tag_12\n  swap2\n  swap1\n  tag_13\n  jump\t// in\ntag_12:\n    /* \"contracts/Checker.sol\":2903:2942  uint256(answer * 10000000000) * percent */\n  tag_14\n  swap2\n  swap1\n  tag_15\n  jump\t// in\ntag_14:\n    /* \"contracts/Checker.sol\":2903:2948  uint256(answer * 10000000000) * percent / 100 */\n  tag_16\n  swap2\n  swap1\n  tag_17\n  jump\t// in\ntag_16:\n    /* \"contracts/Checker.sol\":2896:2948  return uint256(answer * 10000000000) * percent / 100 */\n  swap2\n  pop\n  pop\n    /* \"contracts/Checker.sol\":2732:2955  function getETHPrice() public view returns (uint256) {... */\n  swap1\n  jump\t// out\n    /* \"#utility.yul\":88:205   */\ntag_19:\n    /* \"#utility.yul\":197:198   */\n  0x00\n    /* \"#utility.yul\":194:195   */\n  dup1\n    /* \"#utility.yul\":187:199   */\n  revert\n    /* \"#utility.yul\":334:439   */\ntag_21:\n    /* \"#utility.yul\":370:377   */\n  0x00\n    /* \"#utility.yul\":410:432   */\n  0xffffffffffffffffffff\n    /* \"#utility.yul\":403:408   */\n  dup3\n    /* \"#utility.yul\":399:433   */\n  and\n    /* \"#utility.yul\":388:433   */\n  swap1\n  pop\n    /* \"#utility.yul\":334:439   */\n  swap2\n  swap1\n  pop\n  jump\t// out\n    /* \"#utility.yul\":445:565   */\ntag_22:\n    /* \"#utility.yul\":517:540   */\n  tag_38\n    /* \"#utility.yul\":534:539   */\n  dup2\n    /* \"#utility.yul\":517:540   */\n  tag_21\n  jump\t// in\ntag_38:\n    /* \"#utility.yul\":510:515   */\n  dup2\n    /* \"#utility.yul\":507:541   */\n  eq\n    /* \"#utility.yul\":497:559   */\n  tag_39\n  jumpi\n    /* \"#utility.yul\":555:556   */\n  0x00\n    /* \"#utility.yul\":552:553   */\n  dup1\n    /* \"#utility.yul\":545:557   */\n  revert\n    /* \"#utility.yul\":497:559   */\ntag_39:\n    /* \"#utility.yul\":445:565   */\n  pop\n  jump\t// out\n    /* \"#utility.yul\":571:712   */\ntag_23:\n    /* \"#utility.yul\":627:632   */\n  0x00\n    /* \"#utility.yul\":658:664   */\n  dup2\n    /* \"#utility.yul\":652:665   */\n  mload\n    /* \"#utility.yul\":643:665   */\n  swap1\n  pop\n    /* \"#utility.yul\":674:706   */\n  tag_41\n    /* \"#utility.yul\":700:705   */\n  dup2\n    /* \"#utility.yul\":674:706   */\n  tag_22\n  jump\t// in\ntag_41:\n    /* \"#utility.yul\":571:712   */\n  swap3\n  swap2\n  pop\n  pop\n  jump\t// out\n    /* \"#utility.yul\":718:794   */\ntag_24:\n    /* \"#utility.yul\":754:761   */\n  0x00\n    /* \"#utility.yul\":783:788   */\n  dup2\n    /* \"#utility.yul\":772:788   */\n  swap1\n  pop\n    /* \"#utility.yul\":718:794   */\n  swap2\n  swap1\n  pop\n  jump\t// out\n    /* \"#utility.yul\":800:920   */\ntag_25:\n    /* \"#utility.yul\":872:895   */\n  tag_44\n    /* \"#utility.yul\":889:894   */\n  dup2\n    /* \"#utility.yul\":872:895   */\n  tag_24\n  jump\t// in\ntag_44:\n    /* \"#utility.yul\":865:870   */\n  dup2\n    /* \"#utility.yul\":862:896   */\n  eq\n    /* \"#utility.yul\":852:914   */\n  tag_45\n  jumpi\n    /* \"#utility.yul\":910:911   */\n  0x00\n    /* \"#utility.yul\":907:908   */\n  dup1\n    /* \"#utility.yul\":900:912   */\n  revert\n    /* \"#utility.yul\":852:914   */\ntag_45:\n    /* \"#utility.yul\":800:920   */\n  pop\n  jump\t// out\n    /* \"#utility.yul\":926:1067   */\ntag_26:\n    /* \"#utility.yul\":982:987   */\n  0x00\n    /* \"#utility.yul\":1013:1019   */\n  dup2\n    /* \"#utility.yul\":1007:1020   */\n  mload\n    /* \"#utility.yul\":998:1020   */\n  swap1\n  pop\n    /* \"#utility.yul\":1029:1061   */\n  tag_47\n    /* \"#utility.yul\":1055:1060   */\n  dup2\n    /* \"#utility.yul\":1029:1061   */\n  tag_25\n  jump\t// in\ntag_47:\n    /* \"#utility.yul\":926:1067   */\n  swap3\n  swap2\n  pop\n  pop\n  jump\t// out\n    /* \"#utility.yul\":1073:1150   */\ntag_27:\n    /* \"#utility.yul\":1110:1117   */\n  0x00\n    /* \"#utility.yul\":1139:1144   */\n  dup2\n    /* \"#utility.yul\":1128:1144   */\n  swap1\n  pop\n    /* \"#utility.yul\":1073:1150   */\n  swap2\n  swap1\n  pop\n  jump\t// out\n    /* \"#utility.yul\":1156:1278   */\ntag_28:\n    /* \"#utility.yul\":1229:1253   */\n  tag_50\n    /* \"#utility.yul\":1247:1252   */\n  dup2\n    /* \"#utility.yul\":1229:1253   */\n  tag_27\n  jump\t// in\ntag_50:\n    /* \"#utility.yul\":1222:1227   */\n  dup2\n    /* \"#utility.yul\":1219:1254   */\n  eq\n    /* \"#utility.yul\":1209:1272   */\n  tag_51\n  jumpi\n    /* \"#utility.yul\":1268:1269   */\n  0x00\n    /* \"#utility.yul\":1265:1266   */\n  dup1\n    /* \"#utility.yul\":1258:1270   */\n  revert\n    /* \"#utility.yul\":1209:1272   */\ntag_51:\n    /* \"#utility.yul\":1156:1278   */\n  pop\n  jump\t// out\n    /* \"#utility.yul\":1284:1427   */\ntag_29:\n    /* \"#utility.yul\":1341:1346   */\n  0x00\n    /* \"#utility.yul\":1372:1378   */\n  dup2\n    /* \"#utility.yul\":1366:1379   */\n  mload\n    /* \"#utility.yul\":1357:1379   */\n  swap1\n  pop\n    /* \"#utility.yul\":1388:1421   */\n  tag_53\n    /* \"#utility.yul\":1415:1420   */\n  dup2\n    /* \"#utility.yul\":1388:1421   */\n  tag_28\n  jump\t// in\ntag_53:\n    /* \"#utility.yul\":1284:1427   */\n  swap3\n  swap2\n  pop\n  pop\n  jump\t// out\n    /* \"#utility.yul\":1433:2404   */\ntag_11:\n    /* \"#utility.yul\":1536:1542   */\n  0x00\n    /* \"#utility.yul\":1544:1550   */\n  dup1\n    /* \"#utility.yul\":1552:1558   */\n  0x00\n    /* \"#utility.yul\":1560:1566   */\n  dup1\n    /* \"#utility.yul\":1568:1574   */\n  0x00\n    /* \"#utility.yul\":1617:1620   */\n  0xa0\n    /* \"#utility.yul\":1605:1614   */\n  dup7\n    /* \"#utility.yul\":1596:1603   */\n  dup9\n    /* \"#utility.yul\":1592:1615   */\n  sub\n    /* \"#utility.yul\":1588:1621   */\n  slt\n    /* \"#utility.yul\":1585:1705   */\n  iszero\n  tag_55\n  jumpi\n    /* \"#utility.yul\":1624:1703   */\n  tag_56\n  tag_19\n  jump\t// in\ntag_56:\n    /* \"#utility.yul\":1585:1705   */\ntag_55:\n    /* \"#utility.yul\":1744:1745   */\n  0x00\n    /* \"#utility.yul\":1769:1832   */\n  tag_57\n    /* \"#utility.yul\":1824:1831   */\n  dup9\n    /* \"#utility.yul\":1815:1821   */\n  dup3\n    /* \"#utility.yul\":1804:1813   */\n  dup10\n    /* \"#utility.yul\":1800:1822   */\n  add\n    /* \"#utility.yul\":1769:1832   */\n  tag_23\n  jump\t// in\ntag_57:\n    /* \"#utility.yul\":1759:1832   */\n  swap6\n  pop\n    /* \"#utility.yul\":1715:1842   */\n  pop\n    /* \"#utility.yul\":1881:1883   */\n  0x20\n    /* \"#utility.yul\":1907:1970   */\n  tag_58\n    /* \"#utility.yul\":1962:1969   */\n  dup9\n    /* \"#utility.yul\":1953:1959   */\n  dup3\n    /* \"#utility.yul\":1942:1951   */\n  dup10\n    /* \"#utility.yul\":1938:1960   */\n  add\n    /* \"#utility.yul\":1907:1970   */\n  tag_26\n  jump\t// in\ntag_58:\n    /* \"#utility.yul\":1897:1970   */\n  swap5\n  pop\n    /* \"#utility.yul\":1852:1980   */\n  pop\n    /* \"#utility.yul\":2019:2021   */\n  0x40\n    /* \"#utility.yul\":2045:2109   */\n  tag_59\n    /* \"#utility.yul\":2101:2108   */\n  dup9\n    /* \"#utility.yul\":2092:2098   */\n  dup3\n    /* \"#utility.yul\":2081:2090   */\n  dup10\n    /* \"#utility.yul\":2077:2099   */\n  add\n    /* \"#utility.yul\":2045:2109   */\n  tag_29\n  jump\t// in\ntag_59:\n    /* \"#utility.yul\":2035:2109   */\n  swap4\n  pop\n    /* \"#utility.yul\":1990:2119   */\n  pop\n    /* \"#utility.yul\":2158:2160   */\n  0x60\n    /* \"#utility.yul\":2184:2248   */\n  tag_60\n    /* \"#utility.yul\":2240:2247   */\n  dup9\n    /* \"#utility.yul\":2231:2237   */\n  dup3\n    /* \"#utility.yul\":2220:2229   */\n  dup10\n    /* \"#utility.yul\":2216:2238   */\n  add\n    /* \"#utility.yul\":2184:2248   */\n  tag_29\n  jump\t// in\ntag_60:\n    /* \"#utility.yul\":2174:2248   */\n  swap3\n  pop\n    /* \"#utility.yul\":2129:2258   */\n  pop\n    /* \"#utility.yul\":2297:2300   */\n  0x80\n    /* \"#utility.yul\":2324:2387   */\n  tag_61\n    /* \"#utility.yul\":2379:2386   */\n  dup9\n    /* \"#utility.yul\":2370:2376   */\n  dup3\n    /* \"#utility.yul\":2359:2368   */\n  dup10\n    /* \"#utility.yul\":2355:2377   */\n  add\n    /* \"#utility.yul\":2324:2387   */\n  tag_23\n  jump\t// in\ntag_61:\n    /* \"#utility.yul\":2314:2387   */\n  swap2\n  pop\n    /* \"#utility.yul\":2268:2397   */\n  pop\n    /* \"#utility.yul\":1433:2404   */\n  swap3\n  swap6\n  pop\n  swap3\n  swap6\n  swap1\n  swap4\n  pop\n  jump\t// out\n    /* \"#utility.yul\":2410:2590   */\ntag_30:\n    /* \"#utility.yul\":2458:2535   */\n  0x4e487b7100000000000000000000000000000000000000000000000000000000\n    /* \"#utility.yul\":2455:2456   */\n  0x00\n    /* \"#utility.yul\":2448:2536   */\n  mstore\n    /* \"#utility.yul\":2555:2559   */\n  0x11\n    /* \"#utility.yul\":2552:2553   */\n  0x04\n    /* \"#utility.yul\":2545:2560   */\n  mstore\n    /* \"#utility.yul\":2579:2583   */\n  0x24\n    /* \"#utility.yul\":2576:2577   */\n  0x00\n    /* \"#utility.yul\":2569:2584   */\n  revert\n    /* \"#utility.yul\":2596:3152   */\ntag_13:\n    /* \"#utility.yul\":2635:2642   */\n  0x00\n    /* \"#utility.yul\":2658:2677   */\n  tag_64\n    /* \"#utility.yul\":2675:2676   */\n  dup3\n    /* \"#utility.yul\":2658:2677   */\n  tag_24\n  jump\t// in\ntag_64:\n    /* \"#utility.yul\":2653:2677   */\n  swap2\n  pop\n    /* \"#utility.yul\":2691:2710   */\n  tag_65\n    /* \"#utility.yul\":2708:2709   */\n  dup4\n    /* \"#utility.yul\":2691:2710   */\n  tag_24\n  jump\t// in\ntag_65:\n    /* \"#utility.yul\":2686:2710   */\n  swap3\n  pop\n    /* \"#utility.yul\":2745:2746   */\n  dup3\n    /* \"#utility.yul\":2742:2743   */\n  dup3\n    /* \"#utility.yul\":2738:2747   */\n  mul\n    /* \"#utility.yul\":2767:2796   */\n  tag_66\n    /* \"#utility.yul\":2784:2795   */\n  dup2\n    /* \"#utility.yul\":2767:2796   */\n  tag_24\n  jump\t// in\ntag_66:\n    /* \"#utility.yul\":2756:2796   */\n  swap2\n  pop\n    /* \"#utility.yul\":2854:2920   */\n  0x8000000000000000000000000000000000000000000000000000000000000000\n    /* \"#utility.yul\":2851:2852   */\n  dup5\n    /* \"#utility.yul\":2848:2921   */\n  eq\n    /* \"#utility.yul\":2844:2845   */\n  0x00\n    /* \"#utility.yul\":2841:2842   */\n  dup5\n    /* \"#utility.yul\":2837:2846   */\n  slt\n    /* \"#utility.yul\":2833:2922   */\n  and\n    /* \"#utility.yul\":2830:2945   */\n  iszero\n  tag_67\n  jumpi\n    /* \"#utility.yul\":2925:2943   */\n  tag_68\n  tag_30\n  jump\t// in\ntag_68:\n    /* \"#utility.yul\":2830:2945   */\ntag_67:\n    /* \"#utility.yul\":3095:3096   */\n  dup3\n    /* \"#utility.yul\":3086:3093   */\n  dup3\n    /* \"#utility.yul\":3081:3097   */\n  sdiv\n    /* \"#utility.yul\":3078:3079   */\n  dup5\n    /* \"#utility.yul\":3075:3098   */\n  eq\n    /* \"#utility.yul\":3055:3056   */\n  dup4\n    /* \"#utility.yul\":3048:3057   */\n  iszero\n    /* \"#utility.yul\":3028:3112   */\n  or\n    /* \"#utility.yul\":3005:3145   */\n  tag_69\n  jumpi\n    /* \"#utility.yul\":3125:3143   */\n  tag_70\n  tag_30\n  jump\t// in\ntag_70:\n    /* \"#utility.yul\":3005:3145   */\ntag_69:\n    /* \"#utility.yul\":2643:3152   */\n  pop\n    /* \"#utility.yul\":2596:3152   */\n  swap3\n  swap2\n  pop\n  pop\n  jump\t// out\n    /* \"#utility.yul\":3158:3568   */\ntag_15:\n    /* \"#utility.yul\":3198:3205   */\n  0x00\n    /* \"#utility.yul\":3221:3241   */\n  tag_72\n    /* \"#utility.yul\":3239:3240   */\n  dup3\n    /* \"#utility.yul\":3221:3241   */\n  tag_27\n  jump\t// in\ntag_72:\n    /* \"#utility.yul\":3216:3241   */\n  swap2\n  pop\n    /* \"#utility.yul\":3255:3275   */\n  tag_73\n    /* \"#utility.yul\":3273:3274   */\n  dup4\n    /* \"#utility.yul\":3255:3275   */\n  tag_27\n  jump\t// in\ntag_73:\n    /* \"#utility.yul\":3250:3275   */\n  swap3\n  pop\n    /* \"#utility.yul\":3310:3311   */\n  dup3\n    /* \"#utility.yul\":3307:3308   */\n  dup3\n    /* \"#utility.yul\":3303:3312   */\n  mul\n    /* \"#utility.yul\":3332:3362   */\n  tag_74\n    /* \"#utility.yul\":3350:3361   */\n  dup2\n    /* \"#utility.yul\":3332:3362   */\n  tag_27\n  jump\t// in\ntag_74:\n    /* \"#utility.yul\":3321:3362   */\n  swap2\n  pop\n    /* \"#utility.yul\":3511:3512   */\n  dup3\n    /* \"#utility.yul\":3502:3509   */\n  dup3\n    /* \"#utility.yul\":3498:3513   */\n  div\n    /* \"#utility.yul\":3495:3496   */\n  dup5\n    /* \"#utility.yul\":3492:3514   */\n  eq\n    /* \"#utility.yul\":3472:3473   */\n  dup4\n    /* \"#utility.yul\":3465:3474   */\n  iszero\n    /* \"#utility.yul\":3445:3528   */\n  or\n    /* \"#utility.yul\":3422:3561   */\n  tag_75\n  jumpi\n    /* \"#utility.yul\":3541:3559   */\n  tag_76\n  tag_30\n  jump\t// in\ntag_76:\n    /* \"#utility.yul\":3422:3561   */\ntag_75:\n    /* \"#utility.yul\":3206:3568   */\n  pop\n    /* \"#utility.yul\":3158:3568   */\n  swap3\n  swap2\n  pop\n  pop\n  jump\t// out\n    /* \"#utility.yul\":3574:3754   */\ntag_31:\n    /* \"#utility.yul\":3622:3699   */\n  0x4e487b7100000000000000000000000000000000000000000000000000000000\n    /* \"#utility.yul\":3619:3620   */\n  0x00\n    /* \"#utility.yul\":3612:3700   */\n  mstore\n    /* \"#utility.yul\":3719:3723   */\n  0x12\n    /* \"#utility.yul\":3716:3717   */\n  0x04\n    /* \"#utility.yul\":3709:3724   */\n  mstore\n    /* \"#utility.yul\":3743:3747   */\n  0x24\n    /* \"#utility.yul\":3740:3741   */\n  0x00\n    /* \"#utility.yul\":3733:3748   */\n  revert\n    /* \"#utility.yul\":3760:3945   */\ntag_17:\n    /* \"#utility.yul\":3800:3801   */\n  0x00\n    /* \"#utility.yul\":3817:3837   */\n  tag_79\n    /* \"#utility.yul\":3835:3836   */\n  dup3\n    /* \"#utility.yul\":3817:3837   */\n  tag_27\n  jump\t// in\ntag_79:\n    /* \"#utility.yul\":3812:3837   */\n  swap2\n  pop\n    /* \"#utility.yul\":3851:3871   */\n  tag_80\n    /* \"#utility.yul\":3869:3870   */\n  dup4\n    /* \"#utility.yul\":3851:3871   */\n  tag_27\n  jump\t// in\ntag_80:\n    /* \"#utility.yul\":3846:3871   */\n  swap3\n  pop\n    /* \"#utility.yul\":3890:3891   */\n  dup3\n    /* \"#utility.yul\":3880:3915   */\n  tag_81\n  jumpi\n    /* \"#utility.yul\":3895:3913   */\n  tag_82\n  tag_31\n  jump\t// in\ntag_82:\n    /* \"#utility.yul\":3880:3915   */\ntag_81:\n    /* \"#utility.yul\":3937:3938   */\n  dup3\n    /* \"#utility.yul\":3934:3935   */\n  dup3\n    /* \"#utility.yul\":3930:3939   */\n  div\n    /* \"#utility.yul\":3925:3939   */\n  swap1\n  pop\n    /* \"#utility.yul\":3760:3945   */\n  swap3\n  swap2\n  pop\n  pop\n  jump\t// out\n    /* \"contracts/Checker.sol\":258:4577  contract Checker {... */\ntag_6:\n  mload(0x80)\n  codecopy(0x00, dataOffset(sub_0), dataSize(sub_0))\n  0x00\n  assignImmutable(\"0x4569971f3d79dc8da7f8a6820be6cb8dc4a52bb0df6599b2aae7182111b63cd5\")\n  return(0x00, dataSize(sub_0))\nstop\n\nsub_0: assembly {\n        /* \"contracts/Checker.sol\":258:4577  contract Checker {... */\n      mstore(0x40, 0x80)\n      jumpi(tag_1, lt(calldatasize, 0x04))\n      shr(0xe0, calldataload(0x00))\n      dup1\n      0x9e87a5cd\n      gt\n      tag_16\n      jumpi\n      dup1\n      0xb60d4288\n      gt\n      tag_17\n      jumpi\n      dup1\n      0xb60d4288\n      eq\n      tag_12\n      jumpi\n      dup1\n      0xbe2693f0\n      eq\n      tag_13\n      jumpi\n      dup1\n      0xd7b4750c\n      eq\n      tag_14\n      jumpi\n      dup1\n      0xdd22db80\n      eq\n      tag_15\n      jumpi\n      jump(tag_1)\n    tag_17:\n      dup1\n      0x9e87a5cd\n      eq\n      tag_9\n      jumpi\n      dup1\n      0xa607a8d9\n      eq\n      tag_10\n      jumpi\n      dup1\n      0xac70214c\n      eq\n      tag_11\n      jumpi\n      jump(tag_1)\n    tag_16:\n      dup1\n      0x6b69a592\n      gt\n      tag_18\n      jumpi\n      dup1\n      0x6b69a592\n      eq\n      tag_5\n      jumpi\n      dup1\n      0x70ba1113\n      eq\n      tag_6\n      jumpi\n      dup1\n      0x7154b8b5\n      eq\n      tag_7\n      jumpi\n      dup1\n      0x893d20e8\n      eq\n      tag_8\n      jumpi\n      jump(tag_1)\n    tag_18:\n      dup1\n      0x0343fb25\n      eq\n      tag_2\n      jumpi\n      dup1\n      0x0d8e6e2c\n      eq\n      tag_3\n      jumpi\n      dup1\n      0x4ad517bc\n      eq\n      tag_4\n      jumpi\n    tag_1:\n      0x00\n      dup1\n      revert\n        /* \"contracts/Checker.sol\":3987:4166  function getAddressToAmountFunded(address fundingAddress)... */\n    tag_2:\n      callvalue\n      dup1\n      iszero\n      tag_19\n      jumpi\n      0x00\n      dup1\n      revert\n    tag_19:\n      pop\n      tag_20\n      0x04\n      dup1\n      calldatasize\n      sub\n      dup2\n      add\n      swap1\n      tag_21\n      swap2\n      swap1\n      tag_22\n      jump\t// in\n    tag_21:\n      tag_23\n      jump\t// in\n    tag_20:\n      mload(0x40)\n      tag_24\n      swap2\n      swap1\n      tag_25\n      jump\t// in\n    tag_24:\n      mload(0x40)\n      dup1\n      swap2\n      sub\n      swap1\n      return\n        /* \"contracts/Checker.sol\":4172:4269  function getVersion() public view returns (uint256) {... */\n    tag_3:\n      callvalue\n      dup1\n      iszero\n      tag_26\n      jumpi\n      0x00\n      dup1\n      revert\n    tag_26:\n      pop\n      tag_27\n      tag_28\n      jump\t// in\n    tag_27:\n      mload(0x40)\n      tag_29\n      swap2\n      swap1\n      tag_25\n      jump\t// in\n    tag_29:\n      mload(0x40)\n      dup1\n      swap2\n      sub\n      swap1\n      return\n        /* \"contracts/Checker.sol\":2961:3172  function getUSDCPrice() public view returns (uint256) {... */\n    tag_4:\n      callvalue\n      dup1\n      iszero\n      tag_30\n      jumpi\n      0x00\n      dup1\n      revert\n    tag_30:\n      pop\n      tag_31\n      tag_32\n      jump\t// in\n    tag_31:\n      mload(0x40)\n      tag_33\n      swap2\n      swap1\n      tag_25\n      jump\t// in\n    tag_33:\n      mload(0x40)\n      dup1\n      swap2\n      sub\n      swap1\n      return\n        /* \"contracts/Checker.sol\":368:417  uint256 public constant MINIMUM_USD = 10 * 10**18 */\n    tag_5:\n      callvalue\n      dup1\n      iszero\n      tag_34\n      jumpi\n      0x00\n      dup1\n      revert\n    tag_34:\n      pop\n      tag_35\n      tag_36\n      jump\t// in\n    tag_35:\n      mload(0x40)\n      tag_37\n      swap2\n      swap1\n      tag_25\n      jump\t// in\n    tag_37:\n      mload(0x40)\n      dup1\n      swap2\n      sub\n      swap1\n      return\n        /* \"contracts/Checker.sol\":707:735  uint256 public percent = 100 */\n    tag_6:\n      callvalue\n      dup1\n      iszero\n      tag_38\n      jumpi\n      0x00\n      dup1\n      revert\n    tag_38:\n      pop\n      tag_39\n      tag_40\n      jump\t// in\n    tag_39:\n      mload(0x40)\n      tag_41\n      swap2\n      swap1\n      tag_25\n      jump\t// in\n    tag_41:\n      mload(0x40)\n      dup1\n      swap2\n      sub\n      swap1\n      return\n        /* \"contracts/Checker.sol\":2650:2718  function setPercent(uint256 _p) public {... */\n    tag_7:\n      callvalue\n      dup1\n      iszero\n      tag_42\n      jumpi\n      0x00\n      dup1\n      revert\n    tag_42:\n      pop\n      tag_43\n      0x04\n      dup1\n      calldatasize\n      sub\n      dup2\n      add\n      swap1\n      tag_44\n      swap2\n      swap1\n      tag_45\n      jump\t// in\n    tag_44:\n      tag_46\n      jump\t// in\n    tag_43:\n      stop\n        /* \"contracts/Checker.sol\":4385:4466  function getOwner() public view returns (address) {... */\n    tag_8:\n      callvalue\n      dup1\n      iszero\n      tag_47\n      jumpi\n      0x00\n      dup1\n      revert\n    tag_47:\n      pop\n      tag_48\n      tag_49\n      jump\t// in\n    tag_48:\n      mload(0x40)\n      tag_50\n      swap2\n      swap1\n      tag_51\n      jump\t// in\n    tag_50:\n      mload(0x40)\n      dup1\n      swap2\n      sub\n      swap1\n      return\n        /* \"contracts/Checker.sol\":4472:4575  function getPriceFeed() public view returns (AggregatorV3Interface) {... */\n    tag_9:\n      callvalue\n      dup1\n      iszero\n      tag_52\n      jumpi\n      0x00\n      dup1\n      revert\n    tag_52:\n      pop\n      tag_53\n      tag_54\n      jump\t// in\n    tag_53:\n      mload(0x40)\n      tag_55\n      swap2\n      swap1\n      tag_56\n      jump\t// in\n    tag_55:\n      mload(0x40)\n      dup1\n      swap2\n      sub\n      swap1\n      return\n        /* \"contracts/Checker.sol\":2732:2955  function getETHPrice() public view returns (uint256) {... */\n    tag_10:\n      callvalue\n      dup1\n      iszero\n      tag_57\n      jumpi\n      0x00\n      dup1\n      revert\n    tag_57:\n      pop\n      tag_58\n      tag_59\n      jump\t// in\n    tag_58:\n      mload(0x40)\n      tag_60\n      swap2\n      swap1\n      tag_25\n      jump\t// in\n    tag_60:\n      mload(0x40)\n      dup1\n      swap2\n      sub\n      swap1\n      return\n        /* \"contracts/Checker.sol\":2126:2644  function change_lot() public returns (bool){... */\n    tag_11:\n      callvalue\n      dup1\n      iszero\n      tag_61\n      jumpi\n      0x00\n      dup1\n      revert\n    tag_61:\n      pop\n      tag_62\n      tag_63\n      jump\t// in\n    tag_62:\n      mload(0x40)\n      tag_64\n      swap2\n      swap1\n      tag_65\n      jump\t// in\n    tag_64:\n      mload(0x40)\n      dup1\n      swap2\n      sub\n      swap1\n      return\n        /* \"contracts/Checker.sol\":1647:2029  function fund() public payable {... */\n    tag_12:\n      tag_66\n      tag_67\n      jump\t// in\n    tag_66:\n      stop\n        /* \"contracts/Checker.sol\":3393:3981  function cheaperWithdraw() public onlyOwner {... */\n    tag_13:\n      callvalue\n      dup1\n      iszero\n      tag_68\n      jumpi\n      0x00\n      dup1\n      revert\n    tag_68:\n      pop\n      tag_69\n      tag_70\n      jump\t// in\n    tag_69:\n      stop\n        /* \"contracts/Checker.sol\":4275:4379  function getFunder(uint256 index) public view returns (address) {... */\n    tag_14:\n      callvalue\n      dup1\n      iszero\n      tag_71\n      jumpi\n      0x00\n      dup1\n      revert\n    tag_71:\n      pop\n      tag_72\n      0x04\n      dup1\n      calldatasize\n      sub\n      dup2\n      add\n      swap1\n      tag_73\n      swap2\n      swap1\n      tag_45\n      jump\t// in\n    tag_73:\n      tag_74\n      jump\t// in\n    tag_72:\n      mload(0x40)\n      tag_75\n      swap2\n      swap1\n      tag_51\n      jump\t// in\n    tag_75:\n      mload(0x40)\n      dup1\n      swap2\n      sub\n      swap1\n      return\n        /* \"contracts/Checker.sol\":3178:3387  function getBTCPrice() public view returns (uint256) {... */\n    tag_15:\n      callvalue\n      dup1\n      iszero\n      tag_76\n      jumpi\n      0x00\n      dup1\n      revert\n    tag_76:\n      pop\n      tag_77\n      tag_78\n      jump\t// in\n    tag_77:\n      mload(0x40)\n      tag_79\n      swap2\n      swap1\n      tag_25\n      jump\t// in\n    tag_79:\n      mload(0x40)\n      dup1\n      swap2\n      sub\n      swap1\n      return\n        /* \"contracts/Checker.sol\":3987:4166  function getAddressToAmountFunded(address fundingAddress)... */\n    tag_23:\n        /* \"contracts/Checker.sol\":4090:4097  uint256 */\n      0x00\n        /* \"contracts/Checker.sol\":4120:4143  s_addressToAmountFunded */\n      0x01\n        /* \"contracts/Checker.sol\":4120:4159  s_addressToAmountFunded[fundingAddress] */\n      0x00\n        /* \"contracts/Checker.sol\":4144:4158  fundingAddress */\n      dup4\n        /* \"contracts/Checker.sol\":4120:4159  s_addressToAmountFunded[fundingAddress] */\n      0xffffffffffffffffffffffffffffffffffffffff\n      and\n      0xffffffffffffffffffffffffffffffffffffffff\n      and\n      dup2\n      mstore\n      0x20\n      add\n      swap1\n      dup2\n      mstore\n      0x20\n      add\n      0x00\n      keccak256\n      sload\n        /* \"contracts/Checker.sol\":4113:4159  return s_addressToAmountFunded[fundingAddress] */\n      swap1\n      pop\n        /* \"contracts/Checker.sol\":3987:4166  function getAddressToAmountFunded(address fundingAddress)... */\n      swap2\n      swap1\n      pop\n      jump\t// out\n        /* \"contracts/Checker.sol\":4172:4269  function getVersion() public view returns (uint256) {... */\n    tag_28:\n        /* \"contracts/Checker.sol\":4215:4222  uint256 */\n      0x00\n        /* \"contracts/Checker.sol\":4241:4252  s_priceFeed */\n      0x02\n      0x00\n      swap1\n      sload\n      swap1\n      0x0100\n      exp\n      swap1\n      div\n      0xffffffffffffffffffffffffffffffffffffffff\n      and\n        /* \"contracts/Checker.sol\":4241:4260  s_priceFeed.version */\n      0xffffffffffffffffffffffffffffffffffffffff\n      and\n      0x54fd4d50\n        /* \"contracts/Checker.sol\":4241:4262  s_priceFeed.version() */\n      mload(0x40)\n      dup2\n      0xffffffff\n      and\n      0xe0\n      shl\n      dup2\n      mstore\n      0x04\n      add\n      0x20\n      mload(0x40)\n      dup1\n      dup4\n      sub\n      dup2\n      dup7\n      gas\n      staticcall\n      iszero\n      dup1\n      iszero\n      tag_83\n      jumpi\n      returndatasize\n      0x00\n      dup1\n      returndatacopy\n      revert(0x00, returndatasize)\n    tag_83:\n      pop\n      pop\n      pop\n      pop\n      mload(0x40)\n      returndatasize\n      not(0x1f)\n      0x1f\n      dup3\n      add\n      and\n      dup3\n      add\n      dup1\n      0x40\n      mstore\n      pop\n      dup2\n      add\n      swap1\n      tag_84\n      swap2\n      swap1\n      tag_85\n      jump\t// in\n    tag_84:\n        /* \"contracts/Checker.sol\":4234:4262  return s_priceFeed.version() */\n      swap1\n      pop\n        /* \"contracts/Checker.sol\":4172:4269  function getVersion() public view returns (uint256) {... */\n      swap1\n      jump\t// out\n        /* \"contracts/Checker.sol\":2961:3172  function getUSDCPrice() public view returns (uint256) {... */\n    tag_32:\n        /* \"contracts/Checker.sol\":3006:3013  uint256 */\n      0x00\n        /* \"contracts/Checker.sol\":3028:3041  int256 answer */\n      dup1\n        /* \"contracts/Checker.sol\":3051:3065  USDC_priceFeed */\n      0x03\n      0x00\n      swap1\n      sload\n      swap1\n      0x0100\n      exp\n      swap1\n      div\n      0xffffffffffffffffffffffffffffffffffffffff\n      and\n        /* \"contracts/Checker.sol\":3051:3081  USDC_priceFeed.latestRoundData */\n      0xffffffffffffffffffffffffffffffffffffffff\n      and\n      0xfeaf968c\n        /* \"contracts/Checker.sol\":3051:3083  USDC_priceFeed.latestRoundData() */\n      mload(0x40)\n      dup2\n      0xffffffff\n      and\n      0xe0\n      shl\n      dup2\n      mstore\n      0x04\n      add\n      0xa0\n      mload(0x40)\n      dup1\n      dup4\n      sub\n      dup2\n      dup7\n      gas\n      staticcall\n      iszero\n      dup1\n      iszero\n      tag_88\n      jumpi\n      returndatasize\n      0x00\n      dup1\n      returndatacopy\n      revert(0x00, returndatasize)\n    tag_88:\n      pop\n      pop\n      pop\n      pop\n      mload(0x40)\n      returndatasize\n      not(0x1f)\n      0x1f\n      dup3\n      add\n      and\n      dup3\n      add\n      dup1\n      0x40\n      mstore\n      pop\n      dup2\n      add\n      swap1\n      tag_89\n      swap2\n      swap1\n      tag_90\n      jump\t// in\n    tag_89:\n        /* \"contracts/Checker.sol\":3025:3083  (, int256 answer, , , ) = USDC_priceFeed.latestRoundData() */\n      pop\n      pop\n      pop\n      swap2\n      pop\n      pop\n        /* \"contracts/Checker.sol\":3153:3164  10000000000 */\n      0x02540be400\n        /* \"contracts/Checker.sol\":3144:3150  answer */\n      dup2\n        /* \"contracts/Checker.sol\":3144:3164  answer * 10000000000 */\n      tag_91\n      swap2\n      swap1\n      tag_92\n      jump\t// in\n    tag_91:\n        /* \"contracts/Checker.sol\":3129:3165  return uint256(answer * 10000000000) */\n      swap2\n      pop\n      pop\n        /* \"contracts/Checker.sol\":2961:3172  function getUSDCPrice() public view returns (uint256) {... */\n      swap1\n      jump\t// out\n        /* \"contracts/Checker.sol\":368:417  uint256 public constant MINIMUM_USD = 10 * 10**18 */\n    tag_36:\n        /* \"contracts/Checker.sol\":406:417  10 * 10**18 */\n      0x8ac7230489e80000\n        /* \"contracts/Checker.sol\":368:417  uint256 public constant MINIMUM_USD = 10 * 10**18 */\n      dup2\n      jump\t// out\n        /* \"contracts/Checker.sol\":707:735  uint256 public percent = 100 */\n    tag_40:\n      sload(0x05)\n      dup2\n      jump\t// out\n        /* \"contracts/Checker.sol\":2650:2718  function setPercent(uint256 _p) public {... */\n    tag_46:\n        /* \"contracts/Checker.sol\":2709:2711  _p */\n      dup1\n        /* \"contracts/Checker.sol\":2699:2706  percent */\n      0x05\n        /* \"contracts/Checker.sol\":2699:2711  percent = _p */\n      dup2\n      swap1\n      sstore\n      pop\n        /* \"contracts/Checker.sol\":2650:2718  function setPercent(uint256 _p) public {... */\n      pop\n      jump\t// out\n        /* \"contracts/Checker.sol\":4385:4466  function getOwner() public view returns (address) {... */\n    tag_49:\n        /* \"contracts/Checker.sol\":4426:4433  address */\n      0x00\n        /* \"contracts/Checker.sol\":4452:4459  i_owner */\n      immutable(\"0x4569971f3d79dc8da7f8a6820be6cb8dc4a52bb0df6599b2aae7182111b63cd5\")\n        /* \"contracts/Checker.sol\":4445:4459  return i_owner */\n      swap1\n      pop\n        /* \"contracts/Checker.sol\":4385:4466  function getOwner() public view returns (address) {... */\n      swap1\n      jump\t// out\n        /* \"contracts/Checker.sol\":4472:4575  function getPriceFeed() public view returns (AggregatorV3Interface) {... */\n    tag_54:\n        /* \"contracts/Checker.sol\":4517:4538  AggregatorV3Interface */\n      0x00\n        /* \"contracts/Checker.sol\":4557:4568  s_priceFeed */\n      0x02\n      0x00\n      swap1\n      sload\n      swap1\n      0x0100\n      exp\n      swap1\n      div\n      0xffffffffffffffffffffffffffffffffffffffff\n      and\n        /* \"contracts/Checker.sol\":4550:4568  return s_priceFeed */\n      swap1\n      pop\n        /* \"contracts/Checker.sol\":4472:4575  function getPriceFeed() public view returns (AggregatorV3Interface) {... */\n      swap1\n      jump\t// out\n        /* \"contracts/Checker.sol\":2732:2955  function getETHPrice() public view returns (uint256) {... */\n    tag_59:\n        /* \"contracts/Checker.sol\":2776:2783  uint256 */\n      0x00\n        /* \"contracts/Checker.sol\":2798:2811  int256 answer */\n      dup1\n        /* \"contracts/Checker.sol\":2821:2832  s_priceFeed */\n      0x02\n      0x00\n      swap1\n      sload\n      swap1\n      0x0100\n      exp\n      swap1\n      div\n      0xffffffffffffffffffffffffffffffffffffffff\n      and\n        /* \"contracts/Checker.sol\":2821:2848  s_priceFeed.latestRoundData */\n      0xffffffffffffffffffffffffffffffffffffffff\n      and\n      0xfeaf968c\n        /* \"contracts/Checker.sol\":2821:2850  s_priceFeed.latestRoundData() */\n      mload(0x40)\n      dup2\n      0xffffffff\n      and\n      0xe0\n      shl\n      dup2\n      mstore\n      0x04\n      add\n      0xa0\n      mload(0x40)\n      dup1\n      dup4\n      sub\n      dup2\n      dup7\n      gas\n      staticcall\n      iszero\n      dup1\n      iszero\n      tag_98\n      jumpi\n      returndatasize\n      0x00\n      dup1\n      returndatacopy\n      revert(0x00, returndatasize)\n    tag_98:\n      pop\n      pop\n      pop\n      pop\n      mload(0x40)\n      returndatasize\n      not(0x1f)\n      0x1f\n      dup3\n      add\n      and\n      dup3\n      add\n      dup1\n      0x40\n      mstore\n      pop\n      dup2\n      add\n      swap1\n      tag_99\n      swap2\n      swap1\n      tag_90\n      jump\t// in\n    tag_99:\n        /* \"contracts/Checker.sol\":2795:2850  (, int256 answer, , , ) = s_priceFeed.latestRoundData() */\n      pop\n      pop\n      pop\n      swap2\n      pop\n      pop\n        /* \"contracts/Checker.sol\":2945:2948  100 */\n      0x64\n        /* \"contracts/Checker.sol\":2935:2942  percent */\n      sload(0x05)\n        /* \"contracts/Checker.sol\":2920:2931  10000000000 */\n      0x02540be400\n        /* \"contracts/Checker.sol\":2911:2917  answer */\n      dup4\n        /* \"contracts/Checker.sol\":2911:2931  answer * 10000000000 */\n      tag_100\n      swap2\n      swap1\n      tag_92\n      jump\t// in\n    tag_100:\n        /* \"contracts/Checker.sol\":2903:2942  uint256(answer * 10000000000) * percent */\n      tag_101\n      swap2\n      swap1\n      tag_102\n      jump\t// in\n    tag_101:\n        /* \"contracts/Checker.sol\":2903:2948  uint256(answer * 10000000000) * percent / 100 */\n      tag_103\n      swap2\n      swap1\n      tag_104\n      jump\t// in\n    tag_103:\n        /* \"contracts/Checker.sol\":2896:2948  return uint256(answer * 10000000000) * percent / 100 */\n      swap2\n      pop\n      pop\n        /* \"contracts/Checker.sol\":2732:2955  function getETHPrice() public view returns (uint256) {... */\n      swap1\n      jump\t// out\n        /* \"contracts/Checker.sol\":2126:2644  function change_lot() public returns (bool){... */\n    tag_63:\n        /* \"contracts/Checker.sol\":2164:2168  bool */\n      0x00\n        /* \"contracts/Checker.sol\":2179:2196  uint256 new_price */\n      dup1\n        /* \"contracts/Checker.sol\":2199:2212  getETHPrice() */\n      tag_106\n        /* \"contracts/Checker.sol\":2199:2210  getETHPrice */\n      tag_59\n        /* \"contracts/Checker.sol\":2199:2212  getETHPrice() */\n      jump\t// in\n    tag_106:\n        /* \"contracts/Checker.sol\":2179:2212  uint256 new_price = getETHPrice() */\n      swap1\n      pop\n        /* \"contracts/Checker.sol\":2238:2248  last_price */\n      sload(0x06)\n        /* \"contracts/Checker.sol\":2226:2235  new_price */\n      dup2\n        /* \"contracts/Checker.sol\":2226:2248  new_price > last_price */\n      gt\n        /* \"contracts/Checker.sol\":2222:2584  if (new_price > last_price){... */\n      iszero\n      tag_107\n      jumpi\n        /* \"contracts/Checker.sol\":2312:2315  100 */\n      0x64\n        /* \"contracts/Checker.sol\":2307:2309  20 */\n      0x14\n        /* \"contracts/Checker.sol\":2294:2304  last_price */\n      sload(0x06)\n        /* \"contracts/Checker.sol\":2294:2309  last_price * 20 */\n      tag_108\n      swap2\n      swap1\n      tag_102\n      jump\t// in\n    tag_108:\n        /* \"contracts/Checker.sol\":2294:2315  last_price * 20 / 100 */\n      tag_109\n      swap2\n      swap1\n      tag_104\n      jump\t// in\n    tag_109:\n        /* \"contracts/Checker.sol\":2280:2290  last_price */\n      sload(0x06)\n        /* \"contracts/Checker.sol\":2268:2277  new_price */\n      dup3\n        /* \"contracts/Checker.sol\":2268:2290  new_price - last_price */\n      tag_110\n      swap2\n      swap1\n      tag_111\n      jump\t// in\n    tag_110:\n        /* \"contracts/Checker.sol\":2267:2315  (new_price - last_price) > last_price * 20 / 100 */\n      gt\n        /* \"contracts/Checker.sol\":2263:2400  if ((new_price - last_price) > last_price * 20 / 100){... */\n      iszero\n      tag_112\n      jumpi\n        /* \"contracts/Checker.sol\":2347:2356  new_price */\n      dup1\n        /* \"contracts/Checker.sol\":2334:2344  last_price */\n      0x06\n        /* \"contracts/Checker.sol\":2334:2356  last_price = new_price */\n      dup2\n      swap1\n      sstore\n      pop\n        /* \"contracts/Checker.sol\":2381:2385  true */\n      0x01\n        /* \"contracts/Checker.sol\":2374:2385  return true */\n      swap2\n      pop\n      pop\n      jump(tag_105)\n        /* \"contracts/Checker.sol\":2263:2400  if ((new_price - last_price) > last_price * 20 / 100){... */\n    tag_112:\n        /* \"contracts/Checker.sol\":2222:2584  if (new_price > last_price){... */\n      jump(tag_113)\n    tag_107:\n        /* \"contracts/Checker.sol\":2486:2489  100 */\n      0x64\n        /* \"contracts/Checker.sol\":2481:2483  20 */\n      0x14\n        /* \"contracts/Checker.sol\":2468:2478  last_price */\n      sload(0x06)\n        /* \"contracts/Checker.sol\":2468:2483  last_price * 20 */\n      tag_114\n      swap2\n      swap1\n      tag_102\n      jump\t// in\n    tag_114:\n        /* \"contracts/Checker.sol\":2468:2489  last_price * 20 / 100 */\n      tag_115\n      swap2\n      swap1\n      tag_104\n      jump\t// in\n    tag_115:\n        /* \"contracts/Checker.sol\":2455:2464  new_price */\n      dup2\n        /* \"contracts/Checker.sol\":2442:2452  last_price */\n      sload(0x06)\n        /* \"contracts/Checker.sol\":2442:2464  last_price - new_price */\n      tag_116\n      swap2\n      swap1\n      tag_111\n      jump\t// in\n    tag_116:\n        /* \"contracts/Checker.sol\":2441:2489  (last_price - new_price) > last_price * 20 / 100 */\n      gt\n        /* \"contracts/Checker.sol\":2437:2574  if ((last_price - new_price) > last_price * 20 / 100){... */\n      iszero\n      tag_117\n      jumpi\n        /* \"contracts/Checker.sol\":2521:2530  new_price */\n      dup1\n        /* \"contracts/Checker.sol\":2508:2518  last_price */\n      0x06\n        /* \"contracts/Checker.sol\":2508:2530  last_price = new_price */\n      dup2\n      swap1\n      sstore\n      pop\n        /* \"contracts/Checker.sol\":2555:2559  true */\n      0x01\n        /* \"contracts/Checker.sol\":2548:2559  return true */\n      swap2\n      pop\n      pop\n      jump(tag_105)\n        /* \"contracts/Checker.sol\":2437:2574  if ((last_price - new_price) > last_price * 20 / 100){... */\n    tag_117:\n        /* \"contracts/Checker.sol\":2222:2584  if (new_price > last_price){... */\n    tag_113:\n        /* \"contracts/Checker.sol\":2606:2615  new_price */\n      dup1\n        /* \"contracts/Checker.sol\":2593:2603  last_price */\n      0x06\n        /* \"contracts/Checker.sol\":2593:2615  last_price = new_price */\n      dup2\n      swap1\n      sstore\n      pop\n        /* \"contracts/Checker.sol\":2632:2637  false */\n      0x00\n        /* \"contracts/Checker.sol\":2625:2637  return false */\n      swap2\n      pop\n      pop\n        /* \"contracts/Checker.sol\":2126:2644  function change_lot() public returns (bool){... */\n    tag_105:\n      swap1\n      jump\t// out\n        /* \"contracts/Checker.sol\":1647:2029  function fund() public payable {... */\n    tag_67:\n        /* \"contracts/Checker.sol\":406:417  10 * 10**18 */\n      0x8ac7230489e80000\n        /* \"contracts/Checker.sol\":1709:1749  msg.value.getConversionRate(s_priceFeed) */\n      tag_119\n        /* \"contracts/Checker.sol\":1737:1748  s_priceFeed */\n      0x02\n      0x00\n      swap1\n      sload\n      swap1\n      0x0100\n      exp\n      swap1\n      div\n      0xffffffffffffffffffffffffffffffffffffffff\n      and\n        /* \"contracts/Checker.sol\":1709:1718  msg.value */\n      callvalue\n        /* \"contracts/Checker.sol\":1709:1736  msg.value.getConversionRate */\n      tag_120\n      swap1\n        /* \"contracts/Checker.sol\":1709:1749  msg.value.getConversionRate(s_priceFeed) */\n      swap2\n      swap1\n      0xffffffff\n      and\n      jump\t// in\n    tag_119:\n        /* \"contracts/Checker.sol\":1709:1764  msg.value.getConversionRate(s_priceFeed) >= MINIMUM_USD */\n      lt\n      iszero\n        /* \"contracts/Checker.sol\":1688:1817  require(... */\n      tag_121\n      jumpi\n      mload(0x40)\n      0x08c379a000000000000000000000000000000000000000000000000000000000\n      dup2\n      mstore\n      0x04\n      add\n      tag_122\n      swap1\n      tag_123\n      jump\t// in\n    tag_122:\n      mload(0x40)\n      dup1\n      swap2\n      sub\n      swap1\n      revert\n    tag_121:\n        /* \"contracts/Checker.sol\":1977:1986  msg.value */\n      callvalue\n        /* \"contracts/Checker.sol\":1938:1961  s_addressToAmountFunded */\n      0x01\n        /* \"contracts/Checker.sol\":1938:1973  s_addressToAmountFunded[msg.sender] */\n      0x00\n        /* \"contracts/Checker.sol\":1962:1972  msg.sender */\n      caller\n        /* \"contracts/Checker.sol\":1938:1973  s_addressToAmountFunded[msg.sender] */\n      0xffffffffffffffffffffffffffffffffffffffff\n      and\n      0xffffffffffffffffffffffffffffffffffffffff\n      and\n      dup2\n      mstore\n      0x20\n      add\n      swap1\n      dup2\n      mstore\n      0x20\n      add\n      0x00\n      keccak256\n      0x00\n        /* \"contracts/Checker.sol\":1938:1986  s_addressToAmountFunded[msg.sender] += msg.value */\n      dup3\n      dup3\n      sload\n      tag_124\n      swap2\n      swap1\n      tag_125\n      jump\t// in\n    tag_124:\n      swap3\n      pop\n      pop\n      dup2\n      swap1\n      sstore\n      pop\n        /* \"contracts/Checker.sol\":1996:2005  s_funders */\n      0x00\n        /* \"contracts/Checker.sol\":2011:2021  msg.sender */\n      caller\n        /* \"contracts/Checker.sol\":1996:2022  s_funders.push(msg.sender) */\n      swap1\n      dup1\n      0x01\n      dup2\n      sload\n      add\n      dup1\n      dup3\n      sstore\n      dup1\n      swap2\n      pop\n      pop\n      0x01\n      swap1\n      sub\n      swap1\n      0x00\n      mstore\n      keccak256(0x00, 0x20)\n      add\n      0x00\n      swap1\n      swap2\n      swap1\n      swap2\n      swap1\n      swap2\n      0x0100\n      exp\n      dup2\n      sload\n      dup2\n      0xffffffffffffffffffffffffffffffffffffffff\n      mul\n      not\n      and\n      swap1\n      dup4\n      0xffffffffffffffffffffffffffffffffffffffff\n      and\n      mul\n      or\n      swap1\n      sstore\n      pop\n        /* \"contracts/Checker.sol\":1647:2029  function fund() public payable {... */\n      jump\t// out\n        /* \"contracts/Checker.sol\":3393:3981  function cheaperWithdraw() public onlyOwner {... */\n    tag_70:\n        /* \"contracts/Checker.sol\":914:921  i_owner */\n      immutable(\"0x4569971f3d79dc8da7f8a6820be6cb8dc4a52bb0df6599b2aae7182111b63cd5\")\n        /* \"contracts/Checker.sol\":900:921  msg.sender != i_owner */\n      0xffffffffffffffffffffffffffffffffffffffff\n      and\n        /* \"contracts/Checker.sol\":900:910  msg.sender */\n      caller\n        /* \"contracts/Checker.sol\":900:921  msg.sender != i_owner */\n      0xffffffffffffffffffffffffffffffffffffffff\n      and\n      eq\n        /* \"contracts/Checker.sol\":896:948  if (msg.sender != i_owner) revert FundMe__NotOwner() */\n      tag_128\n      jumpi\n        /* \"contracts/Checker.sol\":930:948  FundMe__NotOwner() */\n      mload(0x40)\n      0x579610db00000000000000000000000000000000000000000000000000000000\n      dup2\n      mstore\n      0x04\n      add\n      mload(0x40)\n      dup1\n      swap2\n      sub\n      swap1\n      revert\n        /* \"contracts/Checker.sol\":896:948  if (msg.sender != i_owner) revert FundMe__NotOwner() */\n    tag_128:\n        /* \"contracts/Checker.sol\":3447:3471  address[] memory funders */\n      0x00\n        /* \"contracts/Checker.sol\":3474:3483  s_funders */\n      dup1\n        /* \"contracts/Checker.sol\":3447:3483  address[] memory funders = s_funders */\n      dup1\n      sload\n      dup1\n      0x20\n      mul\n      0x20\n      add\n      mload(0x40)\n      swap1\n      dup2\n      add\n      0x40\n      mstore\n      dup1\n      swap3\n      swap2\n      swap1\n      dup2\n      dup2\n      mstore\n      0x20\n      add\n      dup3\n      dup1\n      sload\n      dup1\n      iszero\n      tag_130\n      jumpi\n      0x20\n      mul\n      dup3\n      add\n      swap2\n      swap1\n      0x00\n      mstore\n      keccak256(0x00, 0x20)\n      swap1\n    tag_131:\n      dup2\n      0x00\n      swap1\n      sload\n      swap1\n      0x0100\n      exp\n      swap1\n      div\n      0xffffffffffffffffffffffffffffffffffffffff\n      and\n      0xffffffffffffffffffffffffffffffffffffffff\n      and\n      dup2\n      mstore\n      0x20\n      add\n      swap1\n      0x01\n      add\n      swap1\n      dup1\n      dup4\n      gt\n      tag_131\n      jumpi\n    tag_130:\n      pop\n      pop\n      pop\n      pop\n      pop\n      swap1\n      pop\n        /* \"contracts/Checker.sol\":3558:3577  uint256 funderIndex */\n      0x00\n        /* \"contracts/Checker.sol\":3540:3772  for (... */\n    tag_132:\n        /* \"contracts/Checker.sol\":3609:3616  funders */\n      dup2\n        /* \"contracts/Checker.sol\":3609:3623  funders.length */\n      mload\n        /* \"contracts/Checker.sol\":3595:3606  funderIndex */\n      dup2\n        /* \"contracts/Checker.sol\":3595:3623  funderIndex < funders.length */\n      lt\n        /* \"contracts/Checker.sol\":3540:3772  for (... */\n      iszero\n      tag_133\n      jumpi\n        /* \"contracts/Checker.sol\":3675:3689  address funder */\n      0x00\n        /* \"contracts/Checker.sol\":3692:3699  funders */\n      dup3\n        /* \"contracts/Checker.sol\":3700:3711  funderIndex */\n      dup3\n        /* \"contracts/Checker.sol\":3692:3712  funders[funderIndex] */\n      dup2\n      mload\n      dup2\n      lt\n      tag_135\n      jumpi\n      tag_136\n      tag_137\n      jump\t// in\n    tag_136:\n    tag_135:\n      0x20\n      mul\n      0x20\n      add\n      add\n      mload\n        /* \"contracts/Checker.sol\":3675:3712  address funder = funders[funderIndex] */\n      swap1\n      pop\n        /* \"contracts/Checker.sol\":3760:3761  0 */\n      0x00\n        /* \"contracts/Checker.sol\":3726:3749  s_addressToAmountFunded */\n      0x01\n        /* \"contracts/Checker.sol\":3726:3757  s_addressToAmountFunded[funder] */\n      0x00\n        /* \"contracts/Checker.sol\":3750:3756  funder */\n      dup4\n        /* \"contracts/Checker.sol\":3726:3757  s_addressToAmountFunded[funder] */\n      0xffffffffffffffffffffffffffffffffffffffff\n      and\n      0xffffffffffffffffffffffffffffffffffffffff\n      and\n      dup2\n      mstore\n      0x20\n      add\n      swap1\n      dup2\n      mstore\n      0x20\n      add\n      0x00\n      keccak256\n        /* \"contracts/Checker.sol\":3726:3761  s_addressToAmountFunded[funder] = 0 */\n      dup2\n      swap1\n      sstore\n      pop\n        /* \"contracts/Checker.sol\":3661:3772  {... */\n      pop\n        /* \"contracts/Checker.sol\":3637:3650  funderIndex++ */\n      dup1\n      dup1\n      tag_138\n      swap1\n      tag_139\n      jump\t// in\n    tag_138:\n      swap2\n      pop\n      pop\n        /* \"contracts/Checker.sol\":3540:3772  for (... */\n      jump(tag_132)\n    tag_133:\n      pop\n        /* \"contracts/Checker.sol\":3807:3808  0 */\n      0x00\n        /* \"contracts/Checker.sol\":3793:3809  new address[](0) */\n      0xffffffffffffffff\n      dup2\n      gt\n      iszero\n      tag_140\n      jumpi\n      tag_141\n      tag_142\n      jump\t// in\n    tag_141:\n    tag_140:\n      mload(0x40)\n      swap1\n      dup1\n      dup3\n      mstore\n      dup1\n      0x20\n      mul\n      0x20\n      add\n      dup3\n      add\n      0x40\n      mstore\n      dup1\n      iszero\n      tag_143\n      jumpi\n      dup2\n      0x20\n      add\n      0x20\n      dup3\n      mul\n      dup1\n      calldatasize\n      dup4\n      calldatacopy\n      dup1\n      dup3\n      add\n      swap2\n      pop\n      pop\n      swap1\n      pop\n    tag_143:\n      pop\n        /* \"contracts/Checker.sol\":3781:3790  s_funders */\n      0x00\n        /* \"contracts/Checker.sol\":3781:3809  s_funders = new address[](0) */\n      swap1\n      dup1\n      mload\n      swap1\n      0x20\n      add\n      swap1\n      tag_144\n      swap3\n      swap2\n      swap1\n      tag_145\n      jump\t// in\n    tag_144:\n      pop\n        /* \"contracts/Checker.sol\":3884:3896  bool success */\n      0x00\n        /* \"contracts/Checker.sol\":3902:3909  i_owner */\n      immutable(\"0x4569971f3d79dc8da7f8a6820be6cb8dc4a52bb0df6599b2aae7182111b63cd5\")\n        /* \"contracts/Checker.sol\":3902:3914  i_owner.call */\n      0xffffffffffffffffffffffffffffffffffffffff\n      and\n        /* \"contracts/Checker.sol\":3922:3943  address(this).balance */\n      selfbalance\n        /* \"contracts/Checker.sol\":3902:3948  i_owner.call{value: address(this).balance}(\"\") */\n      mload(0x40)\n      tag_146\n      swap1\n      tag_147\n      jump\t// in\n    tag_146:\n      0x00\n      mload(0x40)\n      dup1\n      dup4\n      sub\n      dup2\n      dup6\n      dup8\n      gas\n      call\n      swap3\n      pop\n      pop\n      pop\n      returndatasize\n      dup1\n      0x00\n      dup2\n      eq\n      tag_150\n      jumpi\n      mload(0x40)\n      swap2\n      pop\n      and(add(returndatasize, 0x3f), not(0x1f))\n      dup3\n      add\n      0x40\n      mstore\n      returndatasize\n      dup3\n      mstore\n      returndatasize\n      0x00\n      0x20\n      dup5\n      add\n      returndatacopy\n      jump(tag_149)\n    tag_150:\n      0x60\n      swap2\n      pop\n    tag_149:\n      pop\n        /* \"contracts/Checker.sol\":3883:3948  (bool success, ) = i_owner.call{value: address(this).balance}(\"\") */\n      pop\n      swap1\n      pop\n        /* \"contracts/Checker.sol\":3966:3973  success */\n      dup1\n        /* \"contracts/Checker.sol\":3958:3974  require(success) */\n      tag_151\n      jumpi\n      0x00\n      dup1\n      revert\n    tag_151:\n        /* \"contracts/Checker.sol\":3437:3981  {... */\n      pop\n      pop\n        /* \"contracts/Checker.sol\":3393:3981  function cheaperWithdraw() public onlyOwner {... */\n      jump\t// out\n        /* \"contracts/Checker.sol\":4275:4379  function getFunder(uint256 index) public view returns (address) {... */\n    tag_74:\n        /* \"contracts/Checker.sol\":4330:4337  address */\n      0x00\n        /* \"contracts/Checker.sol\":4356:4365  s_funders */\n      dup1\n        /* \"contracts/Checker.sol\":4366:4371  index */\n      dup3\n        /* \"contracts/Checker.sol\":4356:4372  s_funders[index] */\n      dup2\n      sload\n      dup2\n      lt\n      tag_153\n      jumpi\n      tag_154\n      tag_137\n      jump\t// in\n    tag_154:\n    tag_153:\n      swap1\n      0x00\n      mstore\n      keccak256(0x00, 0x20)\n      add\n      0x00\n      swap1\n      sload\n      swap1\n      0x0100\n      exp\n      swap1\n      div\n      0xffffffffffffffffffffffffffffffffffffffff\n      and\n        /* \"contracts/Checker.sol\":4349:4372  return s_funders[index] */\n      swap1\n      pop\n        /* \"contracts/Checker.sol\":4275:4379  function getFunder(uint256 index) public view returns (address) {... */\n      swap2\n      swap1\n      pop\n      jump\t// out\n        /* \"contracts/Checker.sol\":3178:3387  function getBTCPrice() public view returns (uint256) {... */\n    tag_78:\n        /* \"contracts/Checker.sol\":3222:3229  uint256 */\n      0x00\n        /* \"contracts/Checker.sol\":3244:3257  int256 answer */\n      dup1\n        /* \"contracts/Checker.sol\":3267:3280  BTC_priceFeed */\n      0x04\n      0x00\n      swap1\n      sload\n      swap1\n      0x0100\n      exp\n      swap1\n      div\n      0xffffffffffffffffffffffffffffffffffffffff\n      and\n        /* \"contracts/Checker.sol\":3267:3296  BTC_priceFeed.latestRoundData */\n      0xffffffffffffffffffffffffffffffffffffffff\n      and\n      0xfeaf968c\n        /* \"contracts/Checker.sol\":3267:3298  BTC_priceFeed.latestRoundData() */\n      mload(0x40)\n      dup2\n      0xffffffff\n      and\n      0xe0\n      shl\n      dup2\n      mstore\n      0x04\n      add\n      0xa0\n      mload(0x40)\n      dup1\n      dup4\n      sub\n      dup2\n      dup7\n      gas\n      staticcall\n      iszero\n      dup1\n      iszero\n      tag_158\n      jumpi\n      returndatasize\n      0x00\n      dup1\n      returndatacopy\n      revert(0x00, returndatasize)\n    tag_158:\n      pop\n      pop\n      pop\n      pop\n      mload(0x40)\n      returndatasize\n      not(0x1f)\n      0x1f\n      dup3\n      add\n      and\n      dup3\n      add\n      dup1\n      0x40\n      mstore\n      pop\n      dup2\n      add\n      swap1\n      tag_159\n      swap2\n      swap1\n      tag_90\n      jump\t// in\n    tag_159:\n        /* \"contracts/Checker.sol\":3241:3298  (, int256 answer, , , ) = BTC_priceFeed.latestRoundData() */\n      pop\n      pop\n      pop\n      swap2\n      pop\n      pop\n        /* \"contracts/Checker.sol\":3368:3379  10000000000 */\n      0x02540be400\n        /* \"contracts/Checker.sol\":3359:3365  answer */\n      dup2\n        /* \"contracts/Checker.sol\":3359:3379  answer * 10000000000 */\n      tag_160\n      swap2\n      swap1\n      tag_92\n      jump\t// in\n    tag_160:\n        /* \"contracts/Checker.sol\":3344:3380  return uint256(answer * 10000000000) */\n      swap2\n      pop\n      pop\n        /* \"contracts/Checker.sol\":3178:3387  function getBTCPrice() public view returns (uint256) {... */\n      swap1\n      jump\t// out\n        /* \"contracts/PriceConverter.sol\":577:954  function getConversionRate(... */\n    tag_120:\n        /* \"contracts/PriceConverter.sol\":701:708  uint256 */\n      0x00\n        /* \"contracts/PriceConverter.sol\":720:736  uint256 ethPrice */\n      dup1\n        /* \"contracts/PriceConverter.sol\":739:758  getPrice(priceFeed) */\n      tag_162\n        /* \"contracts/PriceConverter.sol\":748:757  priceFeed */\n      dup4\n        /* \"contracts/PriceConverter.sol\":739:747  getPrice */\n      tag_163\n        /* \"contracts/PriceConverter.sol\":739:758  getPrice(priceFeed) */\n      jump\t// in\n    tag_162:\n        /* \"contracts/PriceConverter.sol\":720:758  uint256 ethPrice = getPrice(priceFeed) */\n      swap1\n      pop\n        /* \"contracts/PriceConverter.sol\":768:790  uint256 ethAmountInUsd */\n      0x00\n        /* \"contracts/PriceConverter.sol\":818:837  1000000000000000000 */\n      0x0de0b6b3a7640000\n        /* \"contracts/PriceConverter.sol\":805:814  ethAmount */\n      dup6\n        /* \"contracts/PriceConverter.sol\":794:802  ethPrice */\n      dup4\n        /* \"contracts/PriceConverter.sol\":794:814  ethPrice * ethAmount */\n      tag_164\n      swap2\n      swap1\n      tag_102\n      jump\t// in\n    tag_164:\n        /* \"contracts/PriceConverter.sol\":793:837  (ethPrice * ethAmount) / 1000000000000000000 */\n      tag_165\n      swap2\n      swap1\n      tag_104\n      jump\t// in\n    tag_165:\n        /* \"contracts/PriceConverter.sol\":768:837  uint256 ethAmountInUsd = (ethPrice * ethAmount) / 1000000000000000000 */\n      swap1\n      pop\n        /* \"contracts/PriceConverter.sol\":933:947  ethAmountInUsd */\n      dup1\n        /* \"contracts/PriceConverter.sol\":926:947  return ethAmountInUsd */\n      swap3\n      pop\n      pop\n      pop\n        /* \"contracts/PriceConverter.sol\":577:954  function getConversionRate(... */\n      swap3\n      swap2\n      pop\n      pop\n      jump\t// out\n        /* \"contracts/PriceConverter.sol\":164:427  function getPrice(AggregatorV3Interface priceFeed)... */\n    tag_163:\n        /* \"contracts/PriceConverter.sol\":262:269  uint256 */\n      0x00\n        /* \"contracts/PriceConverter.sol\":288:301  int256 answer */\n      dup1\n        /* \"contracts/PriceConverter.sol\":311:320  priceFeed */\n      dup3\n        /* \"contracts/PriceConverter.sol\":311:336  priceFeed.latestRoundData */\n      0xffffffffffffffffffffffffffffffffffffffff\n      and\n      0xfeaf968c\n        /* \"contracts/PriceConverter.sol\":311:338  priceFeed.latestRoundData() */\n      mload(0x40)\n      dup2\n      0xffffffff\n      and\n      0xe0\n      shl\n      dup2\n      mstore\n      0x04\n      add\n      0xa0\n      mload(0x40)\n      dup1\n      dup4\n      sub\n      dup2\n      dup7\n      gas\n      staticcall\n      iszero\n      dup1\n      iszero\n      tag_168\n      jumpi\n      returndatasize\n      0x00\n      dup1\n      returndatacopy\n      revert(0x00, returndatasize)\n    tag_168:\n      pop\n      pop\n      pop\n      pop\n      mload(0x40)\n      returndatasize\n      not(0x1f)\n      0x1f\n      dup3\n      add\n      and\n      dup3\n      add\n      dup1\n      0x40\n      mstore\n      pop\n      dup2\n      add\n      swap1\n      tag_169\n      swap2\n      swap1\n      tag_90\n      jump\t// in\n    tag_169:\n        /* \"contracts/PriceConverter.sol\":285:338  (, int256 answer, , , ) = priceFeed.latestRoundData() */\n      pop\n      pop\n      pop\n      swap2\n      pop\n      pop\n        /* \"contracts/PriceConverter.sol\":408:419  10000000000 */\n      0x02540be400\n        /* \"contracts/PriceConverter.sol\":399:405  answer */\n      dup2\n        /* \"contracts/PriceConverter.sol\":399:419  answer * 10000000000 */\n      tag_170\n      swap2\n      swap1\n      tag_92\n      jump\t// in\n    tag_170:\n        /* \"contracts/PriceConverter.sol\":384:420  return uint256(answer * 10000000000) */\n      swap2\n      pop\n      pop\n        /* \"contracts/PriceConverter.sol\":164:427  function getPrice(AggregatorV3Interface priceFeed)... */\n      swap2\n      swap1\n      pop\n      jump\t// out\n    tag_145:\n      dup3\n      dup1\n      sload\n      dup3\n      dup3\n      sstore\n      swap1\n      0x00\n      mstore\n      keccak256(0x00, 0x20)\n      swap1\n      dup2\n      add\n      swap3\n      dup3\n      iszero\n      tag_171\n      jumpi\n      swap2\n      0x20\n      mul\n      dup3\n      add\n    tag_172:\n      dup3\n      dup2\n      gt\n      iszero\n      tag_173\n      jumpi\n      dup3\n      mload\n      dup3\n      exp(0x0100, 0x00)\n      dup2\n      sload\n      dup2\n      0xffffffffffffffffffffffffffffffffffffffff\n      mul\n      not\n      and\n      swap1\n      dup4\n      0xffffffffffffffffffffffffffffffffffffffff\n      and\n      mul\n      or\n      swap1\n      sstore\n      pop\n      swap2\n      0x20\n      add\n      swap2\n      swap1\n      0x01\n      add\n      swap1\n      jump(tag_172)\n    tag_173:\n    tag_171:\n      pop\n      swap1\n      pop\n      tag_174\n      swap2\n      swap1\n      tag_175\n      jump\t// in\n    tag_174:\n      pop\n      swap1\n      jump\t// out\n    tag_175:\n    tag_176:\n      dup1\n      dup3\n      gt\n      iszero\n      tag_177\n      jumpi\n      0x00\n      dup2\n      0x00\n      swap1\n      sstore\n      pop\n      0x01\n      add\n      jump(tag_176)\n    tag_177:\n      pop\n      swap1\n      jump\t// out\n        /* \"#utility.yul\":88:205   */\n    tag_179:\n        /* \"#utility.yul\":197:198   */\n      0x00\n        /* \"#utility.yul\":194:195   */\n      dup1\n        /* \"#utility.yul\":187:199   */\n      revert\n        /* \"#utility.yul\":334:460   */\n    tag_181:\n        /* \"#utility.yul\":371:378   */\n      0x00\n        /* \"#utility.yul\":411:453   */\n      0xffffffffffffffffffffffffffffffffffffffff\n        /* \"#utility.yul\":404:409   */\n      dup3\n        /* \"#utility.yul\":400:454   */\n      and\n        /* \"#utility.yul\":389:454   */\n      swap1\n      pop\n        /* \"#utility.yul\":334:460   */\n      swap2\n      swap1\n      pop\n      jump\t// out\n        /* \"#utility.yul\":466:562   */\n    tag_182:\n        /* \"#utility.yul\":503:510   */\n      0x00\n        /* \"#utility.yul\":532:556   */\n      tag_218\n        /* \"#utility.yul\":550:555   */\n      dup3\n        /* \"#utility.yul\":532:556   */\n      tag_181\n      jump\t// in\n    tag_218:\n        /* \"#utility.yul\":521:556   */\n      swap1\n      pop\n        /* \"#utility.yul\":466:562   */\n      swap2\n      swap1\n      pop\n      jump\t// out\n        /* \"#utility.yul\":568:690   */\n    tag_183:\n        /* \"#utility.yul\":641:665   */\n      tag_220\n        /* \"#utility.yul\":659:664   */\n      dup2\n        /* \"#utility.yul\":641:665   */\n      tag_182\n      jump\t// in\n    tag_220:\n        /* \"#utility.yul\":634:639   */\n      dup2\n        /* \"#utility.yul\":631:666   */\n      eq\n        /* \"#utility.yul\":621:684   */\n      tag_221\n      jumpi\n        /* \"#utility.yul\":680:681   */\n      0x00\n        /* \"#utility.yul\":677:678   */\n      dup1\n        /* \"#utility.yul\":670:682   */\n      revert\n        /* \"#utility.yul\":621:684   */\n    tag_221:\n        /* \"#utility.yul\":568:690   */\n      pop\n      jump\t// out\n        /* \"#utility.yul\":696:835   */\n    tag_184:\n        /* \"#utility.yul\":742:747   */\n      0x00\n        /* \"#utility.yul\":780:786   */\n      dup2\n        /* \"#utility.yul\":767:787   */\n      calldataload\n        /* \"#utility.yul\":758:787   */\n      swap1\n      pop\n        /* \"#utility.yul\":796:829   */\n      tag_223\n        /* \"#utility.yul\":823:828   */\n      dup2\n        /* \"#utility.yul\":796:829   */\n      tag_183\n      jump\t// in\n    tag_223:\n        /* \"#utility.yul\":696:835   */\n      swap3\n      swap2\n      pop\n      pop\n      jump\t// out\n        /* \"#utility.yul\":841:1170   */\n    tag_22:\n        /* \"#utility.yul\":900:906   */\n      0x00\n        /* \"#utility.yul\":949:951   */\n      0x20\n        /* \"#utility.yul\":937:946   */\n      dup3\n        /* \"#utility.yul\":928:935   */\n      dup5\n        /* \"#utility.yul\":924:947   */\n      sub\n        /* \"#utility.yul\":920:952   */\n      slt\n        /* \"#utility.yul\":917:1036   */\n      iszero\n      tag_225\n      jumpi\n        /* \"#utility.yul\":955:1034   */\n      tag_226\n      tag_179\n      jump\t// in\n    tag_226:\n        /* \"#utility.yul\":917:1036   */\n    tag_225:\n        /* \"#utility.yul\":1075:1076   */\n      0x00\n        /* \"#utility.yul\":1100:1153   */\n      tag_227\n        /* \"#utility.yul\":1145:1152   */\n      dup5\n        /* \"#utility.yul\":1136:1142   */\n      dup3\n        /* \"#utility.yul\":1125:1134   */\n      dup6\n        /* \"#utility.yul\":1121:1143   */\n      add\n        /* \"#utility.yul\":1100:1153   */\n      tag_184\n      jump\t// in\n    tag_227:\n        /* \"#utility.yul\":1090:1153   */\n      swap2\n      pop\n        /* \"#utility.yul\":1046:1163   */\n      pop\n        /* \"#utility.yul\":841:1170   */\n      swap3\n      swap2\n      pop\n      pop\n      jump\t// out\n        /* \"#utility.yul\":1176:1253   */\n    tag_185:\n        /* \"#utility.yul\":1213:1220   */\n      0x00\n        /* \"#utility.yul\":1242:1247   */\n      dup2\n        /* \"#utility.yul\":1231:1247   */\n      swap1\n      pop\n        /* \"#utility.yul\":1176:1253   */\n      swap2\n      swap1\n      pop\n      jump\t// out\n        /* \"#utility.yul\":1259:1377   */\n    tag_186:\n        /* \"#utility.yul\":1346:1370   */\n      tag_230\n        /* \"#utility.yul\":1364:1369   */\n      dup2\n        /* \"#utility.yul\":1346:1370   */\n      tag_185\n      jump\t// in\n    tag_230:\n        /* \"#utility.yul\":1341:1344   */\n      dup3\n        /* \"#utility.yul\":1334:1371   */\n      mstore\n        /* \"#utility.yul\":1259:1377   */\n      pop\n      pop\n      jump\t// out\n        /* \"#utility.yul\":1383:1605   */\n    tag_25:\n        /* \"#utility.yul\":1476:1480   */\n      0x00\n        /* \"#utility.yul\":1514:1516   */\n      0x20\n        /* \"#utility.yul\":1503:1512   */\n      dup3\n        /* \"#utility.yul\":1499:1517   */\n      add\n        /* \"#utility.yul\":1491:1517   */\n      swap1\n      pop\n        /* \"#utility.yul\":1527:1598   */\n      tag_232\n        /* \"#utility.yul\":1595:1596   */\n      0x00\n        /* \"#utility.yul\":1584:1593   */\n      dup4\n        /* \"#utility.yul\":1580:1597   */\n      add\n        /* \"#utility.yul\":1571:1577   */\n      dup5\n        /* \"#utility.yul\":1527:1598   */\n      tag_186\n      jump\t// in\n    tag_232:\n        /* \"#utility.yul\":1383:1605   */\n      swap3\n      swap2\n      pop\n      pop\n      jump\t// out\n        /* \"#utility.yul\":1611:1733   */\n    tag_187:\n        /* \"#utility.yul\":1684:1708   */\n      tag_234\n        /* \"#utility.yul\":1702:1707   */\n      dup2\n        /* \"#utility.yul\":1684:1708   */\n      tag_185\n      jump\t// in\n    tag_234:\n        /* \"#utility.yul\":1677:1682   */\n      dup2\n        /* \"#utility.yul\":1674:1709   */\n      eq\n        /* \"#utility.yul\":1664:1727   */\n      tag_235\n      jumpi\n        /* \"#utility.yul\":1723:1724   */\n      0x00\n        /* \"#utility.yul\":1720:1721   */\n      dup1\n        /* \"#utility.yul\":1713:1725   */\n      revert\n        /* \"#utility.yul\":1664:1727   */\n    tag_235:\n        /* \"#utility.yul\":1611:1733   */\n      pop\n      jump\t// out\n        /* \"#utility.yul\":1739:1878   */\n    tag_188:\n        /* \"#utility.yul\":1785:1790   */\n      0x00\n        /* \"#utility.yul\":1823:1829   */\n      dup2\n        /* \"#utility.yul\":1810:1830   */\n      calldataload\n        /* \"#utility.yul\":1801:1830   */\n      swap1\n      pop\n        /* \"#utility.yul\":1839:1872   */\n      tag_237\n        /* \"#utility.yul\":1866:1871   */\n      dup2\n        /* \"#utility.yul\":1839:1872   */\n      tag_187\n      jump\t// in\n    tag_237:\n        /* \"#utility.yul\":1739:1878   */\n      swap3\n      swap2\n      pop\n      pop\n      jump\t// out\n        /* \"#utility.yul\":1884:2213   */\n    tag_45:\n        /* \"#utility.yul\":1943:1949   */\n      0x00\n        /* \"#utility.yul\":1992:1994   */\n      0x20\n        /* \"#utility.yul\":1980:1989   */\n      dup3\n        /* \"#utility.yul\":1971:1978   */\n      dup5\n        /* \"#utility.yul\":1967:1990   */\n      sub\n        /* \"#utility.yul\":1963:1995   */\n      slt\n        /* \"#utility.yul\":1960:2079   */\n      iszero\n      tag_239\n      jumpi\n        /* \"#utility.yul\":1998:2077   */\n      tag_240\n      tag_179\n      jump\t// in\n    tag_240:\n        /* \"#utility.yul\":1960:2079   */\n    tag_239:\n        /* \"#utility.yul\":2118:2119   */\n      0x00\n        /* \"#utility.yul\":2143:2196   */\n      tag_241\n        /* \"#utility.yul\":2188:2195   */\n      dup5\n        /* \"#utility.yul\":2179:2185   */\n      dup3\n        /* \"#utility.yul\":2168:2177   */\n      dup6\n        /* \"#utility.yul\":2164:2186   */\n      add\n        /* \"#utility.yul\":2143:2196   */\n      tag_188\n      jump\t// in\n    tag_241:\n        /* \"#utility.yul\":2133:2196   */\n      swap2\n      pop\n        /* \"#utility.yul\":2089:2206   */\n      pop\n        /* \"#utility.yul\":1884:2213   */\n      swap3\n      swap2\n      pop\n      pop\n      jump\t// out\n        /* \"#utility.yul\":2219:2337   */\n    tag_189:\n        /* \"#utility.yul\":2306:2330   */\n      tag_243\n        /* \"#utility.yul\":2324:2329   */\n      dup2\n        /* \"#utility.yul\":2306:2330   */\n      tag_182\n      jump\t// in\n    tag_243:\n        /* \"#utility.yul\":2301:2304   */\n      dup3\n        /* \"#utility.yul\":2294:2331   */\n      mstore\n        /* \"#utility.yul\":2219:2337   */\n      pop\n      pop\n      jump\t// out\n        /* \"#utility.yul\":2343:2565   */\n    tag_51:\n        /* \"#utility.yul\":2436:2440   */\n      0x00\n        /* \"#utility.yul\":2474:2476   */\n      0x20\n        /* \"#utility.yul\":2463:2472   */\n      dup3\n        /* \"#utility.yul\":2459:2477   */\n      add\n        /* \"#utility.yul\":2451:2477   */\n      swap1\n      pop\n        /* \"#utility.yul\":2487:2558   */\n      tag_245\n        /* \"#utility.yul\":2555:2556   */\n      0x00\n        /* \"#utility.yul\":2544:2553   */\n      dup4\n        /* \"#utility.yul\":2540:2557   */\n      add\n        /* \"#utility.yul\":2531:2537   */\n      dup5\n        /* \"#utility.yul\":2487:2558   */\n      tag_189\n      jump\t// in\n    tag_245:\n        /* \"#utility.yul\":2343:2565   */\n      swap3\n      swap2\n      pop\n      pop\n      jump\t// out\n        /* \"#utility.yul\":2571:2631   */\n    tag_190:\n        /* \"#utility.yul\":2599:2602   */\n      0x00\n        /* \"#utility.yul\":2620:2625   */\n      dup2\n        /* \"#utility.yul\":2613:2625   */\n      swap1\n      pop\n        /* \"#utility.yul\":2571:2631   */\n      swap2\n      swap1\n      pop\n      jump\t// out\n        /* \"#utility.yul\":2637:2779   */\n    tag_191:\n        /* \"#utility.yul\":2687:2696   */\n      0x00\n        /* \"#utility.yul\":2720:2773   */\n      tag_248\n        /* \"#utility.yul\":2738:2772   */\n      tag_249\n        /* \"#utility.yul\":2747:2771   */\n      tag_250\n        /* \"#utility.yul\":2765:2770   */\n      dup5\n        /* \"#utility.yul\":2747:2771   */\n      tag_181\n      jump\t// in\n    tag_250:\n        /* \"#utility.yul\":2738:2772   */\n      tag_190\n      jump\t// in\n    tag_249:\n        /* \"#utility.yul\":2720:2773   */\n      tag_181\n      jump\t// in\n    tag_248:\n        /* \"#utility.yul\":2707:2773   */\n      swap1\n      pop\n        /* \"#utility.yul\":2637:2779   */\n      swap2\n      swap1\n      pop\n      jump\t// out\n        /* \"#utility.yul\":2785:2911   */\n    tag_192:\n        /* \"#utility.yul\":2835:2844   */\n      0x00\n        /* \"#utility.yul\":2868:2905   */\n      tag_252\n        /* \"#utility.yul\":2899:2904   */\n      dup3\n        /* \"#utility.yul\":2868:2905   */\n      tag_191\n      jump\t// in\n    tag_252:\n        /* \"#utility.yul\":2855:2905   */\n      swap1\n      pop\n        /* \"#utility.yul\":2785:2911   */\n      swap2\n      swap1\n      pop\n      jump\t// out\n        /* \"#utility.yul\":2917:3071   */\n    tag_193:\n        /* \"#utility.yul\":2995:3004   */\n      0x00\n        /* \"#utility.yul\":3028:3065   */\n      tag_254\n        /* \"#utility.yul\":3059:3064   */\n      dup3\n        /* \"#utility.yul\":3028:3065   */\n      tag_192\n      jump\t// in\n    tag_254:\n        /* \"#utility.yul\":3015:3065   */\n      swap1\n      pop\n        /* \"#utility.yul\":2917:3071   */\n      swap2\n      swap1\n      pop\n      jump\t// out\n        /* \"#utility.yul\":3077:3264   */\n    tag_194:\n        /* \"#utility.yul\":3192:3257   */\n      tag_256\n        /* \"#utility.yul\":3251:3256   */\n      dup2\n        /* \"#utility.yul\":3192:3257   */\n      tag_193\n      jump\t// in\n    tag_256:\n        /* \"#utility.yul\":3187:3190   */\n      dup3\n        /* \"#utility.yul\":3180:3258   */\n      mstore\n        /* \"#utility.yul\":3077:3264   */\n      pop\n      pop\n      jump\t// out\n        /* \"#utility.yul\":3270:3548   */\n    tag_56:\n        /* \"#utility.yul\":3391:3395   */\n      0x00\n        /* \"#utility.yul\":3429:3431   */\n      0x20\n        /* \"#utility.yul\":3418:3427   */\n      dup3\n        /* \"#utility.yul\":3414:3432   */\n      add\n        /* \"#utility.yul\":3406:3432   */\n      swap1\n      pop\n        /* \"#utility.yul\":3442:3541   */\n      tag_258\n        /* \"#utility.yul\":3538:3539   */\n      0x00\n        /* \"#utility.yul\":3527:3536   */\n      dup4\n        /* \"#utility.yul\":3523:3540   */\n      add\n        /* \"#utility.yul\":3514:3520   */\n      dup5\n        /* \"#utility.yul\":3442:3541   */\n      tag_194\n      jump\t// in\n    tag_258:\n        /* \"#utility.yul\":3270:3548   */\n      swap3\n      swap2\n      pop\n      pop\n      jump\t// out\n        /* \"#utility.yul\":3554:3644   */\n    tag_195:\n        /* \"#utility.yul\":3588:3595   */\n      0x00\n        /* \"#utility.yul\":3631:3636   */\n      dup2\n        /* \"#utility.yul\":3624:3637   */\n      iszero\n        /* \"#utility.yul\":3617:3638   */\n      iszero\n        /* \"#utility.yul\":3606:3638   */\n      swap1\n      pop\n        /* \"#utility.yul\":3554:3644   */\n      swap2\n      swap1\n      pop\n      jump\t// out\n        /* \"#utility.yul\":3650:3759   */\n    tag_196:\n        /* \"#utility.yul\":3731:3752   */\n      tag_261\n        /* \"#utility.yul\":3746:3751   */\n      dup2\n        /* \"#utility.yul\":3731:3752   */\n      tag_195\n      jump\t// in\n    tag_261:\n        /* \"#utility.yul\":3726:3729   */\n      dup3\n        /* \"#utility.yul\":3719:3753   */\n      mstore\n        /* \"#utility.yul\":3650:3759   */\n      pop\n      pop\n      jump\t// out\n        /* \"#utility.yul\":3765:3975   */\n    tag_65:\n        /* \"#utility.yul\":3852:3856   */\n      0x00\n        /* \"#utility.yul\":3890:3892   */\n      0x20\n        /* \"#utility.yul\":3879:3888   */\n      dup3\n        /* \"#utility.yul\":3875:3893   */\n      add\n        /* \"#utility.yul\":3867:3893   */\n      swap1\n      pop\n        /* \"#utility.yul\":3903:3968   */\n      tag_263\n        /* \"#utility.yul\":3965:3966   */\n      0x00\n        /* \"#utility.yul\":3954:3963   */\n      dup4\n        /* \"#utility.yul\":3950:3967   */\n      add\n        /* \"#utility.yul\":3941:3947   */\n      dup5\n        /* \"#utility.yul\":3903:3968   */\n      tag_196\n      jump\t// in\n    tag_263:\n        /* \"#utility.yul\":3765:3975   */\n      swap3\n      swap2\n      pop\n      pop\n      jump\t// out\n        /* \"#utility.yul\":3981:4124   */\n    tag_197:\n        /* \"#utility.yul\":4038:4043   */\n      0x00\n        /* \"#utility.yul\":4069:4075   */\n      dup2\n        /* \"#utility.yul\":4063:4076   */\n      mload\n        /* \"#utility.yul\":4054:4076   */\n      swap1\n      pop\n        /* \"#utility.yul\":4085:4118   */\n      tag_265\n        /* \"#utility.yul\":4112:4117   */\n      dup2\n        /* \"#utility.yul\":4085:4118   */\n      tag_187\n      jump\t// in\n    tag_265:\n        /* \"#utility.yul\":3981:4124   */\n      swap3\n      swap2\n      pop\n      pop\n      jump\t// out\n        /* \"#utility.yul\":4130:4481   */\n    tag_85:\n        /* \"#utility.yul\":4200:4206   */\n      0x00\n        /* \"#utility.yul\":4249:4251   */\n      0x20\n        /* \"#utility.yul\":4237:4246   */\n      dup3\n        /* \"#utility.yul\":4228:4235   */\n      dup5\n        /* \"#utility.yul\":4224:4247   */\n      sub\n        /* \"#utility.yul\":4220:4252   */\n      slt\n        /* \"#utility.yul\":4217:4336   */\n      iszero\n      tag_267\n      jumpi\n        /* \"#utility.yul\":4255:4334   */\n      tag_268\n      tag_179\n      jump\t// in\n    tag_268:\n        /* \"#utility.yul\":4217:4336   */\n    tag_267:\n        /* \"#utility.yul\":4375:4376   */\n      0x00\n        /* \"#utility.yul\":4400:4464   */\n      tag_269\n        /* \"#utility.yul\":4456:4463   */\n      dup5\n        /* \"#utility.yul\":4447:4453   */\n      dup3\n        /* \"#utility.yul\":4436:4445   */\n      dup6\n        /* \"#utility.yul\":4432:4454   */\n      add\n        /* \"#utility.yul\":4400:4464   */\n      tag_197\n      jump\t// in\n    tag_269:\n        /* \"#utility.yul\":4390:4464   */\n      swap2\n      pop\n        /* \"#utility.yul\":4346:4474   */\n      pop\n        /* \"#utility.yul\":4130:4481   */\n      swap3\n      swap2\n      pop\n      pop\n      jump\t// out\n        /* \"#utility.yul\":4487:4592   */\n    tag_198:\n        /* \"#utility.yul\":4523:4530   */\n      0x00\n        /* \"#utility.yul\":4563:4585   */\n      0xffffffffffffffffffff\n        /* \"#utility.yul\":4556:4561   */\n      dup3\n        /* \"#utility.yul\":4552:4586   */\n      and\n        /* \"#utility.yul\":4541:4586   */\n      swap1\n      pop\n        /* \"#utility.yul\":4487:4592   */\n      swap2\n      swap1\n      pop\n      jump\t// out\n        /* \"#utility.yul\":4598:4718   */\n    tag_199:\n        /* \"#utility.yul\":4670:4693   */\n      tag_272\n        /* \"#utility.yul\":4687:4692   */\n      dup2\n        /* \"#utility.yul\":4670:4693   */\n      tag_198\n      jump\t// in\n    tag_272:\n        /* \"#utility.yul\":4663:4668   */\n      dup2\n        /* \"#utility.yul\":4660:4694   */\n      eq\n        /* \"#utility.yul\":4650:4712   */\n      tag_273\n      jumpi\n        /* \"#utility.yul\":4708:4709   */\n      0x00\n        /* \"#utility.yul\":4705:4706   */\n      dup1\n        /* \"#utility.yul\":4698:4710   */\n      revert\n        /* \"#utility.yul\":4650:4712   */\n    tag_273:\n        /* \"#utility.yul\":4598:4718   */\n      pop\n      jump\t// out\n        /* \"#utility.yul\":4724:4865   */\n    tag_200:\n        /* \"#utility.yul\":4780:4785   */\n      0x00\n        /* \"#utility.yul\":4811:4817   */\n      dup2\n        /* \"#utility.yul\":4805:4818   */\n      mload\n        /* \"#utility.yul\":4796:4818   */\n      swap1\n      pop\n        /* \"#utility.yul\":4827:4859   */\n      tag_275\n        /* \"#utility.yul\":4853:4858   */\n      dup2\n        /* \"#utility.yul\":4827:4859   */\n      tag_199\n      jump\t// in\n    tag_275:\n        /* \"#utility.yul\":4724:4865   */\n      swap3\n      swap2\n      pop\n      pop\n      jump\t// out\n        /* \"#utility.yul\":4871:4947   */\n    tag_201:\n        /* \"#utility.yul\":4907:4914   */\n      0x00\n        /* \"#utility.yul\":4936:4941   */\n      dup2\n        /* \"#utility.yul\":4925:4941   */\n      swap1\n      pop\n        /* \"#utility.yul\":4871:4947   */\n      swap2\n      swap1\n      pop\n      jump\t// out\n        /* \"#utility.yul\":4953:5073   */\n    tag_202:\n        /* \"#utility.yul\":5025:5048   */\n      tag_278\n        /* \"#utility.yul\":5042:5047   */\n      dup2\n        /* \"#utility.yul\":5025:5048   */\n      tag_201\n      jump\t// in\n    tag_278:\n        /* \"#utility.yul\":5018:5023   */\n      dup2\n        /* \"#utility.yul\":5015:5049   */\n      eq\n        /* \"#utility.yul\":5005:5067   */\n      tag_279\n      jumpi\n        /* \"#utility.yul\":5063:5064   */\n      0x00\n        /* \"#utility.yul\":5060:5061   */\n      dup1\n        /* \"#utility.yul\":5053:5065   */\n      revert\n        /* \"#utility.yul\":5005:5067   */\n    tag_279:\n        /* \"#utility.yul\":4953:5073   */\n      pop\n      jump\t// out\n        /* \"#utility.yul\":5079:5220   */\n    tag_203:\n        /* \"#utility.yul\":5135:5140   */\n      0x00\n        /* \"#utility.yul\":5166:5172   */\n      dup2\n        /* \"#utility.yul\":5160:5173   */\n      mload\n        /* \"#utility.yul\":5151:5173   */\n      swap1\n      pop\n        /* \"#utility.yul\":5182:5214   */\n      tag_281\n        /* \"#utility.yul\":5208:5213   */\n      dup2\n        /* \"#utility.yul\":5182:5214   */\n      tag_202\n      jump\t// in\n    tag_281:\n        /* \"#utility.yul\":5079:5220   */\n      swap3\n      swap2\n      pop\n      pop\n      jump\t// out\n        /* \"#utility.yul\":5226:6197   */\n    tag_90:\n        /* \"#utility.yul\":5329:5335   */\n      0x00\n        /* \"#utility.yul\":5337:5343   */\n      dup1\n        /* \"#utility.yul\":5345:5351   */\n      0x00\n        /* \"#utility.yul\":5353:5359   */\n      dup1\n        /* \"#utility.yul\":5361:5367   */\n      0x00\n        /* \"#utility.yul\":5410:5413   */\n      0xa0\n        /* \"#utility.yul\":5398:5407   */\n      dup7\n        /* \"#utility.yul\":5389:5396   */\n      dup9\n        /* \"#utility.yul\":5385:5408   */\n      sub\n        /* \"#utility.yul\":5381:5414   */\n      slt\n        /* \"#utility.yul\":5378:5498   */\n      iszero\n      tag_283\n      jumpi\n        /* \"#utility.yul\":5417:5496   */\n      tag_284\n      tag_179\n      jump\t// in\n    tag_284:\n        /* \"#utility.yul\":5378:5498   */\n    tag_283:\n        /* \"#utility.yul\":5537:5538   */\n      0x00\n        /* \"#utility.yul\":5562:5625   */\n      tag_285\n        /* \"#utility.yul\":5617:5624   */\n      dup9\n        /* \"#utility.yul\":5608:5614   */\n      dup3\n        /* \"#utility.yul\":5597:5606   */\n      dup10\n        /* \"#utility.yul\":5593:5615   */\n      add\n        /* \"#utility.yul\":5562:5625   */\n      tag_200\n      jump\t// in\n    tag_285:\n        /* \"#utility.yul\":5552:5625   */\n      swap6\n      pop\n        /* \"#utility.yul\":5508:5635   */\n      pop\n        /* \"#utility.yul\":5674:5676   */\n      0x20\n        /* \"#utility.yul\":5700:5763   */\n      tag_286\n        /* \"#utility.yul\":5755:5762   */\n      dup9\n        /* \"#utility.yul\":5746:5752   */\n      dup3\n        /* \"#utility.yul\":5735:5744   */\n      dup10\n        /* \"#utility.yul\":5731:5753   */\n      add\n        /* \"#utility.yul\":5700:5763   */\n      tag_203\n      jump\t// in\n    tag_286:\n        /* \"#utility.yul\":5690:5763   */\n      swap5\n      pop\n        /* \"#utility.yul\":5645:5773   */\n      pop\n        /* \"#utility.yul\":5812:5814   */\n      0x40\n        /* \"#utility.yul\":5838:5902   */\n      tag_287\n        /* \"#utility.yul\":5894:5901   */\n      dup9\n        /* \"#utility.yul\":5885:5891   */\n      dup3\n        /* \"#utility.yul\":5874:5883   */\n      dup10\n        /* \"#utility.yul\":5870:5892   */\n      add\n        /* \"#utility.yul\":5838:5902   */\n      tag_197\n      jump\t// in\n    tag_287:\n        /* \"#utility.yul\":5828:5902   */\n      swap4\n      pop\n        /* \"#utility.yul\":5783:5912   */\n      pop\n        /* \"#utility.yul\":5951:5953   */\n      0x60\n        /* \"#utility.yul\":5977:6041   */\n      tag_288\n        /* \"#utility.yul\":6033:6040   */\n      dup9\n        /* \"#utility.yul\":6024:6030   */\n      dup3\n        /* \"#utility.yul\":6013:6022   */\n      dup10\n        /* \"#utility.yul\":6009:6031   */\n      add\n        /* \"#utility.yul\":5977:6041   */\n      tag_197\n      jump\t// in\n    tag_288:\n        /* \"#utility.yul\":5967:6041   */\n      swap3\n      pop\n        /* \"#utility.yul\":5922:6051   */\n      pop\n        /* \"#utility.yul\":6090:6093   */\n      0x80\n        /* \"#utility.yul\":6117:6180   */\n      tag_289\n        /* \"#utility.yul\":6172:6179   */\n      dup9\n        /* \"#utility.yul\":6163:6169   */\n      dup3\n        /* \"#utility.yul\":6152:6161   */\n      dup10\n        /* \"#utility.yul\":6148:6170   */\n      add\n        /* \"#utility.yul\":6117:6180   */\n      tag_200\n      jump\t// in\n    tag_289:\n        /* \"#utility.yul\":6107:6180   */\n      swap2\n      pop\n        /* \"#utility.yul\":6061:6190   */\n      pop\n        /* \"#utility.yul\":5226:6197   */\n      swap3\n      swap6\n      pop\n      swap3\n      swap6\n      swap1\n      swap4\n      pop\n      jump\t// out\n        /* \"#utility.yul\":6203:6383   */\n    tag_204:\n        /* \"#utility.yul\":6251:6328   */\n      0x4e487b7100000000000000000000000000000000000000000000000000000000\n        /* \"#utility.yul\":6248:6249   */\n      0x00\n        /* \"#utility.yul\":6241:6329   */\n      mstore\n        /* \"#utility.yul\":6348:6352   */\n      0x11\n        /* \"#utility.yul\":6345:6346   */\n      0x04\n        /* \"#utility.yul\":6338:6353   */\n      mstore\n        /* \"#utility.yul\":6372:6376   */\n      0x24\n        /* \"#utility.yul\":6369:6370   */\n      0x00\n        /* \"#utility.yul\":6362:6377   */\n      revert\n        /* \"#utility.yul\":6389:6945   */\n    tag_92:\n        /* \"#utility.yul\":6428:6435   */\n      0x00\n        /* \"#utility.yul\":6451:6470   */\n      tag_292\n        /* \"#utility.yul\":6468:6469   */\n      dup3\n        /* \"#utility.yul\":6451:6470   */\n      tag_201\n      jump\t// in\n    tag_292:\n        /* \"#utility.yul\":6446:6470   */\n      swap2\n      pop\n        /* \"#utility.yul\":6484:6503   */\n      tag_293\n        /* \"#utility.yul\":6501:6502   */\n      dup4\n        /* \"#utility.yul\":6484:6503   */\n      tag_201\n      jump\t// in\n    tag_293:\n        /* \"#utility.yul\":6479:6503   */\n      swap3\n      pop\n        /* \"#utility.yul\":6538:6539   */\n      dup3\n        /* \"#utility.yul\":6535:6536   */\n      dup3\n        /* \"#utility.yul\":6531:6540   */\n      mul\n        /* \"#utility.yul\":6560:6589   */\n      tag_294\n        /* \"#utility.yul\":6577:6588   */\n      dup2\n        /* \"#utility.yul\":6560:6589   */\n      tag_201\n      jump\t// in\n    tag_294:\n        /* \"#utility.yul\":6549:6589   */\n      swap2\n      pop\n        /* \"#utility.yul\":6647:6713   */\n      0x8000000000000000000000000000000000000000000000000000000000000000\n        /* \"#utility.yul\":6644:6645   */\n      dup5\n        /* \"#utility.yul\":6641:6714   */\n      eq\n        /* \"#utility.yul\":6637:6638   */\n      0x00\n        /* \"#utility.yul\":6634:6635   */\n      dup5\n        /* \"#utility.yul\":6630:6639   */\n      slt\n        /* \"#utility.yul\":6626:6715   */\n      and\n        /* \"#utility.yul\":6623:6738   */\n      iszero\n      tag_295\n      jumpi\n        /* \"#utility.yul\":6718:6736   */\n      tag_296\n      tag_204\n      jump\t// in\n    tag_296:\n        /* \"#utility.yul\":6623:6738   */\n    tag_295:\n        /* \"#utility.yul\":6888:6889   */\n      dup3\n        /* \"#utility.yul\":6879:6886   */\n      dup3\n        /* \"#utility.yul\":6874:6890   */\n      sdiv\n        /* \"#utility.yul\":6871:6872   */\n      dup5\n        /* \"#utility.yul\":6868:6891   */\n      eq\n        /* \"#utility.yul\":6848:6849   */\n      dup4\n        /* \"#utility.yul\":6841:6850   */\n      iszero\n        /* \"#utility.yul\":6821:6905   */\n      or\n        /* \"#utility.yul\":6798:6938   */\n      tag_297\n      jumpi\n        /* \"#utility.yul\":6918:6936   */\n      tag_298\n      tag_204\n      jump\t// in\n    tag_298:\n        /* \"#utility.yul\":6798:6938   */\n    tag_297:\n        /* \"#utility.yul\":6436:6945   */\n      pop\n        /* \"#utility.yul\":6389:6945   */\n      swap3\n      swap2\n      pop\n      pop\n      jump\t// out\n        /* \"#utility.yul\":6951:7361   */\n    tag_102:\n        /* \"#utility.yul\":6991:6998   */\n      0x00\n        /* \"#utility.yul\":7014:7034   */\n      tag_300\n        /* \"#utility.yul\":7032:7033   */\n      dup3\n        /* \"#utility.yul\":7014:7034   */\n      tag_185\n      jump\t// in\n    tag_300:\n        /* \"#utility.yul\":7009:7034   */\n      swap2\n      pop\n        /* \"#utility.yul\":7048:7068   */\n      tag_301\n        /* \"#utility.yul\":7066:7067   */\n      dup4\n        /* \"#utility.yul\":7048:7068   */\n      tag_185\n      jump\t// in\n    tag_301:\n        /* \"#utility.yul\":7043:7068   */\n      swap3\n      pop\n        /* \"#utility.yul\":7103:7104   */\n      dup3\n        /* \"#utility.yul\":7100:7101   */\n      dup3\n        /* \"#utility.yul\":7096:7105   */\n      mul\n        /* \"#utility.yul\":7125:7155   */\n      tag_302\n        /* \"#utility.yul\":7143:7154   */\n      dup2\n        /* \"#utility.yul\":7125:7155   */\n      tag_185\n      jump\t// in\n    tag_302:\n        /* \"#utility.yul\":7114:7155   */\n      swap2\n      pop\n        /* \"#utility.yul\":7304:7305   */\n      dup3\n        /* \"#utility.yul\":7295:7302   */\n      dup3\n        /* \"#utility.yul\":7291:7306   */\n      div\n        /* \"#utility.yul\":7288:7289   */\n      dup5\n        /* \"#utility.yul\":7285:7307   */\n      eq\n        /* \"#utility.yul\":7265:7266   */\n      dup4\n        /* \"#utility.yul\":7258:7267   */\n      iszero\n        /* \"#utility.yul\":7238:7321   */\n      or\n        /* \"#utility.yul\":7215:7354   */\n      tag_303\n      jumpi\n        /* \"#utility.yul\":7334:7352   */\n      tag_304\n      tag_204\n      jump\t// in\n    tag_304:\n        /* \"#utility.yul\":7215:7354   */\n    tag_303:\n        /* \"#utility.yul\":6999:7361   */\n      pop\n        /* \"#utility.yul\":6951:7361   */\n      swap3\n      swap2\n      pop\n      pop\n      jump\t// out\n        /* \"#utility.yul\":7367:7547   */\n    tag_205:\n        /* \"#utility.yul\":7415:7492   */\n      0x4e487b7100000000000000000000000000000000000000000000000000000000\n        /* \"#utility.yul\":7412:7413   */\n      0x00\n        /* \"#utility.yul\":7405:7493   */\n      mstore\n        /* \"#utility.yul\":7512:7516   */\n      0x12\n        /* \"#utility.yul\":7509:7510   */\n      0x04\n        /* \"#utility.yul\":7502:7517   */\n      mstore\n        /* \"#utility.yul\":7536:7540   */\n      0x24\n        /* \"#utility.yul\":7533:7534   */\n      0x00\n        /* \"#utility.yul\":7526:7541   */\n      revert\n        /* \"#utility.yul\":7553:7738   */\n    tag_104:\n        /* \"#utility.yul\":7593:7594   */\n      0x00\n        /* \"#utility.yul\":7610:7630   */\n      tag_307\n        /* \"#utility.yul\":7628:7629   */\n      dup3\n        /* \"#utility.yul\":7610:7630   */\n      tag_185\n      jump\t// in\n    tag_307:\n        /* \"#utility.yul\":7605:7630   */\n      swap2\n      pop\n        /* \"#utility.yul\":7644:7664   */\n      tag_308\n        /* \"#utility.yul\":7662:7663   */\n      dup4\n        /* \"#utility.yul\":7644:7664   */\n      tag_185\n      jump\t// in\n    tag_308:\n        /* \"#utility.yul\":7639:7664   */\n      swap3\n      pop\n        /* \"#utility.yul\":7683:7684   */\n      dup3\n        /* \"#utility.yul\":7673:7708   */\n      tag_309\n      jumpi\n        /* \"#utility.yul\":7688:7706   */\n      tag_310\n      tag_205\n      jump\t// in\n    tag_310:\n        /* \"#utility.yul\":7673:7708   */\n    tag_309:\n        /* \"#utility.yul\":7730:7731   */\n      dup3\n        /* \"#utility.yul\":7727:7728   */\n      dup3\n        /* \"#utility.yul\":7723:7732   */\n      div\n        /* \"#utility.yul\":7718:7732   */\n      swap1\n      pop\n        /* \"#utility.yul\":7553:7738   */\n      swap3\n      swap2\n      pop\n      pop\n      jump\t// out\n        /* \"#utility.yul\":7744:7938   */\n    tag_111:\n        /* \"#utility.yul\":7784:7788   */\n      0x00\n        /* \"#utility.yul\":7804:7824   */\n      tag_312\n        /* \"#utility.yul\":7822:7823   */\n      dup3\n        /* \"#utility.yul\":7804:7824   */\n      tag_185\n      jump\t// in\n    tag_312:\n        /* \"#utility.yul\":7799:7824   */\n      swap2\n      pop\n        /* \"#utility.yul\":7838:7858   */\n      tag_313\n        /* \"#utility.yul\":7856:7857   */\n      dup4\n        /* \"#utility.yul\":7838:7858   */\n      tag_185\n      jump\t// in\n    tag_313:\n        /* \"#utility.yul\":7833:7858   */\n      swap3\n      pop\n        /* \"#utility.yul\":7882:7883   */\n      dup3\n        /* \"#utility.yul\":7879:7880   */\n      dup3\n        /* \"#utility.yul\":7875:7884   */\n      sub\n        /* \"#utility.yul\":7867:7884   */\n      swap1\n      pop\n        /* \"#utility.yul\":7906:7907   */\n      dup2\n        /* \"#utility.yul\":7900:7904   */\n      dup2\n        /* \"#utility.yul\":7897:7908   */\n      gt\n        /* \"#utility.yul\":7894:7931   */\n      iszero\n      tag_314\n      jumpi\n        /* \"#utility.yul\":7911:7929   */\n      tag_315\n      tag_204\n      jump\t// in\n    tag_315:\n        /* \"#utility.yul\":7894:7931   */\n    tag_314:\n        /* \"#utility.yul\":7744:7938   */\n      swap3\n      swap2\n      pop\n      pop\n      jump\t// out\n        /* \"#utility.yul\":7944:8113   */\n    tag_206:\n        /* \"#utility.yul\":8028:8039   */\n      0x00\n        /* \"#utility.yul\":8062:8068   */\n      dup3\n        /* \"#utility.yul\":8057:8060   */\n      dup3\n        /* \"#utility.yul\":8050:8069   */\n      mstore\n        /* \"#utility.yul\":8102:8106   */\n      0x20\n        /* \"#utility.yul\":8097:8100   */\n      dup3\n        /* \"#utility.yul\":8093:8107   */\n      add\n        /* \"#utility.yul\":8078:8107   */\n      swap1\n      pop\n        /* \"#utility.yul\":7944:8113   */\n      swap3\n      swap2\n      pop\n      pop\n      jump\t// out\n        /* \"#utility.yul\":8119:8296   */\n    tag_207:\n        /* \"#utility.yul\":8259:8288   */\n      0x596f75206e65656420746f207370656e64206d6f726520455448210000000000\n        /* \"#utility.yul\":8255:8256   */\n      0x00\n        /* \"#utility.yul\":8247:8253   */\n      dup3\n        /* \"#utility.yul\":8243:8257   */\n      add\n        /* \"#utility.yul\":8236:8289   */\n      mstore\n        /* \"#utility.yul\":8119:8296   */\n      pop\n      jump\t// out\n        /* \"#utility.yul\":8302:8668   */\n    tag_208:\n        /* \"#utility.yul\":8444:8447   */\n      0x00\n        /* \"#utility.yul\":8465:8532   */\n      tag_319\n        /* \"#utility.yul\":8529:8531   */\n      0x1b\n        /* \"#utility.yul\":8524:8527   */\n      dup4\n        /* \"#utility.yul\":8465:8532   */\n      tag_206\n      jump\t// in\n    tag_319:\n        /* \"#utility.yul\":8458:8532   */\n      swap2\n      pop\n        /* \"#utility.yul\":8541:8634   */\n      tag_320\n        /* \"#utility.yul\":8630:8633   */\n      dup3\n        /* \"#utility.yul\":8541:8634   */\n      tag_207\n      jump\t// in\n    tag_320:\n        /* \"#utility.yul\":8659:8661   */\n      0x20\n        /* \"#utility.yul\":8654:8657   */\n      dup3\n        /* \"#utility.yul\":8650:8662   */\n      add\n        /* \"#utility.yul\":8643:8662   */\n      swap1\n      pop\n        /* \"#utility.yul\":8302:8668   */\n      swap2\n      swap1\n      pop\n      jump\t// out\n        /* \"#utility.yul\":8674:9093   */\n    tag_123:\n        /* \"#utility.yul\":8840:8844   */\n      0x00\n        /* \"#utility.yul\":8878:8880   */\n      0x20\n        /* \"#utility.yul\":8867:8876   */\n      dup3\n        /* \"#utility.yul\":8863:8881   */\n      add\n        /* \"#utility.yul\":8855:8881   */\n      swap1\n      pop\n        /* \"#utility.yul\":8927:8936   */\n      dup2\n        /* \"#utility.yul\":8921:8925   */\n      dup2\n        /* \"#utility.yul\":8917:8937   */\n      sub\n        /* \"#utility.yul\":8913:8914   */\n      0x00\n        /* \"#utility.yul\":8902:8911   */\n      dup4\n        /* \"#utility.yul\":8898:8915   */\n      add\n        /* \"#utility.yul\":8891:8938   */\n      mstore\n        /* \"#utility.yul\":8955:9086   */\n      tag_322\n        /* \"#utility.yul\":9081:9085   */\n      dup2\n        /* \"#utility.yul\":8955:9086   */\n      tag_208\n      jump\t// in\n    tag_322:\n        /* \"#utility.yul\":8947:9086   */\n      swap1\n      pop\n        /* \"#utility.yul\":8674:9093   */\n      swap2\n      swap1\n      pop\n      jump\t// out\n        /* \"#utility.yul\":9099:9290   */\n    tag_125:\n        /* \"#utility.yul\":9139:9142   */\n      0x00\n        /* \"#utility.yul\":9158:9178   */\n      tag_324\n        /* \"#utility.yul\":9176:9177   */\n      dup3\n        /* \"#utility.yul\":9158:9178   */\n      tag_185\n      jump\t// in\n    tag_324:\n        /* \"#utility.yul\":9153:9178   */\n      swap2\n      pop\n        /* \"#utility.yul\":9192:9212   */\n      tag_325\n        /* \"#utility.yul\":9210:9211   */\n      dup4\n        /* \"#utility.yul\":9192:9212   */\n      tag_185\n      jump\t// in\n    tag_325:\n        /* \"#utility.yul\":9187:9212   */\n      swap3\n      pop\n        /* \"#utility.yul\":9235:9236   */\n      dup3\n        /* \"#utility.yul\":9232:9233   */\n      dup3\n        /* \"#utility.yul\":9228:9237   */\n      add\n        /* \"#utility.yul\":9221:9237   */\n      swap1\n      pop\n        /* \"#utility.yul\":9256:9259   */\n      dup1\n        /* \"#utility.yul\":9253:9254   */\n      dup3\n        /* \"#utility.yul\":9250:9260   */\n      gt\n        /* \"#utility.yul\":9247:9283   */\n      iszero\n      tag_326\n      jumpi\n        /* \"#utility.yul\":9263:9281   */\n      tag_327\n      tag_204\n      jump\t// in\n    tag_327:\n        /* \"#utility.yul\":9247:9283   */\n    tag_326:\n        /* \"#utility.yul\":9099:9290   */\n      swap3\n      swap2\n      pop\n      pop\n      jump\t// out\n        /* \"#utility.yul\":9296:9476   */\n    tag_137:\n        /* \"#utility.yul\":9344:9421   */\n      0x4e487b7100000000000000000000000000000000000000000000000000000000\n        /* \"#utility.yul\":9341:9342   */\n      0x00\n        /* \"#utility.yul\":9334:9422   */\n      mstore\n        /* \"#utility.yul\":9441:9445   */\n      0x32\n        /* \"#utility.yul\":9438:9439   */\n      0x04\n        /* \"#utility.yul\":9431:9446   */\n      mstore\n        /* \"#utility.yul\":9465:9469   */\n      0x24\n        /* \"#utility.yul\":9462:9463   */\n      0x00\n        /* \"#utility.yul\":9455:9470   */\n      revert\n        /* \"#utility.yul\":9482:9715   */\n    tag_139:\n        /* \"#utility.yul\":9521:9524   */\n      0x00\n        /* \"#utility.yul\":9544:9568   */\n      tag_330\n        /* \"#utility.yul\":9562:9567   */\n      dup3\n        /* \"#utility.yul\":9544:9568   */\n      tag_185\n      jump\t// in\n    tag_330:\n        /* \"#utility.yul\":9535:9568   */\n      swap2\n      pop\n        /* \"#utility.yul\":9590:9656   */\n      0xffffffffffffffffffffffffffffffffffffffffffffffffffffffffffffffff\n        /* \"#utility.yul\":9583:9588   */\n      dup3\n        /* \"#utility.yul\":9580:9657   */\n      sub\n        /* \"#utility.yul\":9577:9680   */\n      tag_331\n      jumpi\n        /* \"#utility.yul\":9660:9678   */\n      tag_332\n      tag_204\n      jump\t// in\n    tag_332:\n        /* \"#utility.yul\":9577:9680   */\n    tag_331:\n        /* \"#utility.yul\":9707:9708   */\n      0x01\n        /* \"#utility.yul\":9700:9705   */\n      dup3\n        /* \"#utility.yul\":9696:9709   */\n      add\n        /* \"#utility.yul\":9689:9709   */\n      swap1\n      pop\n        /* \"#utility.yul\":9482:9715   */\n      swap2\n      swap1\n      pop\n      jump\t// out\n        /* \"#utility.yul\":9721:9901   */\n    tag_142:\n        /* \"#utility.yul\":9769:9846   */\n      0x4e487b7100000000000000000000000000000000000000000000000000000000\n        /* \"#utility.yul\":9766:9767   */\n      0x00\n        /* \"#utility.yul\":9759:9847   */\n      mstore\n        /* \"#utility.yul\":9866:9870   */\n      0x41\n        /* \"#utility.yul\":9863:9864   */\n      0x04\n        /* \"#utility.yul\":9856:9871   */\n      mstore\n        /* \"#utility.yul\":9890:9894   */\n      0x24\n        /* \"#utility.yul\":9887:9888   */\n      0x00\n        /* \"#utility.yul\":9880:9895   */\n      revert\n        /* \"#utility.yul\":9907:10054   */\n    tag_209:\n        /* \"#utility.yul\":10008:10019   */\n      0x00\n        /* \"#utility.yul\":10045:10048   */\n      dup2\n        /* \"#utility.yul\":10030:10048   */\n      swap1\n      pop\n        /* \"#utility.yul\":9907:10054   */\n      swap3\n      swap2\n      pop\n      pop\n      jump\t// out\n        /* \"#utility.yul\":10060:10174   */\n    tag_210:\n      pop\n      jump\t// out\n        /* \"#utility.yul\":10180:10578   */\n    tag_211:\n        /* \"#utility.yul\":10339:10342   */\n      0x00\n        /* \"#utility.yul\":10360:10443   */\n      tag_337\n        /* \"#utility.yul\":10441:10442   */\n      0x00\n        /* \"#utility.yul\":10436:10439   */\n      dup4\n        /* \"#utility.yul\":10360:10443   */\n      tag_209\n      jump\t// in\n    tag_337:\n        /* \"#utility.yul\":10353:10443   */\n      swap2\n      pop\n        /* \"#utility.yul\":10452:10545   */\n      tag_338\n        /* \"#utility.yul\":10541:10544   */\n      dup3\n        /* \"#utility.yul\":10452:10545   */\n      tag_210\n      jump\t// in\n    tag_338:\n        /* \"#utility.yul\":10570:10571   */\n      0x00\n        /* \"#utility.yul\":10565:10568   */\n      dup3\n        /* \"#utility.yul\":10561:10572   */\n      add\n        /* \"#utility.yul\":10554:10572   */\n      swap1\n      pop\n        /* \"#utility.yul\":10180:10578   */\n      swap2\n      swap1\n      pop\n      jump\t// out\n        /* \"#utility.yul\":10584:10963   */\n    tag_147:\n        /* \"#utility.yul\":10768:10771   */\n      0x00\n        /* \"#utility.yul\":10790:10937   */\n      tag_340\n        /* \"#utility.yul\":10933:10936   */\n      dup3\n        /* \"#utility.yul\":10790:10937   */\n      tag_211\n      jump\t// in\n    tag_340:\n        /* \"#utility.yul\":10783:10937   */\n      swap2\n      pop\n        /* \"#utility.yul\":10954:10957   */\n      dup2\n        /* \"#utility.yul\":10947:10957   */\n      swap1\n      pop\n        /* \"#utility.yul\":10584:10963   */\n      swap2\n      swap1\n      pop\n      jump\t// out\n\n    auxdata: 0xa2646970667358221220e2373d2831d3f05c5b7d25bc1a382ac6bec645037fc7fb51f15e795bd3c735d264736f6c63430008130033\n}\n",
				"bytecode": {
					"linkReferences": {},
					"object": "60a060405260646005553480156200001657600080fd5b50600073d4a33860578de61dbabdc8bfdb98fd742fa7028e9050600073ab5c49580294aff77670f839ea425f5b78ab3ae79050600073a39434a63a52e749f02807ae27335515ba4b07f7905082600260006101000a81548173ffffffffffffffffffffffffffffffffffffffff021916908373ffffffffffffffffffffffffffffffffffffffff16021790555081600360006101000a81548173ffffffffffffffffffffffffffffffffffffffff021916908373ffffffffffffffffffffffffffffffffffffffff16021790555080600460006101000a81548173ffffffffffffffffffffffffffffffffffffffff021916908373ffffffffffffffffffffffffffffffffffffffff1602179055503373ffffffffffffffffffffffffffffffffffffffff1660808173ffffffffffffffffffffffffffffffffffffffff1681525050620001696200017860201b60201c565b600681905550505050620004fa565b600080600260009054906101000a900473ffffffffffffffffffffffffffffffffffffffff1673ffffffffffffffffffffffffffffffffffffffff1663feaf968c6040518163ffffffff1660e01b815260040160a060405180830381865afa158015620001e9573d6000803e3d6000fd5b505050506040513d601f19601f820116820180604052508101906200020f91906200030d565b50505091505060646005546402540be400836200022d9190620003c4565b62000239919062000448565b620002459190620004c2565b91505090565b600080fd5b600069ffffffffffffffffffff82169050919050565b620002718162000250565b81146200027d57600080fd5b50565b600081519050620002918162000266565b92915050565b6000819050919050565b620002ac8162000297565b8114620002b857600080fd5b50565b600081519050620002cc81620002a1565b92915050565b6000819050919050565b620002e781620002d2565b8114620002f357600080fd5b50565b6000815190506200030781620002dc565b92915050565b600080600080600060a086880312156200032c576200032b6200024b565b5b60006200033c8882890162000280565b95505060206200034f88828901620002bb565b94505060406200036288828901620002f6565b93505060606200037588828901620002f6565b9250506080620003888882890162000280565b9150509295509295909350565b7f4e487b7100000000000000000000000000000000000000000000000000000000600052601160045260246000fd5b6000620003d18262000297565b9150620003de8362000297565b9250828202620003ee8162000297565b91507f8000000000000000000000000000000000000000000000000000000000000000841460008412161562000429576200042862000395565b5b828205841483151762000441576200044062000395565b5b5092915050565b60006200045582620002d2565b91506200046283620002d2565b92508282026200047281620002d2565b915082820484148315176200048c576200048b62000395565b5b5092915050565b7f4e487b7100000000000000000000000000000000000000000000000000000000600052601260045260246000fd5b6000620004cf82620002d2565b9150620004dc83620002d2565b925082620004ef57620004ee62000493565b5b828204905092915050565b60805161135062000524600039600081816104db015281816107dc01526109d201526113506000f3fe6080604052600436106100dd5760003560e01c80639e87a5cd1161007f578063b60d428811610059578063b60d4288146102a0578063be2693f0146102aa578063d7b4750c146102c1578063dd22db80146102fe576100dd565b80639e87a5cd1461021f578063a607a8d91461024a578063ac70214c14610275576100dd565b80636b69a592116100bb5780636b69a5921461017557806370ba1113146101a05780637154b8b5146101cb578063893d20e8146101f4576100dd565b80630343fb25146100e25780630d8e6e2c1461011f5780634ad517bc1461014a575b600080fd5b3480156100ee57600080fd5b5061010960048036038101906101049190610d37565b610329565b6040516101169190610d7d565b60405180910390f35b34801561012b57600080fd5b50610134610372565b6040516101419190610d7d565b60405180910390f35b34801561015657600080fd5b5061015f61040a565b60405161016c9190610d7d565b60405180910390f35b34801561018157600080fd5b5061018a6104bb565b6040516101979190610d7d565b60405180910390f35b3480156101ac57600080fd5b506101b56104c7565b6040516101c29190610d7d565b60405180910390f35b3480156101d757600080fd5b506101f260048036038101906101ed9190610dc4565b6104cd565b005b34801561020057600080fd5b506102096104d7565b6040516102169190610e00565b60405180910390f35b34801561022b57600080fd5b506102346104ff565b6040516102419190610e7a565b60405180910390f35b34801561025657600080fd5b5061025f610529565b60405161026c9190610d7d565b60405180910390f35b34801561028157600080fd5b5061028a6105f3565b6040516102979190610eb0565b60405180910390f35b6102a86106a0565b005b3480156102b657600080fd5b506102bf6107da565b005b3480156102cd57600080fd5b506102e860048036038101906102e39190610dc4565b610a68565b6040516102f59190610e00565b60405180910390f35b34801561030a57600080fd5b50610313610aaf565b6040516103209190610d7d565b60405180910390f35b6000600160008373ffffffffffffffffffffffffffffffffffffffff1673ffffffffffffffffffffffffffffffffffffffff168152602001908152602001600020549050919050565b6000600260009054906101000a900473ffffffffffffffffffffffffffffffffffffffff1673ffffffffffffffffffffffffffffffffffffffff166354fd4d506040518163ffffffff1660e01b8152600401602060405180830381865afa1580156103e1573d6000803e3d6000fd5b505050506040513d601f19601f820116820180604052508101906104059190610ee0565b905090565b600080600360009054906101000a900473ffffffffffffffffffffffffffffffffffffffff1673ffffffffffffffffffffffffffffffffffffffff1663feaf968c6040518163ffffffff1660e01b815260040160a060405180830381865afa15801561047a573d6000803e3d6000fd5b505050506040513d601f19601f8201168201806040525081019061049e9190610f85565b5050509150506402540be400816104b5919061102f565b91505090565b678ac7230489e8000081565b60055481565b8060058190555050565b60007f0000000000000000000000000000000000000000000000000000000000000000905090565b6000600260009054906101000a900473ffffffffffffffffffffffffffffffffffffffff16905090565b600080600260009054906101000a900473ffffffffffffffffffffffffffffffffffffffff1673ffffffffffffffffffffffffffffffffffffffff1663feaf968c6040518163ffffffff1660e01b815260040160a060405180830381865afa158015610599573d6000803e3d6000fd5b505050506040513d601f19601f820116820180604052508101906105bd9190610f85565b50505091505060646005546402540be400836105d9919061102f565b6105e391906110a7565b6105ed9190611118565b91505090565b6000806105fe610529565b905060065481111561064f576064601460065461061b91906110a7565b6106259190611118565b600654826106339190611149565b111561064a5780600681905550600191505061069d565b610690565b6064601460065461066091906110a7565b61066a9190611118565b816006546106789190611149565b111561068f5780600681905550600191505061069d565b5b8060068190555060009150505b90565b678ac7230489e800006106de600260009054906101000a900473ffffffffffffffffffffffffffffffffffffffff1634610b6090919063ffffffff16565b101561071f576040517f08c379a0000000000000000000000000000000000000000000000000000000008152600401610716906111da565b60405180910390fd5b34600160003373ffffffffffffffffffffffffffffffffffffffff1673ffffffffffffffffffffffffffffffffffffffff168152602001908152602001600020600082825461076e91906111fa565b925050819055506000339080600181540180825580915050600190039060005260206000200160009091909190916101000a81548173ffffffffffffffffffffffffffffffffffffffff021916908373ffffffffffffffffffffffffffffffffffffffff160217905550565b7f000000000000000000000000000000000000000000000000000000000000000073ffffffffffffffffffffffffffffffffffffffff163373ffffffffffffffffffffffffffffffffffffffff161461085f576040517f579610db00000000000000000000000000000000000000000000000000000000815260040160405180910390fd5b6000808054806020026020016040519081016040528092919081815260200182805480156108e257602002820191906000526020600020905b8160009054906101000a900473ffffffffffffffffffffffffffffffffffffffff1673ffffffffffffffffffffffffffffffffffffffff1681526020019060010190808311610898575b5050505050905060005b815181101561096d57600082828151811061090a5761090961122e565b5b602002602001015190506000600160008373ffffffffffffffffffffffffffffffffffffffff1673ffffffffffffffffffffffffffffffffffffffff168152602001908152602001600020819055505080806109659061125d565b9150506108ec565b50600067ffffffffffffffff811115610989576109886112a5565b5b6040519080825280602002602001820160405280156109b75781602001602082028036833780820191505090505b50600090805190602001906109cd929190610c2d565b5060007f000000000000000000000000000000000000000000000000000000000000000073ffffffffffffffffffffffffffffffffffffffff1647604051610a1490611305565b60006040518083038185875af1925050503d8060008114610a51576040519150601f19603f3d011682016040523d82523d6000602084013e610a56565b606091505b5050905080610a6457600080fd5b5050565b6000808281548110610a7d57610a7c61122e565b5b9060005260206000200160009054906101000a900473ffffffffffffffffffffffffffffffffffffffff169050919050565b600080600460009054906101000a900473ffffffffffffffffffffffffffffffffffffffff1673ffffffffffffffffffffffffffffffffffffffff1663feaf968c6040518163ffffffff1660e01b815260040160a060405180830381865afa158015610b1f573d6000803e3d6000fd5b505050506040513d601f19601f82011682018060405250810190610b439190610f85565b5050509150506402540be40081610b5a919061102f565b91505090565b600080610b6c83610b9c565b90506000670de0b6b3a76400008583610b8591906110a7565b610b8f9190611118565b9050809250505092915050565b6000808273ffffffffffffffffffffffffffffffffffffffff1663feaf968c6040518163ffffffff1660e01b815260040160a060405180830381865afa158015610bea573d6000803e3d6000fd5b505050506040513d601f19601f82011682018060405250810190610c0e9190610f85565b5050509150506402540be40081610c25919061102f565b915050919050565b828054828255906000526020600020908101928215610ca6579160200282015b82811115610ca55782518260006101000a81548173ffffffffffffffffffffffffffffffffffffffff021916908373ffffffffffffffffffffffffffffffffffffffff16021790555091602001919060010190610c4d565b5b509050610cb39190610cb7565b5090565b5b80821115610cd0576000816000905550600101610cb8565b5090565b600080fd5b600073ffffffffffffffffffffffffffffffffffffffff82169050919050565b6000610d0482610cd9565b9050919050565b610d1481610cf9565b8114610d1f57600080fd5b50565b600081359050610d3181610d0b565b92915050565b600060208284031215610d4d57610d4c610cd4565b5b6000610d5b84828501610d22565b91505092915050565b6000819050919050565b610d7781610d64565b82525050565b6000602082019050610d926000830184610d6e565b92915050565b610da181610d64565b8114610dac57600080fd5b50565b600081359050610dbe81610d98565b92915050565b600060208284031215610dda57610dd9610cd4565b5b6000610de884828501610daf565b91505092915050565b610dfa81610cf9565b82525050565b6000602082019050610e156000830184610df1565b92915050565b6000819050919050565b6000610e40610e3b610e3684610cd9565b610e1b565b610cd9565b9050919050565b6000610e5282610e25565b9050919050565b6000610e6482610e47565b9050919050565b610e7481610e59565b82525050565b6000602082019050610e8f6000830184610e6b565b92915050565b60008115159050919050565b610eaa81610e95565b82525050565b6000602082019050610ec56000830184610ea1565b92915050565b600081519050610eda81610d98565b92915050565b600060208284031215610ef657610ef5610cd4565b5b6000610f0484828501610ecb565b91505092915050565b600069ffffffffffffffffffff82169050919050565b610f2c81610f0d565b8114610f3757600080fd5b50565b600081519050610f4981610f23565b92915050565b6000819050919050565b610f6281610f4f565b8114610f6d57600080fd5b50565b600081519050610f7f81610f59565b92915050565b600080600080600060a08688031215610fa157610fa0610cd4565b5b6000610faf88828901610f3a565b9550506020610fc088828901610f70565b9450506040610fd188828901610ecb565b9350506060610fe288828901610ecb565b9250506080610ff388828901610f3a565b9150509295509295909350565b7f4e487b7100000000000000000000000000000000000000000000000000000000600052601160045260246000fd5b600061103a82610f4f565b915061104583610f4f565b925082820261105381610f4f565b91507f8000000000000000000000000000000000000000000000000000000000000000841460008412161561108b5761108a611000565b5b82820584148315176110a05761109f611000565b5b5092915050565b60006110b282610d64565b91506110bd83610d64565b92508282026110cb81610d64565b915082820484148315176110e2576110e1611000565b5b5092915050565b7f4e487b7100000000000000000000000000000000000000000000000000000000600052601260045260246000fd5b600061112382610d64565b915061112e83610d64565b92508261113e5761113d6110e9565b5b828204905092915050565b600061115482610d64565b915061115f83610d64565b925082820390508181111561117757611176611000565b5b92915050565b600082825260208201905092915050565b7f596f75206e65656420746f207370656e64206d6f726520455448210000000000600082015250565b60006111c4601b8361117d565b91506111cf8261118e565b602082019050919050565b600060208201905081810360008301526111f3816111b7565b9050919050565b600061120582610d64565b915061121083610d64565b925082820190508082111561122857611227611000565b5b92915050565b7f4e487b7100000000000000000000000000000000000000000000000000000000600052603260045260246000fd5b600061126882610d64565b91507fffffffffffffffffffffffffffffffffffffffffffffffffffffffffffffffff820361129a57611299611000565b5b600182019050919050565b7f4e487b7100000000000000000000000000000000000000000000000000000000600052604160045260246000fd5b600081905092915050565b50565b60006112ef6000836112d4565b91506112fa826112df565b600082019050919050565b6000611310826112e2565b915081905091905056fea2646970667358221220e2373d2831d3f05c5b7d25bc1a382ac6bec645037fc7fb51f15e795bd3c735d264736f6c63430008130033",
					"opcodes": "PUSH1 0xA0 PUSH1 0x40 MSTORE PUSH1 0x64 PUSH1 0x5 SSTORE CALLVALUE DUP1 ISZERO PUSH3 0x16 JUMPI PUSH1 0x0 DUP1 REVERT JUMPDEST POP PUSH1 0x0 PUSH20 0xD4A33860578DE61DBABDC8BFDB98FD742FA7028E SWAP1 POP PUSH1 0x0 PUSH20 0xAB5C49580294AFF77670F839EA425F5B78AB3AE7 SWAP1 POP PUSH1 0x0 PUSH20 0xA39434A63A52E749F02807AE27335515BA4B07F7 SWAP1 POP DUP3 PUSH1 0x2 PUSH1 0x0 PUSH2 0x100 EXP DUP2 SLOAD DUP2 PUSH20 0xFFFFFFFFFFFFFFFFFFFFFFFFFFFFFFFFFFFFFFFF MUL NOT AND SWAP1 DUP4 PUSH20 0xFFFFFFFFFFFFFFFFFFFFFFFFFFFFFFFFFFFFFFFF AND MUL OR SWAP1 SSTORE POP DUP2 PUSH1 0x3 PUSH1 0x0 PUSH2 0x100 EXP DUP2 SLOAD DUP2 PUSH20 0xFFFFFFFFFFFFFFFFFFFFFFFFFFFFFFFFFFFFFFFF MUL NOT AND SWAP1 DUP4 PUSH20 0xFFFFFFFFFFFFFFFFFFFFFFFFFFFFFFFFFFFFFFFF AND MUL OR SWAP1 SSTORE POP DUP1 PUSH1 0x4 PUSH1 0x0 PUSH2 0x100 EXP DUP2 SLOAD DUP2 PUSH20 0xFFFFFFFFFFFFFFFFFFFFFFFFFFFFFFFFFFFFFFFF MUL NOT AND SWAP1 DUP4 PUSH20 0xFFFFFFFFFFFFFFFFFFFFFFFFFFFFFFFFFFFFFFFF AND MUL OR SWAP1 SSTORE POP CALLER PUSH20 0xFFFFFFFFFFFFFFFFFFFFFFFFFFFFFFFFFFFFFFFF AND PUSH1 0x80 DUP2 PUSH20 0xFFFFFFFFFFFFFFFFFFFFFFFFFFFFFFFFFFFFFFFF AND DUP2 MSTORE POP POP PUSH3 0x169 PUSH3 0x178 PUSH1 0x20 SHL PUSH1 0x20 SHR JUMP JUMPDEST PUSH1 0x6 DUP2 SWAP1 SSTORE POP POP POP POP PUSH3 0x4FA JUMP JUMPDEST PUSH1 0x0 DUP1 PUSH1 0x2 PUSH1 0x0 SWAP1 SLOAD SWAP1 PUSH2 0x100 EXP SWAP1 DIV PUSH20 0xFFFFFFFFFFFFFFFFFFFFFFFFFFFFFFFFFFFFFFFF AND PUSH20 0xFFFFFFFFFFFFFFFFFFFFFFFFFFFFFFFFFFFFFFFF AND PUSH4 0xFEAF968C PUSH1 0x40 MLOAD DUP2 PUSH4 0xFFFFFFFF AND PUSH1 0xE0 SHL DUP2 MSTORE PUSH1 0x4 ADD PUSH1 0xA0 PUSH1 0x40 MLOAD DUP1 DUP4 SUB DUP2 DUP7 GAS STATICCALL ISZERO DUP1 ISZERO PUSH3 0x1E9 JUMPI RETURNDATASIZE PUSH1 0x0 DUP1 RETURNDATACOPY RETURNDATASIZE PUSH1 0x0 REVERT JUMPDEST POP POP POP POP PUSH1 0x40 MLOAD RETURNDATASIZE PUSH1 0x1F NOT PUSH1 0x1F DUP3 ADD AND DUP3 ADD DUP1 PUSH1 0x40 MSTORE POP DUP2 ADD SWAP1 PUSH3 0x20F SWAP2 SWAP1 PUSH3 0x30D JUMP JUMPDEST POP POP POP SWAP2 POP POP PUSH1 0x64 PUSH1 0x5 SLOAD PUSH5 0x2540BE400 DUP4 PUSH3 0x22D SWAP2 SWAP1 PUSH3 0x3C4 JUMP JUMPDEST PUSH3 0x239 SWAP2 SWAP1 PUSH3 0x448 JUMP JUMPDEST PUSH3 0x245 SWAP2 SWAP1 PUSH3 0x4C2 JUMP JUMPDEST SWAP2 POP POP SWAP1 JUMP JUMPDEST PUSH1 0x0 DUP1 REVERT JUMPDEST PUSH1 0x0 PUSH10 0xFFFFFFFFFFFFFFFFFFFF DUP3 AND SWAP1 POP SWAP2 SWAP1 POP JUMP JUMPDEST PUSH3 0x271 DUP2 PUSH3 0x250 JUMP JUMPDEST DUP2 EQ PUSH3 0x27D JUMPI PUSH1 0x0 DUP1 REVERT JUMPDEST POP JUMP JUMPDEST PUSH1 0x0 DUP2 MLOAD SWAP1 POP PUSH3 0x291 DUP2 PUSH3 0x266 JUMP JUMPDEST SWAP3 SWAP2 POP POP JUMP JUMPDEST PUSH1 0x0 DUP2 SWAP1 POP SWAP2 SWAP1 POP JUMP JUMPDEST PUSH3 0x2AC DUP2 PUSH3 0x297 JUMP JUMPDEST DUP2 EQ PUSH3 0x2B8 JUMPI PUSH1 0x0 DUP1 REVERT JUMPDEST POP JUMP JUMPDEST PUSH1 0x0 DUP2 MLOAD SWAP1 POP PUSH3 0x2CC DUP2 PUSH3 0x2A1 JUMP JUMPDEST SWAP3 SWAP2 POP POP JUMP JUMPDEST PUSH1 0x0 DUP2 SWAP1 POP SWAP2 SWAP1 POP JUMP JUMPDEST PUSH3 0x2E7 DUP2 PUSH3 0x2D2 JUMP JUMPDEST DUP2 EQ PUSH3 0x2F3 JUMPI PUSH1 0x0 DUP1 REVERT JUMPDEST POP JUMP JUMPDEST PUSH1 0x0 DUP2 MLOAD SWAP1 POP PUSH3 0x307 DUP2 PUSH3 0x2DC JUMP JUMPDEST SWAP3 SWAP2 POP POP JUMP JUMPDEST PUSH1 0x0 DUP1 PUSH1 0x0 DUP1 PUSH1 0x0 PUSH1 0xA0 DUP7 DUP9 SUB SLT ISZERO PUSH3 0x32C JUMPI PUSH3 0x32B PUSH3 0x24B JUMP JUMPDEST JUMPDEST PUSH1 0x0 PUSH3 0x33C DUP9 DUP3 DUP10 ADD PUSH3 0x280 JUMP JUMPDEST SWAP6 POP POP PUSH1 0x20 PUSH3 0x34F DUP9 DUP3 DUP10 ADD PUSH3 0x2BB JUMP JUMPDEST SWAP5 POP POP PUSH1 0x40 PUSH3 0x362 DUP9 DUP3 DUP10 ADD PUSH3 0x2F6 JUMP JUMPDEST SWAP4 POP POP PUSH1 0x60 PUSH3 0x375 DUP9 DUP3 DUP10 ADD PUSH3 0x2F6 JUMP JUMPDEST SWAP3 POP POP PUSH1 0x80 PUSH3 0x388 DUP9 DUP3 DUP10 ADD PUSH3 0x280 JUMP JUMPDEST SWAP2 POP POP SWAP3 SWAP6 POP SWAP3 SWAP6 SWAP1 SWAP4 POP JUMP JUMPDEST PUSH32 0x4E487B7100000000000000000000000000000000000000000000000000000000 PUSH1 0x0 MSTORE PUSH1 0x11 PUSH1 0x4 MSTORE PUSH1 0x24 PUSH1 0x0 REVERT JUMPDEST PUSH1 0x0 PUSH3 0x3D1 DUP3 PUSH3 0x297 JUMP JUMPDEST SWAP2 POP PUSH3 0x3DE DUP4 PUSH3 0x297 JUMP JUMPDEST SWAP3 POP DUP3 DUP3 MUL PUSH3 0x3EE DUP2 PUSH3 0x297 JUMP JUMPDEST SWAP2 POP PUSH32 0x8000000000000000000000000000000000000000000000000000000000000000 DUP5 EQ PUSH1 0x0 DUP5 SLT AND ISZERO PUSH3 0x429 JUMPI PUSH3 0x428 PUSH3 0x395 JUMP JUMPDEST JUMPDEST DUP3 DUP3 SDIV DUP5 EQ DUP4 ISZERO OR PUSH3 0x441 JUMPI PUSH3 0x440 PUSH3 0x395 JUMP JUMPDEST JUMPDEST POP SWAP3 SWAP2 POP POP JUMP JUMPDEST PUSH1 0x0 PUSH3 0x455 DUP3 PUSH3 0x2D2 JUMP JUMPDEST SWAP2 POP PUSH3 0x462 DUP4 PUSH3 0x2D2 JUMP JUMPDEST SWAP3 POP DUP3 DUP3 MUL PUSH3 0x472 DUP2 PUSH3 0x2D2 JUMP JUMPDEST SWAP2 POP DUP3 DUP3 DIV DUP5 EQ DUP4 ISZERO OR PUSH3 0x48C JUMPI PUSH3 0x48B PUSH3 0x395 JUMP JUMPDEST JUMPDEST POP SWAP3 SWAP2 POP POP JUMP JUMPDEST PUSH32 0x4E487B7100000000000000000000000000000000000000000000000000000000 PUSH1 0x0 MSTORE PUSH1 0x12 PUSH1 0x4 MSTORE PUSH1 0x24 PUSH1 0x0 REVERT JUMPDEST PUSH1 0x0 PUSH3 0x4CF DUP3 PUSH3 0x2D2 JUMP JUMPDEST SWAP2 POP PUSH3 0x4DC DUP4 PUSH3 0x2D2 JUMP JUMPDEST SWAP3 POP DUP3 PUSH3 0x4EF JUMPI PUSH3 0x4EE PUSH3 0x493 JUMP JUMPDEST JUMPDEST DUP3 DUP3 DIV SWAP1 POP SWAP3 SWAP2 POP POP JUMP JUMPDEST PUSH1 0x80 MLOAD PUSH2 0x1350 PUSH3 0x524 PUSH1 0x0 CODECOPY PUSH1 0x0 DUP2 DUP2 PUSH2 0x4DB ADD MSTORE DUP2 DUP2 PUSH2 0x7DC ADD MSTORE PUSH2 0x9D2 ADD MSTORE PUSH2 0x1350 PUSH1 0x0 RETURN INVALID PUSH1 0x80 PUSH1 0x40 MSTORE PUSH1 0x4 CALLDATASIZE LT PUSH2 0xDD JUMPI PUSH1 0x0 CALLDATALOAD PUSH1 0xE0 SHR DUP1 PUSH4 0x9E87A5CD GT PUSH2 0x7F JUMPI DUP1 PUSH4 0xB60D4288 GT PUSH2 0x59 JUMPI DUP1 PUSH4 0xB60D4288 EQ PUSH2 0x2A0 JUMPI DUP1 PUSH4 0xBE2693F0 EQ PUSH2 0x2AA JUMPI DUP1 PUSH4 0xD7B4750C EQ PUSH2 0x2C1 JUMPI DUP1 PUSH4 0xDD22DB80 EQ PUSH2 0x2FE JUMPI PUSH2 0xDD JUMP JUMPDEST DUP1 PUSH4 0x9E87A5CD EQ PUSH2 0x21F JUMPI DUP1 PUSH4 0xA607A8D9 EQ PUSH2 0x24A JUMPI DUP1 PUSH4 0xAC70214C EQ PUSH2 0x275 JUMPI PUSH2 0xDD JUMP JUMPDEST DUP1 PUSH4 0x6B69A592 GT PUSH2 0xBB JUMPI DUP1 PUSH4 0x6B69A592 EQ PUSH2 0x175 JUMPI DUP1 PUSH4 0x70BA1113 EQ PUSH2 0x1A0 JUMPI DUP1 PUSH4 0x7154B8B5 EQ PUSH2 0x1CB JUMPI DUP1 PUSH4 0x893D20E8 EQ PUSH2 0x1F4 JUMPI PUSH2 0xDD JUMP JUMPDEST DUP1 PUSH4 0x343FB25 EQ PUSH2 0xE2 JUMPI DUP1 PUSH4 0xD8E6E2C EQ PUSH2 0x11F JUMPI DUP1 PUSH4 0x4AD517BC EQ PUSH2 0x14A JUMPI JUMPDEST PUSH1 0x0 DUP1 REVERT JUMPDEST CALLVALUE DUP1 ISZERO PUSH2 0xEE JUMPI PUSH1 0x0 DUP1 REVERT JUMPDEST POP PUSH2 0x109 PUSH1 0x4 DUP1 CALLDATASIZE SUB DUP2 ADD SWAP1 PUSH2 0x104 SWAP2 SWAP1 PUSH2 0xD37 JUMP JUMPDEST PUSH2 0x329 JUMP JUMPDEST PUSH1 0x40 MLOAD PUSH2 0x116 SWAP2 SWAP1 PUSH2 0xD7D JUMP JUMPDEST PUSH1 0x40 MLOAD DUP1 SWAP2 SUB SWAP1 RETURN JUMPDEST CALLVALUE DUP1 ISZERO PUSH2 0x12B JUMPI PUSH1 0x0 DUP1 REVERT JUMPDEST POP PUSH2 0x134 PUSH2 0x372 JUMP JUMPDEST PUSH1 0x40 MLOAD PUSH2 0x141 SWAP2 SWAP1 PUSH2 0xD7D JUMP JUMPDEST PUSH1 0x40 MLOAD DUP1 SWAP2 SUB SWAP1 RETURN JUMPDEST CALLVALUE DUP1 ISZERO PUSH2 0x156 JUMPI PUSH1 0x0 DUP1 REVERT JUMPDEST POP PUSH2 0x15F PUSH2 0x40A JUMP JUMPDEST PUSH1 0x40 MLOAD PUSH2 0x16C SWAP2 SWAP1 PUSH2 0xD7D JUMP JUMPDEST PUSH1 0x40 MLOAD DUP1 SWAP2 SUB SWAP1 RETURN JUMPDEST CALLVALUE DUP1 ISZERO PUSH2 0x181 JUMPI PUSH1 0x0 DUP1 REVERT JUMPDEST POP PUSH2 0x18A PUSH2 0x4BB JUMP JUMPDEST PUSH1 0x40 MLOAD PUSH2 0x197 SWAP2 SWAP1 PUSH2 0xD7D JUMP JUMPDEST PUSH1 0x40 MLOAD DUP1 SWAP2 SUB SWAP1 RETURN JUMPDEST CALLVALUE DUP1 ISZERO PUSH2 0x1AC JUMPI PUSH1 0x0 DUP1 REVERT JUMPDEST POP PUSH2 0x1B5 PUSH2 0x4C7 JUMP JUMPDEST PUSH1 0x40 MLOAD PUSH2 0x1C2 SWAP2 SWAP1 PUSH2 0xD7D JUMP JUMPDEST PUSH1 0x40 MLOAD DUP1 SWAP2 SUB SWAP1 RETURN JUMPDEST CALLVALUE DUP1 ISZERO PUSH2 0x1D7 JUMPI PUSH1 0x0 DUP1 REVERT JUMPDEST POP PUSH2 0x1F2 PUSH1 0x4 DUP1 CALLDATASIZE SUB DUP2 ADD SWAP1 PUSH2 0x1ED SWAP2 SWAP1 PUSH2 0xDC4 JUMP JUMPDEST PUSH2 0x4CD JUMP JUMPDEST STOP JUMPDEST CALLVALUE DUP1 ISZERO PUSH2 0x200 JUMPI PUSH1 0x0 DUP1 REVERT JUMPDEST POP PUSH2 0x209 PUSH2 0x4D7 JUMP JUMPDEST PUSH1 0x40 MLOAD PUSH2 0x216 SWAP2 SWAP1 PUSH2 0xE00 JUMP JUMPDEST PUSH1 0x40 MLOAD DUP1 SWAP2 SUB SWAP1 RETURN JUMPDEST CALLVALUE DUP1 ISZERO PUSH2 0x22B JUMPI PUSH1 0x0 DUP1 REVERT JUMPDEST POP PUSH2 0x234 PUSH2 0x4FF JUMP JUMPDEST PUSH1 0x40 MLOAD PUSH2 0x241 SWAP2 SWAP1 PUSH2 0xE7A JUMP JUMPDEST PUSH1 0x40 MLOAD DUP1 SWAP2 SUB SWAP1 RETURN JUMPDEST CALLVALUE DUP1 ISZERO PUSH2 0x256 JUMPI PUSH1 0x0 DUP1 REVERT JUMPDEST POP PUSH2 0x25F PUSH2 0x529 JUMP JUMPDEST PUSH1 0x40 MLOAD PUSH2 0x26C SWAP2 SWAP1 PUSH2 0xD7D JUMP JUMPDEST PUSH1 0x40 MLOAD DUP1 SWAP2 SUB SWAP1 RETURN JUMPDEST CALLVALUE DUP1 ISZERO PUSH2 0x281 JUMPI PUSH1 0x0 DUP1 REVERT JUMPDEST POP PUSH2 0x28A PUSH2 0x5F3 JUMP JUMPDEST PUSH1 0x40 MLOAD PUSH2 0x297 SWAP2 SWAP1 PUSH2 0xEB0 JUMP JUMPDEST PUSH1 0x40 MLOAD DUP1 SWAP2 SUB SWAP1 RETURN JUMPDEST PUSH2 0x2A8 PUSH2 0x6A0 JUMP JUMPDEST STOP JUMPDEST CALLVALUE DUP1 ISZERO PUSH2 0x2B6 JUMPI PUSH1 0x0 DUP1 REVERT JUMPDEST POP PUSH2 0x2BF PUSH2 0x7DA JUMP JUMPDEST STOP JUMPDEST CALLVALUE DUP1 ISZERO PUSH2 0x2CD JUMPI PUSH1 0x0 DUP1 REVERT JUMPDEST POP PUSH2 0x2E8 PUSH1 0x4 DUP1 CALLDATASIZE SUB DUP2 ADD SWAP1 PUSH2 0x2E3 SWAP2 SWAP1 PUSH2 0xDC4 JUMP JUMPDEST PUSH2 0xA68 JUMP JUMPDEST PUSH1 0x40 MLOAD PUSH2 0x2F5 SWAP2 SWAP1 PUSH2 0xE00 JUMP JUMPDEST PUSH1 0x40 MLOAD DUP1 SWAP2 SUB SWAP1 RETURN JUMPDEST CALLVALUE DUP1 ISZERO PUSH2 0x30A JUMPI PUSH1 0x0 DUP1 REVERT JUMPDEST POP PUSH2 0x313 PUSH2 0xAAF JUMP JUMPDEST PUSH1 0x40 MLOAD PUSH2 0x320 SWAP2 SWAP1 PUSH2 0xD7D JUMP JUMPDEST PUSH1 0x40 MLOAD DUP1 SWAP2 SUB SWAP1 RETURN JUMPDEST PUSH1 0x0 PUSH1 0x1 PUSH1 0x0 DUP4 PUSH20 0xFFFFFFFFFFFFFFFFFFFFFFFFFFFFFFFFFFFFFFFF AND PUSH20 0xFFFFFFFFFFFFFFFFFFFFFFFFFFFFFFFFFFFFFFFF AND DUP2 MSTORE PUSH1 0x20 ADD SWAP1 DUP2 MSTORE PUSH1 0x20 ADD PUSH1 0x0 KECCAK256 SLOAD SWAP1 POP SWAP2 SWAP1 POP JUMP JUMPDEST PUSH1 0x0 PUSH1 0x2 PUSH1 0x0 SWAP1 SLOAD SWAP1 PUSH2 0x100 EXP SWAP1 DIV PUSH20 0xFFFFFFFFFFFFFFFFFFFFFFFFFFFFFFFFFFFFFFFF AND PUSH20 0xFFFFFFFFFFFFFFFFFFFFFFFFFFFFFFFFFFFFFFFF AND PUSH4 0x54FD4D50 PUSH1 0x40 MLOAD DUP2 PUSH4 0xFFFFFFFF AND PUSH1 0xE0 SHL DUP2 MSTORE PUSH1 0x4 ADD PUSH1 0x20 PUSH1 0x40 MLOAD DUP1 DUP4 SUB DUP2 DUP7 GAS STATICCALL ISZERO DUP1 ISZERO PUSH2 0x3E1 JUMPI RETURNDATASIZE PUSH1 0x0 DUP1 RETURNDATACOPY RETURNDATASIZE PUSH1 0x0 REVERT JUMPDEST POP POP POP POP PUSH1 0x40 MLOAD RETURNDATASIZE PUSH1 0x1F NOT PUSH1 0x1F DUP3 ADD AND DUP3 ADD DUP1 PUSH1 0x40 MSTORE POP DUP2 ADD SWAP1 PUSH2 0x405 SWAP2 SWAP1 PUSH2 0xEE0 JUMP JUMPDEST SWAP1 POP SWAP1 JUMP JUMPDEST PUSH1 0x0 DUP1 PUSH1 0x3 PUSH1 0x0 SWAP1 SLOAD SWAP1 PUSH2 0x100 EXP SWAP1 DIV PUSH20 0xFFFFFFFFFFFFFFFFFFFFFFFFFFFFFFFFFFFFFFFF AND PUSH20 0xFFFFFFFFFFFFFFFFFFFFFFFFFFFFFFFFFFFFFFFF AND PUSH4 0xFEAF968C PUSH1 0x40 MLOAD DUP2 PUSH4 0xFFFFFFFF AND PUSH1 0xE0 SHL DUP2 MSTORE PUSH1 0x4 ADD PUSH1 0xA0 PUSH1 0x40 MLOAD DUP1 DUP4 SUB DUP2 DUP7 GAS STATICCALL ISZERO DUP1 ISZERO PUSH2 0x47A JUMPI RETURNDATASIZE PUSH1 0x0 DUP1 RETURNDATACOPY RETURNDATASIZE PUSH1 0x0 REVERT JUMPDEST POP POP POP POP PUSH1 0x40 MLOAD RETURNDATASIZE PUSH1 0x1F NOT PUSH1 0x1F DUP3 ADD AND DUP3 ADD DUP1 PUSH1 0x40 MSTORE POP DUP2 ADD SWAP1 PUSH2 0x49E SWAP2 SWAP1 PUSH2 0xF85 JUMP JUMPDEST POP POP POP SWAP2 POP POP PUSH5 0x2540BE400 DUP2 PUSH2 0x4B5 SWAP2 SWAP1 PUSH2 0x102F JUMP JUMPDEST SWAP2 POP POP SWAP1 JUMP JUMPDEST PUSH8 0x8AC7230489E80000 DUP2 JUMP JUMPDEST PUSH1 0x5 SLOAD DUP2 JUMP JUMPDEST DUP1 PUSH1 0x5 DUP2 SWAP1 SSTORE POP POP JUMP JUMPDEST PUSH1 0x0 PUSH32 0x0 SWAP1 POP SWAP1 JUMP JUMPDEST PUSH1 0x0 PUSH1 0x2 PUSH1 0x0 SWAP1 SLOAD SWAP1 PUSH2 0x100 EXP SWAP1 DIV PUSH20 0xFFFFFFFFFFFFFFFFFFFFFFFFFFFFFFFFFFFFFFFF AND SWAP1 POP SWAP1 JUMP JUMPDEST PUSH1 0x0 DUP1 PUSH1 0x2 PUSH1 0x0 SWAP1 SLOAD SWAP1 PUSH2 0x100 EXP SWAP1 DIV PUSH20 0xFFFFFFFFFFFFFFFFFFFFFFFFFFFFFFFFFFFFFFFF AND PUSH20 0xFFFFFFFFFFFFFFFFFFFFFFFFFFFFFFFFFFFFFFFF AND PUSH4 0xFEAF968C PUSH1 0x40 MLOAD DUP2 PUSH4 0xFFFFFFFF AND PUSH1 0xE0 SHL DUP2 MSTORE PUSH1 0x4 ADD PUSH1 0xA0 PUSH1 0x40 MLOAD DUP1 DUP4 SUB DUP2 DUP7 GAS STATICCALL ISZERO DUP1 ISZERO PUSH2 0x599 JUMPI RETURNDATASIZE PUSH1 0x0 DUP1 RETURNDATACOPY RETURNDATASIZE PUSH1 0x0 REVERT JUMPDEST POP POP POP POP PUSH1 0x40 MLOAD RETURNDATASIZE PUSH1 0x1F NOT PUSH1 0x1F DUP3 ADD AND DUP3 ADD DUP1 PUSH1 0x40 MSTORE POP DUP2 ADD SWAP1 PUSH2 0x5BD SWAP2 SWAP1 PUSH2 0xF85 JUMP JUMPDEST POP POP POP SWAP2 POP POP PUSH1 0x64 PUSH1 0x5 SLOAD PUSH5 0x2540BE400 DUP4 PUSH2 0x5D9 SWAP2 SWAP1 PUSH2 0x102F JUMP JUMPDEST PUSH2 0x5E3 SWAP2 SWAP1 PUSH2 0x10A7 JUMP JUMPDEST PUSH2 0x5ED SWAP2 SWAP1 PUSH2 0x1118 JUMP JUMPDEST SWAP2 POP POP SWAP1 JUMP JUMPDEST PUSH1 0x0 DUP1 PUSH2 0x5FE PUSH2 0x529 JUMP JUMPDEST SWAP1 POP PUSH1 0x6 SLOAD DUP2 GT ISZERO PUSH2 0x64F JUMPI PUSH1 0x64 PUSH1 0x14 PUSH1 0x6 SLOAD PUSH2 0x61B SWAP2 SWAP1 PUSH2 0x10A7 JUMP JUMPDEST PUSH2 0x625 SWAP2 SWAP1 PUSH2 0x1118 JUMP JUMPDEST PUSH1 0x6 SLOAD DUP3 PUSH2 0x633 SWAP2 SWAP1 PUSH2 0x1149 JUMP JUMPDEST GT ISZERO PUSH2 0x64A JUMPI DUP1 PUSH1 0x6 DUP2 SWAP1 SSTORE POP PUSH1 0x1 SWAP2 POP POP PUSH2 0x69D JUMP JUMPDEST PUSH2 0x690 JUMP JUMPDEST PUSH1 0x64 PUSH1 0x14 PUSH1 0x6 SLOAD PUSH2 0x660 SWAP2 SWAP1 PUSH2 0x10A7 JUMP JUMPDEST PUSH2 0x66A SWAP2 SWAP1 PUSH2 0x1118 JUMP JUMPDEST DUP2 PUSH1 0x6 SLOAD PUSH2 0x678 SWAP2 SWAP1 PUSH2 0x1149 JUMP JUMPDEST GT ISZERO PUSH2 0x68F JUMPI DUP1 PUSH1 0x6 DUP2 SWAP1 SSTORE POP PUSH1 0x1 SWAP2 POP POP PUSH2 0x69D JUMP JUMPDEST JUMPDEST DUP1 PUSH1 0x6 DUP2 SWAP1 SSTORE POP PUSH1 0x0 SWAP2 POP POP JUMPDEST SWAP1 JUMP JUMPDEST PUSH8 0x8AC7230489E80000 PUSH2 0x6DE PUSH1 0x2 PUSH1 0x0 SWAP1 SLOAD SWAP1 PUSH2 0x100 EXP SWAP1 DIV PUSH20 0xFFFFFFFFFFFFFFFFFFFFFFFFFFFFFFFFFFFFFFFF AND CALLVALUE PUSH2 0xB60 SWAP1 SWAP2 SWAP1 PUSH4 0xFFFFFFFF AND JUMP JUMPDEST LT ISZERO PUSH2 0x71F JUMPI PUSH1 0x40 MLOAD PUSH32 0x8C379A000000000000000000000000000000000000000000000000000000000 DUP2 MSTORE PUSH1 0x4 ADD PUSH2 0x716 SWAP1 PUSH2 0x11DA JUMP JUMPDEST PUSH1 0x40 MLOAD DUP1 SWAP2 SUB SWAP1 REVERT JUMPDEST CALLVALUE PUSH1 0x1 PUSH1 0x0 CALLER PUSH20 0xFFFFFFFFFFFFFFFFFFFFFFFFFFFFFFFFFFFFFFFF AND PUSH20 0xFFFFFFFFFFFFFFFFFFFFFFFFFFFFFFFFFFFFFFFF AND DUP2 MSTORE PUSH1 0x20 ADD SWAP1 DUP2 MSTORE PUSH1 0x20 ADD PUSH1 0x0 KECCAK256 PUSH1 0x0 DUP3 DUP3 SLOAD PUSH2 0x76E SWAP2 SWAP1 PUSH2 0x11FA JUMP JUMPDEST SWAP3 POP POP DUP2 SWAP1 SSTORE POP PUSH1 0x0 CALLER SWAP1 DUP1 PUSH1 0x1 DUP2 SLOAD ADD DUP1 DUP3 SSTORE DUP1 SWAP2 POP POP PUSH1 0x1 SWAP1 SUB SWAP1 PUSH1 0x0 MSTORE PUSH1 0x20 PUSH1 0x0 KECCAK256 ADD PUSH1 0x0 SWAP1 SWAP2 SWAP1 SWAP2 SWAP1 SWAP2 PUSH2 0x100 EXP DUP2 SLOAD DUP2 PUSH20 0xFFFFFFFFFFFFFFFFFFFFFFFFFFFFFFFFFFFFFFFF MUL NOT AND SWAP1 DUP4 PUSH20 0xFFFFFFFFFFFFFFFFFFFFFFFFFFFFFFFFFFFFFFFF AND MUL OR SWAP1 SSTORE POP JUMP JUMPDEST PUSH32 0x0 PUSH20 0xFFFFFFFFFFFFFFFFFFFFFFFFFFFFFFFFFFFFFFFF AND CALLER PUSH20 0xFFFFFFFFFFFFFFFFFFFFFFFFFFFFFFFFFFFFFFFF AND EQ PUSH2 0x85F JUMPI PUSH1 0x40 MLOAD PUSH32 0x579610DB00000000000000000000000000000000000000000000000000000000 DUP2 MSTORE PUSH1 0x4 ADD PUSH1 0x40 MLOAD DUP1 SWAP2 SUB SWAP1 REVERT JUMPDEST PUSH1 0x0 DUP1 DUP1 SLOAD DUP1 PUSH1 0x20 MUL PUSH1 0x20 ADD PUSH1 0x40 MLOAD SWAP1 DUP2 ADD PUSH1 0x40 MSTORE DUP1 SWAP3 SWAP2 SWAP1 DUP2 DUP2 MSTORE PUSH1 0x20 ADD DUP3 DUP1 SLOAD DUP1 ISZERO PUSH2 0x8E2 JUMPI PUSH1 0x20 MUL DUP3 ADD SWAP2 SWAP1 PUSH1 0x0 MSTORE PUSH1 0x20 PUSH1 0x0 KECCAK256 SWAP1 JUMPDEST DUP2 PUSH1 0x0 SWAP1 SLOAD SWAP1 PUSH2 0x100 EXP SWAP1 DIV PUSH20 0xFFFFFFFFFFFFFFFFFFFFFFFFFFFFFFFFFFFFFFFF AND PUSH20 0xFFFFFFFFFFFFFFFFFFFFFFFFFFFFFFFFFFFFFFFF AND DUP2 MSTORE PUSH1 0x20 ADD SWAP1 PUSH1 0x1 ADD SWAP1 DUP1 DUP4 GT PUSH2 0x898 JUMPI JUMPDEST POP POP POP POP POP SWAP1 POP PUSH1 0x0 JUMPDEST DUP2 MLOAD DUP2 LT ISZERO PUSH2 0x96D JUMPI PUSH1 0x0 DUP3 DUP3 DUP2 MLOAD DUP2 LT PUSH2 0x90A JUMPI PUSH2 0x909 PUSH2 0x122E JUMP JUMPDEST JUMPDEST PUSH1 0x20 MUL PUSH1 0x20 ADD ADD MLOAD SWAP1 POP PUSH1 0x0 PUSH1 0x1 PUSH1 0x0 DUP4 PUSH20 0xFFFFFFFFFFFFFFFFFFFFFFFFFFFFFFFFFFFFFFFF AND PUSH20 0xFFFFFFFFFFFFFFFFFFFFFFFFFFFFFFFFFFFFFFFF AND DUP2 MSTORE PUSH1 0x20 ADD SWAP1 DUP2 MSTORE PUSH1 0x20 ADD PUSH1 0x0 KECCAK256 DUP2 SWAP1 SSTORE POP POP DUP1 DUP1 PUSH2 0x965 SWAP1 PUSH2 0x125D JUMP JUMPDEST SWAP2 POP POP PUSH2 0x8EC JUMP JUMPDEST POP PUSH1 0x0 PUSH8 0xFFFFFFFFFFFFFFFF DUP2 GT ISZERO PUSH2 0x989 JUMPI PUSH2 0x988 PUSH2 0x12A5 JUMP JUMPDEST JUMPDEST PUSH1 0x40 MLOAD SWAP1 DUP1 DUP3 MSTORE DUP1 PUSH1 0x20 MUL PUSH1 0x20 ADD DUP3 ADD PUSH1 0x40 MSTORE DUP1 ISZERO PUSH2 0x9B7 JUMPI DUP2 PUSH1 0x20 ADD PUSH1 0x20 DUP3 MUL DUP1 CALLDATASIZE DUP4 CALLDATACOPY DUP1 DUP3 ADD SWAP2 POP POP SWAP1 POP JUMPDEST POP PUSH1 0x0 SWAP1 DUP1 MLOAD SWAP1 PUSH1 0x20 ADD SWAP1 PUSH2 0x9CD SWAP3 SWAP2 SWAP1 PUSH2 0xC2D JUMP JUMPDEST POP PUSH1 0x0 PUSH32 0x0 PUSH20 0xFFFFFFFFFFFFFFFFFFFFFFFFFFFFFFFFFFFFFFFF AND SELFBALANCE PUSH1 0x40 MLOAD PUSH2 0xA14 SWAP1 PUSH2 0x1305 JUMP JUMPDEST PUSH1 0x0 PUSH1 0x40 MLOAD DUP1 DUP4 SUB DUP2 DUP6 DUP8 GAS CALL SWAP3 POP POP POP RETURNDATASIZE DUP1 PUSH1 0x0 DUP2 EQ PUSH2 0xA51 JUMPI PUSH1 0x40 MLOAD SWAP2 POP PUSH1 0x1F NOT PUSH1 0x3F RETURNDATASIZE ADD AND DUP3 ADD PUSH1 0x40 MSTORE RETURNDATASIZE DUP3 MSTORE RETURNDATASIZE PUSH1 0x0 PUSH1 0x20 DUP5 ADD RETURNDATACOPY PUSH2 0xA56 JUMP JUMPDEST PUSH1 0x60 SWAP2 POP JUMPDEST POP POP SWAP1 POP DUP1 PUSH2 0xA64 JUMPI PUSH1 0x0 DUP1 REVERT JUMPDEST POP POP JUMP JUMPDEST PUSH1 0x0 DUP1 DUP3 DUP2 SLOAD DUP2 LT PUSH2 0xA7D JUMPI PUSH2 0xA7C PUSH2 0x122E JUMP JUMPDEST JUMPDEST SWAP1 PUSH1 0x0 MSTORE PUSH1 0x20 PUSH1 0x0 KECCAK256 ADD PUSH1 0x0 SWAP1 SLOAD SWAP1 PUSH2 0x100 EXP SWAP1 DIV PUSH20 0xFFFFFFFFFFFFFFFFFFFFFFFFFFFFFFFFFFFFFFFF AND SWAP1 POP SWAP2 SWAP1 POP JUMP JUMPDEST PUSH1 0x0 DUP1 PUSH1 0x4 PUSH1 0x0 SWAP1 SLOAD SWAP1 PUSH2 0x100 EXP SWAP1 DIV PUSH20 0xFFFFFFFFFFFFFFFFFFFFFFFFFFFFFFFFFFFFFFFF AND PUSH20 0xFFFFFFFFFFFFFFFFFFFFFFFFFFFFFFFFFFFFFFFF AND PUSH4 0xFEAF968C PUSH1 0x40 MLOAD DUP2 PUSH4 0xFFFFFFFF AND PUSH1 0xE0 SHL DUP2 MSTORE PUSH1 0x4 ADD PUSH1 0xA0 PUSH1 0x40 MLOAD DUP1 DUP4 SUB DUP2 DUP7 GAS STATICCALL ISZERO DUP1 ISZERO PUSH2 0xB1F JUMPI RETURNDATASIZE PUSH1 0x0 DUP1 RETURNDATACOPY RETURNDATASIZE PUSH1 0x0 REVERT JUMPDEST POP POP POP POP PUSH1 0x40 MLOAD RETURNDATASIZE PUSH1 0x1F NOT PUSH1 0x1F DUP3 ADD AND DUP3 ADD DUP1 PUSH1 0x40 MSTORE POP DUP2 ADD SWAP1 PUSH2 0xB43 SWAP2 SWAP1 PUSH2 0xF85 JUMP JUMPDEST POP POP POP SWAP2 POP POP PUSH5 0x2540BE400 DUP2 PUSH2 0xB5A SWAP2 SWAP1 PUSH2 0x102F JUMP JUMPDEST SWAP2 POP POP SWAP1 JUMP JUMPDEST PUSH1 0x0 DUP1 PUSH2 0xB6C DUP4 PUSH2 0xB9C JUMP JUMPDEST SWAP1 POP PUSH1 0x0 PUSH8 0xDE0B6B3A7640000 DUP6 DUP4 PUSH2 0xB85 SWAP2 SWAP1 PUSH2 0x10A7 JUMP JUMPDEST PUSH2 0xB8F SWAP2 SWAP1 PUSH2 0x1118 JUMP JUMPDEST SWAP1 POP DUP1 SWAP3 POP POP POP SWAP3 SWAP2 POP POP JUMP JUMPDEST PUSH1 0x0 DUP1 DUP3 PUSH20 0xFFFFFFFFFFFFFFFFFFFFFFFFFFFFFFFFFFFFFFFF AND PUSH4 0xFEAF968C PUSH1 0x40 MLOAD DUP2 PUSH4 0xFFFFFFFF AND PUSH1 0xE0 SHL DUP2 MSTORE PUSH1 0x4 ADD PUSH1 0xA0 PUSH1 0x40 MLOAD DUP1 DUP4 SUB DUP2 DUP7 GAS STATICCALL ISZERO DUP1 ISZERO PUSH2 0xBEA JUMPI RETURNDATASIZE PUSH1 0x0 DUP1 RETURNDATACOPY RETURNDATASIZE PUSH1 0x0 REVERT JUMPDEST POP POP POP POP PUSH1 0x40 MLOAD RETURNDATASIZE PUSH1 0x1F NOT PUSH1 0x1F DUP3 ADD AND DUP3 ADD DUP1 PUSH1 0x40 MSTORE POP DUP2 ADD SWAP1 PUSH2 0xC0E SWAP2 SWAP1 PUSH2 0xF85 JUMP JUMPDEST POP POP POP SWAP2 POP POP PUSH5 0x2540BE400 DUP2 PUSH2 0xC25 SWAP2 SWAP1 PUSH2 0x102F JUMP JUMPDEST SWAP2 POP POP SWAP2 SWAP1 POP JUMP JUMPDEST DUP3 DUP1 SLOAD DUP3 DUP3 SSTORE SWAP1 PUSH1 0x0 MSTORE PUSH1 0x20 PUSH1 0x0 KECCAK256 SWAP1 DUP2 ADD SWAP3 DUP3 ISZERO PUSH2 0xCA6 JUMPI SWAP2 PUSH1 0x20 MUL DUP3 ADD JUMPDEST DUP3 DUP2 GT ISZERO PUSH2 0xCA5 JUMPI DUP3 MLOAD DUP3 PUSH1 0x0 PUSH2 0x100 EXP DUP2 SLOAD DUP2 PUSH20 0xFFFFFFFFFFFFFFFFFFFFFFFFFFFFFFFFFFFFFFFF MUL NOT AND SWAP1 DUP4 PUSH20 0xFFFFFFFFFFFFFFFFFFFFFFFFFFFFFFFFFFFFFFFF AND MUL OR SWAP1 SSTORE POP SWAP2 PUSH1 0x20 ADD SWAP2 SWAP1 PUSH1 0x1 ADD SWAP1 PUSH2 0xC4D JUMP JUMPDEST JUMPDEST POP SWAP1 POP PUSH2 0xCB3 SWAP2 SWAP1 PUSH2 0xCB7 JUMP JUMPDEST POP SWAP1 JUMP JUMPDEST JUMPDEST DUP1 DUP3 GT ISZERO PUSH2 0xCD0 JUMPI PUSH1 0x0 DUP2 PUSH1 0x0 SWAP1 SSTORE POP PUSH1 0x1 ADD PUSH2 0xCB8 JUMP JUMPDEST POP SWAP1 JUMP JUMPDEST PUSH1 0x0 DUP1 REVERT JUMPDEST PUSH1 0x0 PUSH20 0xFFFFFFFFFFFFFFFFFFFFFFFFFFFFFFFFFFFFFFFF DUP3 AND SWAP1 POP SWAP2 SWAP1 POP JUMP JUMPDEST PUSH1 0x0 PUSH2 0xD04 DUP3 PUSH2 0xCD9 JUMP JUMPDEST SWAP1 POP SWAP2 SWAP1 POP JUMP JUMPDEST PUSH2 0xD14 DUP2 PUSH2 0xCF9 JUMP JUMPDEST DUP2 EQ PUSH2 0xD1F JUMPI PUSH1 0x0 DUP1 REVERT JUMPDEST POP JUMP JUMPDEST PUSH1 0x0 DUP2 CALLDATALOAD SWAP1 POP PUSH2 0xD31 DUP2 PUSH2 0xD0B JUMP JUMPDEST SWAP3 SWAP2 POP POP JUMP JUMPDEST PUSH1 0x0 PUSH1 0x20 DUP3 DUP5 SUB SLT ISZERO PUSH2 0xD4D JUMPI PUSH2 0xD4C PUSH2 0xCD4 JUMP JUMPDEST JUMPDEST PUSH1 0x0 PUSH2 0xD5B DUP5 DUP3 DUP6 ADD PUSH2 0xD22 JUMP JUMPDEST SWAP2 POP POP SWAP3 SWAP2 POP POP JUMP JUMPDEST PUSH1 0x0 DUP2 SWAP1 POP SWAP2 SWAP1 POP JUMP JUMPDEST PUSH2 0xD77 DUP2 PUSH2 0xD64 JUMP JUMPDEST DUP3 MSTORE POP POP JUMP JUMPDEST PUSH1 0x0 PUSH1 0x20 DUP3 ADD SWAP1 POP PUSH2 0xD92 PUSH1 0x0 DUP4 ADD DUP5 PUSH2 0xD6E JUMP JUMPDEST SWAP3 SWAP2 POP POP JUMP JUMPDEST PUSH2 0xDA1 DUP2 PUSH2 0xD64 JUMP JUMPDEST DUP2 EQ PUSH2 0xDAC JUMPI PUSH1 0x0 DUP1 REVERT JUMPDEST POP JUMP JUMPDEST PUSH1 0x0 DUP2 CALLDATALOAD SWAP1 POP PUSH2 0xDBE DUP2 PUSH2 0xD98 JUMP JUMPDEST SWAP3 SWAP2 POP POP JUMP JUMPDEST PUSH1 0x0 PUSH1 0x20 DUP3 DUP5 SUB SLT ISZERO PUSH2 0xDDA JUMPI PUSH2 0xDD9 PUSH2 0xCD4 JUMP JUMPDEST JUMPDEST PUSH1 0x0 PUSH2 0xDE8 DUP5 DUP3 DUP6 ADD PUSH2 0xDAF JUMP JUMPDEST SWAP2 POP POP SWAP3 SWAP2 POP POP JUMP JUMPDEST PUSH2 0xDFA DUP2 PUSH2 0xCF9 JUMP JUMPDEST DUP3 MSTORE POP POP JUMP JUMPDEST PUSH1 0x0 PUSH1 0x20 DUP3 ADD SWAP1 POP PUSH2 0xE15 PUSH1 0x0 DUP4 ADD DUP5 PUSH2 0xDF1 JUMP JUMPDEST SWAP3 SWAP2 POP POP JUMP JUMPDEST PUSH1 0x0 DUP2 SWAP1 POP SWAP2 SWAP1 POP JUMP JUMPDEST PUSH1 0x0 PUSH2 0xE40 PUSH2 0xE3B PUSH2 0xE36 DUP5 PUSH2 0xCD9 JUMP JUMPDEST PUSH2 0xE1B JUMP JUMPDEST PUSH2 0xCD9 JUMP JUMPDEST SWAP1 POP SWAP2 SWAP1 POP JUMP JUMPDEST PUSH1 0x0 PUSH2 0xE52 DUP3 PUSH2 0xE25 JUMP JUMPDEST SWAP1 POP SWAP2 SWAP1 POP JUMP JUMPDEST PUSH1 0x0 PUSH2 0xE64 DUP3 PUSH2 0xE47 JUMP JUMPDEST SWAP1 POP SWAP2 SWAP1 POP JUMP JUMPDEST PUSH2 0xE74 DUP2 PUSH2 0xE59 JUMP JUMPDEST DUP3 MSTORE POP POP JUMP JUMPDEST PUSH1 0x0 PUSH1 0x20 DUP3 ADD SWAP1 POP PUSH2 0xE8F PUSH1 0x0 DUP4 ADD DUP5 PUSH2 0xE6B JUMP JUMPDEST SWAP3 SWAP2 POP POP JUMP JUMPDEST PUSH1 0x0 DUP2 ISZERO ISZERO SWAP1 POP SWAP2 SWAP1 POP JUMP JUMPDEST PUSH2 0xEAA DUP2 PUSH2 0xE95 JUMP JUMPDEST DUP3 MSTORE POP POP JUMP JUMPDEST PUSH1 0x0 PUSH1 0x20 DUP3 ADD SWAP1 POP PUSH2 0xEC5 PUSH1 0x0 DUP4 ADD DUP5 PUSH2 0xEA1 JUMP JUMPDEST SWAP3 SWAP2 POP POP JUMP JUMPDEST PUSH1 0x0 DUP2 MLOAD SWAP1 POP PUSH2 0xEDA DUP2 PUSH2 0xD98 JUMP JUMPDEST SWAP3 SWAP2 POP POP JUMP JUMPDEST PUSH1 0x0 PUSH1 0x20 DUP3 DUP5 SUB SLT ISZERO PUSH2 0xEF6 JUMPI PUSH2 0xEF5 PUSH2 0xCD4 JUMP JUMPDEST JUMPDEST PUSH1 0x0 PUSH2 0xF04 DUP5 DUP3 DUP6 ADD PUSH2 0xECB JUMP JUMPDEST SWAP2 POP POP SWAP3 SWAP2 POP POP JUMP JUMPDEST PUSH1 0x0 PUSH10 0xFFFFFFFFFFFFFFFFFFFF DUP3 AND SWAP1 POP SWAP2 SWAP1 POP JUMP JUMPDEST PUSH2 0xF2C DUP2 PUSH2 0xF0D JUMP JUMPDEST DUP2 EQ PUSH2 0xF37 JUMPI PUSH1 0x0 DUP1 REVERT JUMPDEST POP JUMP JUMPDEST PUSH1 0x0 DUP2 MLOAD SWAP1 POP PUSH2 0xF49 DUP2 PUSH2 0xF23 JUMP JUMPDEST SWAP3 SWAP2 POP POP JUMP JUMPDEST PUSH1 0x0 DUP2 SWAP1 POP SWAP2 SWAP1 POP JUMP JUMPDEST PUSH2 0xF62 DUP2 PUSH2 0xF4F JUMP JUMPDEST DUP2 EQ PUSH2 0xF6D JUMPI PUSH1 0x0 DUP1 REVERT JUMPDEST POP JUMP JUMPDEST PUSH1 0x0 DUP2 MLOAD SWAP1 POP PUSH2 0xF7F DUP2 PUSH2 0xF59 JUMP JUMPDEST SWAP3 SWAP2 POP POP JUMP JUMPDEST PUSH1 0x0 DUP1 PUSH1 0x0 DUP1 PUSH1 0x0 PUSH1 0xA0 DUP7 DUP9 SUB SLT ISZERO PUSH2 0xFA1 JUMPI PUSH2 0xFA0 PUSH2 0xCD4 JUMP JUMPDEST JUMPDEST PUSH1 0x0 PUSH2 0xFAF DUP9 DUP3 DUP10 ADD PUSH2 0xF3A JUMP JUMPDEST SWAP6 POP POP PUSH1 0x20 PUSH2 0xFC0 DUP9 DUP3 DUP10 ADD PUSH2 0xF70 JUMP JUMPDEST SWAP5 POP POP PUSH1 0x40 PUSH2 0xFD1 DUP9 DUP3 DUP10 ADD PUSH2 0xECB JUMP JUMPDEST SWAP4 POP POP PUSH1 0x60 PUSH2 0xFE2 DUP9 DUP3 DUP10 ADD PUSH2 0xECB JUMP JUMPDEST SWAP3 POP POP PUSH1 0x80 PUSH2 0xFF3 DUP9 DUP3 DUP10 ADD PUSH2 0xF3A JUMP JUMPDEST SWAP2 POP POP SWAP3 SWAP6 POP SWAP3 SWAP6 SWAP1 SWAP4 POP JUMP JUMPDEST PUSH32 0x4E487B7100000000000000000000000000000000000000000000000000000000 PUSH1 0x0 MSTORE PUSH1 0x11 PUSH1 0x4 MSTORE PUSH1 0x24 PUSH1 0x0 REVERT JUMPDEST PUSH1 0x0 PUSH2 0x103A DUP3 PUSH2 0xF4F JUMP JUMPDEST SWAP2 POP PUSH2 0x1045 DUP4 PUSH2 0xF4F JUMP JUMPDEST SWAP3 POP DUP3 DUP3 MUL PUSH2 0x1053 DUP2 PUSH2 0xF4F JUMP JUMPDEST SWAP2 POP PUSH32 0x8000000000000000000000000000000000000000000000000000000000000000 DUP5 EQ PUSH1 0x0 DUP5 SLT AND ISZERO PUSH2 0x108B JUMPI PUSH2 0x108A PUSH2 0x1000 JUMP JUMPDEST JUMPDEST DUP3 DUP3 SDIV DUP5 EQ DUP4 ISZERO OR PUSH2 0x10A0 JUMPI PUSH2 0x109F PUSH2 0x1000 JUMP JUMPDEST JUMPDEST POP SWAP3 SWAP2 POP POP JUMP JUMPDEST PUSH1 0x0 PUSH2 0x10B2 DUP3 PUSH2 0xD64 JUMP JUMPDEST SWAP2 POP PUSH2 0x10BD DUP4 PUSH2 0xD64 JUMP JUMPDEST SWAP3 POP DUP3 DUP3 MUL PUSH2 0x10CB DUP2 PUSH2 0xD64 JUMP JUMPDEST SWAP2 POP DUP3 DUP3 DIV DUP5 EQ DUP4 ISZERO OR PUSH2 0x10E2 JUMPI PUSH2 0x10E1 PUSH2 0x1000 JUMP JUMPDEST JUMPDEST POP SWAP3 SWAP2 POP POP JUMP JUMPDEST PUSH32 0x4E487B7100000000000000000000000000000000000000000000000000000000 PUSH1 0x0 MSTORE PUSH1 0x12 PUSH1 0x4 MSTORE PUSH1 0x24 PUSH1 0x0 REVERT JUMPDEST PUSH1 0x0 PUSH2 0x1123 DUP3 PUSH2 0xD64 JUMP JUMPDEST SWAP2 POP PUSH2 0x112E DUP4 PUSH2 0xD64 JUMP JUMPDEST SWAP3 POP DUP3 PUSH2 0x113E JUMPI PUSH2 0x113D PUSH2 0x10E9 JUMP JUMPDEST JUMPDEST DUP3 DUP3 DIV SWAP1 POP SWAP3 SWAP2 POP POP JUMP JUMPDEST PUSH1 0x0 PUSH2 0x1154 DUP3 PUSH2 0xD64 JUMP JUMPDEST SWAP2 POP PUSH2 0x115F DUP4 PUSH2 0xD64 JUMP JUMPDEST SWAP3 POP DUP3 DUP3 SUB SWAP1 POP DUP2 DUP2 GT ISZERO PUSH2 0x1177 JUMPI PUSH2 0x1176 PUSH2 0x1000 JUMP JUMPDEST JUMPDEST SWAP3 SWAP2 POP POP JUMP JUMPDEST PUSH1 0x0 DUP3 DUP3 MSTORE PUSH1 0x20 DUP3 ADD SWAP1 POP SWAP3 SWAP2 POP POP JUMP JUMPDEST PUSH32 0x596F75206E65656420746F207370656E64206D6F726520455448210000000000 PUSH1 0x0 DUP3 ADD MSTORE POP JUMP JUMPDEST PUSH1 0x0 PUSH2 0x11C4 PUSH1 0x1B DUP4 PUSH2 0x117D JUMP JUMPDEST SWAP2 POP PUSH2 0x11CF DUP3 PUSH2 0x118E JUMP JUMPDEST PUSH1 0x20 DUP3 ADD SWAP1 POP SWAP2 SWAP1 POP JUMP JUMPDEST PUSH1 0x0 PUSH1 0x20 DUP3 ADD SWAP1 POP DUP2 DUP2 SUB PUSH1 0x0 DUP4 ADD MSTORE PUSH2 0x11F3 DUP2 PUSH2 0x11B7 JUMP JUMPDEST SWAP1 POP SWAP2 SWAP1 POP JUMP JUMPDEST PUSH1 0x0 PUSH2 0x1205 DUP3 PUSH2 0xD64 JUMP JUMPDEST SWAP2 POP PUSH2 0x1210 DUP4 PUSH2 0xD64 JUMP JUMPDEST SWAP3 POP DUP3 DUP3 ADD SWAP1 POP DUP1 DUP3 GT ISZERO PUSH2 0x1228 JUMPI PUSH2 0x1227 PUSH2 0x1000 JUMP JUMPDEST JUMPDEST SWAP3 SWAP2 POP POP JUMP JUMPDEST PUSH32 0x4E487B7100000000000000000000000000000000000000000000000000000000 PUSH1 0x0 MSTORE PUSH1 0x32 PUSH1 0x4 MSTORE PUSH1 0x24 PUSH1 0x0 REVERT JUMPDEST PUSH1 0x0 PUSH2 0x1268 DUP3 PUSH2 0xD64 JUMP JUMPDEST SWAP2 POP PUSH32 0xFFFFFFFFFFFFFFFFFFFFFFFFFFFFFFFFFFFFFFFFFFFFFFFFFFFFFFFFFFFFFFFF DUP3 SUB PUSH2 0x129A JUMPI PUSH2 0x1299 PUSH2 0x1000 JUMP JUMPDEST JUMPDEST PUSH1 0x1 DUP3 ADD SWAP1 POP SWAP2 SWAP1 POP JUMP JUMPDEST PUSH32 0x4E487B7100000000000000000000000000000000000000000000000000000000 PUSH1 0x0 MSTORE PUSH1 0x41 PUSH1 0x4 MSTORE PUSH1 0x24 PUSH1 0x0 REVERT JUMPDEST PUSH1 0x0 DUP2 SWAP1 POP SWAP3 SWAP2 POP POP JUMP JUMPDEST POP JUMP JUMPDEST PUSH1 0x0 PUSH2 0x12EF PUSH1 0x0 DUP4 PUSH2 0x12D4 JUMP JUMPDEST SWAP2 POP PUSH2 0x12FA DUP3 PUSH2 0x12DF JUMP JUMPDEST PUSH1 0x0 DUP3 ADD SWAP1 POP SWAP2 SWAP1 POP JUMP JUMPDEST PUSH1 0x0 PUSH2 0x1310 DUP3 PUSH2 0x12E2 JUMP JUMPDEST SWAP2 POP DUP2 SWAP1 POP SWAP2 SWAP1 POP JUMP INVALID LOG2 PUSH5 0x6970667358 0x22 SLT KECCAK256 0xE2 CALLDATACOPY RETURNDATASIZE 0x28 BALANCE 0xD3 CREATE 0x5C JUMPDEST PUSH30 0x25BC1A382AC6BEC645037FC7FB51F15E795BD3C735D264736F6C63430008 SGT STOP CALLER "
				},
				"gasEstimates": {
					"creation": {
						"codeDepositCost": "988800",
						"executionCost": "infinite",
						"totalCost": "infinite"
					},
					"external": {
						"MINIMUM_USD()": "352",
						"change_lot()": "infinite",
						"cheaperWithdraw()": "infinite",
						"fund()": "infinite",
						"getAddressToAmountFunded(address)": "2865",
						"getBTCPrice()": "infinite",
						"getETHPrice()": "infinite",
						"getFunder(uint256)": "5033",
						"getOwner()": "infinite",
						"getPriceFeed()": "infinite",
						"getUSDCPrice()": "infinite",
						"getVersion()": "infinite",
						"percent()": "2474",
						"setPercent(uint256)": "22587"
					},
					"internal": {
						"abs(int256)": "infinite"
					}
				},
				"methodIdentifiers": {
					"MINIMUM_USD()": "6b69a592",
					"change_lot()": "ac70214c",
					"cheaperWithdraw()": "be2693f0",
					"fund()": "b60d4288",
					"getAddressToAmountFunded(address)": "0343fb25",
					"getBTCPrice()": "dd22db80",
					"getETHPrice()": "a607a8d9",
					"getFunder(uint256)": "d7b4750c",
					"getOwner()": "893d20e8",
					"getPriceFeed()": "9e87a5cd",
					"getUSDCPrice()": "4ad517bc",
					"getVersion()": "0d8e6e2c",
					"percent()": "70ba1113",
					"setPercent(uint256)": "7154b8b5"
				}
			},
			"storageLayout": {
				"storage": [
					{
						"astId": 66,
						"contract": "contracts/Checker.sol:Checker",
						"label": "s_funders",
						"offset": 0,
						"slot": "0",
						"type": "t_array(t_address)dyn_storage"
					},
					{
						"astId": 70,
						"contract": "contracts/Checker.sol:Checker",
						"label": "s_addressToAmountFunded",
						"offset": 0,
						"slot": "1",
						"type": "t_mapping(t_address,t_uint256)"
					},
					{
						"astId": 73,
						"contract": "contracts/Checker.sol:Checker",
						"label": "s_priceFeed",
						"offset": 0,
						"slot": "2",
						"type": "t_contract(AggregatorV3Interface)45"
					},
					{
						"astId": 76,
						"contract": "contracts/Checker.sol:Checker",
						"label": "USDC_priceFeed",
						"offset": 0,
						"slot": "3",
						"type": "t_contract(AggregatorV3Interface)45"
					},
					{
						"astId": 79,
						"contract": "contracts/Checker.sol:Checker",
						"label": "BTC_priceFeed",
						"offset": 0,
						"slot": "4",
						"type": "t_contract(AggregatorV3Interface)45"
					},
					{
						"astId": 82,
						"contract": "contracts/Checker.sol:Checker",
						"label": "percent",
						"offset": 0,
						"slot": "5",
						"type": "t_uint256"
					},
					{
						"astId": 84,
						"contract": "contracts/Checker.sol:Checker",
						"label": "last_price",
						"offset": 0,
						"slot": "6",
						"type": "t_uint256"
					}
				],
				"types": {
					"t_address": {
						"encoding": "inplace",
						"label": "address",
						"numberOfBytes": "20"
					},
					"t_array(t_address)dyn_storage": {
						"base": "t_address",
						"encoding": "dynamic_array",
						"label": "address[]",
						"numberOfBytes": "32"
					},
					"t_contract(AggregatorV3Interface)45": {
						"encoding": "inplace",
						"label": "contract AggregatorV3Interface",
						"numberOfBytes": "20"
					},
					"t_mapping(t_address,t_uint256)": {
						"encoding": "mapping",
						"key": "t_address",
						"label": "mapping(address => uint256)",
						"numberOfBytes": "32",
						"value": "t_uint256"
					},
					"t_uint256": {
						"encoding": "inplace",
						"label": "uint256",
						"numberOfBytes": "32"
					}
				}
			},
			"userdoc": {
				"kind": "user",
				"methods": {
					"fund()": {
						"notice": "Funds our contract based on the ETH/USD price"
					}
				},
				"version": 1
			}
		}
	}
}