{
	"data": {
		"bytecode": {
			"linkReferences": {},
			"object": "608060405234801561001057600080fd5b5060d08061001f6000396000f3006080604052600436106049576000357c0100000000000000000000000000000000000000000000000000000000900463ffffffff1680632e1a7d4d14604e578063d0e30db0146078575b600080fd5b348015605957600080fd5b506076600480360381019080803590602001909291905050506098565b005b607e609b565b604051808215151515815260200191505060405180910390f35b50565b600060019050905600a165627a7a72305820c1ebf6844a00b115ef0bee84d4cf4a4fa94b25eab083c33252e3d31906e0e23e0029",
			"opcodes": "PUSH1 0x80 PUSH1 0x40 MSTORE CALLVALUE DUP1 ISZERO PUSH2 0x10 JUMPI PUSH1 0x0 DUP1 REVERT JUMPDEST POP PUSH1 0xD0 DUP1 PUSH2 0x1F PUSH1 0x0 CODECOPY PUSH1 0x0 RETURN STOP PUSH1 0x80 PUSH1 0x40 MSTORE PUSH1 0x4 CALLDATASIZE LT PUSH1 0x49 JUMPI PUSH1 0x0 CALLDATALOAD PUSH29 0x100000000000000000000000000000000000000000000000000000000 SWAP1 DIV PUSH4 0xFFFFFFFF AND DUP1 PUSH4 0x2E1A7D4D EQ PUSH1 0x4E JUMPI DUP1 PUSH4 0xD0E30DB0 EQ PUSH1 0x78 JUMPI JUMPDEST PUSH1 0x0 DUP1 REVERT JUMPDEST CALLVALUE DUP1 ISZERO PUSH1 0x59 JUMPI PUSH1 0x0 DUP1 REVERT JUMPDEST POP PUSH1 0x76 PUSH1 0x4 DUP1 CALLDATASIZE SUB DUP2 ADD SWAP1 DUP1 DUP1 CALLDATALOAD SWAP1 PUSH1 0x20 ADD SWAP1 SWAP3 SWAP2 SWAP1 POP POP POP PUSH1 0x98 JUMP JUMPDEST STOP JUMPDEST PUSH1 0x7E PUSH1 0x9B JUMP JUMPDEST PUSH1 0x40 MLOAD DUP1 DUP3 ISZERO ISZERO ISZERO ISZERO DUP2 MSTORE PUSH1 0x20 ADD SWAP2 POP POP PUSH1 0x40 MLOAD DUP1 SWAP2 SUB SWAP1 RETURN JUMPDEST POP JUMP JUMPDEST PUSH1 0x0 PUSH1 0x1 SWAP1 POP SWAP1 JUMP STOP LOG1 PUSH6 0x627A7A723058 KECCAK256 0xc1 0xeb 0xf6 DUP5 0x4a STOP 0xb1 ISZERO 0xef SIGNEXTEND 0xee DUP5 0xd4 0xcf 0x4a 0x4f 0xa9 0x4b 0x25 0xea 0xb0 DUP4 0xc3 ORIGIN MSTORE 0xe3 0xd3 NOT MOD 0xe0 0xe2 RETURNDATACOPY STOP 0x29 "
		},
		"gasEstimates": {
			"creation": {
				"codeDepositCost": "41600",
				"executionCost": "93",
				"totalCost": "41693"
			},
			"external": {
				"deposit()": "212",
				"withdraw(uint256)": "191"
			}
		},
		"methodIdentifiers": {
			"deposit()": "d0e30db0",
			"withdraw(uint256)": "2e1a7d4d"
		}
	},
	"abi": [
		{
			"constant": false,
			"inputs": [
				{
					"name": "_amount",
					"type": "uint256"
				}
			],
			"name": "withdraw",
			"outputs": [],
			"payable": false,
			"stateMutability": "nonpayable",
			"type": "function"
		},
		{
			"constant": false,
			"inputs": [],
			"name": "deposit",
			"outputs": [
				{
					"name": "",
					"type": "bool"
				}
			],
			"payable": true,
			"stateMutability": "payable",
			"type": "function"
		}
	]
}