{
	"data": {
		"bytecode": {
			"linkReferences": {},
			"object": "608060405260405162001b1c38038062001b1c833981810160405281019062000029919062000171565b33600260006101000a81548173ffffffffffffffffffffffffffffffffffffffff021916908373ffffffffffffffffffffffffffffffffffffffff1602179055506040518060400160405280601081526020017f636f6e74726163742063726561746f720000000000000000000000000000000081525060019081620000b091906200041d565b5067016345785d8a0000600381905550806000806101000a81548173ffffffffffffffffffffffffffffffffffffffff021916908373ffffffffffffffffffffffffffffffffffffffff1602179055505062000504565b600080fd5b600073ffffffffffffffffffffffffffffffffffffffff82169050919050565b600062000139826200010c565b9050919050565b6200014b816200012c565b81146200015757600080fd5b50565b6000815190506200016b8162000140565b92915050565b6000602082840312156200018a576200018962000107565b5b60006200019a848285016200015a565b91505092915050565b600081519050919050565b7f4e487b7100000000000000000000000000000000000000000000000000000000600052604160045260246000fd5b7f4e487b7100000000000000000000000000000000000000000000000000000000600052602260045260246000fd5b600060028204905060018216806200022557607f821691505b6020821081036200023b576200023a620001dd565b5b50919050565b60008190508160005260206000209050919050565b60006020601f8301049050919050565b600082821b905092915050565b600060088302620002a57fffffffffffffffffffffffffffffffffffffffffffffffffffffffffffffffff8262000266565b620002b1868362000266565b95508019841693508086168417925050509392505050565b6000819050919050565b6000819050919050565b6000620002fe620002f8620002f284620002c9565b620002d3565b620002c9565b9050919050565b6000819050919050565b6200031a83620002dd565b62000332620003298262000305565b84845462000273565b825550505050565b600090565b620003496200033a565b620003568184846200030f565b505050565b5b818110156200037e57620003726000826200033f565b6001810190506200035c565b5050565b601f821115620003cd57620003978162000241565b620003a28462000256565b81016020851015620003b2578190505b620003ca620003c18562000256565b8301826200035b565b50505b505050565b600082821c905092915050565b6000620003f260001984600802620003d2565b1980831691505092915050565b60006200040d8383620003df565b9150826002028217905092915050565b6200042882620001a3565b67ffffffffffffffff811115620004445762000443620001ae565b5b6200045082546200020c565b6200045d82828562000382565b600060209050601f83116001811462000495576000841562000480578287015190505b6200048c8582620003ff565b865550620004fc565b601f198416620004a58662000241565b60005b82811015620004cf57848901518255600182019150602085019450602081019050620004a8565b86831015620004ef5784890151620004eb601f891682620003df565b8355505b6001600288020188555050505b505050505050565b61160880620005146000396000f3fe6080604052600436106100705760003560e01c80635f5152261161004e5780635f515226146100f2578063745d4c181461012f578063d0e30db01461016d578063df6803d31461018b57610070565b80632a5bd7fb146100755780632e1a7d4d1461009e57806341b3d185146100c7575b600080fd5b34801561008157600080fd5b5061009c60048036038101906100979190610d40565b6101b6565b005b3480156100aa57600080fd5b506100c560048036038101906100c09190610dd2565b61043d565b005b3480156100d357600080fd5b506100dc6106ae565b6040516100e99190610e0e565b60405180910390f35b3480156100fe57600080fd5b5061011960048036038101906101149190610e29565b6106b4565b6040516101269190610e0e565b60405180910390f35b34801561013b57600080fd5b5061015660048036038101906101519190610dd2565b6106fd565b604051610164929190610ee4565b60405180910390f35b6101756107d9565b6040516101829190610f2f565b60405180910390f35b34801561019757600080fd5b506101a06109d9565b6040516101ad9190610fa9565b60405180910390f35b600260009054906101000a900473ffffffffffffffffffffffffffffffffffffffff1673ffffffffffffffffffffffffffffffffffffffff163373ffffffffffffffffffffffffffffffffffffffff161461024a576102496040518060400160405280600981526020017f4e6f74206f776e657200000000000000000000000000000000000000000000008152506109fd565b5b600260009054906101000a900473ffffffffffffffffffffffffffffffffffffffff1673ffffffffffffffffffffffffffffffffffffffff163373ffffffffffffffffffffffffffffffffffffffff16146102a457600080fd5b6102ac610b58565b82816000019073ffffffffffffffffffffffffffffffffffffffff16908173ffffffffffffffffffffffffffffffffffffffff168152505081816020018190525061031660008054906101000a900473ffffffffffffffffffffffffffffffffffffffff16610a96565b8273ffffffffffffffffffffffffffffffffffffffff16600260009054906101000a900473ffffffffffffffffffffffffffffffffffffffff1673ffffffffffffffffffffffffffffffffffffffff160361043857600581908060018154018082558091505060019003906000526020600020906002020160009091909190915060008201518160000160006101000a81548173ffffffffffffffffffffffffffffffffffffffff021916908373ffffffffffffffffffffffffffffffffffffffff16021790555060208201518160010190816103f391906111c6565b50505082600260006101000a81548173ffffffffffffffffffffffffffffffffffffffff021916908373ffffffffffffffffffffffffffffffffffffffff1602179055505b505050565b600460003373ffffffffffffffffffffffffffffffffffffffff1673ffffffffffffffffffffffffffffffffffffffff1681526020019081526020016000205481116106ab5760003373ffffffffffffffffffffffffffffffffffffffff16826040516104a9906112c9565b60006040518083038185875af1925050503d80600081146104e6576040519150601f19603f3d011682016040523d82523d6000602084013e6104eb565b606091505b5050905061052d6040518060400160405280601081526020017f46696e697368207472616e736665723f000000000000000000000000000000008152506109fd565b801561061b5781600460003373ffffffffffffffffffffffffffffffffffffffff1673ffffffffffffffffffffffffffffffffffffffff1681526020019081526020016000206000828254610582919061130d565b9250508190555060008054906101000a900473ffffffffffffffffffffffffffffffffffffffff1673ffffffffffffffffffffffffffffffffffffffff166310176f8633846040518363ffffffff1660e01b81526004016105e492919061138d565b600060405180830381600087803b1580156105fe57600080fd5b505af1158015610612573d6000803e3d6000fd5b505050506106a9565b60008054906101000a900473ffffffffffffffffffffffffffffffffffffffff1673ffffffffffffffffffffffffffffffffffffffff166310176f8633846040518363ffffffff1660e01b8152600401610676929190611415565b600060405180830381600087803b15801561069057600080fd5b505af11580156106a4573d6000803e3d6000fd5b505050505b505b50565b60035481565b6000600460008373ffffffffffffffffffffffffffffffffffffffff1673ffffffffffffffffffffffffffffffffffffffff168152602001908152602001600020549050919050565b6005818154811061070d57600080fd5b90600052602060002090600202016000915090508060000160009054906101000a900473ffffffffffffffffffffffffffffffffffffffff169080600101805461075690610ff3565b80601f016020809104026020016040519081016040528092919081815260200182805461078290610ff3565b80156107cf5780601f106107a4576101008083540402835291602001916107cf565b820191906000526020600020905b8154815290600101906020018083116107b257829003601f168201915b5050505050905082565b6000600354341061090a5734600460003373ffffffffffffffffffffffffffffffffffffffff1673ffffffffffffffffffffffffffffffffffffffff16815260200190815260200160002060008282546108339190611451565b925050819055506108786040518060400160405280601081526020017f656e6f756768206d73672e76616c7565000000000000000000000000000000008152506109fd565b60008054906101000a900473ffffffffffffffffffffffffffffffffffffffff1673ffffffffffffffffffffffffffffffffffffffff166310176f8633346040518363ffffffff1660e01b81526004016108d39291906114d1565b600060405180830381600087803b1580156108ed57600080fd5b505af1158015610901573d6000803e3d6000fd5b505050506109d6565b6109486040518060400160405280600a81526020017f4e6f7420656e6f756768000000000000000000000000000000000000000000008152506109fd565b60008054906101000a900473ffffffffffffffffffffffffffffffffffffffff1673ffffffffffffffffffffffffffffffffffffffff166310176f8633346040518363ffffffff1660e01b81526004016109a3929190611559565b600060405180830381600087803b1580156109bd57600080fd5b505af11580156109d1573d6000803e3d6000fd5b505050505b90565b60008054906101000a900473ffffffffffffffffffffffffffffffffffffffff1681565b610a9381604051602401610a119190611595565b6040516020818303038152906040527f41304fac000000000000000000000000000000000000000000000000000000007bffffffffffffffffffffffffffffffffffffffffffffffffffffffff19166020820180517bffffffffffffffffffffffffffffffffffffffffffffffffffffffff8381831617835250505050610b2f565b50565b610b2c81604051602401610aaa91906115b7565b6040516020818303038152906040527f2c2ecbc2000000000000000000000000000000000000000000000000000000007bffffffffffffffffffffffffffffffffffffffffffffffffffffffff19166020820180517bffffffffffffffffffffffffffffffffffffffffffffffffffffffff8381831617835250505050610b2f565b50565b60008151905060006a636f6e736f6c652e6c6f679050602083016000808483855afa5050505050565b6040518060400160405280600073ffffffffffffffffffffffffffffffffffffffff168152602001606081525090565b6000604051905090565b600080fd5b600080fd5b600073ffffffffffffffffffffffffffffffffffffffff82169050919050565b6000610bc782610b9c565b9050919050565b610bd781610bbc565b8114610be257600080fd5b50565b600081359050610bf481610bce565b92915050565b600080fd5b600080fd5b6000601f19601f8301169050919050565b7f4e487b7100000000000000000000000000000000000000000000000000000000600052604160045260246000fd5b610c4d82610c04565b810181811067ffffffffffffffff82111715610c6c57610c6b610c15565b5b80604052505050565b6000610c7f610b88565b9050610c8b8282610c44565b919050565b600067ffffffffffffffff821115610cab57610caa610c15565b5b610cb482610c04565b9050602081019050919050565b82818337600083830152505050565b6000610ce3610cde84610c90565b610c75565b905082815260208101848484011115610cff57610cfe610bff565b5b610d0a848285610cc1565b509392505050565b600082601f830112610d2757610d26610bfa565b5b8135610d37848260208601610cd0565b91505092915050565b60008060408385031215610d5757610d56610b92565b5b6000610d6585828601610be5565b925050602083013567ffffffffffffffff811115610d8657610d85610b97565b5b610d9285828601610d12565b9150509250929050565b6000819050919050565b610daf81610d9c565b8114610dba57600080fd5b50565b600081359050610dcc81610da6565b92915050565b600060208284031215610de857610de7610b92565b5b6000610df684828501610dbd565b91505092915050565b610e0881610d9c565b82525050565b6000602082019050610e236000830184610dff565b92915050565b600060208284031215610e3f57610e3e610b92565b5b6000610e4d84828501610be5565b91505092915050565b610e5f81610bbc565b82525050565b600081519050919050565b600082825260208201905092915050565b60005b83811015610e9f578082015181840152602081019050610e84565b60008484015250505050565b6000610eb682610e65565b610ec08185610e70565b9350610ed0818560208601610e81565b610ed981610c04565b840191505092915050565b6000604082019050610ef96000830185610e56565b8181036020830152610f0b8184610eab565b90509392505050565b60008115159050919050565b610f2981610f14565b82525050565b6000602082019050610f446000830184610f20565b92915050565b6000819050919050565b6000610f6f610f6a610f6584610b9c565b610f4a565b610b9c565b9050919050565b6000610f8182610f54565b9050919050565b6000610f9382610f76565b9050919050565b610fa381610f88565b82525050565b6000602082019050610fbe6000830184610f9a565b92915050565b7f4e487b7100000000000000000000000000000000000000000000000000000000600052602260045260246000fd5b6000600282049050600182168061100b57607f821691505b60208210810361101e5761101d610fc4565b5b50919050565b60008190508160005260206000209050919050565b60006020601f8301049050919050565b600082821b905092915050565b6000600883026110867fffffffffffffffffffffffffffffffffffffffffffffffffffffffffffffffff82611049565b6110908683611049565b95508019841693508086168417925050509392505050565b60006110c36110be6110b984610d9c565b610f4a565b610d9c565b9050919050565b6000819050919050565b6110dd836110a8565b6110f16110e9826110ca565b848454611056565b825550505050565b600090565b6111066110f9565b6111118184846110d4565b505050565b5b818110156111355761112a6000826110fe565b600181019050611117565b5050565b601f82111561117a5761114b81611024565b61115484611039565b81016020851015611163578190505b61117761116f85611039565b830182611116565b50505b505050565b600082821c905092915050565b600061119d6000198460080261117f565b1980831691505092915050565b60006111b6838361118c565b9150826002028217905092915050565b6111cf82610e65565b67ffffffffffffffff8111156111e8576111e7610c15565b5b6111f28254610ff3565b6111fd828285611139565b600060209050601f831160018114611230576000841561121e578287015190505b61122885826111aa565b865550611290565b601f19841661123e86611024565b60005b8281101561126657848901518255600182019150602085019450602081019050611241565b86831015611283578489015161127f601f89168261118c565b8355505b6001600288020188555050505b505050505050565b600081905092915050565b50565b60006112b3600083611298565b91506112be826112a3565b600082019050919050565b60006112d4826112a6565b9150819050919050565b7f4e487b7100000000000000000000000000000000000000000000000000000000600052601160045260246000fd5b600061131882610d9c565b915061132383610d9c565b925082820390508181111561133b5761133a6112de565b5b92915050565b7f7769746864726177000000000000000000000000000000000000000000000000600082015250565b6000611377600883610e70565b915061138282611341565b602082019050919050565b60006060820190506113a26000830185610e56565b6113af6020830184610dff565b81810360408301526113c08161136a565b90509392505050565b7f77697468647261774661696c6564000000000000000000000000000000000000600082015250565b60006113ff600e83610e70565b915061140a826113c9565b602082019050919050565b600060608201905061142a6000830185610e56565b6114376020830184610dff565b8181036040830152611448816113f2565b90509392505050565b600061145c82610d9c565b915061146783610d9c565b925082820190508082111561147f5761147e6112de565b5b92915050565b7f6465706f73697400000000000000000000000000000000000000000000000000600082015250565b60006114bb600783610e70565b91506114c682611485565b602082019050919050565b60006060820190506114e66000830185610e56565b6114f36020830184610dff565b8181036040830152611504816114ae565b90509392505050565b7f6465706f7369744661696c656400000000000000000000000000000000000000600082015250565b6000611543600d83610e70565b915061154e8261150d565b602082019050919050565b600060608201905061156e6000830185610e56565b61157b6020830184610dff565b818103604083015261158c81611536565b90509392505050565b600060208201905081810360008301526115af8184610eab565b905092915050565b60006020820190506115cc6000830184610e56565b9291505056fea26469706673582212200786586c502403c119ac1d1a69d755fde0546390780d7753db6e41fcc94695bd64736f6c63430008120033",
			"opcodes": "PUSH1 0x80 PUSH1 0x40 MSTORE PUSH1 0x40 MLOAD PUSH3 0x1B1C CODESIZE SUB DUP1 PUSH3 0x1B1C DUP4 CODECOPY DUP2 DUP2 ADD PUSH1 0x40 MSTORE DUP2 ADD SWAP1 PUSH3 0x29 SWAP2 SWAP1 PUSH3 0x171 JUMP JUMPDEST CALLER PUSH1 0x2 PUSH1 0x0 PUSH2 0x100 EXP DUP2 SLOAD DUP2 PUSH20 0xFFFFFFFFFFFFFFFFFFFFFFFFFFFFFFFFFFFFFFFF MUL NOT AND SWAP1 DUP4 PUSH20 0xFFFFFFFFFFFFFFFFFFFFFFFFFFFFFFFFFFFFFFFF AND MUL OR SWAP1 SSTORE POP PUSH1 0x40 MLOAD DUP1 PUSH1 0x40 ADD PUSH1 0x40 MSTORE DUP1 PUSH1 0x10 DUP2 MSTORE PUSH1 0x20 ADD PUSH32 0x636F6E74726163742063726561746F7200000000000000000000000000000000 DUP2 MSTORE POP PUSH1 0x1 SWAP1 DUP2 PUSH3 0xB0 SWAP2 SWAP1 PUSH3 0x41D JUMP JUMPDEST POP PUSH8 0x16345785D8A0000 PUSH1 0x3 DUP2 SWAP1 SSTORE POP DUP1 PUSH1 0x0 DUP1 PUSH2 0x100 EXP DUP2 SLOAD DUP2 PUSH20 0xFFFFFFFFFFFFFFFFFFFFFFFFFFFFFFFFFFFFFFFF MUL NOT AND SWAP1 DUP4 PUSH20 0xFFFFFFFFFFFFFFFFFFFFFFFFFFFFFFFFFFFFFFFF AND MUL OR SWAP1 SSTORE POP POP PUSH3 0x504 JUMP JUMPDEST PUSH1 0x0 DUP1 REVERT JUMPDEST PUSH1 0x0 PUSH20 0xFFFFFFFFFFFFFFFFFFFFFFFFFFFFFFFFFFFFFFFF DUP3 AND SWAP1 POP SWAP2 SWAP1 POP JUMP JUMPDEST PUSH1 0x0 PUSH3 0x139 DUP3 PUSH3 0x10C JUMP JUMPDEST SWAP1 POP SWAP2 SWAP1 POP JUMP JUMPDEST PUSH3 0x14B DUP2 PUSH3 0x12C JUMP JUMPDEST DUP2 EQ PUSH3 0x157 JUMPI PUSH1 0x0 DUP1 REVERT JUMPDEST POP JUMP JUMPDEST PUSH1 0x0 DUP2 MLOAD SWAP1 POP PUSH3 0x16B DUP2 PUSH3 0x140 JUMP JUMPDEST SWAP3 SWAP2 POP POP JUMP JUMPDEST PUSH1 0x0 PUSH1 0x20 DUP3 DUP5 SUB SLT ISZERO PUSH3 0x18A JUMPI PUSH3 0x189 PUSH3 0x107 JUMP JUMPDEST JUMPDEST PUSH1 0x0 PUSH3 0x19A DUP5 DUP3 DUP6 ADD PUSH3 0x15A JUMP JUMPDEST SWAP2 POP POP SWAP3 SWAP2 POP POP JUMP JUMPDEST PUSH1 0x0 DUP2 MLOAD SWAP1 POP SWAP2 SWAP1 POP JUMP JUMPDEST PUSH32 0x4E487B7100000000000000000000000000000000000000000000000000000000 PUSH1 0x0 MSTORE PUSH1 0x41 PUSH1 0x4 MSTORE PUSH1 0x24 PUSH1 0x0 REVERT JUMPDEST PUSH32 0x4E487B7100000000000000000000000000000000000000000000000000000000 PUSH1 0x0 MSTORE PUSH1 0x22 PUSH1 0x4 MSTORE PUSH1 0x24 PUSH1 0x0 REVERT JUMPDEST PUSH1 0x0 PUSH1 0x2 DUP3 DIV SWAP1 POP PUSH1 0x1 DUP3 AND DUP1 PUSH3 0x225 JUMPI PUSH1 0x7F DUP3 AND SWAP2 POP JUMPDEST PUSH1 0x20 DUP3 LT DUP2 SUB PUSH3 0x23B JUMPI PUSH3 0x23A PUSH3 0x1DD JUMP JUMPDEST JUMPDEST POP SWAP2 SWAP1 POP JUMP JUMPDEST PUSH1 0x0 DUP2 SWAP1 POP DUP2 PUSH1 0x0 MSTORE PUSH1 0x20 PUSH1 0x0 KECCAK256 SWAP1 POP SWAP2 SWAP1 POP JUMP JUMPDEST PUSH1 0x0 PUSH1 0x20 PUSH1 0x1F DUP4 ADD DIV SWAP1 POP SWAP2 SWAP1 POP JUMP JUMPDEST PUSH1 0x0 DUP3 DUP3 SHL SWAP1 POP SWAP3 SWAP2 POP POP JUMP JUMPDEST PUSH1 0x0 PUSH1 0x8 DUP4 MUL PUSH3 0x2A5 PUSH32 0xFFFFFFFFFFFFFFFFFFFFFFFFFFFFFFFFFFFFFFFFFFFFFFFFFFFFFFFFFFFFFFFF DUP3 PUSH3 0x266 JUMP JUMPDEST PUSH3 0x2B1 DUP7 DUP4 PUSH3 0x266 JUMP JUMPDEST SWAP6 POP DUP1 NOT DUP5 AND SWAP4 POP DUP1 DUP7 AND DUP5 OR SWAP3 POP POP POP SWAP4 SWAP3 POP POP POP JUMP JUMPDEST PUSH1 0x0 DUP2 SWAP1 POP SWAP2 SWAP1 POP JUMP JUMPDEST PUSH1 0x0 DUP2 SWAP1 POP SWAP2 SWAP1 POP JUMP JUMPDEST PUSH1 0x0 PUSH3 0x2FE PUSH3 0x2F8 PUSH3 0x2F2 DUP5 PUSH3 0x2C9 JUMP JUMPDEST PUSH3 0x2D3 JUMP JUMPDEST PUSH3 0x2C9 JUMP JUMPDEST SWAP1 POP SWAP2 SWAP1 POP JUMP JUMPDEST PUSH1 0x0 DUP2 SWAP1 POP SWAP2 SWAP1 POP JUMP JUMPDEST PUSH3 0x31A DUP4 PUSH3 0x2DD JUMP JUMPDEST PUSH3 0x332 PUSH3 0x329 DUP3 PUSH3 0x305 JUMP JUMPDEST DUP5 DUP5 SLOAD PUSH3 0x273 JUMP JUMPDEST DUP3 SSTORE POP POP POP POP JUMP JUMPDEST PUSH1 0x0 SWAP1 JUMP JUMPDEST PUSH3 0x349 PUSH3 0x33A JUMP JUMPDEST PUSH3 0x356 DUP2 DUP5 DUP5 PUSH3 0x30F JUMP JUMPDEST POP POP POP JUMP JUMPDEST JUMPDEST DUP2 DUP2 LT ISZERO PUSH3 0x37E JUMPI PUSH3 0x372 PUSH1 0x0 DUP3 PUSH3 0x33F JUMP JUMPDEST PUSH1 0x1 DUP2 ADD SWAP1 POP PUSH3 0x35C JUMP JUMPDEST POP POP JUMP JUMPDEST PUSH1 0x1F DUP3 GT ISZERO PUSH3 0x3CD JUMPI PUSH3 0x397 DUP2 PUSH3 0x241 JUMP JUMPDEST PUSH3 0x3A2 DUP5 PUSH3 0x256 JUMP JUMPDEST DUP2 ADD PUSH1 0x20 DUP6 LT ISZERO PUSH3 0x3B2 JUMPI DUP2 SWAP1 POP JUMPDEST PUSH3 0x3CA PUSH3 0x3C1 DUP6 PUSH3 0x256 JUMP JUMPDEST DUP4 ADD DUP3 PUSH3 0x35B JUMP JUMPDEST POP POP JUMPDEST POP POP POP JUMP JUMPDEST PUSH1 0x0 DUP3 DUP3 SHR SWAP1 POP SWAP3 SWAP2 POP POP JUMP JUMPDEST PUSH1 0x0 PUSH3 0x3F2 PUSH1 0x0 NOT DUP5 PUSH1 0x8 MUL PUSH3 0x3D2 JUMP JUMPDEST NOT DUP1 DUP4 AND SWAP2 POP POP SWAP3 SWAP2 POP POP JUMP JUMPDEST PUSH1 0x0 PUSH3 0x40D DUP4 DUP4 PUSH3 0x3DF JUMP JUMPDEST SWAP2 POP DUP3 PUSH1 0x2 MUL DUP3 OR SWAP1 POP SWAP3 SWAP2 POP POP JUMP JUMPDEST PUSH3 0x428 DUP3 PUSH3 0x1A3 JUMP JUMPDEST PUSH8 0xFFFFFFFFFFFFFFFF DUP2 GT ISZERO PUSH3 0x444 JUMPI PUSH3 0x443 PUSH3 0x1AE JUMP JUMPDEST JUMPDEST PUSH3 0x450 DUP3 SLOAD PUSH3 0x20C JUMP JUMPDEST PUSH3 0x45D DUP3 DUP3 DUP6 PUSH3 0x382 JUMP JUMPDEST PUSH1 0x0 PUSH1 0x20 SWAP1 POP PUSH1 0x1F DUP4 GT PUSH1 0x1 DUP2 EQ PUSH3 0x495 JUMPI PUSH1 0x0 DUP5 ISZERO PUSH3 0x480 JUMPI DUP3 DUP8 ADD MLOAD SWAP1 POP JUMPDEST PUSH3 0x48C DUP6 DUP3 PUSH3 0x3FF JUMP JUMPDEST DUP7 SSTORE POP PUSH3 0x4FC JUMP JUMPDEST PUSH1 0x1F NOT DUP5 AND PUSH3 0x4A5 DUP7 PUSH3 0x241 JUMP JUMPDEST PUSH1 0x0 JUMPDEST DUP3 DUP2 LT ISZERO PUSH3 0x4CF JUMPI DUP5 DUP10 ADD MLOAD DUP3 SSTORE PUSH1 0x1 DUP3 ADD SWAP2 POP PUSH1 0x20 DUP6 ADD SWAP5 POP PUSH1 0x20 DUP2 ADD SWAP1 POP PUSH3 0x4A8 JUMP JUMPDEST DUP7 DUP4 LT ISZERO PUSH3 0x4EF JUMPI DUP5 DUP10 ADD MLOAD PUSH3 0x4EB PUSH1 0x1F DUP10 AND DUP3 PUSH3 0x3DF JUMP JUMPDEST DUP4 SSTORE POP JUMPDEST PUSH1 0x1 PUSH1 0x2 DUP9 MUL ADD DUP9 SSTORE POP POP POP JUMPDEST POP POP POP POP POP POP JUMP JUMPDEST PUSH2 0x1608 DUP1 PUSH3 0x514 PUSH1 0x0 CODECOPY PUSH1 0x0 RETURN INVALID PUSH1 0x80 PUSH1 0x40 MSTORE PUSH1 0x4 CALLDATASIZE LT PUSH2 0x70 JUMPI PUSH1 0x0 CALLDATALOAD PUSH1 0xE0 SHR DUP1 PUSH4 0x5F515226 GT PUSH2 0x4E JUMPI DUP1 PUSH4 0x5F515226 EQ PUSH2 0xF2 JUMPI DUP1 PUSH4 0x745D4C18 EQ PUSH2 0x12F JUMPI DUP1 PUSH4 0xD0E30DB0 EQ PUSH2 0x16D JUMPI DUP1 PUSH4 0xDF6803D3 EQ PUSH2 0x18B JUMPI PUSH2 0x70 JUMP JUMPDEST DUP1 PUSH4 0x2A5BD7FB EQ PUSH2 0x75 JUMPI DUP1 PUSH4 0x2E1A7D4D EQ PUSH2 0x9E JUMPI DUP1 PUSH4 0x41B3D185 EQ PUSH2 0xC7 JUMPI JUMPDEST PUSH1 0x0 DUP1 REVERT JUMPDEST CALLVALUE DUP1 ISZERO PUSH2 0x81 JUMPI PUSH1 0x0 DUP1 REVERT JUMPDEST POP PUSH2 0x9C PUSH1 0x4 DUP1 CALLDATASIZE SUB DUP2 ADD SWAP1 PUSH2 0x97 SWAP2 SWAP1 PUSH2 0xD40 JUMP JUMPDEST PUSH2 0x1B6 JUMP JUMPDEST STOP JUMPDEST CALLVALUE DUP1 ISZERO PUSH2 0xAA JUMPI PUSH1 0x0 DUP1 REVERT JUMPDEST POP PUSH2 0xC5 PUSH1 0x4 DUP1 CALLDATASIZE SUB DUP2 ADD SWAP1 PUSH2 0xC0 SWAP2 SWAP1 PUSH2 0xDD2 JUMP JUMPDEST PUSH2 0x43D JUMP JUMPDEST STOP JUMPDEST CALLVALUE DUP1 ISZERO PUSH2 0xD3 JUMPI PUSH1 0x0 DUP1 REVERT JUMPDEST POP PUSH2 0xDC PUSH2 0x6AE JUMP JUMPDEST PUSH1 0x40 MLOAD PUSH2 0xE9 SWAP2 SWAP1 PUSH2 0xE0E JUMP JUMPDEST PUSH1 0x40 MLOAD DUP1 SWAP2 SUB SWAP1 RETURN JUMPDEST CALLVALUE DUP1 ISZERO PUSH2 0xFE JUMPI PUSH1 0x0 DUP1 REVERT JUMPDEST POP PUSH2 0x119 PUSH1 0x4 DUP1 CALLDATASIZE SUB DUP2 ADD SWAP1 PUSH2 0x114 SWAP2 SWAP1 PUSH2 0xE29 JUMP JUMPDEST PUSH2 0x6B4 JUMP JUMPDEST PUSH1 0x40 MLOAD PUSH2 0x126 SWAP2 SWAP1 PUSH2 0xE0E JUMP JUMPDEST PUSH1 0x40 MLOAD DUP1 SWAP2 SUB SWAP1 RETURN JUMPDEST CALLVALUE DUP1 ISZERO PUSH2 0x13B JUMPI PUSH1 0x0 DUP1 REVERT JUMPDEST POP PUSH2 0x156 PUSH1 0x4 DUP1 CALLDATASIZE SUB DUP2 ADD SWAP1 PUSH2 0x151 SWAP2 SWAP1 PUSH2 0xDD2 JUMP JUMPDEST PUSH2 0x6FD JUMP JUMPDEST PUSH1 0x40 MLOAD PUSH2 0x164 SWAP3 SWAP2 SWAP1 PUSH2 0xEE4 JUMP JUMPDEST PUSH1 0x40 MLOAD DUP1 SWAP2 SUB SWAP1 RETURN JUMPDEST PUSH2 0x175 PUSH2 0x7D9 JUMP JUMPDEST PUSH1 0x40 MLOAD PUSH2 0x182 SWAP2 SWAP1 PUSH2 0xF2F JUMP JUMPDEST PUSH1 0x40 MLOAD DUP1 SWAP2 SUB SWAP1 RETURN JUMPDEST CALLVALUE DUP1 ISZERO PUSH2 0x197 JUMPI PUSH1 0x0 DUP1 REVERT JUMPDEST POP PUSH2 0x1A0 PUSH2 0x9D9 JUMP JUMPDEST PUSH1 0x40 MLOAD PUSH2 0x1AD SWAP2 SWAP1 PUSH2 0xFA9 JUMP JUMPDEST PUSH1 0x40 MLOAD DUP1 SWAP2 SUB SWAP1 RETURN JUMPDEST PUSH1 0x2 PUSH1 0x0 SWAP1 SLOAD SWAP1 PUSH2 0x100 EXP SWAP1 DIV PUSH20 0xFFFFFFFFFFFFFFFFFFFFFFFFFFFFFFFFFFFFFFFF AND PUSH20 0xFFFFFFFFFFFFFFFFFFFFFFFFFFFFFFFFFFFFFFFF AND CALLER PUSH20 0xFFFFFFFFFFFFFFFFFFFFFFFFFFFFFFFFFFFFFFFF AND EQ PUSH2 0x24A JUMPI PUSH2 0x249 PUSH1 0x40 MLOAD DUP1 PUSH1 0x40 ADD PUSH1 0x40 MSTORE DUP1 PUSH1 0x9 DUP2 MSTORE PUSH1 0x20 ADD PUSH32 0x4E6F74206F776E65720000000000000000000000000000000000000000000000 DUP2 MSTORE POP PUSH2 0x9FD JUMP JUMPDEST JUMPDEST PUSH1 0x2 PUSH1 0x0 SWAP1 SLOAD SWAP1 PUSH2 0x100 EXP SWAP1 DIV PUSH20 0xFFFFFFFFFFFFFFFFFFFFFFFFFFFFFFFFFFFFFFFF AND PUSH20 0xFFFFFFFFFFFFFFFFFFFFFFFFFFFFFFFFFFFFFFFF AND CALLER PUSH20 0xFFFFFFFFFFFFFFFFFFFFFFFFFFFFFFFFFFFFFFFF AND EQ PUSH2 0x2A4 JUMPI PUSH1 0x0 DUP1 REVERT JUMPDEST PUSH2 0x2AC PUSH2 0xB58 JUMP JUMPDEST DUP3 DUP2 PUSH1 0x0 ADD SWAP1 PUSH20 0xFFFFFFFFFFFFFFFFFFFFFFFFFFFFFFFFFFFFFFFF AND SWAP1 DUP2 PUSH20 0xFFFFFFFFFFFFFFFFFFFFFFFFFFFFFFFFFFFFFFFF AND DUP2 MSTORE POP POP DUP2 DUP2 PUSH1 0x20 ADD DUP2 SWAP1 MSTORE POP PUSH2 0x316 PUSH1 0x0 DUP1 SLOAD SWAP1 PUSH2 0x100 EXP SWAP1 DIV PUSH20 0xFFFFFFFFFFFFFFFFFFFFFFFFFFFFFFFFFFFFFFFF AND PUSH2 0xA96 JUMP JUMPDEST DUP3 PUSH20 0xFFFFFFFFFFFFFFFFFFFFFFFFFFFFFFFFFFFFFFFF AND PUSH1 0x2 PUSH1 0x0 SWAP1 SLOAD SWAP1 PUSH2 0x100 EXP SWAP1 DIV PUSH20 0xFFFFFFFFFFFFFFFFFFFFFFFFFFFFFFFFFFFFFFFF AND PUSH20 0xFFFFFFFFFFFFFFFFFFFFFFFFFFFFFFFFFFFFFFFF AND SUB PUSH2 0x438 JUMPI PUSH1 0x5 DUP2 SWAP1 DUP1 PUSH1 0x1 DUP2 SLOAD ADD DUP1 DUP3 SSTORE DUP1 SWAP2 POP POP PUSH1 0x1 SWAP1 SUB SWAP1 PUSH1 0x0 MSTORE PUSH1 0x20 PUSH1 0x0 KECCAK256 SWAP1 PUSH1 0x2 MUL ADD PUSH1 0x0 SWAP1 SWAP2 SWAP1 SWAP2 SWAP1 SWAP2 POP PUSH1 0x0 DUP3 ADD MLOAD DUP2 PUSH1 0x0 ADD PUSH1 0x0 PUSH2 0x100 EXP DUP2 SLOAD DUP2 PUSH20 0xFFFFFFFFFFFFFFFFFFFFFFFFFFFFFFFFFFFFFFFF MUL NOT AND SWAP1 DUP4 PUSH20 0xFFFFFFFFFFFFFFFFFFFFFFFFFFFFFFFFFFFFFFFF AND MUL OR SWAP1 SSTORE POP PUSH1 0x20 DUP3 ADD MLOAD DUP2 PUSH1 0x1 ADD SWAP1 DUP2 PUSH2 0x3F3 SWAP2 SWAP1 PUSH2 0x11C6 JUMP JUMPDEST POP POP POP DUP3 PUSH1 0x2 PUSH1 0x0 PUSH2 0x100 EXP DUP2 SLOAD DUP2 PUSH20 0xFFFFFFFFFFFFFFFFFFFFFFFFFFFFFFFFFFFFFFFF MUL NOT AND SWAP1 DUP4 PUSH20 0xFFFFFFFFFFFFFFFFFFFFFFFFFFFFFFFFFFFFFFFF AND MUL OR SWAP1 SSTORE POP JUMPDEST POP POP POP JUMP JUMPDEST PUSH1 0x4 PUSH1 0x0 CALLER PUSH20 0xFFFFFFFFFFFFFFFFFFFFFFFFFFFFFFFFFFFFFFFF AND PUSH20 0xFFFFFFFFFFFFFFFFFFFFFFFFFFFFFFFFFFFFFFFF AND DUP2 MSTORE PUSH1 0x20 ADD SWAP1 DUP2 MSTORE PUSH1 0x20 ADD PUSH1 0x0 KECCAK256 SLOAD DUP2 GT PUSH2 0x6AB JUMPI PUSH1 0x0 CALLER PUSH20 0xFFFFFFFFFFFFFFFFFFFFFFFFFFFFFFFFFFFFFFFF AND DUP3 PUSH1 0x40 MLOAD PUSH2 0x4A9 SWAP1 PUSH2 0x12C9 JUMP JUMPDEST PUSH1 0x0 PUSH1 0x40 MLOAD DUP1 DUP4 SUB DUP2 DUP6 DUP8 GAS CALL SWAP3 POP POP POP RETURNDATASIZE DUP1 PUSH1 0x0 DUP2 EQ PUSH2 0x4E6 JUMPI PUSH1 0x40 MLOAD SWAP2 POP PUSH1 0x1F NOT PUSH1 0x3F RETURNDATASIZE ADD AND DUP3 ADD PUSH1 0x40 MSTORE RETURNDATASIZE DUP3 MSTORE RETURNDATASIZE PUSH1 0x0 PUSH1 0x20 DUP5 ADD RETURNDATACOPY PUSH2 0x4EB JUMP JUMPDEST PUSH1 0x60 SWAP2 POP JUMPDEST POP POP SWAP1 POP PUSH2 0x52D PUSH1 0x40 MLOAD DUP1 PUSH1 0x40 ADD PUSH1 0x40 MSTORE DUP1 PUSH1 0x10 DUP2 MSTORE PUSH1 0x20 ADD PUSH32 0x46696E697368207472616E736665723F00000000000000000000000000000000 DUP2 MSTORE POP PUSH2 0x9FD JUMP JUMPDEST DUP1 ISZERO PUSH2 0x61B JUMPI DUP2 PUSH1 0x4 PUSH1 0x0 CALLER PUSH20 0xFFFFFFFFFFFFFFFFFFFFFFFFFFFFFFFFFFFFFFFF AND PUSH20 0xFFFFFFFFFFFFFFFFFFFFFFFFFFFFFFFFFFFFFFFF AND DUP2 MSTORE PUSH1 0x20 ADD SWAP1 DUP2 MSTORE PUSH1 0x20 ADD PUSH1 0x0 KECCAK256 PUSH1 0x0 DUP3 DUP3 SLOAD PUSH2 0x582 SWAP2 SWAP1 PUSH2 0x130D JUMP JUMPDEST SWAP3 POP POP DUP2 SWAP1 SSTORE POP PUSH1 0x0 DUP1 SLOAD SWAP1 PUSH2 0x100 EXP SWAP1 DIV PUSH20 0xFFFFFFFFFFFFFFFFFFFFFFFFFFFFFFFFFFFFFFFF AND PUSH20 0xFFFFFFFFFFFFFFFFFFFFFFFFFFFFFFFFFFFFFFFF AND PUSH4 0x10176F86 CALLER DUP5 PUSH1 0x40 MLOAD DUP4 PUSH4 0xFFFFFFFF AND PUSH1 0xE0 SHL DUP2 MSTORE PUSH1 0x4 ADD PUSH2 0x5E4 SWAP3 SWAP2 SWAP1 PUSH2 0x138D JUMP JUMPDEST PUSH1 0x0 PUSH1 0x40 MLOAD DUP1 DUP4 SUB DUP2 PUSH1 0x0 DUP8 DUP1 EXTCODESIZE ISZERO DUP1 ISZERO PUSH2 0x5FE JUMPI PUSH1 0x0 DUP1 REVERT JUMPDEST POP GAS CALL ISZERO DUP1 ISZERO PUSH2 0x612 JUMPI RETURNDATASIZE PUSH1 0x0 DUP1 RETURNDATACOPY RETURNDATASIZE PUSH1 0x0 REVERT JUMPDEST POP POP POP POP PUSH2 0x6A9 JUMP JUMPDEST PUSH1 0x0 DUP1 SLOAD SWAP1 PUSH2 0x100 EXP SWAP1 DIV PUSH20 0xFFFFFFFFFFFFFFFFFFFFFFFFFFFFFFFFFFFFFFFF AND PUSH20 0xFFFFFFFFFFFFFFFFFFFFFFFFFFFFFFFFFFFFFFFF AND PUSH4 0x10176F86 CALLER DUP5 PUSH1 0x40 MLOAD DUP4 PUSH4 0xFFFFFFFF AND PUSH1 0xE0 SHL DUP2 MSTORE PUSH1 0x4 ADD PUSH2 0x676 SWAP3 SWAP2 SWAP1 PUSH2 0x1415 JUMP JUMPDEST PUSH1 0x0 PUSH1 0x40 MLOAD DUP1 DUP4 SUB DUP2 PUSH1 0x0 DUP8 DUP1 EXTCODESIZE ISZERO DUP1 ISZERO PUSH2 0x690 JUMPI PUSH1 0x0 DUP1 REVERT JUMPDEST POP GAS CALL ISZERO DUP1 ISZERO PUSH2 0x6A4 JUMPI RETURNDATASIZE PUSH1 0x0 DUP1 RETURNDATACOPY RETURNDATASIZE PUSH1 0x0 REVERT JUMPDEST POP POP POP POP JUMPDEST POP JUMPDEST POP JUMP JUMPDEST PUSH1 0x3 SLOAD DUP2 JUMP JUMPDEST PUSH1 0x0 PUSH1 0x4 PUSH1 0x0 DUP4 PUSH20 0xFFFFFFFFFFFFFFFFFFFFFFFFFFFFFFFFFFFFFFFF AND PUSH20 0xFFFFFFFFFFFFFFFFFFFFFFFFFFFFFFFFFFFFFFFF AND DUP2 MSTORE PUSH1 0x20 ADD SWAP1 DUP2 MSTORE PUSH1 0x20 ADD PUSH1 0x0 KECCAK256 SLOAD SWAP1 POP SWAP2 SWAP1 POP JUMP JUMPDEST PUSH1 0x5 DUP2 DUP2 SLOAD DUP2 LT PUSH2 0x70D JUMPI PUSH1 0x0 DUP1 REVERT JUMPDEST SWAP1 PUSH1 0x0 MSTORE PUSH1 0x20 PUSH1 0x0 KECCAK256 SWAP1 PUSH1 0x2 MUL ADD PUSH1 0x0 SWAP2 POP SWAP1 POP DUP1 PUSH1 0x0 ADD PUSH1 0x0 SWAP1 SLOAD SWAP1 PUSH2 0x100 EXP SWAP1 DIV PUSH20 0xFFFFFFFFFFFFFFFFFFFFFFFFFFFFFFFFFFFFFFFF AND SWAP1 DUP1 PUSH1 0x1 ADD DUP1 SLOAD PUSH2 0x756 SWAP1 PUSH2 0xFF3 JUMP JUMPDEST DUP1 PUSH1 0x1F ADD PUSH1 0x20 DUP1 SWAP2 DIV MUL PUSH1 0x20 ADD PUSH1 0x40 MLOAD SWAP1 DUP2 ADD PUSH1 0x40 MSTORE DUP1 SWAP3 SWAP2 SWAP1 DUP2 DUP2 MSTORE PUSH1 0x20 ADD DUP3 DUP1 SLOAD PUSH2 0x782 SWAP1 PUSH2 0xFF3 JUMP JUMPDEST DUP1 ISZERO PUSH2 0x7CF JUMPI DUP1 PUSH1 0x1F LT PUSH2 0x7A4 JUMPI PUSH2 0x100 DUP1 DUP4 SLOAD DIV MUL DUP4 MSTORE SWAP2 PUSH1 0x20 ADD SWAP2 PUSH2 0x7CF JUMP JUMPDEST DUP3 ADD SWAP2 SWAP1 PUSH1 0x0 MSTORE PUSH1 0x20 PUSH1 0x0 KECCAK256 SWAP1 JUMPDEST DUP2 SLOAD DUP2 MSTORE SWAP1 PUSH1 0x1 ADD SWAP1 PUSH1 0x20 ADD DUP1 DUP4 GT PUSH2 0x7B2 JUMPI DUP3 SWAP1 SUB PUSH1 0x1F AND DUP3 ADD SWAP2 JUMPDEST POP POP POP POP POP SWAP1 POP DUP3 JUMP JUMPDEST PUSH1 0x0 PUSH1 0x3 SLOAD CALLVALUE LT PUSH2 0x90A JUMPI CALLVALUE PUSH1 0x4 PUSH1 0x0 CALLER PUSH20 0xFFFFFFFFFFFFFFFFFFFFFFFFFFFFFFFFFFFFFFFF AND PUSH20 0xFFFFFFFFFFFFFFFFFFFFFFFFFFFFFFFFFFFFFFFF AND DUP2 MSTORE PUSH1 0x20 ADD SWAP1 DUP2 MSTORE PUSH1 0x20 ADD PUSH1 0x0 KECCAK256 PUSH1 0x0 DUP3 DUP3 SLOAD PUSH2 0x833 SWAP2 SWAP1 PUSH2 0x1451 JUMP JUMPDEST SWAP3 POP POP DUP2 SWAP1 SSTORE POP PUSH2 0x878 PUSH1 0x40 MLOAD DUP1 PUSH1 0x40 ADD PUSH1 0x40 MSTORE DUP1 PUSH1 0x10 DUP2 MSTORE PUSH1 0x20 ADD PUSH32 0x656E6F756768206D73672E76616C756500000000000000000000000000000000 DUP2 MSTORE POP PUSH2 0x9FD JUMP JUMPDEST PUSH1 0x0 DUP1 SLOAD SWAP1 PUSH2 0x100 EXP SWAP1 DIV PUSH20 0xFFFFFFFFFFFFFFFFFFFFFFFFFFFFFFFFFFFFFFFF AND PUSH20 0xFFFFFFFFFFFFFFFFFFFFFFFFFFFFFFFFFFFFFFFF AND PUSH4 0x10176F86 CALLER CALLVALUE PUSH1 0x40 MLOAD DUP4 PUSH4 0xFFFFFFFF AND PUSH1 0xE0 SHL DUP2 MSTORE PUSH1 0x4 ADD PUSH2 0x8D3 SWAP3 SWAP2 SWAP1 PUSH2 0x14D1 JUMP JUMPDEST PUSH1 0x0 PUSH1 0x40 MLOAD DUP1 DUP4 SUB DUP2 PUSH1 0x0 DUP8 DUP1 EXTCODESIZE ISZERO DUP1 ISZERO PUSH2 0x8ED JUMPI PUSH1 0x0 DUP1 REVERT JUMPDEST POP GAS CALL ISZERO DUP1 ISZERO PUSH2 0x901 JUMPI RETURNDATASIZE PUSH1 0x0 DUP1 RETURNDATACOPY RETURNDATASIZE PUSH1 0x0 REVERT JUMPDEST POP POP POP POP PUSH2 0x9D6 JUMP JUMPDEST PUSH2 0x948 PUSH1 0x40 MLOAD DUP1 PUSH1 0x40 ADD PUSH1 0x40 MSTORE DUP1 PUSH1 0xA DUP2 MSTORE PUSH1 0x20 ADD PUSH32 0x4E6F7420656E6F75676800000000000000000000000000000000000000000000 DUP2 MSTORE POP PUSH2 0x9FD JUMP JUMPDEST PUSH1 0x0 DUP1 SLOAD SWAP1 PUSH2 0x100 EXP SWAP1 DIV PUSH20 0xFFFFFFFFFFFFFFFFFFFFFFFFFFFFFFFFFFFFFFFF AND PUSH20 0xFFFFFFFFFFFFFFFFFFFFFFFFFFFFFFFFFFFFFFFF AND PUSH4 0x10176F86 CALLER CALLVALUE PUSH1 0x40 MLOAD DUP4 PUSH4 0xFFFFFFFF AND PUSH1 0xE0 SHL DUP2 MSTORE PUSH1 0x4 ADD PUSH2 0x9A3 SWAP3 SWAP2 SWAP1 PUSH2 0x1559 JUMP JUMPDEST PUSH1 0x0 PUSH1 0x40 MLOAD DUP1 DUP4 SUB DUP2 PUSH1 0x0 DUP8 DUP1 EXTCODESIZE ISZERO DUP1 ISZERO PUSH2 0x9BD JUMPI PUSH1 0x0 DUP1 REVERT JUMPDEST POP GAS CALL ISZERO DUP1 ISZERO PUSH2 0x9D1 JUMPI RETURNDATASIZE PUSH1 0x0 DUP1 RETURNDATACOPY RETURNDATASIZE PUSH1 0x0 REVERT JUMPDEST POP POP POP POP JUMPDEST SWAP1 JUMP JUMPDEST PUSH1 0x0 DUP1 SLOAD SWAP1 PUSH2 0x100 EXP SWAP1 DIV PUSH20 0xFFFFFFFFFFFFFFFFFFFFFFFFFFFFFFFFFFFFFFFF AND DUP2 JUMP JUMPDEST PUSH2 0xA93 DUP2 PUSH1 0x40 MLOAD PUSH1 0x24 ADD PUSH2 0xA11 SWAP2 SWAP1 PUSH2 0x1595 JUMP JUMPDEST PUSH1 0x40 MLOAD PUSH1 0x20 DUP2 DUP4 SUB SUB DUP2 MSTORE SWAP1 PUSH1 0x40 MSTORE PUSH32 0x41304FAC00000000000000000000000000000000000000000000000000000000 PUSH28 0xFFFFFFFFFFFFFFFFFFFFFFFFFFFFFFFFFFFFFFFFFFFFFFFFFFFFFFFF NOT AND PUSH1 0x20 DUP3 ADD DUP1 MLOAD PUSH28 0xFFFFFFFFFFFFFFFFFFFFFFFFFFFFFFFFFFFFFFFFFFFFFFFFFFFFFFFF DUP4 DUP2 DUP4 AND OR DUP4 MSTORE POP POP POP POP PUSH2 0xB2F JUMP JUMPDEST POP JUMP JUMPDEST PUSH2 0xB2C DUP2 PUSH1 0x40 MLOAD PUSH1 0x24 ADD PUSH2 0xAAA SWAP2 SWAP1 PUSH2 0x15B7 JUMP JUMPDEST PUSH1 0x40 MLOAD PUSH1 0x20 DUP2 DUP4 SUB SUB DUP2 MSTORE SWAP1 PUSH1 0x40 MSTORE PUSH32 0x2C2ECBC200000000000000000000000000000000000000000000000000000000 PUSH28 0xFFFFFFFFFFFFFFFFFFFFFFFFFFFFFFFFFFFFFFFFFFFFFFFFFFFFFFFF NOT AND PUSH1 0x20 DUP3 ADD DUP1 MLOAD PUSH28 0xFFFFFFFFFFFFFFFFFFFFFFFFFFFFFFFFFFFFFFFFFFFFFFFFFFFFFFFF DUP4 DUP2 DUP4 AND OR DUP4 MSTORE POP POP POP POP PUSH2 0xB2F JUMP JUMPDEST POP JUMP JUMPDEST PUSH1 0x0 DUP2 MLOAD SWAP1 POP PUSH1 0x0 PUSH11 0x636F6E736F6C652E6C6F67 SWAP1 POP PUSH1 0x20 DUP4 ADD PUSH1 0x0 DUP1 DUP5 DUP4 DUP6 GAS STATICCALL POP POP POP POP POP JUMP JUMPDEST PUSH1 0x40 MLOAD DUP1 PUSH1 0x40 ADD PUSH1 0x40 MSTORE DUP1 PUSH1 0x0 PUSH20 0xFFFFFFFFFFFFFFFFFFFFFFFFFFFFFFFFFFFFFFFF AND DUP2 MSTORE PUSH1 0x20 ADD PUSH1 0x60 DUP2 MSTORE POP SWAP1 JUMP JUMPDEST PUSH1 0x0 PUSH1 0x40 MLOAD SWAP1 POP SWAP1 JUMP JUMPDEST PUSH1 0x0 DUP1 REVERT JUMPDEST PUSH1 0x0 DUP1 REVERT JUMPDEST PUSH1 0x0 PUSH20 0xFFFFFFFFFFFFFFFFFFFFFFFFFFFFFFFFFFFFFFFF DUP3 AND SWAP1 POP SWAP2 SWAP1 POP JUMP JUMPDEST PUSH1 0x0 PUSH2 0xBC7 DUP3 PUSH2 0xB9C JUMP JUMPDEST SWAP1 POP SWAP2 SWAP1 POP JUMP JUMPDEST PUSH2 0xBD7 DUP2 PUSH2 0xBBC JUMP JUMPDEST DUP2 EQ PUSH2 0xBE2 JUMPI PUSH1 0x0 DUP1 REVERT JUMPDEST POP JUMP JUMPDEST PUSH1 0x0 DUP2 CALLDATALOAD SWAP1 POP PUSH2 0xBF4 DUP2 PUSH2 0xBCE JUMP JUMPDEST SWAP3 SWAP2 POP POP JUMP JUMPDEST PUSH1 0x0 DUP1 REVERT JUMPDEST PUSH1 0x0 DUP1 REVERT JUMPDEST PUSH1 0x0 PUSH1 0x1F NOT PUSH1 0x1F DUP4 ADD AND SWAP1 POP SWAP2 SWAP1 POP JUMP JUMPDEST PUSH32 0x4E487B7100000000000000000000000000000000000000000000000000000000 PUSH1 0x0 MSTORE PUSH1 0x41 PUSH1 0x4 MSTORE PUSH1 0x24 PUSH1 0x0 REVERT JUMPDEST PUSH2 0xC4D DUP3 PUSH2 0xC04 JUMP JUMPDEST DUP2 ADD DUP2 DUP2 LT PUSH8 0xFFFFFFFFFFFFFFFF DUP3 GT OR ISZERO PUSH2 0xC6C JUMPI PUSH2 0xC6B PUSH2 0xC15 JUMP JUMPDEST JUMPDEST DUP1 PUSH1 0x40 MSTORE POP POP POP JUMP JUMPDEST PUSH1 0x0 PUSH2 0xC7F PUSH2 0xB88 JUMP JUMPDEST SWAP1 POP PUSH2 0xC8B DUP3 DUP3 PUSH2 0xC44 JUMP JUMPDEST SWAP2 SWAP1 POP JUMP JUMPDEST PUSH1 0x0 PUSH8 0xFFFFFFFFFFFFFFFF DUP3 GT ISZERO PUSH2 0xCAB JUMPI PUSH2 0xCAA PUSH2 0xC15 JUMP JUMPDEST JUMPDEST PUSH2 0xCB4 DUP3 PUSH2 0xC04 JUMP JUMPDEST SWAP1 POP PUSH1 0x20 DUP2 ADD SWAP1 POP SWAP2 SWAP1 POP JUMP JUMPDEST DUP3 DUP2 DUP4 CALLDATACOPY PUSH1 0x0 DUP4 DUP4 ADD MSTORE POP POP POP JUMP JUMPDEST PUSH1 0x0 PUSH2 0xCE3 PUSH2 0xCDE DUP5 PUSH2 0xC90 JUMP JUMPDEST PUSH2 0xC75 JUMP JUMPDEST SWAP1 POP DUP3 DUP2 MSTORE PUSH1 0x20 DUP2 ADD DUP5 DUP5 DUP5 ADD GT ISZERO PUSH2 0xCFF JUMPI PUSH2 0xCFE PUSH2 0xBFF JUMP JUMPDEST JUMPDEST PUSH2 0xD0A DUP5 DUP3 DUP6 PUSH2 0xCC1 JUMP JUMPDEST POP SWAP4 SWAP3 POP POP POP JUMP JUMPDEST PUSH1 0x0 DUP3 PUSH1 0x1F DUP4 ADD SLT PUSH2 0xD27 JUMPI PUSH2 0xD26 PUSH2 0xBFA JUMP JUMPDEST JUMPDEST DUP2 CALLDATALOAD PUSH2 0xD37 DUP5 DUP3 PUSH1 0x20 DUP7 ADD PUSH2 0xCD0 JUMP JUMPDEST SWAP2 POP POP SWAP3 SWAP2 POP POP JUMP JUMPDEST PUSH1 0x0 DUP1 PUSH1 0x40 DUP4 DUP6 SUB SLT ISZERO PUSH2 0xD57 JUMPI PUSH2 0xD56 PUSH2 0xB92 JUMP JUMPDEST JUMPDEST PUSH1 0x0 PUSH2 0xD65 DUP6 DUP3 DUP7 ADD PUSH2 0xBE5 JUMP JUMPDEST SWAP3 POP POP PUSH1 0x20 DUP4 ADD CALLDATALOAD PUSH8 0xFFFFFFFFFFFFFFFF DUP2 GT ISZERO PUSH2 0xD86 JUMPI PUSH2 0xD85 PUSH2 0xB97 JUMP JUMPDEST JUMPDEST PUSH2 0xD92 DUP6 DUP3 DUP7 ADD PUSH2 0xD12 JUMP JUMPDEST SWAP2 POP POP SWAP3 POP SWAP3 SWAP1 POP JUMP JUMPDEST PUSH1 0x0 DUP2 SWAP1 POP SWAP2 SWAP1 POP JUMP JUMPDEST PUSH2 0xDAF DUP2 PUSH2 0xD9C JUMP JUMPDEST DUP2 EQ PUSH2 0xDBA JUMPI PUSH1 0x0 DUP1 REVERT JUMPDEST POP JUMP JUMPDEST PUSH1 0x0 DUP2 CALLDATALOAD SWAP1 POP PUSH2 0xDCC DUP2 PUSH2 0xDA6 JUMP JUMPDEST SWAP3 SWAP2 POP POP JUMP JUMPDEST PUSH1 0x0 PUSH1 0x20 DUP3 DUP5 SUB SLT ISZERO PUSH2 0xDE8 JUMPI PUSH2 0xDE7 PUSH2 0xB92 JUMP JUMPDEST JUMPDEST PUSH1 0x0 PUSH2 0xDF6 DUP5 DUP3 DUP6 ADD PUSH2 0xDBD JUMP JUMPDEST SWAP2 POP POP SWAP3 SWAP2 POP POP JUMP JUMPDEST PUSH2 0xE08 DUP2 PUSH2 0xD9C JUMP JUMPDEST DUP3 MSTORE POP POP JUMP JUMPDEST PUSH1 0x0 PUSH1 0x20 DUP3 ADD SWAP1 POP PUSH2 0xE23 PUSH1 0x0 DUP4 ADD DUP5 PUSH2 0xDFF JUMP JUMPDEST SWAP3 SWAP2 POP POP JUMP JUMPDEST PUSH1 0x0 PUSH1 0x20 DUP3 DUP5 SUB SLT ISZERO PUSH2 0xE3F JUMPI PUSH2 0xE3E PUSH2 0xB92 JUMP JUMPDEST JUMPDEST PUSH1 0x0 PUSH2 0xE4D DUP5 DUP3 DUP6 ADD PUSH2 0xBE5 JUMP JUMPDEST SWAP2 POP POP SWAP3 SWAP2 POP POP JUMP JUMPDEST PUSH2 0xE5F DUP2 PUSH2 0xBBC JUMP JUMPDEST DUP3 MSTORE POP POP JUMP JUMPDEST PUSH1 0x0 DUP2 MLOAD SWAP1 POP SWAP2 SWAP1 POP JUMP JUMPDEST PUSH1 0x0 DUP3 DUP3 MSTORE PUSH1 0x20 DUP3 ADD SWAP1 POP SWAP3 SWAP2 POP POP JUMP JUMPDEST PUSH1 0x0 JUMPDEST DUP4 DUP2 LT ISZERO PUSH2 0xE9F JUMPI DUP1 DUP3 ADD MLOAD DUP2 DUP5 ADD MSTORE PUSH1 0x20 DUP2 ADD SWAP1 POP PUSH2 0xE84 JUMP JUMPDEST PUSH1 0x0 DUP5 DUP5 ADD MSTORE POP POP POP POP JUMP JUMPDEST PUSH1 0x0 PUSH2 0xEB6 DUP3 PUSH2 0xE65 JUMP JUMPDEST PUSH2 0xEC0 DUP2 DUP6 PUSH2 0xE70 JUMP JUMPDEST SWAP4 POP PUSH2 0xED0 DUP2 DUP6 PUSH1 0x20 DUP7 ADD PUSH2 0xE81 JUMP JUMPDEST PUSH2 0xED9 DUP2 PUSH2 0xC04 JUMP JUMPDEST DUP5 ADD SWAP2 POP POP SWAP3 SWAP2 POP POP JUMP JUMPDEST PUSH1 0x0 PUSH1 0x40 DUP3 ADD SWAP1 POP PUSH2 0xEF9 PUSH1 0x0 DUP4 ADD DUP6 PUSH2 0xE56 JUMP JUMPDEST DUP2 DUP2 SUB PUSH1 0x20 DUP4 ADD MSTORE PUSH2 0xF0B DUP2 DUP5 PUSH2 0xEAB JUMP JUMPDEST SWAP1 POP SWAP4 SWAP3 POP POP POP JUMP JUMPDEST PUSH1 0x0 DUP2 ISZERO ISZERO SWAP1 POP SWAP2 SWAP1 POP JUMP JUMPDEST PUSH2 0xF29 DUP2 PUSH2 0xF14 JUMP JUMPDEST DUP3 MSTORE POP POP JUMP JUMPDEST PUSH1 0x0 PUSH1 0x20 DUP3 ADD SWAP1 POP PUSH2 0xF44 PUSH1 0x0 DUP4 ADD DUP5 PUSH2 0xF20 JUMP JUMPDEST SWAP3 SWAP2 POP POP JUMP JUMPDEST PUSH1 0x0 DUP2 SWAP1 POP SWAP2 SWAP1 POP JUMP JUMPDEST PUSH1 0x0 PUSH2 0xF6F PUSH2 0xF6A PUSH2 0xF65 DUP5 PUSH2 0xB9C JUMP JUMPDEST PUSH2 0xF4A JUMP JUMPDEST PUSH2 0xB9C JUMP JUMPDEST SWAP1 POP SWAP2 SWAP1 POP JUMP JUMPDEST PUSH1 0x0 PUSH2 0xF81 DUP3 PUSH2 0xF54 JUMP JUMPDEST SWAP1 POP SWAP2 SWAP1 POP JUMP JUMPDEST PUSH1 0x0 PUSH2 0xF93 DUP3 PUSH2 0xF76 JUMP JUMPDEST SWAP1 POP SWAP2 SWAP1 POP JUMP JUMPDEST PUSH2 0xFA3 DUP2 PUSH2 0xF88 JUMP JUMPDEST DUP3 MSTORE POP POP JUMP JUMPDEST PUSH1 0x0 PUSH1 0x20 DUP3 ADD SWAP1 POP PUSH2 0xFBE PUSH1 0x0 DUP4 ADD DUP5 PUSH2 0xF9A JUMP JUMPDEST SWAP3 SWAP2 POP POP JUMP JUMPDEST PUSH32 0x4E487B7100000000000000000000000000000000000000000000000000000000 PUSH1 0x0 MSTORE PUSH1 0x22 PUSH1 0x4 MSTORE PUSH1 0x24 PUSH1 0x0 REVERT JUMPDEST PUSH1 0x0 PUSH1 0x2 DUP3 DIV SWAP1 POP PUSH1 0x1 DUP3 AND DUP1 PUSH2 0x100B JUMPI PUSH1 0x7F DUP3 AND SWAP2 POP JUMPDEST PUSH1 0x20 DUP3 LT DUP2 SUB PUSH2 0x101E JUMPI PUSH2 0x101D PUSH2 0xFC4 JUMP JUMPDEST JUMPDEST POP SWAP2 SWAP1 POP JUMP JUMPDEST PUSH1 0x0 DUP2 SWAP1 POP DUP2 PUSH1 0x0 MSTORE PUSH1 0x20 PUSH1 0x0 KECCAK256 SWAP1 POP SWAP2 SWAP1 POP JUMP JUMPDEST PUSH1 0x0 PUSH1 0x20 PUSH1 0x1F DUP4 ADD DIV SWAP1 POP SWAP2 SWAP1 POP JUMP JUMPDEST PUSH1 0x0 DUP3 DUP3 SHL SWAP1 POP SWAP3 SWAP2 POP POP JUMP JUMPDEST PUSH1 0x0 PUSH1 0x8 DUP4 MUL PUSH2 0x1086 PUSH32 0xFFFFFFFFFFFFFFFFFFFFFFFFFFFFFFFFFFFFFFFFFFFFFFFFFFFFFFFFFFFFFFFF DUP3 PUSH2 0x1049 JUMP JUMPDEST PUSH2 0x1090 DUP7 DUP4 PUSH2 0x1049 JUMP JUMPDEST SWAP6 POP DUP1 NOT DUP5 AND SWAP4 POP DUP1 DUP7 AND DUP5 OR SWAP3 POP POP POP SWAP4 SWAP3 POP POP POP JUMP JUMPDEST PUSH1 0x0 PUSH2 0x10C3 PUSH2 0x10BE PUSH2 0x10B9 DUP5 PUSH2 0xD9C JUMP JUMPDEST PUSH2 0xF4A JUMP JUMPDEST PUSH2 0xD9C JUMP JUMPDEST SWAP1 POP SWAP2 SWAP1 POP JUMP JUMPDEST PUSH1 0x0 DUP2 SWAP1 POP SWAP2 SWAP1 POP JUMP JUMPDEST PUSH2 0x10DD DUP4 PUSH2 0x10A8 JUMP JUMPDEST PUSH2 0x10F1 PUSH2 0x10E9 DUP3 PUSH2 0x10CA JUMP JUMPDEST DUP5 DUP5 SLOAD PUSH2 0x1056 JUMP JUMPDEST DUP3 SSTORE POP POP POP POP JUMP JUMPDEST PUSH1 0x0 SWAP1 JUMP JUMPDEST PUSH2 0x1106 PUSH2 0x10F9 JUMP JUMPDEST PUSH2 0x1111 DUP2 DUP5 DUP5 PUSH2 0x10D4 JUMP JUMPDEST POP POP POP JUMP JUMPDEST JUMPDEST DUP2 DUP2 LT ISZERO PUSH2 0x1135 JUMPI PUSH2 0x112A PUSH1 0x0 DUP3 PUSH2 0x10FE JUMP JUMPDEST PUSH1 0x1 DUP2 ADD SWAP1 POP PUSH2 0x1117 JUMP JUMPDEST POP POP JUMP JUMPDEST PUSH1 0x1F DUP3 GT ISZERO PUSH2 0x117A JUMPI PUSH2 0x114B DUP2 PUSH2 0x1024 JUMP JUMPDEST PUSH2 0x1154 DUP5 PUSH2 0x1039 JUMP JUMPDEST DUP2 ADD PUSH1 0x20 DUP6 LT ISZERO PUSH2 0x1163 JUMPI DUP2 SWAP1 POP JUMPDEST PUSH2 0x1177 PUSH2 0x116F DUP6 PUSH2 0x1039 JUMP JUMPDEST DUP4 ADD DUP3 PUSH2 0x1116 JUMP JUMPDEST POP POP JUMPDEST POP POP POP JUMP JUMPDEST PUSH1 0x0 DUP3 DUP3 SHR SWAP1 POP SWAP3 SWAP2 POP POP JUMP JUMPDEST PUSH1 0x0 PUSH2 0x119D PUSH1 0x0 NOT DUP5 PUSH1 0x8 MUL PUSH2 0x117F JUMP JUMPDEST NOT DUP1 DUP4 AND SWAP2 POP POP SWAP3 SWAP2 POP POP JUMP JUMPDEST PUSH1 0x0 PUSH2 0x11B6 DUP4 DUP4 PUSH2 0x118C JUMP JUMPDEST SWAP2 POP DUP3 PUSH1 0x2 MUL DUP3 OR SWAP1 POP SWAP3 SWAP2 POP POP JUMP JUMPDEST PUSH2 0x11CF DUP3 PUSH2 0xE65 JUMP JUMPDEST PUSH8 0xFFFFFFFFFFFFFFFF DUP2 GT ISZERO PUSH2 0x11E8 JUMPI PUSH2 0x11E7 PUSH2 0xC15 JUMP JUMPDEST JUMPDEST PUSH2 0x11F2 DUP3 SLOAD PUSH2 0xFF3 JUMP JUMPDEST PUSH2 0x11FD DUP3 DUP3 DUP6 PUSH2 0x1139 JUMP JUMPDEST PUSH1 0x0 PUSH1 0x20 SWAP1 POP PUSH1 0x1F DUP4 GT PUSH1 0x1 DUP2 EQ PUSH2 0x1230 JUMPI PUSH1 0x0 DUP5 ISZERO PUSH2 0x121E JUMPI DUP3 DUP8 ADD MLOAD SWAP1 POP JUMPDEST PUSH2 0x1228 DUP6 DUP3 PUSH2 0x11AA JUMP JUMPDEST DUP7 SSTORE POP PUSH2 0x1290 JUMP JUMPDEST PUSH1 0x1F NOT DUP5 AND PUSH2 0x123E DUP7 PUSH2 0x1024 JUMP JUMPDEST PUSH1 0x0 JUMPDEST DUP3 DUP2 LT ISZERO PUSH2 0x1266 JUMPI DUP5 DUP10 ADD MLOAD DUP3 SSTORE PUSH1 0x1 DUP3 ADD SWAP2 POP PUSH1 0x20 DUP6 ADD SWAP5 POP PUSH1 0x20 DUP2 ADD SWAP1 POP PUSH2 0x1241 JUMP JUMPDEST DUP7 DUP4 LT ISZERO PUSH2 0x1283 JUMPI DUP5 DUP10 ADD MLOAD PUSH2 0x127F PUSH1 0x1F DUP10 AND DUP3 PUSH2 0x118C JUMP JUMPDEST DUP4 SSTORE POP JUMPDEST PUSH1 0x1 PUSH1 0x2 DUP9 MUL ADD DUP9 SSTORE POP POP POP JUMPDEST POP POP POP POP POP POP JUMP JUMPDEST PUSH1 0x0 DUP2 SWAP1 POP SWAP3 SWAP2 POP POP JUMP JUMPDEST POP JUMP JUMPDEST PUSH1 0x0 PUSH2 0x12B3 PUSH1 0x0 DUP4 PUSH2 0x1298 JUMP JUMPDEST SWAP2 POP PUSH2 0x12BE DUP3 PUSH2 0x12A3 JUMP JUMPDEST PUSH1 0x0 DUP3 ADD SWAP1 POP SWAP2 SWAP1 POP JUMP JUMPDEST PUSH1 0x0 PUSH2 0x12D4 DUP3 PUSH2 0x12A6 JUMP JUMPDEST SWAP2 POP DUP2 SWAP1 POP SWAP2 SWAP1 POP JUMP JUMPDEST PUSH32 0x4E487B7100000000000000000000000000000000000000000000000000000000 PUSH1 0x0 MSTORE PUSH1 0x11 PUSH1 0x4 MSTORE PUSH1 0x24 PUSH1 0x0 REVERT JUMPDEST PUSH1 0x0 PUSH2 0x1318 DUP3 PUSH2 0xD9C JUMP JUMPDEST SWAP2 POP PUSH2 0x1323 DUP4 PUSH2 0xD9C JUMP JUMPDEST SWAP3 POP DUP3 DUP3 SUB SWAP1 POP DUP2 DUP2 GT ISZERO PUSH2 0x133B JUMPI PUSH2 0x133A PUSH2 0x12DE JUMP JUMPDEST JUMPDEST SWAP3 SWAP2 POP POP JUMP JUMPDEST PUSH32 0x7769746864726177000000000000000000000000000000000000000000000000 PUSH1 0x0 DUP3 ADD MSTORE POP JUMP JUMPDEST PUSH1 0x0 PUSH2 0x1377 PUSH1 0x8 DUP4 PUSH2 0xE70 JUMP JUMPDEST SWAP2 POP PUSH2 0x1382 DUP3 PUSH2 0x1341 JUMP JUMPDEST PUSH1 0x20 DUP3 ADD SWAP1 POP SWAP2 SWAP1 POP JUMP JUMPDEST PUSH1 0x0 PUSH1 0x60 DUP3 ADD SWAP1 POP PUSH2 0x13A2 PUSH1 0x0 DUP4 ADD DUP6 PUSH2 0xE56 JUMP JUMPDEST PUSH2 0x13AF PUSH1 0x20 DUP4 ADD DUP5 PUSH2 0xDFF JUMP JUMPDEST DUP2 DUP2 SUB PUSH1 0x40 DUP4 ADD MSTORE PUSH2 0x13C0 DUP2 PUSH2 0x136A JUMP JUMPDEST SWAP1 POP SWAP4 SWAP3 POP POP POP JUMP JUMPDEST PUSH32 0x77697468647261774661696C6564000000000000000000000000000000000000 PUSH1 0x0 DUP3 ADD MSTORE POP JUMP JUMPDEST PUSH1 0x0 PUSH2 0x13FF PUSH1 0xE DUP4 PUSH2 0xE70 JUMP JUMPDEST SWAP2 POP PUSH2 0x140A DUP3 PUSH2 0x13C9 JUMP JUMPDEST PUSH1 0x20 DUP3 ADD SWAP1 POP SWAP2 SWAP1 POP JUMP JUMPDEST PUSH1 0x0 PUSH1 0x60 DUP3 ADD SWAP1 POP PUSH2 0x142A PUSH1 0x0 DUP4 ADD DUP6 PUSH2 0xE56 JUMP JUMPDEST PUSH2 0x1437 PUSH1 0x20 DUP4 ADD DUP5 PUSH2 0xDFF JUMP JUMPDEST DUP2 DUP2 SUB PUSH1 0x40 DUP4 ADD MSTORE PUSH2 0x1448 DUP2 PUSH2 0x13F2 JUMP JUMPDEST SWAP1 POP SWAP4 SWAP3 POP POP POP JUMP JUMPDEST PUSH1 0x0 PUSH2 0x145C DUP3 PUSH2 0xD9C JUMP JUMPDEST SWAP2 POP PUSH2 0x1467 DUP4 PUSH2 0xD9C JUMP JUMPDEST SWAP3 POP DUP3 DUP3 ADD SWAP1 POP DUP1 DUP3 GT ISZERO PUSH2 0x147F JUMPI PUSH2 0x147E PUSH2 0x12DE JUMP JUMPDEST JUMPDEST SWAP3 SWAP2 POP POP JUMP JUMPDEST PUSH32 0x6465706F73697400000000000000000000000000000000000000000000000000 PUSH1 0x0 DUP3 ADD MSTORE POP JUMP JUMPDEST PUSH1 0x0 PUSH2 0x14BB PUSH1 0x7 DUP4 PUSH2 0xE70 JUMP JUMPDEST SWAP2 POP PUSH2 0x14C6 DUP3 PUSH2 0x1485 JUMP JUMPDEST PUSH1 0x20 DUP3 ADD SWAP1 POP SWAP2 SWAP1 POP JUMP JUMPDEST PUSH1 0x0 PUSH1 0x60 DUP3 ADD SWAP1 POP PUSH2 0x14E6 PUSH1 0x0 DUP4 ADD DUP6 PUSH2 0xE56 JUMP JUMPDEST PUSH2 0x14F3 PUSH1 0x20 DUP4 ADD DUP5 PUSH2 0xDFF JUMP JUMPDEST DUP2 DUP2 SUB PUSH1 0x40 DUP4 ADD MSTORE PUSH2 0x1504 DUP2 PUSH2 0x14AE JUMP JUMPDEST SWAP1 POP SWAP4 SWAP3 POP POP POP JUMP JUMPDEST PUSH32 0x6465706F7369744661696C656400000000000000000000000000000000000000 PUSH1 0x0 DUP3 ADD MSTORE POP JUMP JUMPDEST PUSH1 0x0 PUSH2 0x1543 PUSH1 0xD DUP4 PUSH2 0xE70 JUMP JUMPDEST SWAP2 POP PUSH2 0x154E DUP3 PUSH2 0x150D JUMP JUMPDEST PUSH1 0x20 DUP3 ADD SWAP1 POP SWAP2 SWAP1 POP JUMP JUMPDEST PUSH1 0x0 PUSH1 0x60 DUP3 ADD SWAP1 POP PUSH2 0x156E PUSH1 0x0 DUP4 ADD DUP6 PUSH2 0xE56 JUMP JUMPDEST PUSH2 0x157B PUSH1 0x20 DUP4 ADD DUP5 PUSH2 0xDFF JUMP JUMPDEST DUP2 DUP2 SUB PUSH1 0x40 DUP4 ADD MSTORE PUSH2 0x158C DUP2 PUSH2 0x1536 JUMP JUMPDEST SWAP1 POP SWAP4 SWAP3 POP POP POP JUMP JUMPDEST PUSH1 0x0 PUSH1 0x20 DUP3 ADD SWAP1 POP DUP2 DUP2 SUB PUSH1 0x0 DUP4 ADD MSTORE PUSH2 0x15AF DUP2 DUP5 PUSH2 0xEAB JUMP JUMPDEST SWAP1 POP SWAP3 SWAP2 POP POP JUMP JUMPDEST PUSH1 0x0 PUSH1 0x20 DUP3 ADD SWAP1 POP PUSH2 0x15CC PUSH1 0x0 DUP4 ADD DUP5 PUSH2 0xE56 JUMP JUMPDEST SWAP3 SWAP2 POP POP JUMP INVALID LOG2 PUSH5 0x6970667358 0x22 SLT KECCAK256 SMOD DUP7 PC PUSH13 0x502403C119AC1D1A69D755FDE0 SLOAD PUSH4 0x90780D77 MSTORE8 0xDB PUSH15 0x41FCC94695BD64736F6C6343000812 STOP CALLER "
		},
		"gasEstimates": {
			"creation": {
				"codeDepositCost": "1128000",
				"executionCost": "infinite",
				"totalCost": "infinite"
			},
			"external": {
				"TrustLog()": "infinite",
				"checkBalance(address)": "2841",
				"deposit()": "infinite",
				"minDeposit()": "2474",
				"owner_history(uint256)": "infinite",
				"transferOwner(address,string)": "infinite",
				"withdraw(uint256)": "infinite"
			}
		},
		"methodIdentifiers": {
			"TrustLog()": "df6803d3",
			"checkBalance(address)": "5f515226",
			"deposit()": "d0e30db0",
			"minDeposit()": "41b3d185",
			"owner_history(uint256)": "745d4c18",
			"transferOwner(address,string)": "2a5bd7fb",
			"withdraw(uint256)": "2e1a7d4d"
		}
	},
	"abi": [
		{
			"inputs": [
				{
					"internalType": "address",
					"name": "_logger",
					"type": "address"
				}
			],
			"stateMutability": "payable",
			"type": "constructor"
		},
		{
			"inputs": [],
			"name": "TrustLog",
			"outputs": [
				{
					"internalType": "contract Logger",
					"name": "",
					"type": "address"
				}
			],
			"stateMutability": "view",
			"type": "function"
		},
		{
			"inputs": [
				{
					"internalType": "address",
					"name": "_addr",
					"type": "address"
				}
			],
			"name": "checkBalance",
			"outputs": [
				{
					"internalType": "uint256",
					"name": "",
					"type": "uint256"
				}
			],
			"stateMutability": "view",
			"type": "function"
		},
		{
			"inputs": [],
			"name": "deposit",
			"outputs": [
				{
					"internalType": "bool",
					"name": "",
					"type": "bool"
				}
			],
			"stateMutability": "payable",
			"type": "function"
		},
		{
			"inputs": [],
			"name": "minDeposit",
			"outputs": [
				{
					"internalType": "uint256",
					"name": "",
					"type": "uint256"
				}
			],
			"stateMutability": "view",
			"type": "function"
		},
		{
			"inputs": [
				{
					"internalType": "uint256",
					"name": "",
					"type": "uint256"
				}
			],
			"name": "owner_history",
			"outputs": [
				{
					"internalType": "address",
					"name": "new_owner",
					"type": "address"
				},
				{
					"internalType": "string",
					"name": "name",
					"type": "string"
				}
			],
			"stateMutability": "view",
			"type": "function"
		},
		{
			"inputs": [
				{
					"internalType": "address",
					"name": "_to",
					"type": "address"
				},
				{
					"internalType": "string",
					"name": "_name",
					"type": "string"
				}
			],
			"name": "transferOwner",
			"outputs": [],
			"stateMutability": "nonpayable",
			"type": "function"
		},
		{
			"inputs": [
				{
					"internalType": "uint256",
					"name": "_amount",
					"type": "uint256"
				}
			],
			"name": "withdraw",
			"outputs": [],
			"stateMutability": "nonpayable",
			"type": "function"
		}
	]
}